
WW-Steuerpultanzeige.elf:     file format elf32-littlearm

Sections:
Idx Name          Size      VMA       LMA       File off  Algn
  0 .isr_vector   00000188  08000000  08000000  00010000  2**0
                  CONTENTS, ALLOC, LOAD, READONLY, DATA
  1 .text         0000c948  08000190  08000190  00010190  2**4
                  CONTENTS, ALLOC, LOAD, READONLY, CODE
  2 .rodata       00000ba4  0800cad8  0800cad8  0001cad8  2**3
                  CONTENTS, ALLOC, LOAD, READONLY, DATA
  3 .ARM.extab    00000000  0800d67c  0800d67c  000205cc  2**0
                  CONTENTS
  4 .ARM          00000008  0800d67c  0800d67c  0001d67c  2**2
                  CONTENTS, ALLOC, LOAD, READONLY, DATA
  5 .preinit_array 00000000  0800d684  0800d684  000205cc  2**0
                  CONTENTS, ALLOC, LOAD, DATA
  6 .init_array   00000004  0800d684  0800d684  0001d684  2**2
                  CONTENTS, ALLOC, LOAD, DATA
  7 .fini_array   00000004  0800d688  0800d688  0001d688  2**2
                  CONTENTS, ALLOC, LOAD, DATA
  8 .data         000005cc  20000000  0800d68c  00020000  2**2
                  CONTENTS, ALLOC, LOAD, DATA
  9 .bss          00000360  200005cc  0800dc58  000205cc  2**2
                  ALLOC
 10 ._user_heap_stack 00000604  2000092c  0800dc58  0002092c  2**0
                  ALLOC
 11 .ARM.attributes 00000030  00000000  00000000  000205cc  2**0
                  CONTENTS, READONLY
 12 .debug_info   00017b7c  00000000  00000000  000205fc  2**0
                  CONTENTS, READONLY, DEBUGGING, OCTETS
 13 .debug_abbrev 0000364a  00000000  00000000  00038178  2**0
                  CONTENTS, READONLY, DEBUGGING, OCTETS
 14 .debug_aranges 00001200  00000000  00000000  0003b7c8  2**3
                  CONTENTS, READONLY, DEBUGGING, OCTETS
 15 .debug_ranges 00001078  00000000  00000000  0003c9c8  2**3
                  CONTENTS, READONLY, DEBUGGING, OCTETS
 16 .debug_macro  0002338c  00000000  00000000  0003da40  2**0
                  CONTENTS, READONLY, DEBUGGING, OCTETS
 17 .debug_line   0001613c  00000000  00000000  00060dcc  2**0
                  CONTENTS, READONLY, DEBUGGING, OCTETS
 18 .debug_str    000cf5f5  00000000  00000000  00076f08  2**0
                  CONTENTS, READONLY, DEBUGGING, OCTETS
 19 .comment      00000053  00000000  00000000  001464fd  2**0
                  CONTENTS, READONLY
 20 .debug_frame  00005bcc  00000000  00000000  00146550  2**2
                  CONTENTS, READONLY, DEBUGGING, OCTETS

Disassembly of section .text:

08000190 <__do_global_dtors_aux>:
 8000190:	b510      	push	{r4, lr}
 8000192:	4c05      	ldr	r4, [pc, #20]	; (80001a8 <__do_global_dtors_aux+0x18>)
 8000194:	7823      	ldrb	r3, [r4, #0]
 8000196:	b933      	cbnz	r3, 80001a6 <__do_global_dtors_aux+0x16>
 8000198:	4b04      	ldr	r3, [pc, #16]	; (80001ac <__do_global_dtors_aux+0x1c>)
 800019a:	b113      	cbz	r3, 80001a2 <__do_global_dtors_aux+0x12>
 800019c:	4804      	ldr	r0, [pc, #16]	; (80001b0 <__do_global_dtors_aux+0x20>)
 800019e:	f3af 8000 	nop.w
 80001a2:	2301      	movs	r3, #1
 80001a4:	7023      	strb	r3, [r4, #0]
 80001a6:	bd10      	pop	{r4, pc}
 80001a8:	200005cc 	.word	0x200005cc
 80001ac:	00000000 	.word	0x00000000
 80001b0:	0800cac0 	.word	0x0800cac0

080001b4 <frame_dummy>:
 80001b4:	b508      	push	{r3, lr}
 80001b6:	4b03      	ldr	r3, [pc, #12]	; (80001c4 <frame_dummy+0x10>)
 80001b8:	b11b      	cbz	r3, 80001c2 <frame_dummy+0xe>
 80001ba:	4903      	ldr	r1, [pc, #12]	; (80001c8 <frame_dummy+0x14>)
 80001bc:	4803      	ldr	r0, [pc, #12]	; (80001cc <frame_dummy+0x18>)
 80001be:	f3af 8000 	nop.w
 80001c2:	bd08      	pop	{r3, pc}
 80001c4:	00000000 	.word	0x00000000
 80001c8:	200005d0 	.word	0x200005d0
 80001cc:	0800cac0 	.word	0x0800cac0

080001d0 <strlen>:
 80001d0:	4603      	mov	r3, r0
 80001d2:	f813 2b01 	ldrb.w	r2, [r3], #1
 80001d6:	2a00      	cmp	r2, #0
 80001d8:	d1fb      	bne.n	80001d2 <strlen+0x2>
 80001da:	1a18      	subs	r0, r3, r0
 80001dc:	3801      	subs	r0, #1
 80001de:	4770      	bx	lr

080001e0 <memchr>:
 80001e0:	f001 01ff 	and.w	r1, r1, #255	; 0xff
 80001e4:	2a10      	cmp	r2, #16
 80001e6:	db2b      	blt.n	8000240 <memchr+0x60>
 80001e8:	f010 0f07 	tst.w	r0, #7
 80001ec:	d008      	beq.n	8000200 <memchr+0x20>
 80001ee:	f810 3b01 	ldrb.w	r3, [r0], #1
 80001f2:	3a01      	subs	r2, #1
 80001f4:	428b      	cmp	r3, r1
 80001f6:	d02d      	beq.n	8000254 <memchr+0x74>
 80001f8:	f010 0f07 	tst.w	r0, #7
 80001fc:	b342      	cbz	r2, 8000250 <memchr+0x70>
 80001fe:	d1f6      	bne.n	80001ee <memchr+0xe>
 8000200:	b4f0      	push	{r4, r5, r6, r7}
 8000202:	ea41 2101 	orr.w	r1, r1, r1, lsl #8
 8000206:	ea41 4101 	orr.w	r1, r1, r1, lsl #16
 800020a:	f022 0407 	bic.w	r4, r2, #7
 800020e:	f07f 0700 	mvns.w	r7, #0
 8000212:	2300      	movs	r3, #0
 8000214:	e8f0 5602 	ldrd	r5, r6, [r0], #8
 8000218:	3c08      	subs	r4, #8
 800021a:	ea85 0501 	eor.w	r5, r5, r1
 800021e:	ea86 0601 	eor.w	r6, r6, r1
 8000222:	fa85 f547 	uadd8	r5, r5, r7
 8000226:	faa3 f587 	sel	r5, r3, r7
 800022a:	fa86 f647 	uadd8	r6, r6, r7
 800022e:	faa5 f687 	sel	r6, r5, r7
 8000232:	b98e      	cbnz	r6, 8000258 <memchr+0x78>
 8000234:	d1ee      	bne.n	8000214 <memchr+0x34>
 8000236:	bcf0      	pop	{r4, r5, r6, r7}
 8000238:	f001 01ff 	and.w	r1, r1, #255	; 0xff
 800023c:	f002 0207 	and.w	r2, r2, #7
 8000240:	b132      	cbz	r2, 8000250 <memchr+0x70>
 8000242:	f810 3b01 	ldrb.w	r3, [r0], #1
 8000246:	3a01      	subs	r2, #1
 8000248:	ea83 0301 	eor.w	r3, r3, r1
 800024c:	b113      	cbz	r3, 8000254 <memchr+0x74>
 800024e:	d1f8      	bne.n	8000242 <memchr+0x62>
 8000250:	2000      	movs	r0, #0
 8000252:	4770      	bx	lr
 8000254:	3801      	subs	r0, #1
 8000256:	4770      	bx	lr
 8000258:	2d00      	cmp	r5, #0
 800025a:	bf06      	itte	eq
 800025c:	4635      	moveq	r5, r6
 800025e:	3803      	subeq	r0, #3
 8000260:	3807      	subne	r0, #7
 8000262:	f015 0f01 	tst.w	r5, #1
 8000266:	d107      	bne.n	8000278 <memchr+0x98>
 8000268:	3001      	adds	r0, #1
 800026a:	f415 7f80 	tst.w	r5, #256	; 0x100
 800026e:	bf02      	ittt	eq
 8000270:	3001      	addeq	r0, #1
 8000272:	f415 3fc0 	tsteq.w	r5, #98304	; 0x18000
 8000276:	3001      	addeq	r0, #1
 8000278:	bcf0      	pop	{r4, r5, r6, r7}
 800027a:	3801      	subs	r0, #1
 800027c:	4770      	bx	lr
 800027e:	bf00      	nop

08000280 <__aeabi_drsub>:
 8000280:	f081 4100 	eor.w	r1, r1, #2147483648	; 0x80000000
 8000284:	e002      	b.n	800028c <__adddf3>
 8000286:	bf00      	nop

08000288 <__aeabi_dsub>:
 8000288:	f083 4300 	eor.w	r3, r3, #2147483648	; 0x80000000

0800028c <__adddf3>:
 800028c:	b530      	push	{r4, r5, lr}
 800028e:	ea4f 0441 	mov.w	r4, r1, lsl #1
 8000292:	ea4f 0543 	mov.w	r5, r3, lsl #1
 8000296:	ea94 0f05 	teq	r4, r5
 800029a:	bf08      	it	eq
 800029c:	ea90 0f02 	teqeq	r0, r2
 80002a0:	bf1f      	itttt	ne
 80002a2:	ea54 0c00 	orrsne.w	ip, r4, r0
 80002a6:	ea55 0c02 	orrsne.w	ip, r5, r2
 80002aa:	ea7f 5c64 	mvnsne.w	ip, r4, asr #21
 80002ae:	ea7f 5c65 	mvnsne.w	ip, r5, asr #21
 80002b2:	f000 80e2 	beq.w	800047a <__adddf3+0x1ee>
 80002b6:	ea4f 5454 	mov.w	r4, r4, lsr #21
 80002ba:	ebd4 5555 	rsbs	r5, r4, r5, lsr #21
 80002be:	bfb8      	it	lt
 80002c0:	426d      	neglt	r5, r5
 80002c2:	dd0c      	ble.n	80002de <__adddf3+0x52>
 80002c4:	442c      	add	r4, r5
 80002c6:	ea80 0202 	eor.w	r2, r0, r2
 80002ca:	ea81 0303 	eor.w	r3, r1, r3
 80002ce:	ea82 0000 	eor.w	r0, r2, r0
 80002d2:	ea83 0101 	eor.w	r1, r3, r1
 80002d6:	ea80 0202 	eor.w	r2, r0, r2
 80002da:	ea81 0303 	eor.w	r3, r1, r3
 80002de:	2d36      	cmp	r5, #54	; 0x36
 80002e0:	bf88      	it	hi
 80002e2:	bd30      	pophi	{r4, r5, pc}
 80002e4:	f011 4f00 	tst.w	r1, #2147483648	; 0x80000000
 80002e8:	ea4f 3101 	mov.w	r1, r1, lsl #12
 80002ec:	f44f 1c80 	mov.w	ip, #1048576	; 0x100000
 80002f0:	ea4c 3111 	orr.w	r1, ip, r1, lsr #12
 80002f4:	d002      	beq.n	80002fc <__adddf3+0x70>
 80002f6:	4240      	negs	r0, r0
 80002f8:	eb61 0141 	sbc.w	r1, r1, r1, lsl #1
 80002fc:	f013 4f00 	tst.w	r3, #2147483648	; 0x80000000
 8000300:	ea4f 3303 	mov.w	r3, r3, lsl #12
 8000304:	ea4c 3313 	orr.w	r3, ip, r3, lsr #12
 8000308:	d002      	beq.n	8000310 <__adddf3+0x84>
 800030a:	4252      	negs	r2, r2
 800030c:	eb63 0343 	sbc.w	r3, r3, r3, lsl #1
 8000310:	ea94 0f05 	teq	r4, r5
 8000314:	f000 80a7 	beq.w	8000466 <__adddf3+0x1da>
 8000318:	f1a4 0401 	sub.w	r4, r4, #1
 800031c:	f1d5 0e20 	rsbs	lr, r5, #32
 8000320:	db0d      	blt.n	800033e <__adddf3+0xb2>
 8000322:	fa02 fc0e 	lsl.w	ip, r2, lr
 8000326:	fa22 f205 	lsr.w	r2, r2, r5
 800032a:	1880      	adds	r0, r0, r2
 800032c:	f141 0100 	adc.w	r1, r1, #0
 8000330:	fa03 f20e 	lsl.w	r2, r3, lr
 8000334:	1880      	adds	r0, r0, r2
 8000336:	fa43 f305 	asr.w	r3, r3, r5
 800033a:	4159      	adcs	r1, r3
 800033c:	e00e      	b.n	800035c <__adddf3+0xd0>
 800033e:	f1a5 0520 	sub.w	r5, r5, #32
 8000342:	f10e 0e20 	add.w	lr, lr, #32
 8000346:	2a01      	cmp	r2, #1
 8000348:	fa03 fc0e 	lsl.w	ip, r3, lr
 800034c:	bf28      	it	cs
 800034e:	f04c 0c02 	orrcs.w	ip, ip, #2
 8000352:	fa43 f305 	asr.w	r3, r3, r5
 8000356:	18c0      	adds	r0, r0, r3
 8000358:	eb51 71e3 	adcs.w	r1, r1, r3, asr #31
 800035c:	f001 4500 	and.w	r5, r1, #2147483648	; 0x80000000
 8000360:	d507      	bpl.n	8000372 <__adddf3+0xe6>
 8000362:	f04f 0e00 	mov.w	lr, #0
 8000366:	f1dc 0c00 	rsbs	ip, ip, #0
 800036a:	eb7e 0000 	sbcs.w	r0, lr, r0
 800036e:	eb6e 0101 	sbc.w	r1, lr, r1
 8000372:	f5b1 1f80 	cmp.w	r1, #1048576	; 0x100000
 8000376:	d31b      	bcc.n	80003b0 <__adddf3+0x124>
 8000378:	f5b1 1f00 	cmp.w	r1, #2097152	; 0x200000
 800037c:	d30c      	bcc.n	8000398 <__adddf3+0x10c>
 800037e:	0849      	lsrs	r1, r1, #1
 8000380:	ea5f 0030 	movs.w	r0, r0, rrx
 8000384:	ea4f 0c3c 	mov.w	ip, ip, rrx
 8000388:	f104 0401 	add.w	r4, r4, #1
 800038c:	ea4f 5244 	mov.w	r2, r4, lsl #21
 8000390:	f512 0f80 	cmn.w	r2, #4194304	; 0x400000
 8000394:	f080 809a 	bcs.w	80004cc <__adddf3+0x240>
 8000398:	f1bc 4f00 	cmp.w	ip, #2147483648	; 0x80000000
 800039c:	bf08      	it	eq
 800039e:	ea5f 0c50 	movseq.w	ip, r0, lsr #1
 80003a2:	f150 0000 	adcs.w	r0, r0, #0
 80003a6:	eb41 5104 	adc.w	r1, r1, r4, lsl #20
 80003aa:	ea41 0105 	orr.w	r1, r1, r5
 80003ae:	bd30      	pop	{r4, r5, pc}
 80003b0:	ea5f 0c4c 	movs.w	ip, ip, lsl #1
 80003b4:	4140      	adcs	r0, r0
 80003b6:	eb41 0101 	adc.w	r1, r1, r1
 80003ba:	3c01      	subs	r4, #1
 80003bc:	bf28      	it	cs
 80003be:	f5b1 1f80 	cmpcs.w	r1, #1048576	; 0x100000
 80003c2:	d2e9      	bcs.n	8000398 <__adddf3+0x10c>
 80003c4:	f091 0f00 	teq	r1, #0
 80003c8:	bf04      	itt	eq
 80003ca:	4601      	moveq	r1, r0
 80003cc:	2000      	moveq	r0, #0
 80003ce:	fab1 f381 	clz	r3, r1
 80003d2:	bf08      	it	eq
 80003d4:	3320      	addeq	r3, #32
 80003d6:	f1a3 030b 	sub.w	r3, r3, #11
 80003da:	f1b3 0220 	subs.w	r2, r3, #32
 80003de:	da0c      	bge.n	80003fa <__adddf3+0x16e>
 80003e0:	320c      	adds	r2, #12
 80003e2:	dd08      	ble.n	80003f6 <__adddf3+0x16a>
 80003e4:	f102 0c14 	add.w	ip, r2, #20
 80003e8:	f1c2 020c 	rsb	r2, r2, #12
 80003ec:	fa01 f00c 	lsl.w	r0, r1, ip
 80003f0:	fa21 f102 	lsr.w	r1, r1, r2
 80003f4:	e00c      	b.n	8000410 <__adddf3+0x184>
 80003f6:	f102 0214 	add.w	r2, r2, #20
 80003fa:	bfd8      	it	le
 80003fc:	f1c2 0c20 	rsble	ip, r2, #32
 8000400:	fa01 f102 	lsl.w	r1, r1, r2
 8000404:	fa20 fc0c 	lsr.w	ip, r0, ip
 8000408:	bfdc      	itt	le
 800040a:	ea41 010c 	orrle.w	r1, r1, ip
 800040e:	4090      	lslle	r0, r2
 8000410:	1ae4      	subs	r4, r4, r3
 8000412:	bfa2      	ittt	ge
 8000414:	eb01 5104 	addge.w	r1, r1, r4, lsl #20
 8000418:	4329      	orrge	r1, r5
 800041a:	bd30      	popge	{r4, r5, pc}
 800041c:	ea6f 0404 	mvn.w	r4, r4
 8000420:	3c1f      	subs	r4, #31
 8000422:	da1c      	bge.n	800045e <__adddf3+0x1d2>
 8000424:	340c      	adds	r4, #12
 8000426:	dc0e      	bgt.n	8000446 <__adddf3+0x1ba>
 8000428:	f104 0414 	add.w	r4, r4, #20
 800042c:	f1c4 0220 	rsb	r2, r4, #32
 8000430:	fa20 f004 	lsr.w	r0, r0, r4
 8000434:	fa01 f302 	lsl.w	r3, r1, r2
 8000438:	ea40 0003 	orr.w	r0, r0, r3
 800043c:	fa21 f304 	lsr.w	r3, r1, r4
 8000440:	ea45 0103 	orr.w	r1, r5, r3
 8000444:	bd30      	pop	{r4, r5, pc}
 8000446:	f1c4 040c 	rsb	r4, r4, #12
 800044a:	f1c4 0220 	rsb	r2, r4, #32
 800044e:	fa20 f002 	lsr.w	r0, r0, r2
 8000452:	fa01 f304 	lsl.w	r3, r1, r4
 8000456:	ea40 0003 	orr.w	r0, r0, r3
 800045a:	4629      	mov	r1, r5
 800045c:	bd30      	pop	{r4, r5, pc}
 800045e:	fa21 f004 	lsr.w	r0, r1, r4
 8000462:	4629      	mov	r1, r5
 8000464:	bd30      	pop	{r4, r5, pc}
 8000466:	f094 0f00 	teq	r4, #0
 800046a:	f483 1380 	eor.w	r3, r3, #1048576	; 0x100000
 800046e:	bf06      	itte	eq
 8000470:	f481 1180 	eoreq.w	r1, r1, #1048576	; 0x100000
 8000474:	3401      	addeq	r4, #1
 8000476:	3d01      	subne	r5, #1
 8000478:	e74e      	b.n	8000318 <__adddf3+0x8c>
 800047a:	ea7f 5c64 	mvns.w	ip, r4, asr #21
 800047e:	bf18      	it	ne
 8000480:	ea7f 5c65 	mvnsne.w	ip, r5, asr #21
 8000484:	d029      	beq.n	80004da <__adddf3+0x24e>
 8000486:	ea94 0f05 	teq	r4, r5
 800048a:	bf08      	it	eq
 800048c:	ea90 0f02 	teqeq	r0, r2
 8000490:	d005      	beq.n	800049e <__adddf3+0x212>
 8000492:	ea54 0c00 	orrs.w	ip, r4, r0
 8000496:	bf04      	itt	eq
 8000498:	4619      	moveq	r1, r3
 800049a:	4610      	moveq	r0, r2
 800049c:	bd30      	pop	{r4, r5, pc}
 800049e:	ea91 0f03 	teq	r1, r3
 80004a2:	bf1e      	ittt	ne
 80004a4:	2100      	movne	r1, #0
 80004a6:	2000      	movne	r0, #0
 80004a8:	bd30      	popne	{r4, r5, pc}
 80004aa:	ea5f 5c54 	movs.w	ip, r4, lsr #21
 80004ae:	d105      	bne.n	80004bc <__adddf3+0x230>
 80004b0:	0040      	lsls	r0, r0, #1
 80004b2:	4149      	adcs	r1, r1
 80004b4:	bf28      	it	cs
 80004b6:	f041 4100 	orrcs.w	r1, r1, #2147483648	; 0x80000000
 80004ba:	bd30      	pop	{r4, r5, pc}
 80004bc:	f514 0480 	adds.w	r4, r4, #4194304	; 0x400000
 80004c0:	bf3c      	itt	cc
 80004c2:	f501 1180 	addcc.w	r1, r1, #1048576	; 0x100000
 80004c6:	bd30      	popcc	{r4, r5, pc}
 80004c8:	f001 4500 	and.w	r5, r1, #2147483648	; 0x80000000
 80004cc:	f045 41fe 	orr.w	r1, r5, #2130706432	; 0x7f000000
 80004d0:	f441 0170 	orr.w	r1, r1, #15728640	; 0xf00000
 80004d4:	f04f 0000 	mov.w	r0, #0
 80004d8:	bd30      	pop	{r4, r5, pc}
 80004da:	ea7f 5c64 	mvns.w	ip, r4, asr #21
 80004de:	bf1a      	itte	ne
 80004e0:	4619      	movne	r1, r3
 80004e2:	4610      	movne	r0, r2
 80004e4:	ea7f 5c65 	mvnseq.w	ip, r5, asr #21
 80004e8:	bf1c      	itt	ne
 80004ea:	460b      	movne	r3, r1
 80004ec:	4602      	movne	r2, r0
 80004ee:	ea50 3401 	orrs.w	r4, r0, r1, lsl #12
 80004f2:	bf06      	itte	eq
 80004f4:	ea52 3503 	orrseq.w	r5, r2, r3, lsl #12
 80004f8:	ea91 0f03 	teqeq	r1, r3
 80004fc:	f441 2100 	orrne.w	r1, r1, #524288	; 0x80000
 8000500:	bd30      	pop	{r4, r5, pc}
 8000502:	bf00      	nop

08000504 <__aeabi_ui2d>:
 8000504:	f090 0f00 	teq	r0, #0
 8000508:	bf04      	itt	eq
 800050a:	2100      	moveq	r1, #0
 800050c:	4770      	bxeq	lr
 800050e:	b530      	push	{r4, r5, lr}
 8000510:	f44f 6480 	mov.w	r4, #1024	; 0x400
 8000514:	f104 0432 	add.w	r4, r4, #50	; 0x32
 8000518:	f04f 0500 	mov.w	r5, #0
 800051c:	f04f 0100 	mov.w	r1, #0
 8000520:	e750      	b.n	80003c4 <__adddf3+0x138>
 8000522:	bf00      	nop

08000524 <__aeabi_i2d>:
 8000524:	f090 0f00 	teq	r0, #0
 8000528:	bf04      	itt	eq
 800052a:	2100      	moveq	r1, #0
 800052c:	4770      	bxeq	lr
 800052e:	b530      	push	{r4, r5, lr}
 8000530:	f44f 6480 	mov.w	r4, #1024	; 0x400
 8000534:	f104 0432 	add.w	r4, r4, #50	; 0x32
 8000538:	f010 4500 	ands.w	r5, r0, #2147483648	; 0x80000000
 800053c:	bf48      	it	mi
 800053e:	4240      	negmi	r0, r0
 8000540:	f04f 0100 	mov.w	r1, #0
 8000544:	e73e      	b.n	80003c4 <__adddf3+0x138>
 8000546:	bf00      	nop

08000548 <__aeabi_f2d>:
 8000548:	0042      	lsls	r2, r0, #1
 800054a:	ea4f 01e2 	mov.w	r1, r2, asr #3
 800054e:	ea4f 0131 	mov.w	r1, r1, rrx
 8000552:	ea4f 7002 	mov.w	r0, r2, lsl #28
 8000556:	bf1f      	itttt	ne
 8000558:	f012 437f 	andsne.w	r3, r2, #4278190080	; 0xff000000
 800055c:	f093 4f7f 	teqne	r3, #4278190080	; 0xff000000
 8000560:	f081 5160 	eorne.w	r1, r1, #939524096	; 0x38000000
 8000564:	4770      	bxne	lr
 8000566:	f032 427f 	bics.w	r2, r2, #4278190080	; 0xff000000
 800056a:	bf08      	it	eq
 800056c:	4770      	bxeq	lr
 800056e:	f093 4f7f 	teq	r3, #4278190080	; 0xff000000
 8000572:	bf04      	itt	eq
 8000574:	f441 2100 	orreq.w	r1, r1, #524288	; 0x80000
 8000578:	4770      	bxeq	lr
 800057a:	b530      	push	{r4, r5, lr}
 800057c:	f44f 7460 	mov.w	r4, #896	; 0x380
 8000580:	f001 4500 	and.w	r5, r1, #2147483648	; 0x80000000
 8000584:	f021 4100 	bic.w	r1, r1, #2147483648	; 0x80000000
 8000588:	e71c      	b.n	80003c4 <__adddf3+0x138>
 800058a:	bf00      	nop

0800058c <__aeabi_ul2d>:
 800058c:	ea50 0201 	orrs.w	r2, r0, r1
 8000590:	bf08      	it	eq
 8000592:	4770      	bxeq	lr
 8000594:	b530      	push	{r4, r5, lr}
 8000596:	f04f 0500 	mov.w	r5, #0
 800059a:	e00a      	b.n	80005b2 <__aeabi_l2d+0x16>

0800059c <__aeabi_l2d>:
 800059c:	ea50 0201 	orrs.w	r2, r0, r1
 80005a0:	bf08      	it	eq
 80005a2:	4770      	bxeq	lr
 80005a4:	b530      	push	{r4, r5, lr}
 80005a6:	f011 4500 	ands.w	r5, r1, #2147483648	; 0x80000000
 80005aa:	d502      	bpl.n	80005b2 <__aeabi_l2d+0x16>
 80005ac:	4240      	negs	r0, r0
 80005ae:	eb61 0141 	sbc.w	r1, r1, r1, lsl #1
 80005b2:	f44f 6480 	mov.w	r4, #1024	; 0x400
 80005b6:	f104 0432 	add.w	r4, r4, #50	; 0x32
 80005ba:	ea5f 5c91 	movs.w	ip, r1, lsr #22
 80005be:	f43f aed8 	beq.w	8000372 <__adddf3+0xe6>
 80005c2:	f04f 0203 	mov.w	r2, #3
 80005c6:	ea5f 0cdc 	movs.w	ip, ip, lsr #3
 80005ca:	bf18      	it	ne
 80005cc:	3203      	addne	r2, #3
 80005ce:	ea5f 0cdc 	movs.w	ip, ip, lsr #3
 80005d2:	bf18      	it	ne
 80005d4:	3203      	addne	r2, #3
 80005d6:	eb02 02dc 	add.w	r2, r2, ip, lsr #3
 80005da:	f1c2 0320 	rsb	r3, r2, #32
 80005de:	fa00 fc03 	lsl.w	ip, r0, r3
 80005e2:	fa20 f002 	lsr.w	r0, r0, r2
 80005e6:	fa01 fe03 	lsl.w	lr, r1, r3
 80005ea:	ea40 000e 	orr.w	r0, r0, lr
 80005ee:	fa21 f102 	lsr.w	r1, r1, r2
 80005f2:	4414      	add	r4, r2
 80005f4:	e6bd      	b.n	8000372 <__adddf3+0xe6>
 80005f6:	bf00      	nop

080005f8 <__aeabi_dmul>:
 80005f8:	b570      	push	{r4, r5, r6, lr}
 80005fa:	f04f 0cff 	mov.w	ip, #255	; 0xff
 80005fe:	f44c 6ce0 	orr.w	ip, ip, #1792	; 0x700
 8000602:	ea1c 5411 	ands.w	r4, ip, r1, lsr #20
 8000606:	bf1d      	ittte	ne
 8000608:	ea1c 5513 	andsne.w	r5, ip, r3, lsr #20
 800060c:	ea94 0f0c 	teqne	r4, ip
 8000610:	ea95 0f0c 	teqne	r5, ip
 8000614:	f000 f8de 	bleq	80007d4 <__aeabi_dmul+0x1dc>
 8000618:	442c      	add	r4, r5
 800061a:	ea81 0603 	eor.w	r6, r1, r3
 800061e:	ea21 514c 	bic.w	r1, r1, ip, lsl #21
 8000622:	ea23 534c 	bic.w	r3, r3, ip, lsl #21
 8000626:	ea50 3501 	orrs.w	r5, r0, r1, lsl #12
 800062a:	bf18      	it	ne
 800062c:	ea52 3503 	orrsne.w	r5, r2, r3, lsl #12
 8000630:	f441 1180 	orr.w	r1, r1, #1048576	; 0x100000
 8000634:	f443 1380 	orr.w	r3, r3, #1048576	; 0x100000
 8000638:	d038      	beq.n	80006ac <__aeabi_dmul+0xb4>
 800063a:	fba0 ce02 	umull	ip, lr, r0, r2
 800063e:	f04f 0500 	mov.w	r5, #0
 8000642:	fbe1 e502 	umlal	lr, r5, r1, r2
 8000646:	f006 4200 	and.w	r2, r6, #2147483648	; 0x80000000
 800064a:	fbe0 e503 	umlal	lr, r5, r0, r3
 800064e:	f04f 0600 	mov.w	r6, #0
 8000652:	fbe1 5603 	umlal	r5, r6, r1, r3
 8000656:	f09c 0f00 	teq	ip, #0
 800065a:	bf18      	it	ne
 800065c:	f04e 0e01 	orrne.w	lr, lr, #1
 8000660:	f1a4 04ff 	sub.w	r4, r4, #255	; 0xff
 8000664:	f5b6 7f00 	cmp.w	r6, #512	; 0x200
 8000668:	f564 7440 	sbc.w	r4, r4, #768	; 0x300
 800066c:	d204      	bcs.n	8000678 <__aeabi_dmul+0x80>
 800066e:	ea5f 0e4e 	movs.w	lr, lr, lsl #1
 8000672:	416d      	adcs	r5, r5
 8000674:	eb46 0606 	adc.w	r6, r6, r6
 8000678:	ea42 21c6 	orr.w	r1, r2, r6, lsl #11
 800067c:	ea41 5155 	orr.w	r1, r1, r5, lsr #21
 8000680:	ea4f 20c5 	mov.w	r0, r5, lsl #11
 8000684:	ea40 505e 	orr.w	r0, r0, lr, lsr #21
 8000688:	ea4f 2ece 	mov.w	lr, lr, lsl #11
 800068c:	f1b4 0cfd 	subs.w	ip, r4, #253	; 0xfd
 8000690:	bf88      	it	hi
 8000692:	f5bc 6fe0 	cmphi.w	ip, #1792	; 0x700
 8000696:	d81e      	bhi.n	80006d6 <__aeabi_dmul+0xde>
 8000698:	f1be 4f00 	cmp.w	lr, #2147483648	; 0x80000000
 800069c:	bf08      	it	eq
 800069e:	ea5f 0e50 	movseq.w	lr, r0, lsr #1
 80006a2:	f150 0000 	adcs.w	r0, r0, #0
 80006a6:	eb41 5104 	adc.w	r1, r1, r4, lsl #20
 80006aa:	bd70      	pop	{r4, r5, r6, pc}
 80006ac:	f006 4600 	and.w	r6, r6, #2147483648	; 0x80000000
 80006b0:	ea46 0101 	orr.w	r1, r6, r1
 80006b4:	ea40 0002 	orr.w	r0, r0, r2
 80006b8:	ea81 0103 	eor.w	r1, r1, r3
 80006bc:	ebb4 045c 	subs.w	r4, r4, ip, lsr #1
 80006c0:	bfc2      	ittt	gt
 80006c2:	ebd4 050c 	rsbsgt	r5, r4, ip
 80006c6:	ea41 5104 	orrgt.w	r1, r1, r4, lsl #20
 80006ca:	bd70      	popgt	{r4, r5, r6, pc}
 80006cc:	f441 1180 	orr.w	r1, r1, #1048576	; 0x100000
 80006d0:	f04f 0e00 	mov.w	lr, #0
 80006d4:	3c01      	subs	r4, #1
 80006d6:	f300 80ab 	bgt.w	8000830 <__aeabi_dmul+0x238>
 80006da:	f114 0f36 	cmn.w	r4, #54	; 0x36
 80006de:	bfde      	ittt	le
 80006e0:	2000      	movle	r0, #0
 80006e2:	f001 4100 	andle.w	r1, r1, #2147483648	; 0x80000000
 80006e6:	bd70      	pople	{r4, r5, r6, pc}
 80006e8:	f1c4 0400 	rsb	r4, r4, #0
 80006ec:	3c20      	subs	r4, #32
 80006ee:	da35      	bge.n	800075c <__aeabi_dmul+0x164>
 80006f0:	340c      	adds	r4, #12
 80006f2:	dc1b      	bgt.n	800072c <__aeabi_dmul+0x134>
 80006f4:	f104 0414 	add.w	r4, r4, #20
 80006f8:	f1c4 0520 	rsb	r5, r4, #32
 80006fc:	fa00 f305 	lsl.w	r3, r0, r5
 8000700:	fa20 f004 	lsr.w	r0, r0, r4
 8000704:	fa01 f205 	lsl.w	r2, r1, r5
 8000708:	ea40 0002 	orr.w	r0, r0, r2
 800070c:	f001 4200 	and.w	r2, r1, #2147483648	; 0x80000000
 8000710:	f021 4100 	bic.w	r1, r1, #2147483648	; 0x80000000
 8000714:	eb10 70d3 	adds.w	r0, r0, r3, lsr #31
 8000718:	fa21 f604 	lsr.w	r6, r1, r4
 800071c:	eb42 0106 	adc.w	r1, r2, r6
 8000720:	ea5e 0e43 	orrs.w	lr, lr, r3, lsl #1
 8000724:	bf08      	it	eq
 8000726:	ea20 70d3 	biceq.w	r0, r0, r3, lsr #31
 800072a:	bd70      	pop	{r4, r5, r6, pc}
 800072c:	f1c4 040c 	rsb	r4, r4, #12
 8000730:	f1c4 0520 	rsb	r5, r4, #32
 8000734:	fa00 f304 	lsl.w	r3, r0, r4
 8000738:	fa20 f005 	lsr.w	r0, r0, r5
 800073c:	fa01 f204 	lsl.w	r2, r1, r4
 8000740:	ea40 0002 	orr.w	r0, r0, r2
 8000744:	f001 4100 	and.w	r1, r1, #2147483648	; 0x80000000
 8000748:	eb10 70d3 	adds.w	r0, r0, r3, lsr #31
 800074c:	f141 0100 	adc.w	r1, r1, #0
 8000750:	ea5e 0e43 	orrs.w	lr, lr, r3, lsl #1
 8000754:	bf08      	it	eq
 8000756:	ea20 70d3 	biceq.w	r0, r0, r3, lsr #31
 800075a:	bd70      	pop	{r4, r5, r6, pc}
 800075c:	f1c4 0520 	rsb	r5, r4, #32
 8000760:	fa00 f205 	lsl.w	r2, r0, r5
 8000764:	ea4e 0e02 	orr.w	lr, lr, r2
 8000768:	fa20 f304 	lsr.w	r3, r0, r4
 800076c:	fa01 f205 	lsl.w	r2, r1, r5
 8000770:	ea43 0302 	orr.w	r3, r3, r2
 8000774:	fa21 f004 	lsr.w	r0, r1, r4
 8000778:	f001 4100 	and.w	r1, r1, #2147483648	; 0x80000000
 800077c:	fa21 f204 	lsr.w	r2, r1, r4
 8000780:	ea20 0002 	bic.w	r0, r0, r2
 8000784:	eb00 70d3 	add.w	r0, r0, r3, lsr #31
 8000788:	ea5e 0e43 	orrs.w	lr, lr, r3, lsl #1
 800078c:	bf08      	it	eq
 800078e:	ea20 70d3 	biceq.w	r0, r0, r3, lsr #31
 8000792:	bd70      	pop	{r4, r5, r6, pc}
 8000794:	f094 0f00 	teq	r4, #0
 8000798:	d10f      	bne.n	80007ba <__aeabi_dmul+0x1c2>
 800079a:	f001 4600 	and.w	r6, r1, #2147483648	; 0x80000000
 800079e:	0040      	lsls	r0, r0, #1
 80007a0:	eb41 0101 	adc.w	r1, r1, r1
 80007a4:	f411 1f80 	tst.w	r1, #1048576	; 0x100000
 80007a8:	bf08      	it	eq
 80007aa:	3c01      	subeq	r4, #1
 80007ac:	d0f7      	beq.n	800079e <__aeabi_dmul+0x1a6>
 80007ae:	ea41 0106 	orr.w	r1, r1, r6
 80007b2:	f095 0f00 	teq	r5, #0
 80007b6:	bf18      	it	ne
 80007b8:	4770      	bxne	lr
 80007ba:	f003 4600 	and.w	r6, r3, #2147483648	; 0x80000000
 80007be:	0052      	lsls	r2, r2, #1
 80007c0:	eb43 0303 	adc.w	r3, r3, r3
 80007c4:	f413 1f80 	tst.w	r3, #1048576	; 0x100000
 80007c8:	bf08      	it	eq
 80007ca:	3d01      	subeq	r5, #1
 80007cc:	d0f7      	beq.n	80007be <__aeabi_dmul+0x1c6>
 80007ce:	ea43 0306 	orr.w	r3, r3, r6
 80007d2:	4770      	bx	lr
 80007d4:	ea94 0f0c 	teq	r4, ip
 80007d8:	ea0c 5513 	and.w	r5, ip, r3, lsr #20
 80007dc:	bf18      	it	ne
 80007de:	ea95 0f0c 	teqne	r5, ip
 80007e2:	d00c      	beq.n	80007fe <__aeabi_dmul+0x206>
 80007e4:	ea50 0641 	orrs.w	r6, r0, r1, lsl #1
 80007e8:	bf18      	it	ne
 80007ea:	ea52 0643 	orrsne.w	r6, r2, r3, lsl #1
 80007ee:	d1d1      	bne.n	8000794 <__aeabi_dmul+0x19c>
 80007f0:	ea81 0103 	eor.w	r1, r1, r3
 80007f4:	f001 4100 	and.w	r1, r1, #2147483648	; 0x80000000
 80007f8:	f04f 0000 	mov.w	r0, #0
 80007fc:	bd70      	pop	{r4, r5, r6, pc}
 80007fe:	ea50 0641 	orrs.w	r6, r0, r1, lsl #1
 8000802:	bf06      	itte	eq
 8000804:	4610      	moveq	r0, r2
 8000806:	4619      	moveq	r1, r3
 8000808:	ea52 0643 	orrsne.w	r6, r2, r3, lsl #1
 800080c:	d019      	beq.n	8000842 <__aeabi_dmul+0x24a>
 800080e:	ea94 0f0c 	teq	r4, ip
 8000812:	d102      	bne.n	800081a <__aeabi_dmul+0x222>
 8000814:	ea50 3601 	orrs.w	r6, r0, r1, lsl #12
 8000818:	d113      	bne.n	8000842 <__aeabi_dmul+0x24a>
 800081a:	ea95 0f0c 	teq	r5, ip
 800081e:	d105      	bne.n	800082c <__aeabi_dmul+0x234>
 8000820:	ea52 3603 	orrs.w	r6, r2, r3, lsl #12
 8000824:	bf1c      	itt	ne
 8000826:	4610      	movne	r0, r2
 8000828:	4619      	movne	r1, r3
 800082a:	d10a      	bne.n	8000842 <__aeabi_dmul+0x24a>
 800082c:	ea81 0103 	eor.w	r1, r1, r3
 8000830:	f001 4100 	and.w	r1, r1, #2147483648	; 0x80000000
 8000834:	f041 41fe 	orr.w	r1, r1, #2130706432	; 0x7f000000
 8000838:	f441 0170 	orr.w	r1, r1, #15728640	; 0xf00000
 800083c:	f04f 0000 	mov.w	r0, #0
 8000840:	bd70      	pop	{r4, r5, r6, pc}
 8000842:	f041 41fe 	orr.w	r1, r1, #2130706432	; 0x7f000000
 8000846:	f441 0178 	orr.w	r1, r1, #16252928	; 0xf80000
 800084a:	bd70      	pop	{r4, r5, r6, pc}

0800084c <__aeabi_ddiv>:
 800084c:	b570      	push	{r4, r5, r6, lr}
 800084e:	f04f 0cff 	mov.w	ip, #255	; 0xff
 8000852:	f44c 6ce0 	orr.w	ip, ip, #1792	; 0x700
 8000856:	ea1c 5411 	ands.w	r4, ip, r1, lsr #20
 800085a:	bf1d      	ittte	ne
 800085c:	ea1c 5513 	andsne.w	r5, ip, r3, lsr #20
 8000860:	ea94 0f0c 	teqne	r4, ip
 8000864:	ea95 0f0c 	teqne	r5, ip
 8000868:	f000 f8a7 	bleq	80009ba <__aeabi_ddiv+0x16e>
 800086c:	eba4 0405 	sub.w	r4, r4, r5
 8000870:	ea81 0e03 	eor.w	lr, r1, r3
 8000874:	ea52 3503 	orrs.w	r5, r2, r3, lsl #12
 8000878:	ea4f 3101 	mov.w	r1, r1, lsl #12
 800087c:	f000 8088 	beq.w	8000990 <__aeabi_ddiv+0x144>
 8000880:	ea4f 3303 	mov.w	r3, r3, lsl #12
 8000884:	f04f 5580 	mov.w	r5, #268435456	; 0x10000000
 8000888:	ea45 1313 	orr.w	r3, r5, r3, lsr #4
 800088c:	ea43 6312 	orr.w	r3, r3, r2, lsr #24
 8000890:	ea4f 2202 	mov.w	r2, r2, lsl #8
 8000894:	ea45 1511 	orr.w	r5, r5, r1, lsr #4
 8000898:	ea45 6510 	orr.w	r5, r5, r0, lsr #24
 800089c:	ea4f 2600 	mov.w	r6, r0, lsl #8
 80008a0:	f00e 4100 	and.w	r1, lr, #2147483648	; 0x80000000
 80008a4:	429d      	cmp	r5, r3
 80008a6:	bf08      	it	eq
 80008a8:	4296      	cmpeq	r6, r2
 80008aa:	f144 04fd 	adc.w	r4, r4, #253	; 0xfd
 80008ae:	f504 7440 	add.w	r4, r4, #768	; 0x300
 80008b2:	d202      	bcs.n	80008ba <__aeabi_ddiv+0x6e>
 80008b4:	085b      	lsrs	r3, r3, #1
 80008b6:	ea4f 0232 	mov.w	r2, r2, rrx
 80008ba:	1ab6      	subs	r6, r6, r2
 80008bc:	eb65 0503 	sbc.w	r5, r5, r3
 80008c0:	085b      	lsrs	r3, r3, #1
 80008c2:	ea4f 0232 	mov.w	r2, r2, rrx
 80008c6:	f44f 1080 	mov.w	r0, #1048576	; 0x100000
 80008ca:	f44f 2c00 	mov.w	ip, #524288	; 0x80000
 80008ce:	ebb6 0e02 	subs.w	lr, r6, r2
 80008d2:	eb75 0e03 	sbcs.w	lr, r5, r3
 80008d6:	bf22      	ittt	cs
 80008d8:	1ab6      	subcs	r6, r6, r2
 80008da:	4675      	movcs	r5, lr
 80008dc:	ea40 000c 	orrcs.w	r0, r0, ip
 80008e0:	085b      	lsrs	r3, r3, #1
 80008e2:	ea4f 0232 	mov.w	r2, r2, rrx
 80008e6:	ebb6 0e02 	subs.w	lr, r6, r2
 80008ea:	eb75 0e03 	sbcs.w	lr, r5, r3
 80008ee:	bf22      	ittt	cs
 80008f0:	1ab6      	subcs	r6, r6, r2
 80008f2:	4675      	movcs	r5, lr
 80008f4:	ea40 005c 	orrcs.w	r0, r0, ip, lsr #1
 80008f8:	085b      	lsrs	r3, r3, #1
 80008fa:	ea4f 0232 	mov.w	r2, r2, rrx
 80008fe:	ebb6 0e02 	subs.w	lr, r6, r2
 8000902:	eb75 0e03 	sbcs.w	lr, r5, r3
 8000906:	bf22      	ittt	cs
 8000908:	1ab6      	subcs	r6, r6, r2
 800090a:	4675      	movcs	r5, lr
 800090c:	ea40 009c 	orrcs.w	r0, r0, ip, lsr #2
 8000910:	085b      	lsrs	r3, r3, #1
 8000912:	ea4f 0232 	mov.w	r2, r2, rrx
 8000916:	ebb6 0e02 	subs.w	lr, r6, r2
 800091a:	eb75 0e03 	sbcs.w	lr, r5, r3
 800091e:	bf22      	ittt	cs
 8000920:	1ab6      	subcs	r6, r6, r2
 8000922:	4675      	movcs	r5, lr
 8000924:	ea40 00dc 	orrcs.w	r0, r0, ip, lsr #3
 8000928:	ea55 0e06 	orrs.w	lr, r5, r6
 800092c:	d018      	beq.n	8000960 <__aeabi_ddiv+0x114>
 800092e:	ea4f 1505 	mov.w	r5, r5, lsl #4
 8000932:	ea45 7516 	orr.w	r5, r5, r6, lsr #28
 8000936:	ea4f 1606 	mov.w	r6, r6, lsl #4
 800093a:	ea4f 03c3 	mov.w	r3, r3, lsl #3
 800093e:	ea43 7352 	orr.w	r3, r3, r2, lsr #29
 8000942:	ea4f 02c2 	mov.w	r2, r2, lsl #3
 8000946:	ea5f 1c1c 	movs.w	ip, ip, lsr #4
 800094a:	d1c0      	bne.n	80008ce <__aeabi_ddiv+0x82>
 800094c:	f411 1f80 	tst.w	r1, #1048576	; 0x100000
 8000950:	d10b      	bne.n	800096a <__aeabi_ddiv+0x11e>
 8000952:	ea41 0100 	orr.w	r1, r1, r0
 8000956:	f04f 0000 	mov.w	r0, #0
 800095a:	f04f 4c00 	mov.w	ip, #2147483648	; 0x80000000
 800095e:	e7b6      	b.n	80008ce <__aeabi_ddiv+0x82>
 8000960:	f411 1f80 	tst.w	r1, #1048576	; 0x100000
 8000964:	bf04      	itt	eq
 8000966:	4301      	orreq	r1, r0
 8000968:	2000      	moveq	r0, #0
 800096a:	f1b4 0cfd 	subs.w	ip, r4, #253	; 0xfd
 800096e:	bf88      	it	hi
 8000970:	f5bc 6fe0 	cmphi.w	ip, #1792	; 0x700
 8000974:	f63f aeaf 	bhi.w	80006d6 <__aeabi_dmul+0xde>
 8000978:	ebb5 0c03 	subs.w	ip, r5, r3
 800097c:	bf04      	itt	eq
 800097e:	ebb6 0c02 	subseq.w	ip, r6, r2
 8000982:	ea5f 0c50 	movseq.w	ip, r0, lsr #1
 8000986:	f150 0000 	adcs.w	r0, r0, #0
 800098a:	eb41 5104 	adc.w	r1, r1, r4, lsl #20
 800098e:	bd70      	pop	{r4, r5, r6, pc}
 8000990:	f00e 4e00 	and.w	lr, lr, #2147483648	; 0x80000000
 8000994:	ea4e 3111 	orr.w	r1, lr, r1, lsr #12
 8000998:	eb14 045c 	adds.w	r4, r4, ip, lsr #1
 800099c:	bfc2      	ittt	gt
 800099e:	ebd4 050c 	rsbsgt	r5, r4, ip
 80009a2:	ea41 5104 	orrgt.w	r1, r1, r4, lsl #20
 80009a6:	bd70      	popgt	{r4, r5, r6, pc}
 80009a8:	f441 1180 	orr.w	r1, r1, #1048576	; 0x100000
 80009ac:	f04f 0e00 	mov.w	lr, #0
 80009b0:	3c01      	subs	r4, #1
 80009b2:	e690      	b.n	80006d6 <__aeabi_dmul+0xde>
 80009b4:	ea45 0e06 	orr.w	lr, r5, r6
 80009b8:	e68d      	b.n	80006d6 <__aeabi_dmul+0xde>
 80009ba:	ea0c 5513 	and.w	r5, ip, r3, lsr #20
 80009be:	ea94 0f0c 	teq	r4, ip
 80009c2:	bf08      	it	eq
 80009c4:	ea95 0f0c 	teqeq	r5, ip
 80009c8:	f43f af3b 	beq.w	8000842 <__aeabi_dmul+0x24a>
 80009cc:	ea94 0f0c 	teq	r4, ip
 80009d0:	d10a      	bne.n	80009e8 <__aeabi_ddiv+0x19c>
 80009d2:	ea50 3401 	orrs.w	r4, r0, r1, lsl #12
 80009d6:	f47f af34 	bne.w	8000842 <__aeabi_dmul+0x24a>
 80009da:	ea95 0f0c 	teq	r5, ip
 80009de:	f47f af25 	bne.w	800082c <__aeabi_dmul+0x234>
 80009e2:	4610      	mov	r0, r2
 80009e4:	4619      	mov	r1, r3
 80009e6:	e72c      	b.n	8000842 <__aeabi_dmul+0x24a>
 80009e8:	ea95 0f0c 	teq	r5, ip
 80009ec:	d106      	bne.n	80009fc <__aeabi_ddiv+0x1b0>
 80009ee:	ea52 3503 	orrs.w	r5, r2, r3, lsl #12
 80009f2:	f43f aefd 	beq.w	80007f0 <__aeabi_dmul+0x1f8>
 80009f6:	4610      	mov	r0, r2
 80009f8:	4619      	mov	r1, r3
 80009fa:	e722      	b.n	8000842 <__aeabi_dmul+0x24a>
 80009fc:	ea50 0641 	orrs.w	r6, r0, r1, lsl #1
 8000a00:	bf18      	it	ne
 8000a02:	ea52 0643 	orrsne.w	r6, r2, r3, lsl #1
 8000a06:	f47f aec5 	bne.w	8000794 <__aeabi_dmul+0x19c>
 8000a0a:	ea50 0441 	orrs.w	r4, r0, r1, lsl #1
 8000a0e:	f47f af0d 	bne.w	800082c <__aeabi_dmul+0x234>
 8000a12:	ea52 0543 	orrs.w	r5, r2, r3, lsl #1
 8000a16:	f47f aeeb 	bne.w	80007f0 <__aeabi_dmul+0x1f8>
 8000a1a:	e712      	b.n	8000842 <__aeabi_dmul+0x24a>

08000a1c <__gedf2>:
 8000a1c:	f04f 3cff 	mov.w	ip, #4294967295	; 0xffffffff
 8000a20:	e006      	b.n	8000a30 <__cmpdf2+0x4>
 8000a22:	bf00      	nop

08000a24 <__ledf2>:
 8000a24:	f04f 0c01 	mov.w	ip, #1
 8000a28:	e002      	b.n	8000a30 <__cmpdf2+0x4>
 8000a2a:	bf00      	nop

08000a2c <__cmpdf2>:
 8000a2c:	f04f 0c01 	mov.w	ip, #1
 8000a30:	f84d cd04 	str.w	ip, [sp, #-4]!
 8000a34:	ea4f 0c41 	mov.w	ip, r1, lsl #1
 8000a38:	ea7f 5c6c 	mvns.w	ip, ip, asr #21
 8000a3c:	ea4f 0c43 	mov.w	ip, r3, lsl #1
 8000a40:	bf18      	it	ne
 8000a42:	ea7f 5c6c 	mvnsne.w	ip, ip, asr #21
 8000a46:	d01b      	beq.n	8000a80 <__cmpdf2+0x54>
 8000a48:	b001      	add	sp, #4
 8000a4a:	ea50 0c41 	orrs.w	ip, r0, r1, lsl #1
 8000a4e:	bf0c      	ite	eq
 8000a50:	ea52 0c43 	orrseq.w	ip, r2, r3, lsl #1
 8000a54:	ea91 0f03 	teqne	r1, r3
 8000a58:	bf02      	ittt	eq
 8000a5a:	ea90 0f02 	teqeq	r0, r2
 8000a5e:	2000      	moveq	r0, #0
 8000a60:	4770      	bxeq	lr
 8000a62:	f110 0f00 	cmn.w	r0, #0
 8000a66:	ea91 0f03 	teq	r1, r3
 8000a6a:	bf58      	it	pl
 8000a6c:	4299      	cmppl	r1, r3
 8000a6e:	bf08      	it	eq
 8000a70:	4290      	cmpeq	r0, r2
 8000a72:	bf2c      	ite	cs
 8000a74:	17d8      	asrcs	r0, r3, #31
 8000a76:	ea6f 70e3 	mvncc.w	r0, r3, asr #31
 8000a7a:	f040 0001 	orr.w	r0, r0, #1
 8000a7e:	4770      	bx	lr
 8000a80:	ea4f 0c41 	mov.w	ip, r1, lsl #1
 8000a84:	ea7f 5c6c 	mvns.w	ip, ip, asr #21
 8000a88:	d102      	bne.n	8000a90 <__cmpdf2+0x64>
 8000a8a:	ea50 3c01 	orrs.w	ip, r0, r1, lsl #12
 8000a8e:	d107      	bne.n	8000aa0 <__cmpdf2+0x74>
 8000a90:	ea4f 0c43 	mov.w	ip, r3, lsl #1
 8000a94:	ea7f 5c6c 	mvns.w	ip, ip, asr #21
 8000a98:	d1d6      	bne.n	8000a48 <__cmpdf2+0x1c>
 8000a9a:	ea52 3c03 	orrs.w	ip, r2, r3, lsl #12
 8000a9e:	d0d3      	beq.n	8000a48 <__cmpdf2+0x1c>
 8000aa0:	f85d 0b04 	ldr.w	r0, [sp], #4
 8000aa4:	4770      	bx	lr
 8000aa6:	bf00      	nop

08000aa8 <__aeabi_cdrcmple>:
 8000aa8:	4684      	mov	ip, r0
 8000aaa:	4610      	mov	r0, r2
 8000aac:	4662      	mov	r2, ip
 8000aae:	468c      	mov	ip, r1
 8000ab0:	4619      	mov	r1, r3
 8000ab2:	4663      	mov	r3, ip
 8000ab4:	e000      	b.n	8000ab8 <__aeabi_cdcmpeq>
 8000ab6:	bf00      	nop

08000ab8 <__aeabi_cdcmpeq>:
 8000ab8:	b501      	push	{r0, lr}
 8000aba:	f7ff ffb7 	bl	8000a2c <__cmpdf2>
 8000abe:	2800      	cmp	r0, #0
 8000ac0:	bf48      	it	mi
 8000ac2:	f110 0f00 	cmnmi.w	r0, #0
 8000ac6:	bd01      	pop	{r0, pc}

08000ac8 <__aeabi_dcmpeq>:
 8000ac8:	f84d ed08 	str.w	lr, [sp, #-8]!
 8000acc:	f7ff fff4 	bl	8000ab8 <__aeabi_cdcmpeq>
 8000ad0:	bf0c      	ite	eq
 8000ad2:	2001      	moveq	r0, #1
 8000ad4:	2000      	movne	r0, #0
 8000ad6:	f85d fb08 	ldr.w	pc, [sp], #8
 8000ada:	bf00      	nop

08000adc <__aeabi_dcmplt>:
 8000adc:	f84d ed08 	str.w	lr, [sp, #-8]!
 8000ae0:	f7ff ffea 	bl	8000ab8 <__aeabi_cdcmpeq>
 8000ae4:	bf34      	ite	cc
 8000ae6:	2001      	movcc	r0, #1
 8000ae8:	2000      	movcs	r0, #0
 8000aea:	f85d fb08 	ldr.w	pc, [sp], #8
 8000aee:	bf00      	nop

08000af0 <__aeabi_dcmple>:
 8000af0:	f84d ed08 	str.w	lr, [sp, #-8]!
 8000af4:	f7ff ffe0 	bl	8000ab8 <__aeabi_cdcmpeq>
 8000af8:	bf94      	ite	ls
 8000afa:	2001      	movls	r0, #1
 8000afc:	2000      	movhi	r0, #0
 8000afe:	f85d fb08 	ldr.w	pc, [sp], #8
 8000b02:	bf00      	nop

08000b04 <__aeabi_dcmpge>:
 8000b04:	f84d ed08 	str.w	lr, [sp, #-8]!
 8000b08:	f7ff ffce 	bl	8000aa8 <__aeabi_cdrcmple>
 8000b0c:	bf94      	ite	ls
 8000b0e:	2001      	movls	r0, #1
 8000b10:	2000      	movhi	r0, #0
 8000b12:	f85d fb08 	ldr.w	pc, [sp], #8
 8000b16:	bf00      	nop

08000b18 <__aeabi_dcmpgt>:
 8000b18:	f84d ed08 	str.w	lr, [sp, #-8]!
 8000b1c:	f7ff ffc4 	bl	8000aa8 <__aeabi_cdrcmple>
 8000b20:	bf34      	ite	cc
 8000b22:	2001      	movcc	r0, #1
 8000b24:	2000      	movcs	r0, #0
 8000b26:	f85d fb08 	ldr.w	pc, [sp], #8
 8000b2a:	bf00      	nop

08000b2c <__aeabi_dcmpun>:
 8000b2c:	ea4f 0c41 	mov.w	ip, r1, lsl #1
 8000b30:	ea7f 5c6c 	mvns.w	ip, ip, asr #21
 8000b34:	d102      	bne.n	8000b3c <__aeabi_dcmpun+0x10>
 8000b36:	ea50 3c01 	orrs.w	ip, r0, r1, lsl #12
 8000b3a:	d10a      	bne.n	8000b52 <__aeabi_dcmpun+0x26>
 8000b3c:	ea4f 0c43 	mov.w	ip, r3, lsl #1
 8000b40:	ea7f 5c6c 	mvns.w	ip, ip, asr #21
 8000b44:	d102      	bne.n	8000b4c <__aeabi_dcmpun+0x20>
 8000b46:	ea52 3c03 	orrs.w	ip, r2, r3, lsl #12
 8000b4a:	d102      	bne.n	8000b52 <__aeabi_dcmpun+0x26>
 8000b4c:	f04f 0000 	mov.w	r0, #0
 8000b50:	4770      	bx	lr
 8000b52:	f04f 0001 	mov.w	r0, #1
 8000b56:	4770      	bx	lr

08000b58 <__aeabi_d2iz>:
 8000b58:	ea4f 0241 	mov.w	r2, r1, lsl #1
 8000b5c:	f512 1200 	adds.w	r2, r2, #2097152	; 0x200000
 8000b60:	d215      	bcs.n	8000b8e <__aeabi_d2iz+0x36>
 8000b62:	d511      	bpl.n	8000b88 <__aeabi_d2iz+0x30>
 8000b64:	f46f 7378 	mvn.w	r3, #992	; 0x3e0
 8000b68:	ebb3 5262 	subs.w	r2, r3, r2, asr #21
 8000b6c:	d912      	bls.n	8000b94 <__aeabi_d2iz+0x3c>
 8000b6e:	ea4f 23c1 	mov.w	r3, r1, lsl #11
 8000b72:	f043 4300 	orr.w	r3, r3, #2147483648	; 0x80000000
 8000b76:	ea43 5350 	orr.w	r3, r3, r0, lsr #21
 8000b7a:	f011 4f00 	tst.w	r1, #2147483648	; 0x80000000
 8000b7e:	fa23 f002 	lsr.w	r0, r3, r2
 8000b82:	bf18      	it	ne
 8000b84:	4240      	negne	r0, r0
 8000b86:	4770      	bx	lr
 8000b88:	f04f 0000 	mov.w	r0, #0
 8000b8c:	4770      	bx	lr
 8000b8e:	ea50 3001 	orrs.w	r0, r0, r1, lsl #12
 8000b92:	d105      	bne.n	8000ba0 <__aeabi_d2iz+0x48>
 8000b94:	f011 4000 	ands.w	r0, r1, #2147483648	; 0x80000000
 8000b98:	bf08      	it	eq
 8000b9a:	f06f 4000 	mvneq.w	r0, #2147483648	; 0x80000000
 8000b9e:	4770      	bx	lr
 8000ba0:	f04f 0000 	mov.w	r0, #0
 8000ba4:	4770      	bx	lr
 8000ba6:	bf00      	nop

08000ba8 <__aeabi_d2uiz>:
 8000ba8:	004a      	lsls	r2, r1, #1
 8000baa:	d211      	bcs.n	8000bd0 <__aeabi_d2uiz+0x28>
 8000bac:	f512 1200 	adds.w	r2, r2, #2097152	; 0x200000
 8000bb0:	d211      	bcs.n	8000bd6 <__aeabi_d2uiz+0x2e>
 8000bb2:	d50d      	bpl.n	8000bd0 <__aeabi_d2uiz+0x28>
 8000bb4:	f46f 7378 	mvn.w	r3, #992	; 0x3e0
 8000bb8:	ebb3 5262 	subs.w	r2, r3, r2, asr #21
 8000bbc:	d40e      	bmi.n	8000bdc <__aeabi_d2uiz+0x34>
 8000bbe:	ea4f 23c1 	mov.w	r3, r1, lsl #11
 8000bc2:	f043 4300 	orr.w	r3, r3, #2147483648	; 0x80000000
 8000bc6:	ea43 5350 	orr.w	r3, r3, r0, lsr #21
 8000bca:	fa23 f002 	lsr.w	r0, r3, r2
 8000bce:	4770      	bx	lr
 8000bd0:	f04f 0000 	mov.w	r0, #0
 8000bd4:	4770      	bx	lr
 8000bd6:	ea50 3001 	orrs.w	r0, r0, r1, lsl #12
 8000bda:	d102      	bne.n	8000be2 <__aeabi_d2uiz+0x3a>
 8000bdc:	f04f 30ff 	mov.w	r0, #4294967295	; 0xffffffff
 8000be0:	4770      	bx	lr
 8000be2:	f04f 0000 	mov.w	r0, #0
 8000be6:	4770      	bx	lr

08000be8 <__aeabi_d2f>:
 8000be8:	ea4f 0241 	mov.w	r2, r1, lsl #1
 8000bec:	f1b2 43e0 	subs.w	r3, r2, #1879048192	; 0x70000000
 8000bf0:	bf24      	itt	cs
 8000bf2:	f5b3 1c00 	subscs.w	ip, r3, #2097152	; 0x200000
 8000bf6:	f1dc 5cfe 	rsbscs	ip, ip, #532676608	; 0x1fc00000
 8000bfa:	d90d      	bls.n	8000c18 <__aeabi_d2f+0x30>
 8000bfc:	f001 4c00 	and.w	ip, r1, #2147483648	; 0x80000000
 8000c00:	ea4f 02c0 	mov.w	r2, r0, lsl #3
 8000c04:	ea4c 7050 	orr.w	r0, ip, r0, lsr #29
 8000c08:	f1b2 4f00 	cmp.w	r2, #2147483648	; 0x80000000
 8000c0c:	eb40 0083 	adc.w	r0, r0, r3, lsl #2
 8000c10:	bf08      	it	eq
 8000c12:	f020 0001 	biceq.w	r0, r0, #1
 8000c16:	4770      	bx	lr
 8000c18:	f011 4f80 	tst.w	r1, #1073741824	; 0x40000000
 8000c1c:	d121      	bne.n	8000c62 <__aeabi_d2f+0x7a>
 8000c1e:	f113 7238 	adds.w	r2, r3, #48234496	; 0x2e00000
 8000c22:	bfbc      	itt	lt
 8000c24:	f001 4000 	andlt.w	r0, r1, #2147483648	; 0x80000000
 8000c28:	4770      	bxlt	lr
 8000c2a:	f441 1180 	orr.w	r1, r1, #1048576	; 0x100000
 8000c2e:	ea4f 5252 	mov.w	r2, r2, lsr #21
 8000c32:	f1c2 0218 	rsb	r2, r2, #24
 8000c36:	f1c2 0c20 	rsb	ip, r2, #32
 8000c3a:	fa10 f30c 	lsls.w	r3, r0, ip
 8000c3e:	fa20 f002 	lsr.w	r0, r0, r2
 8000c42:	bf18      	it	ne
 8000c44:	f040 0001 	orrne.w	r0, r0, #1
 8000c48:	ea4f 23c1 	mov.w	r3, r1, lsl #11
 8000c4c:	ea4f 23d3 	mov.w	r3, r3, lsr #11
 8000c50:	fa03 fc0c 	lsl.w	ip, r3, ip
 8000c54:	ea40 000c 	orr.w	r0, r0, ip
 8000c58:	fa23 f302 	lsr.w	r3, r3, r2
 8000c5c:	ea4f 0343 	mov.w	r3, r3, lsl #1
 8000c60:	e7cc      	b.n	8000bfc <__aeabi_d2f+0x14>
 8000c62:	ea7f 5362 	mvns.w	r3, r2, asr #21
 8000c66:	d107      	bne.n	8000c78 <__aeabi_d2f+0x90>
 8000c68:	ea50 3301 	orrs.w	r3, r0, r1, lsl #12
 8000c6c:	bf1e      	ittt	ne
 8000c6e:	f04f 40fe 	movne.w	r0, #2130706432	; 0x7f000000
 8000c72:	f440 0040 	orrne.w	r0, r0, #12582912	; 0xc00000
 8000c76:	4770      	bxne	lr
 8000c78:	f001 4000 	and.w	r0, r1, #2147483648	; 0x80000000
 8000c7c:	f040 40fe 	orr.w	r0, r0, #2130706432	; 0x7f000000
 8000c80:	f440 0000 	orr.w	r0, r0, #8388608	; 0x800000
 8000c84:	4770      	bx	lr
 8000c86:	bf00      	nop

08000c88 <__aeabi_uldivmod>:
 8000c88:	b953      	cbnz	r3, 8000ca0 <__aeabi_uldivmod+0x18>
 8000c8a:	b94a      	cbnz	r2, 8000ca0 <__aeabi_uldivmod+0x18>
 8000c8c:	2900      	cmp	r1, #0
 8000c8e:	bf08      	it	eq
 8000c90:	2800      	cmpeq	r0, #0
 8000c92:	bf1c      	itt	ne
 8000c94:	f04f 31ff 	movne.w	r1, #4294967295	; 0xffffffff
 8000c98:	f04f 30ff 	movne.w	r0, #4294967295	; 0xffffffff
 8000c9c:	f000 b96e 	b.w	8000f7c <__aeabi_idiv0>
 8000ca0:	f1ad 0c08 	sub.w	ip, sp, #8
 8000ca4:	e96d ce04 	strd	ip, lr, [sp, #-16]!
 8000ca8:	f000 f806 	bl	8000cb8 <__udivmoddi4>
 8000cac:	f8dd e004 	ldr.w	lr, [sp, #4]
 8000cb0:	e9dd 2302 	ldrd	r2, r3, [sp, #8]
 8000cb4:	b004      	add	sp, #16
 8000cb6:	4770      	bx	lr

08000cb8 <__udivmoddi4>:
 8000cb8:	e92d 47f0 	stmdb	sp!, {r4, r5, r6, r7, r8, r9, sl, lr}
 8000cbc:	9d08      	ldr	r5, [sp, #32]
 8000cbe:	4604      	mov	r4, r0
 8000cc0:	468c      	mov	ip, r1
 8000cc2:	2b00      	cmp	r3, #0
 8000cc4:	f040 8083 	bne.w	8000dce <__udivmoddi4+0x116>
 8000cc8:	428a      	cmp	r2, r1
 8000cca:	4617      	mov	r7, r2
 8000ccc:	d947      	bls.n	8000d5e <__udivmoddi4+0xa6>
 8000cce:	fab2 f282 	clz	r2, r2
 8000cd2:	b142      	cbz	r2, 8000ce6 <__udivmoddi4+0x2e>
 8000cd4:	f1c2 0020 	rsb	r0, r2, #32
 8000cd8:	fa24 f000 	lsr.w	r0, r4, r0
 8000cdc:	4091      	lsls	r1, r2
 8000cde:	4097      	lsls	r7, r2
 8000ce0:	ea40 0c01 	orr.w	ip, r0, r1
 8000ce4:	4094      	lsls	r4, r2
 8000ce6:	ea4f 4817 	mov.w	r8, r7, lsr #16
 8000cea:	0c23      	lsrs	r3, r4, #16
 8000cec:	fbbc f6f8 	udiv	r6, ip, r8
 8000cf0:	fa1f fe87 	uxth.w	lr, r7
 8000cf4:	fb08 c116 	mls	r1, r8, r6, ip
 8000cf8:	ea43 4301 	orr.w	r3, r3, r1, lsl #16
 8000cfc:	fb06 f10e 	mul.w	r1, r6, lr
 8000d00:	4299      	cmp	r1, r3
 8000d02:	d909      	bls.n	8000d18 <__udivmoddi4+0x60>
 8000d04:	18fb      	adds	r3, r7, r3
 8000d06:	f106 30ff 	add.w	r0, r6, #4294967295	; 0xffffffff
 8000d0a:	f080 8119 	bcs.w	8000f40 <__udivmoddi4+0x288>
 8000d0e:	4299      	cmp	r1, r3
 8000d10:	f240 8116 	bls.w	8000f40 <__udivmoddi4+0x288>
 8000d14:	3e02      	subs	r6, #2
 8000d16:	443b      	add	r3, r7
 8000d18:	1a5b      	subs	r3, r3, r1
 8000d1a:	b2a4      	uxth	r4, r4
 8000d1c:	fbb3 f0f8 	udiv	r0, r3, r8
 8000d20:	fb08 3310 	mls	r3, r8, r0, r3
 8000d24:	ea44 4403 	orr.w	r4, r4, r3, lsl #16
 8000d28:	fb00 fe0e 	mul.w	lr, r0, lr
 8000d2c:	45a6      	cmp	lr, r4
 8000d2e:	d909      	bls.n	8000d44 <__udivmoddi4+0x8c>
 8000d30:	193c      	adds	r4, r7, r4
 8000d32:	f100 33ff 	add.w	r3, r0, #4294967295	; 0xffffffff
 8000d36:	f080 8105 	bcs.w	8000f44 <__udivmoddi4+0x28c>
 8000d3a:	45a6      	cmp	lr, r4
 8000d3c:	f240 8102 	bls.w	8000f44 <__udivmoddi4+0x28c>
 8000d40:	3802      	subs	r0, #2
 8000d42:	443c      	add	r4, r7
 8000d44:	ea40 4006 	orr.w	r0, r0, r6, lsl #16
 8000d48:	eba4 040e 	sub.w	r4, r4, lr
 8000d4c:	2600      	movs	r6, #0
 8000d4e:	b11d      	cbz	r5, 8000d58 <__udivmoddi4+0xa0>
 8000d50:	40d4      	lsrs	r4, r2
 8000d52:	2300      	movs	r3, #0
 8000d54:	e9c5 4300 	strd	r4, r3, [r5]
 8000d58:	4631      	mov	r1, r6
 8000d5a:	e8bd 87f0 	ldmia.w	sp!, {r4, r5, r6, r7, r8, r9, sl, pc}
 8000d5e:	b902      	cbnz	r2, 8000d62 <__udivmoddi4+0xaa>
 8000d60:	deff      	udf	#255	; 0xff
 8000d62:	fab2 f282 	clz	r2, r2
 8000d66:	2a00      	cmp	r2, #0
 8000d68:	d150      	bne.n	8000e0c <__udivmoddi4+0x154>
 8000d6a:	1bcb      	subs	r3, r1, r7
 8000d6c:	ea4f 4e17 	mov.w	lr, r7, lsr #16
 8000d70:	fa1f f887 	uxth.w	r8, r7
 8000d74:	2601      	movs	r6, #1
 8000d76:	fbb3 fcfe 	udiv	ip, r3, lr
 8000d7a:	0c21      	lsrs	r1, r4, #16
 8000d7c:	fb0e 331c 	mls	r3, lr, ip, r3
 8000d80:	ea41 4103 	orr.w	r1, r1, r3, lsl #16
 8000d84:	fb08 f30c 	mul.w	r3, r8, ip
 8000d88:	428b      	cmp	r3, r1
 8000d8a:	d907      	bls.n	8000d9c <__udivmoddi4+0xe4>
 8000d8c:	1879      	adds	r1, r7, r1
 8000d8e:	f10c 30ff 	add.w	r0, ip, #4294967295	; 0xffffffff
 8000d92:	d202      	bcs.n	8000d9a <__udivmoddi4+0xe2>
 8000d94:	428b      	cmp	r3, r1
 8000d96:	f200 80e9 	bhi.w	8000f6c <__udivmoddi4+0x2b4>
 8000d9a:	4684      	mov	ip, r0
 8000d9c:	1ac9      	subs	r1, r1, r3
 8000d9e:	b2a3      	uxth	r3, r4
 8000da0:	fbb1 f0fe 	udiv	r0, r1, lr
 8000da4:	fb0e 1110 	mls	r1, lr, r0, r1
 8000da8:	ea43 4401 	orr.w	r4, r3, r1, lsl #16
 8000dac:	fb08 f800 	mul.w	r8, r8, r0
 8000db0:	45a0      	cmp	r8, r4
 8000db2:	d907      	bls.n	8000dc4 <__udivmoddi4+0x10c>
 8000db4:	193c      	adds	r4, r7, r4
 8000db6:	f100 33ff 	add.w	r3, r0, #4294967295	; 0xffffffff
 8000dba:	d202      	bcs.n	8000dc2 <__udivmoddi4+0x10a>
 8000dbc:	45a0      	cmp	r8, r4
 8000dbe:	f200 80d9 	bhi.w	8000f74 <__udivmoddi4+0x2bc>
 8000dc2:	4618      	mov	r0, r3
 8000dc4:	eba4 0408 	sub.w	r4, r4, r8
 8000dc8:	ea40 400c 	orr.w	r0, r0, ip, lsl #16
 8000dcc:	e7bf      	b.n	8000d4e <__udivmoddi4+0x96>
 8000dce:	428b      	cmp	r3, r1
 8000dd0:	d909      	bls.n	8000de6 <__udivmoddi4+0x12e>
 8000dd2:	2d00      	cmp	r5, #0
 8000dd4:	f000 80b1 	beq.w	8000f3a <__udivmoddi4+0x282>
 8000dd8:	2600      	movs	r6, #0
 8000dda:	e9c5 0100 	strd	r0, r1, [r5]
 8000dde:	4630      	mov	r0, r6
 8000de0:	4631      	mov	r1, r6
 8000de2:	e8bd 87f0 	ldmia.w	sp!, {r4, r5, r6, r7, r8, r9, sl, pc}
 8000de6:	fab3 f683 	clz	r6, r3
 8000dea:	2e00      	cmp	r6, #0
 8000dec:	d14a      	bne.n	8000e84 <__udivmoddi4+0x1cc>
 8000dee:	428b      	cmp	r3, r1
 8000df0:	d302      	bcc.n	8000df8 <__udivmoddi4+0x140>
 8000df2:	4282      	cmp	r2, r0
 8000df4:	f200 80b8 	bhi.w	8000f68 <__udivmoddi4+0x2b0>
 8000df8:	1a84      	subs	r4, r0, r2
 8000dfa:	eb61 0103 	sbc.w	r1, r1, r3
 8000dfe:	2001      	movs	r0, #1
 8000e00:	468c      	mov	ip, r1
 8000e02:	2d00      	cmp	r5, #0
 8000e04:	d0a8      	beq.n	8000d58 <__udivmoddi4+0xa0>
 8000e06:	e9c5 4c00 	strd	r4, ip, [r5]
 8000e0a:	e7a5      	b.n	8000d58 <__udivmoddi4+0xa0>
 8000e0c:	f1c2 0320 	rsb	r3, r2, #32
 8000e10:	fa20 f603 	lsr.w	r6, r0, r3
 8000e14:	4097      	lsls	r7, r2
 8000e16:	fa01 f002 	lsl.w	r0, r1, r2
 8000e1a:	ea4f 4e17 	mov.w	lr, r7, lsr #16
 8000e1e:	40d9      	lsrs	r1, r3
 8000e20:	4330      	orrs	r0, r6
 8000e22:	0c03      	lsrs	r3, r0, #16
 8000e24:	fbb1 f6fe 	udiv	r6, r1, lr
 8000e28:	fa1f f887 	uxth.w	r8, r7
 8000e2c:	fb0e 1116 	mls	r1, lr, r6, r1
 8000e30:	ea43 4301 	orr.w	r3, r3, r1, lsl #16
 8000e34:	fb06 f108 	mul.w	r1, r6, r8
 8000e38:	4299      	cmp	r1, r3
 8000e3a:	fa04 f402 	lsl.w	r4, r4, r2
 8000e3e:	d909      	bls.n	8000e54 <__udivmoddi4+0x19c>
 8000e40:	18fb      	adds	r3, r7, r3
 8000e42:	f106 3cff 	add.w	ip, r6, #4294967295	; 0xffffffff
 8000e46:	f080 808d 	bcs.w	8000f64 <__udivmoddi4+0x2ac>
 8000e4a:	4299      	cmp	r1, r3
 8000e4c:	f240 808a 	bls.w	8000f64 <__udivmoddi4+0x2ac>
 8000e50:	3e02      	subs	r6, #2
 8000e52:	443b      	add	r3, r7
 8000e54:	1a5b      	subs	r3, r3, r1
 8000e56:	b281      	uxth	r1, r0
 8000e58:	fbb3 f0fe 	udiv	r0, r3, lr
 8000e5c:	fb0e 3310 	mls	r3, lr, r0, r3
 8000e60:	ea41 4103 	orr.w	r1, r1, r3, lsl #16
 8000e64:	fb00 f308 	mul.w	r3, r0, r8
 8000e68:	428b      	cmp	r3, r1
 8000e6a:	d907      	bls.n	8000e7c <__udivmoddi4+0x1c4>
 8000e6c:	1879      	adds	r1, r7, r1
 8000e6e:	f100 3cff 	add.w	ip, r0, #4294967295	; 0xffffffff
 8000e72:	d273      	bcs.n	8000f5c <__udivmoddi4+0x2a4>
 8000e74:	428b      	cmp	r3, r1
 8000e76:	d971      	bls.n	8000f5c <__udivmoddi4+0x2a4>
 8000e78:	3802      	subs	r0, #2
 8000e7a:	4439      	add	r1, r7
 8000e7c:	1acb      	subs	r3, r1, r3
 8000e7e:	ea40 4606 	orr.w	r6, r0, r6, lsl #16
 8000e82:	e778      	b.n	8000d76 <__udivmoddi4+0xbe>
 8000e84:	f1c6 0c20 	rsb	ip, r6, #32
 8000e88:	fa03 f406 	lsl.w	r4, r3, r6
 8000e8c:	fa22 f30c 	lsr.w	r3, r2, ip
 8000e90:	431c      	orrs	r4, r3
 8000e92:	fa20 f70c 	lsr.w	r7, r0, ip
 8000e96:	fa01 f306 	lsl.w	r3, r1, r6
 8000e9a:	ea4f 4e14 	mov.w	lr, r4, lsr #16
 8000e9e:	fa21 f10c 	lsr.w	r1, r1, ip
 8000ea2:	431f      	orrs	r7, r3
 8000ea4:	0c3b      	lsrs	r3, r7, #16
 8000ea6:	fbb1 f9fe 	udiv	r9, r1, lr
 8000eaa:	fa1f f884 	uxth.w	r8, r4
 8000eae:	fb0e 1119 	mls	r1, lr, r9, r1
 8000eb2:	ea43 4101 	orr.w	r1, r3, r1, lsl #16
 8000eb6:	fb09 fa08 	mul.w	sl, r9, r8
 8000eba:	458a      	cmp	sl, r1
 8000ebc:	fa02 f206 	lsl.w	r2, r2, r6
 8000ec0:	fa00 f306 	lsl.w	r3, r0, r6
 8000ec4:	d908      	bls.n	8000ed8 <__udivmoddi4+0x220>
 8000ec6:	1861      	adds	r1, r4, r1
 8000ec8:	f109 30ff 	add.w	r0, r9, #4294967295	; 0xffffffff
 8000ecc:	d248      	bcs.n	8000f60 <__udivmoddi4+0x2a8>
 8000ece:	458a      	cmp	sl, r1
 8000ed0:	d946      	bls.n	8000f60 <__udivmoddi4+0x2a8>
 8000ed2:	f1a9 0902 	sub.w	r9, r9, #2
 8000ed6:	4421      	add	r1, r4
 8000ed8:	eba1 010a 	sub.w	r1, r1, sl
 8000edc:	b2bf      	uxth	r7, r7
 8000ede:	fbb1 f0fe 	udiv	r0, r1, lr
 8000ee2:	fb0e 1110 	mls	r1, lr, r0, r1
 8000ee6:	ea47 4701 	orr.w	r7, r7, r1, lsl #16
 8000eea:	fb00 f808 	mul.w	r8, r0, r8
 8000eee:	45b8      	cmp	r8, r7
 8000ef0:	d907      	bls.n	8000f02 <__udivmoddi4+0x24a>
 8000ef2:	19e7      	adds	r7, r4, r7
 8000ef4:	f100 31ff 	add.w	r1, r0, #4294967295	; 0xffffffff
 8000ef8:	d22e      	bcs.n	8000f58 <__udivmoddi4+0x2a0>
 8000efa:	45b8      	cmp	r8, r7
 8000efc:	d92c      	bls.n	8000f58 <__udivmoddi4+0x2a0>
 8000efe:	3802      	subs	r0, #2
 8000f00:	4427      	add	r7, r4
 8000f02:	ea40 4009 	orr.w	r0, r0, r9, lsl #16
 8000f06:	eba7 0708 	sub.w	r7, r7, r8
 8000f0a:	fba0 8902 	umull	r8, r9, r0, r2
 8000f0e:	454f      	cmp	r7, r9
 8000f10:	46c6      	mov	lr, r8
 8000f12:	4649      	mov	r1, r9
 8000f14:	d31a      	bcc.n	8000f4c <__udivmoddi4+0x294>
 8000f16:	d017      	beq.n	8000f48 <__udivmoddi4+0x290>
 8000f18:	b15d      	cbz	r5, 8000f32 <__udivmoddi4+0x27a>
 8000f1a:	ebb3 020e 	subs.w	r2, r3, lr
 8000f1e:	eb67 0701 	sbc.w	r7, r7, r1
 8000f22:	fa07 fc0c 	lsl.w	ip, r7, ip
 8000f26:	40f2      	lsrs	r2, r6
 8000f28:	ea4c 0202 	orr.w	r2, ip, r2
 8000f2c:	40f7      	lsrs	r7, r6
 8000f2e:	e9c5 2700 	strd	r2, r7, [r5]
 8000f32:	2600      	movs	r6, #0
 8000f34:	4631      	mov	r1, r6
 8000f36:	e8bd 87f0 	ldmia.w	sp!, {r4, r5, r6, r7, r8, r9, sl, pc}
 8000f3a:	462e      	mov	r6, r5
 8000f3c:	4628      	mov	r0, r5
 8000f3e:	e70b      	b.n	8000d58 <__udivmoddi4+0xa0>
 8000f40:	4606      	mov	r6, r0
 8000f42:	e6e9      	b.n	8000d18 <__udivmoddi4+0x60>
 8000f44:	4618      	mov	r0, r3
 8000f46:	e6fd      	b.n	8000d44 <__udivmoddi4+0x8c>
 8000f48:	4543      	cmp	r3, r8
 8000f4a:	d2e5      	bcs.n	8000f18 <__udivmoddi4+0x260>
 8000f4c:	ebb8 0e02 	subs.w	lr, r8, r2
 8000f50:	eb69 0104 	sbc.w	r1, r9, r4
 8000f54:	3801      	subs	r0, #1
 8000f56:	e7df      	b.n	8000f18 <__udivmoddi4+0x260>
 8000f58:	4608      	mov	r0, r1
 8000f5a:	e7d2      	b.n	8000f02 <__udivmoddi4+0x24a>
 8000f5c:	4660      	mov	r0, ip
 8000f5e:	e78d      	b.n	8000e7c <__udivmoddi4+0x1c4>
 8000f60:	4681      	mov	r9, r0
 8000f62:	e7b9      	b.n	8000ed8 <__udivmoddi4+0x220>
 8000f64:	4666      	mov	r6, ip
 8000f66:	e775      	b.n	8000e54 <__udivmoddi4+0x19c>
 8000f68:	4630      	mov	r0, r6
 8000f6a:	e74a      	b.n	8000e02 <__udivmoddi4+0x14a>
 8000f6c:	f1ac 0c02 	sub.w	ip, ip, #2
 8000f70:	4439      	add	r1, r7
 8000f72:	e713      	b.n	8000d9c <__udivmoddi4+0xe4>
 8000f74:	3802      	subs	r0, #2
 8000f76:	443c      	add	r4, r7
 8000f78:	e724      	b.n	8000dc4 <__udivmoddi4+0x10c>
 8000f7a:	bf00      	nop

08000f7c <__aeabi_idiv0>:
 8000f7c:	4770      	bx	lr
 8000f7e:	bf00      	nop

08000f80 <encoderISR>:
//-----------------------------------------------------------------------------
// Rotary encoder ISR
// Sets rotDir to ROT_CW or ROT_CCW
//-----------------------------------------------------------------------------
void encoderISR()
{
 8000f80:	b580      	push	{r7, lr}
 8000f82:	b082      	sub	sp, #8
 8000f84:	af00      	add	r7, sp, #0
	uint8_t rot_a, rot_b;
	rot_a = HAL_GPIO_ReadPin(FP_ROT_A_GPIO_Port, FP_ROT_A_Pin);
 8000f86:	2120      	movs	r1, #32
 8000f88:	4821      	ldr	r0, [pc, #132]	; (8001010 <encoderISR+0x90>)
 8000f8a:	f006 fff3 	bl	8007f74 <HAL_GPIO_ReadPin>
 8000f8e:	4603      	mov	r3, r0
 8000f90:	71fb      	strb	r3, [r7, #7]
	rot_b = HAL_GPIO_ReadPin(FP_ROT_B_GPIO_Port, FP_ROT_B_Pin);
 8000f92:	2140      	movs	r1, #64	; 0x40
 8000f94:	481e      	ldr	r0, [pc, #120]	; (8001010 <encoderISR+0x90>)
 8000f96:	f006 ffed 	bl	8007f74 <HAL_GPIO_ReadPin>
 8000f9a:	4603      	mov	r3, r0
 8000f9c:	71bb      	strb	r3, [r7, #6]
	// set current state according to transition table (cw/ccw flags masked out)
	curEncoderState = transition_table[curEncoderState & 0b00000111][(rot_b << 1) | rot_a];
 8000f9e:	4b1d      	ldr	r3, [pc, #116]	; (8001014 <encoderISR+0x94>)
 8000fa0:	781b      	ldrb	r3, [r3, #0]
 8000fa2:	b2db      	uxtb	r3, r3
 8000fa4:	f003 0207 	and.w	r2, r3, #7
 8000fa8:	79bb      	ldrb	r3, [r7, #6]
 8000faa:	0059      	lsls	r1, r3, #1
 8000fac:	79fb      	ldrb	r3, [r7, #7]
 8000fae:	430b      	orrs	r3, r1
 8000fb0:	4919      	ldr	r1, [pc, #100]	; (8001018 <encoderISR+0x98>)
 8000fb2:	0092      	lsls	r2, r2, #2
 8000fb4:	440a      	add	r2, r1
 8000fb6:	4413      	add	r3, r2
 8000fb8:	781a      	ldrb	r2, [r3, #0]
 8000fba:	4b16      	ldr	r3, [pc, #88]	; (8001014 <encoderISR+0x94>)
 8000fbc:	701a      	strb	r2, [r3, #0]

	// set global direction flag
	if (curEncoderState & CW_FLAG) {
 8000fbe:	4b15      	ldr	r3, [pc, #84]	; (8001014 <encoderISR+0x94>)
 8000fc0:	781b      	ldrb	r3, [r3, #0]
 8000fc2:	b2db      	uxtb	r3, r3
 8000fc4:	b25b      	sxtb	r3, r3
 8000fc6:	2b00      	cmp	r3, #0
 8000fc8:	da0b      	bge.n	8000fe2 <encoderISR+0x62>
		encoderDirection = ROT_CW;
 8000fca:	4b14      	ldr	r3, [pc, #80]	; (800101c <encoderISR+0x9c>)
 8000fcc:	2201      	movs	r2, #1
 8000fce:	701a      	strb	r2, [r3, #0]
		encoderCounts++;
 8000fd0:	4b13      	ldr	r3, [pc, #76]	; (8001020 <encoderISR+0xa0>)
 8000fd2:	881b      	ldrh	r3, [r3, #0]
 8000fd4:	b21b      	sxth	r3, r3
 8000fd6:	b29b      	uxth	r3, r3
 8000fd8:	3301      	adds	r3, #1
 8000fda:	b29b      	uxth	r3, r3
 8000fdc:	b21a      	sxth	r2, r3
 8000fde:	4b10      	ldr	r3, [pc, #64]	; (8001020 <encoderISR+0xa0>)
 8000fe0:	801a      	strh	r2, [r3, #0]
	}
	if (curEncoderState & CCW_FLAG) {
 8000fe2:	4b0c      	ldr	r3, [pc, #48]	; (8001014 <encoderISR+0x94>)
 8000fe4:	781b      	ldrb	r3, [r3, #0]
 8000fe6:	b2db      	uxtb	r3, r3
 8000fe8:	f003 0340 	and.w	r3, r3, #64	; 0x40
 8000fec:	2b00      	cmp	r3, #0
 8000fee:	d00b      	beq.n	8001008 <encoderISR+0x88>
		encoderDirection = ROT_CCW;
 8000ff0:	4b0a      	ldr	r3, [pc, #40]	; (800101c <encoderISR+0x9c>)
 8000ff2:	2202      	movs	r2, #2
 8000ff4:	701a      	strb	r2, [r3, #0]
		encoderCounts--;
 8000ff6:	4b0a      	ldr	r3, [pc, #40]	; (8001020 <encoderISR+0xa0>)
 8000ff8:	881b      	ldrh	r3, [r3, #0]
 8000ffa:	b21b      	sxth	r3, r3
 8000ffc:	b29b      	uxth	r3, r3
 8000ffe:	3b01      	subs	r3, #1
 8001000:	b29b      	uxth	r3, r3
 8001002:	b21a      	sxth	r2, r3
 8001004:	4b06      	ldr	r3, [pc, #24]	; (8001020 <encoderISR+0xa0>)
 8001006:	801a      	strh	r2, [r3, #0]
	}
}
 8001008:	bf00      	nop
 800100a:	3708      	adds	r7, #8
 800100c:	46bd      	mov	sp, r7
 800100e:	bd80      	pop	{r7, pc}
 8001010:	40020000 	.word	0x40020000
 8001014:	200005e8 	.word	0x200005e8
 8001018:	0800d214 	.word	0x0800d214
 800101c:	200005e9 	.word	0x200005e9
 8001020:	200006ee 	.word	0x200006ee

08001024 <checkEncoder>:
	return ret;
}
*/

uint8_t checkEncoder(uint8_t dir)
{
 8001024:	b480      	push	{r7}
 8001026:	b083      	sub	sp, #12
 8001028:	af00      	add	r7, sp, #0
 800102a:	4603      	mov	r3, r0
 800102c:	71fb      	strb	r3, [r7, #7]
	if (encoderDirection & dir) {
 800102e:	4b0b      	ldr	r3, [pc, #44]	; (800105c <checkEncoder+0x38>)
 8001030:	781b      	ldrb	r3, [r3, #0]
 8001032:	b2da      	uxtb	r2, r3
 8001034:	79fb      	ldrb	r3, [r7, #7]
 8001036:	4013      	ands	r3, r2
 8001038:	b2db      	uxtb	r3, r3
 800103a:	2b00      	cmp	r3, #0
 800103c:	d007      	beq.n	800104e <checkEncoder+0x2a>
		encoderDirection = ROT_IDLE;
 800103e:	4b07      	ldr	r3, [pc, #28]	; (800105c <checkEncoder+0x38>)
 8001040:	2200      	movs	r2, #0
 8001042:	701a      	strb	r2, [r3, #0]
		gScreenRefresh = 1;
 8001044:	4b06      	ldr	r3, [pc, #24]	; (8001060 <checkEncoder+0x3c>)
 8001046:	2201      	movs	r2, #1
 8001048:	701a      	strb	r2, [r3, #0]
		return 1;
 800104a:	2301      	movs	r3, #1
 800104c:	e000      	b.n	8001050 <checkEncoder+0x2c>
	} else {
		return 0;
 800104e:	2300      	movs	r3, #0
	}
}
 8001050:	4618      	mov	r0, r3
 8001052:	370c      	adds	r7, #12
 8001054:	46bd      	mov	sp, r7
 8001056:	f85d 7b04 	ldr.w	r7, [sp], #4
 800105a:	4770      	bx	lr
 800105c:	200005e9 	.word	0x200005e9
 8001060:	200006e0 	.word	0x200006e0

08001064 <encoderSpeedISR>:

void encoderSpeedISR(void)
{
 8001064:	b480      	push	{r7}
 8001066:	af00      	add	r7, sp, #0
	encoderVelocity = abs(encoderCounts);
 8001068:	4b08      	ldr	r3, [pc, #32]	; (800108c <encoderSpeedISR+0x28>)
 800106a:	881b      	ldrh	r3, [r3, #0]
 800106c:	b21b      	sxth	r3, r3
 800106e:	2b00      	cmp	r3, #0
 8001070:	bfb8      	it	lt
 8001072:	425b      	neglt	r3, r3
 8001074:	b29a      	uxth	r2, r3
 8001076:	4b06      	ldr	r3, [pc, #24]	; (8001090 <encoderSpeedISR+0x2c>)
 8001078:	801a      	strh	r2, [r3, #0]
	encoderCounts = 0;
 800107a:	4b04      	ldr	r3, [pc, #16]	; (800108c <encoderSpeedISR+0x28>)
 800107c:	2200      	movs	r2, #0
 800107e:	801a      	strh	r2, [r3, #0]
}
 8001080:	bf00      	nop
 8001082:	46bd      	mov	sp, r7
 8001084:	f85d 7b04 	ldr.w	r7, [sp], #4
 8001088:	4770      	bx	lr
 800108a:	bf00      	nop
 800108c:	200006ee 	.word	0x200006ee
 8001090:	200006ec 	.word	0x200006ec

08001094 <getEncoderVelocity>:

uint8_t getEncoderVelocity(void)
{
 8001094:	b480      	push	{r7}
 8001096:	af00      	add	r7, sp, #0
	return encoderVelocity;
 8001098:	4b04      	ldr	r3, [pc, #16]	; (80010ac <getEncoderVelocity+0x18>)
 800109a:	881b      	ldrh	r3, [r3, #0]
 800109c:	b29b      	uxth	r3, r3
 800109e:	b2db      	uxtb	r3, r3
}
 80010a0:	4618      	mov	r0, r3
 80010a2:	46bd      	mov	sp, r7
 80010a4:	f85d 7b04 	ldr.w	r7, [sp], #4
 80010a8:	4770      	bx	lr
 80010aa:	bf00      	nop
 80010ac:	200006ec 	.word	0x200006ec

080010b0 <pushButtonISR>:
//-----------------------------------------------------------------------------
// Frontpanel push-button ISR
// Sets buttonState to BTN_PUSHED, BTN_SHORT, BTN_LONG or BTN_FAULT
//-----------------------------------------------------------------------------
void pushButtonISR(void)
{
 80010b0:	b580      	push	{r7, lr}
 80010b2:	b082      	sub	sp, #8
 80010b4:	af00      	add	r7, sp, #0
	static uint32_t buttonTime[NUM_BUTTONS];

	// Read raw button state
	if ( HAL_GPIO_ReadPin(FP_S1_GPIO_Port, FP_S1_Pin) ) buttonState[0] |= BTN_PUSHED; else buttonState[0] &= ~BTN_PUSHED;
 80010b6:	2180      	movs	r1, #128	; 0x80
 80010b8:	486a      	ldr	r0, [pc, #424]	; (8001264 <pushButtonISR+0x1b4>)
 80010ba:	f006 ff5b 	bl	8007f74 <HAL_GPIO_ReadPin>
 80010be:	4603      	mov	r3, r0
 80010c0:	2b00      	cmp	r3, #0
 80010c2:	d008      	beq.n	80010d6 <pushButtonISR+0x26>
 80010c4:	4b68      	ldr	r3, [pc, #416]	; (8001268 <pushButtonISR+0x1b8>)
 80010c6:	781b      	ldrb	r3, [r3, #0]
 80010c8:	b2db      	uxtb	r3, r3
 80010ca:	f043 0301 	orr.w	r3, r3, #1
 80010ce:	b2da      	uxtb	r2, r3
 80010d0:	4b65      	ldr	r3, [pc, #404]	; (8001268 <pushButtonISR+0x1b8>)
 80010d2:	701a      	strb	r2, [r3, #0]
 80010d4:	e007      	b.n	80010e6 <pushButtonISR+0x36>
 80010d6:	4b64      	ldr	r3, [pc, #400]	; (8001268 <pushButtonISR+0x1b8>)
 80010d8:	781b      	ldrb	r3, [r3, #0]
 80010da:	b2db      	uxtb	r3, r3
 80010dc:	f023 0301 	bic.w	r3, r3, #1
 80010e0:	b2da      	uxtb	r2, r3
 80010e2:	4b61      	ldr	r3, [pc, #388]	; (8001268 <pushButtonISR+0x1b8>)
 80010e4:	701a      	strb	r2, [r3, #0]
	if ( HAL_GPIO_ReadPin(FP_S2_GPIO_Port, FP_S2_Pin) ) buttonState[1] |= BTN_PUSHED; else buttonState[1] &= ~BTN_PUSHED;
 80010e6:	2101      	movs	r1, #1
 80010e8:	4860      	ldr	r0, [pc, #384]	; (800126c <pushButtonISR+0x1bc>)
 80010ea:	f006 ff43 	bl	8007f74 <HAL_GPIO_ReadPin>
 80010ee:	4603      	mov	r3, r0
 80010f0:	2b00      	cmp	r3, #0
 80010f2:	d008      	beq.n	8001106 <pushButtonISR+0x56>
 80010f4:	4b5c      	ldr	r3, [pc, #368]	; (8001268 <pushButtonISR+0x1b8>)
 80010f6:	785b      	ldrb	r3, [r3, #1]
 80010f8:	b2db      	uxtb	r3, r3
 80010fa:	f043 0301 	orr.w	r3, r3, #1
 80010fe:	b2da      	uxtb	r2, r3
 8001100:	4b59      	ldr	r3, [pc, #356]	; (8001268 <pushButtonISR+0x1b8>)
 8001102:	705a      	strb	r2, [r3, #1]
 8001104:	e007      	b.n	8001116 <pushButtonISR+0x66>
 8001106:	4b58      	ldr	r3, [pc, #352]	; (8001268 <pushButtonISR+0x1b8>)
 8001108:	785b      	ldrb	r3, [r3, #1]
 800110a:	b2db      	uxtb	r3, r3
 800110c:	f023 0301 	bic.w	r3, r3, #1
 8001110:	b2da      	uxtb	r2, r3
 8001112:	4b55      	ldr	r3, [pc, #340]	; (8001268 <pushButtonISR+0x1b8>)
 8001114:	705a      	strb	r2, [r3, #1]
	if ( HAL_GPIO_ReadPin(FP_S3_GPIO_Port, FP_S3_Pin) ) buttonState[2] |= BTN_PUSHED; else buttonState[2] &= ~BTN_PUSHED;
 8001116:	2120      	movs	r1, #32
 8001118:	4855      	ldr	r0, [pc, #340]	; (8001270 <pushButtonISR+0x1c0>)
 800111a:	f006 ff2b 	bl	8007f74 <HAL_GPIO_ReadPin>
 800111e:	4603      	mov	r3, r0
 8001120:	2b00      	cmp	r3, #0
 8001122:	d008      	beq.n	8001136 <pushButtonISR+0x86>
 8001124:	4b50      	ldr	r3, [pc, #320]	; (8001268 <pushButtonISR+0x1b8>)
 8001126:	789b      	ldrb	r3, [r3, #2]
 8001128:	b2db      	uxtb	r3, r3
 800112a:	f043 0301 	orr.w	r3, r3, #1
 800112e:	b2da      	uxtb	r2, r3
 8001130:	4b4d      	ldr	r3, [pc, #308]	; (8001268 <pushButtonISR+0x1b8>)
 8001132:	709a      	strb	r2, [r3, #2]
 8001134:	e007      	b.n	8001146 <pushButtonISR+0x96>
 8001136:	4b4c      	ldr	r3, [pc, #304]	; (8001268 <pushButtonISR+0x1b8>)
 8001138:	789b      	ldrb	r3, [r3, #2]
 800113a:	b2db      	uxtb	r3, r3
 800113c:	f023 0301 	bic.w	r3, r3, #1
 8001140:	b2da      	uxtb	r2, r3
 8001142:	4b49      	ldr	r3, [pc, #292]	; (8001268 <pushButtonISR+0x1b8>)
 8001144:	709a      	strb	r2, [r3, #2]
	if ( HAL_GPIO_ReadPin(FP_S4_GPIO_Port, FP_S4_Pin) ) buttonState[3] |= BTN_PUSHED; else buttonState[3] &= ~BTN_PUSHED;
 8001146:	2110      	movs	r1, #16
 8001148:	4849      	ldr	r0, [pc, #292]	; (8001270 <pushButtonISR+0x1c0>)
 800114a:	f006 ff13 	bl	8007f74 <HAL_GPIO_ReadPin>
 800114e:	4603      	mov	r3, r0
 8001150:	2b00      	cmp	r3, #0
 8001152:	d008      	beq.n	8001166 <pushButtonISR+0xb6>
 8001154:	4b44      	ldr	r3, [pc, #272]	; (8001268 <pushButtonISR+0x1b8>)
 8001156:	78db      	ldrb	r3, [r3, #3]
 8001158:	b2db      	uxtb	r3, r3
 800115a:	f043 0301 	orr.w	r3, r3, #1
 800115e:	b2da      	uxtb	r2, r3
 8001160:	4b41      	ldr	r3, [pc, #260]	; (8001268 <pushButtonISR+0x1b8>)
 8001162:	70da      	strb	r2, [r3, #3]
 8001164:	e007      	b.n	8001176 <pushButtonISR+0xc6>
 8001166:	4b40      	ldr	r3, [pc, #256]	; (8001268 <pushButtonISR+0x1b8>)
 8001168:	78db      	ldrb	r3, [r3, #3]
 800116a:	b2db      	uxtb	r3, r3
 800116c:	f023 0301 	bic.w	r3, r3, #1
 8001170:	b2da      	uxtb	r2, r3
 8001172:	4b3d      	ldr	r3, [pc, #244]	; (8001268 <pushButtonISR+0x1b8>)
 8001174:	70da      	strb	r2, [r3, #3]

	for (uint8_t n = 0; n < NUM_BUTTONS; n++) {
 8001176:	2300      	movs	r3, #0
 8001178:	71fb      	strb	r3, [r7, #7]
 800117a:	e06b      	b.n	8001254 <pushButtonISR+0x1a4>
		// button has not been queried before
		if (~buttonState[n] & BTN_QUERIED) {
 800117c:	79fb      	ldrb	r3, [r7, #7]
 800117e:	4a3a      	ldr	r2, [pc, #232]	; (8001268 <pushButtonISR+0x1b8>)
 8001180:	5cd3      	ldrb	r3, [r2, r3]
 8001182:	b2db      	uxtb	r3, r3
 8001184:	f003 0310 	and.w	r3, r3, #16
 8001188:	2b00      	cmp	r3, #0
 800118a:	d14f      	bne.n	800122c <pushButtonISR+0x17c>
			if ((buttonTime[n] >= 10) && (buttonTime[n] < 50)) {
 800118c:	79fb      	ldrb	r3, [r7, #7]
 800118e:	4a39      	ldr	r2, [pc, #228]	; (8001274 <pushButtonISR+0x1c4>)
 8001190:	f852 3023 	ldr.w	r3, [r2, r3, lsl #2]
 8001194:	2b09      	cmp	r3, #9
 8001196:	d910      	bls.n	80011ba <pushButtonISR+0x10a>
 8001198:	79fb      	ldrb	r3, [r7, #7]
 800119a:	4a36      	ldr	r2, [pc, #216]	; (8001274 <pushButtonISR+0x1c4>)
 800119c:	f852 3023 	ldr.w	r3, [r2, r3, lsl #2]
 80011a0:	2b31      	cmp	r3, #49	; 0x31
 80011a2:	d80a      	bhi.n	80011ba <pushButtonISR+0x10a>
				buttonState[n] |= BTN_SHORT;
 80011a4:	79fb      	ldrb	r3, [r7, #7]
 80011a6:	4a30      	ldr	r2, [pc, #192]	; (8001268 <pushButtonISR+0x1b8>)
 80011a8:	5cd3      	ldrb	r3, [r2, r3]
 80011aa:	b2da      	uxtb	r2, r3
 80011ac:	79fb      	ldrb	r3, [r7, #7]
 80011ae:	f042 0202 	orr.w	r2, r2, #2
 80011b2:	b2d1      	uxtb	r1, r2
 80011b4:	4a2c      	ldr	r2, [pc, #176]	; (8001268 <pushButtonISR+0x1b8>)
 80011b6:	54d1      	strb	r1, [r2, r3]
 80011b8:	e028      	b.n	800120c <pushButtonISR+0x15c>
			} else if ((buttonTime[n] >= 50) && (buttonTime[n] < 500)) {
 80011ba:	79fb      	ldrb	r3, [r7, #7]
 80011bc:	4a2d      	ldr	r2, [pc, #180]	; (8001274 <pushButtonISR+0x1c4>)
 80011be:	f852 3023 	ldr.w	r3, [r2, r3, lsl #2]
 80011c2:	2b31      	cmp	r3, #49	; 0x31
 80011c4:	d911      	bls.n	80011ea <pushButtonISR+0x13a>
 80011c6:	79fb      	ldrb	r3, [r7, #7]
 80011c8:	4a2a      	ldr	r2, [pc, #168]	; (8001274 <pushButtonISR+0x1c4>)
 80011ca:	f852 3023 	ldr.w	r3, [r2, r3, lsl #2]
 80011ce:	f5b3 7ffa 	cmp.w	r3, #500	; 0x1f4
 80011d2:	d20a      	bcs.n	80011ea <pushButtonISR+0x13a>
				buttonState[n] |= BTN_LONG;
 80011d4:	79fb      	ldrb	r3, [r7, #7]
 80011d6:	4a24      	ldr	r2, [pc, #144]	; (8001268 <pushButtonISR+0x1b8>)
 80011d8:	5cd3      	ldrb	r3, [r2, r3]
 80011da:	b2da      	uxtb	r2, r3
 80011dc:	79fb      	ldrb	r3, [r7, #7]
 80011de:	f042 0204 	orr.w	r2, r2, #4
 80011e2:	b2d1      	uxtb	r1, r2
 80011e4:	4a20      	ldr	r2, [pc, #128]	; (8001268 <pushButtonISR+0x1b8>)
 80011e6:	54d1      	strb	r1, [r2, r3]
 80011e8:	e010      	b.n	800120c <pushButtonISR+0x15c>
			} else if (buttonTime[n] >= 500) {
 80011ea:	79fb      	ldrb	r3, [r7, #7]
 80011ec:	4a21      	ldr	r2, [pc, #132]	; (8001274 <pushButtonISR+0x1c4>)
 80011ee:	f852 3023 	ldr.w	r3, [r2, r3, lsl #2]
 80011f2:	f5b3 7ffa 	cmp.w	r3, #500	; 0x1f4
 80011f6:	d309      	bcc.n	800120c <pushButtonISR+0x15c>
				buttonState[n] |= BTN_FAULT;
 80011f8:	79fb      	ldrb	r3, [r7, #7]
 80011fa:	4a1b      	ldr	r2, [pc, #108]	; (8001268 <pushButtonISR+0x1b8>)
 80011fc:	5cd3      	ldrb	r3, [r2, r3]
 80011fe:	b2da      	uxtb	r2, r3
 8001200:	79fb      	ldrb	r3, [r7, #7]
 8001202:	f042 0208 	orr.w	r2, r2, #8
 8001206:	b2d1      	uxtb	r1, r2
 8001208:	4a17      	ldr	r2, [pc, #92]	; (8001268 <pushButtonISR+0x1b8>)
 800120a:	54d1      	strb	r1, [r2, r3]
			}

			// Button pushed? Increase time
			if (buttonState[n] & BTN_PUSHED) {
 800120c:	79fb      	ldrb	r3, [r7, #7]
 800120e:	4a16      	ldr	r2, [pc, #88]	; (8001268 <pushButtonISR+0x1b8>)
 8001210:	5cd3      	ldrb	r3, [r2, r3]
 8001212:	b2db      	uxtb	r3, r3
 8001214:	f003 0301 	and.w	r3, r3, #1
 8001218:	2b00      	cmp	r3, #0
 800121a:	d007      	beq.n	800122c <pushButtonISR+0x17c>
				buttonTime[n]++;
 800121c:	79fb      	ldrb	r3, [r7, #7]
 800121e:	4a15      	ldr	r2, [pc, #84]	; (8001274 <pushButtonISR+0x1c4>)
 8001220:	f852 2023 	ldr.w	r2, [r2, r3, lsl #2]
 8001224:	3201      	adds	r2, #1
 8001226:	4913      	ldr	r1, [pc, #76]	; (8001274 <pushButtonISR+0x1c4>)
 8001228:	f841 2023 	str.w	r2, [r1, r3, lsl #2]
			}
		}
		// Button released? Reset state and time
		if (~buttonState[n] & BTN_PUSHED){
 800122c:	79fb      	ldrb	r3, [r7, #7]
 800122e:	4a0e      	ldr	r2, [pc, #56]	; (8001268 <pushButtonISR+0x1b8>)
 8001230:	5cd3      	ldrb	r3, [r2, r3]
 8001232:	b2db      	uxtb	r3, r3
 8001234:	f003 0301 	and.w	r3, r3, #1
 8001238:	2b00      	cmp	r3, #0
 800123a:	d108      	bne.n	800124e <pushButtonISR+0x19e>
			buttonState[n] = 0;
 800123c:	79fb      	ldrb	r3, [r7, #7]
 800123e:	4a0a      	ldr	r2, [pc, #40]	; (8001268 <pushButtonISR+0x1b8>)
 8001240:	2100      	movs	r1, #0
 8001242:	54d1      	strb	r1, [r2, r3]
			buttonTime[n] = 0;
 8001244:	79fb      	ldrb	r3, [r7, #7]
 8001246:	4a0b      	ldr	r2, [pc, #44]	; (8001274 <pushButtonISR+0x1c4>)
 8001248:	2100      	movs	r1, #0
 800124a:	f842 1023 	str.w	r1, [r2, r3, lsl #2]
	for (uint8_t n = 0; n < NUM_BUTTONS; n++) {
 800124e:	79fb      	ldrb	r3, [r7, #7]
 8001250:	3301      	adds	r3, #1
 8001252:	71fb      	strb	r3, [r7, #7]
 8001254:	79fb      	ldrb	r3, [r7, #7]
 8001256:	2b03      	cmp	r3, #3
 8001258:	d990      	bls.n	800117c <pushButtonISR+0xcc>
		}
	}
}
 800125a:	bf00      	nop
 800125c:	bf00      	nop
 800125e:	3708      	adds	r7, #8
 8001260:	46bd      	mov	sp, r7
 8001262:	bd80      	pop	{r7, pc}
 8001264:	40020000 	.word	0x40020000
 8001268:	200005ec 	.word	0x200005ec
 800126c:	40020400 	.word	0x40020400
 8001270:	40020800 	.word	0x40020800
 8001274:	200005f0 	.word	0x200005f0

08001278 <checkButton>:
//-----------------------------------------------------------------------------
// Checks frontpanel push button 'button' against 'value'
// Sets buttonState to BTN_QUERIED
//-----------------------------------------------------------------------------
uint8_t checkButton(uint8_t button, uint8_t value)
{
 8001278:	b480      	push	{r7}
 800127a:	b085      	sub	sp, #20
 800127c:	af00      	add	r7, sp, #0
 800127e:	4603      	mov	r3, r0
 8001280:	460a      	mov	r2, r1
 8001282:	71fb      	strb	r3, [r7, #7]
 8001284:	4613      	mov	r3, r2
 8001286:	71bb      	strb	r3, [r7, #6]
	uint8_t stat = buttonState[button];
 8001288:	79fb      	ldrb	r3, [r7, #7]
 800128a:	4a0c      	ldr	r2, [pc, #48]	; (80012bc <checkButton+0x44>)
 800128c:	5cd3      	ldrb	r3, [r2, r3]
 800128e:	73fb      	strb	r3, [r7, #15]

	if (stat & value) {
 8001290:	7bfa      	ldrb	r2, [r7, #15]
 8001292:	79bb      	ldrb	r3, [r7, #6]
 8001294:	4013      	ands	r3, r2
 8001296:	b2db      	uxtb	r3, r3
 8001298:	2b00      	cmp	r3, #0
 800129a:	d008      	beq.n	80012ae <checkButton+0x36>
		buttonState[button] = BTN_QUERIED;
 800129c:	79fb      	ldrb	r3, [r7, #7]
 800129e:	4a07      	ldr	r2, [pc, #28]	; (80012bc <checkButton+0x44>)
 80012a0:	2110      	movs	r1, #16
 80012a2:	54d1      	strb	r1, [r2, r3]
		gScreenRefresh = 1;
 80012a4:	4b06      	ldr	r3, [pc, #24]	; (80012c0 <checkButton+0x48>)
 80012a6:	2201      	movs	r2, #1
 80012a8:	701a      	strb	r2, [r3, #0]
		return 1;
 80012aa:	2301      	movs	r3, #1
 80012ac:	e000      	b.n	80012b0 <checkButton+0x38>
	} else {
		return 0;
 80012ae:	2300      	movs	r3, #0
	}
}
 80012b0:	4618      	mov	r0, r3
 80012b2:	3714      	adds	r7, #20
 80012b4:	46bd      	mov	sp, r7
 80012b6:	f85d 7b04 	ldr.w	r7, [sp], #4
 80012ba:	4770      	bx	lr
 80012bc:	200005ec 	.word	0x200005ec
 80012c0:	200006e0 	.word	0x200006e0

080012c4 <refreshScreen>:

uint8_t refreshScreen(void)
{
 80012c4:	b480      	push	{r7}
 80012c6:	af00      	add	r7, sp, #0
	if (gScreenRefresh) {
 80012c8:	4b07      	ldr	r3, [pc, #28]	; (80012e8 <refreshScreen+0x24>)
 80012ca:	781b      	ldrb	r3, [r3, #0]
 80012cc:	b2db      	uxtb	r3, r3
 80012ce:	2b00      	cmp	r3, #0
 80012d0:	d004      	beq.n	80012dc <refreshScreen+0x18>
		gScreenRefresh = 0;
 80012d2:	4b05      	ldr	r3, [pc, #20]	; (80012e8 <refreshScreen+0x24>)
 80012d4:	2200      	movs	r2, #0
 80012d6:	701a      	strb	r2, [r3, #0]
		return 1;
 80012d8:	2301      	movs	r3, #1
 80012da:	e000      	b.n	80012de <refreshScreen+0x1a>
	} else {
		return 0;
 80012dc:	2300      	movs	r3, #0
	}
}
 80012de:	4618      	mov	r0, r3
 80012e0:	46bd      	mov	sp, r7
 80012e2:	f85d 7b04 	ldr.w	r7, [sp], #4
 80012e6:	4770      	bx	lr
 80012e8:	200006e0 	.word	0x200006e0

080012ec <updateStatusLEDs>:

//-----------------------------------------------------------------------------
// Shifts data from 'statusLEDs' into frontpanel shift register
//-----------------------------------------------------------------------------
void updateStatusLEDs(void)
{
 80012ec:	b580      	push	{r7, lr}
 80012ee:	b082      	sub	sp, #8
 80012f0:	af00      	add	r7, sp, #0
	for(int i = 0; i < 8; i++) {
 80012f2:	2300      	movs	r3, #0
 80012f4:	607b      	str	r3, [r7, #4]
 80012f6:	e024      	b.n	8001342 <updateStatusLEDs+0x56>
		if ((statusLEDs >> i) & 1)
 80012f8:	4b1b      	ldr	r3, [pc, #108]	; (8001368 <updateStatusLEDs+0x7c>)
 80012fa:	781b      	ldrb	r3, [r3, #0]
 80012fc:	b2db      	uxtb	r3, r3
 80012fe:	461a      	mov	r2, r3
 8001300:	687b      	ldr	r3, [r7, #4]
 8001302:	fa42 f303 	asr.w	r3, r2, r3
 8001306:	f003 0301 	and.w	r3, r3, #1
 800130a:	2b00      	cmp	r3, #0
 800130c:	d005      	beq.n	800131a <updateStatusLEDs+0x2e>
			HAL_GPIO_WritePin(FP_STATUS_SDI_GPIO_Port, FP_STATUS_SDI_Pin, GPIO_PIN_SET);
 800130e:	2201      	movs	r2, #1
 8001310:	2102      	movs	r1, #2
 8001312:	4816      	ldr	r0, [pc, #88]	; (800136c <updateStatusLEDs+0x80>)
 8001314:	f006 fe46 	bl	8007fa4 <HAL_GPIO_WritePin>
 8001318:	e004      	b.n	8001324 <updateStatusLEDs+0x38>
		else
			HAL_GPIO_WritePin(FP_STATUS_SDI_GPIO_Port, FP_STATUS_SDI_Pin, GPIO_PIN_RESET);
 800131a:	2200      	movs	r2, #0
 800131c:	2102      	movs	r1, #2
 800131e:	4813      	ldr	r0, [pc, #76]	; (800136c <updateStatusLEDs+0x80>)
 8001320:	f006 fe40 	bl	8007fa4 <HAL_GPIO_WritePin>
		HAL_GPIO_WritePin(FP_STATUS_CLK_GPIO_Port, FP_STATUS_CLK_Pin, GPIO_PIN_SET);
 8001324:	2201      	movs	r2, #1
 8001326:	f44f 6180 	mov.w	r1, #1024	; 0x400
 800132a:	4810      	ldr	r0, [pc, #64]	; (800136c <updateStatusLEDs+0x80>)
 800132c:	f006 fe3a 	bl	8007fa4 <HAL_GPIO_WritePin>
		HAL_GPIO_WritePin(FP_STATUS_CLK_GPIO_Port, FP_STATUS_CLK_Pin, GPIO_PIN_RESET);
 8001330:	2200      	movs	r2, #0
 8001332:	f44f 6180 	mov.w	r1, #1024	; 0x400
 8001336:	480d      	ldr	r0, [pc, #52]	; (800136c <updateStatusLEDs+0x80>)
 8001338:	f006 fe34 	bl	8007fa4 <HAL_GPIO_WritePin>
	for(int i = 0; i < 8; i++) {
 800133c:	687b      	ldr	r3, [r7, #4]
 800133e:	3301      	adds	r3, #1
 8001340:	607b      	str	r3, [r7, #4]
 8001342:	687b      	ldr	r3, [r7, #4]
 8001344:	2b07      	cmp	r3, #7
 8001346:	ddd7      	ble.n	80012f8 <updateStatusLEDs+0xc>
	}
	HAL_GPIO_WritePin(FP_STATUS_LE_GPIO_Port, FP_STATUS_LE_Pin, GPIO_PIN_SET);
 8001348:	2201      	movs	r2, #1
 800134a:	f44f 6100 	mov.w	r1, #2048	; 0x800
 800134e:	4807      	ldr	r0, [pc, #28]	; (800136c <updateStatusLEDs+0x80>)
 8001350:	f006 fe28 	bl	8007fa4 <HAL_GPIO_WritePin>
	HAL_GPIO_WritePin(FP_STATUS_LE_GPIO_Port, FP_STATUS_LE_Pin, GPIO_PIN_RESET);
 8001354:	2200      	movs	r2, #0
 8001356:	f44f 6100 	mov.w	r1, #2048	; 0x800
 800135a:	4804      	ldr	r0, [pc, #16]	; (800136c <updateStatusLEDs+0x80>)
 800135c:	f006 fe22 	bl	8007fa4 <HAL_GPIO_WritePin>
}
 8001360:	bf00      	nop
 8001362:	3708      	adds	r7, #8
 8001364:	46bd      	mov	sp, r7
 8001366:	bd80      	pop	{r7, pc}
 8001368:	200006e3 	.word	0x200006e3
 800136c:	40020400 	.word	0x40020400

08001370 <LCD_SPIInit>:
};

SPI_HandleTypeDef *hspi_lcd;

void LCD_SPIInit(SPI_HandleTypeDef *hspi)
{
 8001370:	b580      	push	{r7, lr}
 8001372:	b082      	sub	sp, #8
 8001374:	af00      	add	r7, sp, #0
 8001376:	6078      	str	r0, [r7, #4]
	// Store SPI handle
	hspi_lcd = hspi;
 8001378:	4a34      	ldr	r2, [pc, #208]	; (800144c <LCD_SPIInit+0xdc>)
 800137a:	687b      	ldr	r3, [r7, #4]
 800137c:	6013      	str	r3, [r2, #0]
	HAL_GPIO_WritePin(FP_LCD_BL_GPIO_Port, FP_LCD_BL_Pin, GPIO_PIN_SET);
 800137e:	2201      	movs	r2, #1
 8001380:	f44f 5180 	mov.w	r1, #4096	; 0x1000
 8001384:	4832      	ldr	r0, [pc, #200]	; (8001450 <LCD_SPIInit+0xe0>)
 8001386:	f006 fe0d 	bl	8007fa4 <HAL_GPIO_WritePin>
	// Pull reset line low for 5ms
	HAL_GPIO_WritePin(nFP_LCD_RESET_GPIO_Port, nFP_LCD_RESET_Pin, GPIO_PIN_RESET);
 800138a:	2200      	movs	r2, #0
 800138c:	2110      	movs	r1, #16
 800138e:	4831      	ldr	r0, [pc, #196]	; (8001454 <LCD_SPIInit+0xe4>)
 8001390:	f006 fe08 	bl	8007fa4 <HAL_GPIO_WritePin>
	HAL_Delay(5);
 8001394:	2005      	movs	r0, #5
 8001396:	f005 fa1d 	bl	80067d4 <HAL_Delay>
	HAL_GPIO_WritePin(nFP_LCD_RESET_GPIO_Port, nFP_LCD_RESET_Pin, GPIO_PIN_SET);
 800139a:	2201      	movs	r2, #1
 800139c:	2110      	movs	r1, #16
 800139e:	482d      	ldr	r0, [pc, #180]	; (8001454 <LCD_SPIInit+0xe4>)
 80013a0:	f006 fe00 	bl	8007fa4 <HAL_GPIO_WritePin>
	LCD_SendByte(0, 0, 0x3a);	// Initialization according to datasheet...
 80013a4:	223a      	movs	r2, #58	; 0x3a
 80013a6:	2100      	movs	r1, #0
 80013a8:	2000      	movs	r0, #0
 80013aa:	f000 f855 	bl	8001458 <LCD_SendByte>
	LCD_SendByte(0, 0, 0x09);
 80013ae:	2209      	movs	r2, #9
 80013b0:	2100      	movs	r1, #0
 80013b2:	2000      	movs	r0, #0
 80013b4:	f000 f850 	bl	8001458 <LCD_SendByte>
	LCD_SendByte(0, 0, 0x06);
 80013b8:	2206      	movs	r2, #6
 80013ba:	2100      	movs	r1, #0
 80013bc:	2000      	movs	r0, #0
 80013be:	f000 f84b 	bl	8001458 <LCD_SendByte>
	LCD_SendByte(0, 0, 0x1e);
 80013c2:	221e      	movs	r2, #30
 80013c4:	2100      	movs	r1, #0
 80013c6:	2000      	movs	r0, #0
 80013c8:	f000 f846 	bl	8001458 <LCD_SendByte>
	LCD_SendByte(0, 0, 0x39);
 80013cc:	2239      	movs	r2, #57	; 0x39
 80013ce:	2100      	movs	r1, #0
 80013d0:	2000      	movs	r0, #0
 80013d2:	f000 f841 	bl	8001458 <LCD_SendByte>
	LCD_SendByte(0, 0, 0x1b);
 80013d6:	221b      	movs	r2, #27
 80013d8:	2100      	movs	r1, #0
 80013da:	2000      	movs	r0, #0
 80013dc:	f000 f83c 	bl	8001458 <LCD_SendByte>
	LCD_SendByte(0, 0, 0x6e);
 80013e0:	226e      	movs	r2, #110	; 0x6e
 80013e2:	2100      	movs	r1, #0
 80013e4:	2000      	movs	r0, #0
 80013e6:	f000 f837 	bl	8001458 <LCD_SendByte>
	LCD_SendByte(0, 0, 0x57);
 80013ea:	2257      	movs	r2, #87	; 0x57
 80013ec:	2100      	movs	r1, #0
 80013ee:	2000      	movs	r0, #0
 80013f0:	f000 f832 	bl	8001458 <LCD_SendByte>
	LCD_SendByte(0, 0, 0x72);
 80013f4:	2272      	movs	r2, #114	; 0x72
 80013f6:	2100      	movs	r1, #0
 80013f8:	2000      	movs	r0, #0
 80013fa:	f000 f82d 	bl	8001458 <LCD_SendByte>
	LCD_SendByte(0, 0, 0x38);
 80013fe:	2238      	movs	r2, #56	; 0x38
 8001400:	2100      	movs	r1, #0
 8001402:	2000      	movs	r0, #0
 8001404:	f000 f828 	bl	8001458 <LCD_SendByte>
	LCD_SendByte(0, 0, 0x0C);	// Display on
 8001408:	220c      	movs	r2, #12
 800140a:	2100      	movs	r1, #0
 800140c:	2000      	movs	r0, #0
 800140e:	f000 f823 	bl	8001458 <LCD_SendByte>
	LCD_SendByte(0, 0, 0x01);	// Clear display
 8001412:	2201      	movs	r2, #1
 8001414:	2100      	movs	r1, #0
 8001416:	2000      	movs	r0, #0
 8001418:	f000 f81e 	bl	8001458 <LCD_SendByte>

	// Select character ROM A
	LCD_SendByte(0, 0, 0x3a);
 800141c:	223a      	movs	r2, #58	; 0x3a
 800141e:	2100      	movs	r1, #0
 8001420:	2000      	movs	r0, #0
 8001422:	f000 f819 	bl	8001458 <LCD_SendByte>
	LCD_SendByte(0, 0, 0x72);
 8001426:	2272      	movs	r2, #114	; 0x72
 8001428:	2100      	movs	r1, #0
 800142a:	2000      	movs	r0, #0
 800142c:	f000 f814 	bl	8001458 <LCD_SendByte>
	LCD_SendByte(0, 1, 0x00);
 8001430:	2200      	movs	r2, #0
 8001432:	2101      	movs	r1, #1
 8001434:	2000      	movs	r0, #0
 8001436:	f000 f80f 	bl	8001458 <LCD_SendByte>
	LCD_SendByte(0, 0, 0x38);
 800143a:	2238      	movs	r2, #56	; 0x38
 800143c:	2100      	movs	r1, #0
 800143e:	2000      	movs	r0, #0
 8001440:	f000 f80a 	bl	8001458 <LCD_SendByte>

}
 8001444:	bf00      	nop
 8001446:	3708      	adds	r7, #8
 8001448:	46bd      	mov	sp, r7
 800144a:	bd80      	pop	{r7, pc}
 800144c:	200006f0 	.word	0x200006f0
 8001450:	40020400 	.word	0x40020400
 8001454:	40020000 	.word	0x40020000

08001458 <LCD_SendByte>:

void LCD_SendByte(uint8_t rw, uint8_t rs, uint8_t byte)
{
 8001458:	b580      	push	{r7, lr}
 800145a:	b084      	sub	sp, #16
 800145c:	af00      	add	r7, sp, #0
 800145e:	4603      	mov	r3, r0
 8001460:	71fb      	strb	r3, [r7, #7]
 8001462:	460b      	mov	r3, r1
 8001464:	71bb      	strb	r3, [r7, #6]
 8001466:	4613      	mov	r3, r2
 8001468:	717b      	strb	r3, [r7, #5]
	uint8_t data[3];
	data[0] = 0x1f | (rw << 5) | (rs << 6);
 800146a:	79fb      	ldrb	r3, [r7, #7]
 800146c:	015b      	lsls	r3, r3, #5
 800146e:	b25b      	sxtb	r3, r3
 8001470:	f043 031f 	orr.w	r3, r3, #31
 8001474:	b25a      	sxtb	r2, r3
 8001476:	79bb      	ldrb	r3, [r7, #6]
 8001478:	019b      	lsls	r3, r3, #6
 800147a:	b25b      	sxtb	r3, r3
 800147c:	4313      	orrs	r3, r2
 800147e:	b25b      	sxtb	r3, r3
 8001480:	b2db      	uxtb	r3, r3
 8001482:	733b      	strb	r3, [r7, #12]
	data[1] = byte & 0x0f;
 8001484:	797b      	ldrb	r3, [r7, #5]
 8001486:	f003 030f 	and.w	r3, r3, #15
 800148a:	b2db      	uxtb	r3, r3
 800148c:	737b      	strb	r3, [r7, #13]
	data[2] = (byte >> 4) & 0x0f;
 800148e:	797b      	ldrb	r3, [r7, #5]
 8001490:	091b      	lsrs	r3, r3, #4
 8001492:	b2db      	uxtb	r3, r3
 8001494:	73bb      	strb	r3, [r7, #14]
	HAL_SPI_Transmit(hspi_lcd, data, 3, HAL_MAX_DELAY);
 8001496:	4b06      	ldr	r3, [pc, #24]	; (80014b0 <LCD_SendByte+0x58>)
 8001498:	6818      	ldr	r0, [r3, #0]
 800149a:	f107 010c 	add.w	r1, r7, #12
 800149e:	f04f 33ff 	mov.w	r3, #4294967295	; 0xffffffff
 80014a2:	2203      	movs	r2, #3
 80014a4:	f007 facb 	bl	8008a3e <HAL_SPI_Transmit>
}
 80014a8:	bf00      	nop
 80014aa:	3710      	adds	r7, #16
 80014ac:	46bd      	mov	sp, r7
 80014ae:	bd80      	pop	{r7, pc}
 80014b0:	200006f0 	.word	0x200006f0

080014b4 <LCD_Clear>:
{
	LCD_SendByte(0,0, LCD_DISPLAYCONTROL | LCD_DISPLAYON);
}

void LCD_Clear(void)
{
 80014b4:	b580      	push	{r7, lr}
 80014b6:	af00      	add	r7, sp, #0
	LCD_SendByte(0, 0, LCD_CLEARDISPLAY);
 80014b8:	2201      	movs	r2, #1
 80014ba:	2100      	movs	r1, #0
 80014bc:	2000      	movs	r0, #0
 80014be:	f7ff ffcb 	bl	8001458 <LCD_SendByte>
}
 80014c2:	bf00      	nop
 80014c4:	bd80      	pop	{r7, pc}

080014c6 <LCD_SetContrast>:

void LCD_SetContrast(uint8_t contrast)
{
 80014c6:	b580      	push	{r7, lr}
 80014c8:	b082      	sub	sp, #8
 80014ca:	af00      	add	r7, sp, #0
 80014cc:	4603      	mov	r3, r0
 80014ce:	71fb      	strb	r3, [r7, #7]
	LCD_SendByte(0, 0, 0x39);
 80014d0:	2239      	movs	r2, #57	; 0x39
 80014d2:	2100      	movs	r1, #0
 80014d4:	2000      	movs	r0, #0
 80014d6:	f7ff ffbf 	bl	8001458 <LCD_SendByte>
	LCD_SendByte(0, 0, 0x54 | ((contrast & 0x30) >> 4));
 80014da:	79fb      	ldrb	r3, [r7, #7]
 80014dc:	111b      	asrs	r3, r3, #4
 80014de:	b25b      	sxtb	r3, r3
 80014e0:	f003 0303 	and.w	r3, r3, #3
 80014e4:	b25b      	sxtb	r3, r3
 80014e6:	f043 0354 	orr.w	r3, r3, #84	; 0x54
 80014ea:	b25b      	sxtb	r3, r3
 80014ec:	b2db      	uxtb	r3, r3
 80014ee:	461a      	mov	r2, r3
 80014f0:	2100      	movs	r1, #0
 80014f2:	2000      	movs	r0, #0
 80014f4:	f7ff ffb0 	bl	8001458 <LCD_SendByte>
	LCD_SendByte(0, 0, 0x70 | (contrast & 0x0f));
 80014f8:	f997 3007 	ldrsb.w	r3, [r7, #7]
 80014fc:	f003 030f 	and.w	r3, r3, #15
 8001500:	b25b      	sxtb	r3, r3
 8001502:	f043 0370 	orr.w	r3, r3, #112	; 0x70
 8001506:	b25b      	sxtb	r3, r3
 8001508:	b2db      	uxtb	r3, r3
 800150a:	461a      	mov	r2, r3
 800150c:	2100      	movs	r1, #0
 800150e:	2000      	movs	r0, #0
 8001510:	f7ff ffa2 	bl	8001458 <LCD_SendByte>
	LCD_SendByte(0, 0, 0x38);
 8001514:	2238      	movs	r2, #56	; 0x38
 8001516:	2100      	movs	r1, #0
 8001518:	2000      	movs	r0, #0
 800151a:	f7ff ff9d 	bl	8001458 <LCD_SendByte>
}
 800151e:	bf00      	nop
 8001520:	3708      	adds	r7, #8
 8001522:	46bd      	mov	sp, r7
 8001524:	bd80      	pop	{r7, pc}

08001526 <LCD_WriteXY>:

void LCD_WriteXY(uint8_t x, uint8_t y, const char *s)
{
 8001526:	b580      	push	{r7, lr}
 8001528:	b082      	sub	sp, #8
 800152a:	af00      	add	r7, sp, #0
 800152c:	4603      	mov	r3, r0
 800152e:	603a      	str	r2, [r7, #0]
 8001530:	71fb      	strb	r3, [r7, #7]
 8001532:	460b      	mov	r3, r1
 8001534:	71bb      	strb	r3, [r7, #6]
	for (uint8_t n = 0; n < x; n++)
		printf(" ");
	printf(s);
	printf("\n");
#else
	LCD_SendByte(0, 0, LCD_SETDDRAMADDR | (x + (y << 5)));
 8001536:	79bb      	ldrb	r3, [r7, #6]
 8001538:	015b      	lsls	r3, r3, #5
 800153a:	b2da      	uxtb	r2, r3
 800153c:	79fb      	ldrb	r3, [r7, #7]
 800153e:	4413      	add	r3, r2
 8001540:	b2db      	uxtb	r3, r3
 8001542:	b25b      	sxtb	r3, r3
 8001544:	f063 037f 	orn	r3, r3, #127	; 0x7f
 8001548:	b25b      	sxtb	r3, r3
 800154a:	b2db      	uxtb	r3, r3
 800154c:	461a      	mov	r2, r3
 800154e:	2100      	movs	r1, #0
 8001550:	2000      	movs	r0, #0
 8001552:	f7ff ff81 	bl	8001458 <LCD_SendByte>
	while(*s)
 8001556:	e008      	b.n	800156a <LCD_WriteXY+0x44>
		LCD_SendByte(0, 1, *s++);
 8001558:	683b      	ldr	r3, [r7, #0]
 800155a:	1c5a      	adds	r2, r3, #1
 800155c:	603a      	str	r2, [r7, #0]
 800155e:	781b      	ldrb	r3, [r3, #0]
 8001560:	461a      	mov	r2, r3
 8001562:	2101      	movs	r1, #1
 8001564:	2000      	movs	r0, #0
 8001566:	f7ff ff77 	bl	8001458 <LCD_SendByte>
	while(*s)
 800156a:	683b      	ldr	r3, [r7, #0]
 800156c:	781b      	ldrb	r3, [r3, #0]
 800156e:	2b00      	cmp	r3, #0
 8001570:	d1f2      	bne.n	8001558 <LCD_WriteXY+0x32>
#endif
}
 8001572:	bf00      	nop
 8001574:	bf00      	nop
 8001576:	3708      	adds	r7, #8
 8001578:	46bd      	mov	sp, r7
 800157a:	bd80      	pop	{r7, pc}

0800157c <LCD_LoadCustomChars>:


void LCD_LoadCustomChars(void)
{
 800157c:	b580      	push	{r7, lr}
 800157e:	b082      	sub	sp, #8
 8001580:	af00      	add	r7, sp, #0
	uint8_t n;

	LCD_SendByte(0, 0, LCD_SETCGRAMADDR + 8);
 8001582:	2248      	movs	r2, #72	; 0x48
 8001584:	2100      	movs	r1, #0
 8001586:	2000      	movs	r0, #0
 8001588:	f7ff ff66 	bl	8001458 <LCD_SendByte>
	for(n = 0; n < sizeof(customChars); n++) {
 800158c:	2300      	movs	r3, #0
 800158e:	71fb      	strb	r3, [r7, #7]
 8001590:	e00a      	b.n	80015a8 <LCD_LoadCustomChars+0x2c>
		LCD_SendByte(0, 1, customChars[n]);
 8001592:	79fb      	ldrb	r3, [r7, #7]
 8001594:	4a08      	ldr	r2, [pc, #32]	; (80015b8 <LCD_LoadCustomChars+0x3c>)
 8001596:	5cd3      	ldrb	r3, [r2, r3]
 8001598:	461a      	mov	r2, r3
 800159a:	2101      	movs	r1, #1
 800159c:	2000      	movs	r0, #0
 800159e:	f7ff ff5b 	bl	8001458 <LCD_SendByte>
	for(n = 0; n < sizeof(customChars); n++) {
 80015a2:	79fb      	ldrb	r3, [r7, #7]
 80015a4:	3301      	adds	r3, #1
 80015a6:	71fb      	strb	r3, [r7, #7]
 80015a8:	79fb      	ldrb	r3, [r7, #7]
 80015aa:	2b47      	cmp	r3, #71	; 0x47
 80015ac:	d9f1      	bls.n	8001592 <LCD_LoadCustomChars+0x16>
	}
}
 80015ae:	bf00      	nop
 80015b0:	bf00      	nop
 80015b2:	3708      	adds	r7, #8
 80015b4:	46bd      	mov	sp, r7
 80015b6:	bd80      	pop	{r7, pc}
 80015b8:	0800d230 	.word	0x0800d230

080015bc <LCD_BlinkingBracketISR>:

void LCD_BlinkingBracketISR(void)
{
 80015bc:	b480      	push	{r7}
 80015be:	af00      	add	r7, sp, #0
	lcdBlinkFlag ^= 1;
 80015c0:	4b0f      	ldr	r3, [pc, #60]	; (8001600 <LCD_BlinkingBracketISR+0x44>)
 80015c2:	781b      	ldrb	r3, [r3, #0]
 80015c4:	b2db      	uxtb	r3, r3
 80015c6:	f083 0301 	eor.w	r3, r3, #1
 80015ca:	b2da      	uxtb	r2, r3
 80015cc:	4b0c      	ldr	r3, [pc, #48]	; (8001600 <LCD_BlinkingBracketISR+0x44>)
 80015ce:	701a      	strb	r2, [r3, #0]
	if (lcdBlinkFlag) {
 80015d0:	4b0b      	ldr	r3, [pc, #44]	; (8001600 <LCD_BlinkingBracketISR+0x44>)
 80015d2:	781b      	ldrb	r3, [r3, #0]
 80015d4:	b2db      	uxtb	r3, r3
 80015d6:	2b00      	cmp	r3, #0
 80015d8:	d006      	beq.n	80015e8 <LCD_BlinkingBracketISR+0x2c>
		BO = '\372';
 80015da:	4b0a      	ldr	r3, [pc, #40]	; (8001604 <LCD_BlinkingBracketISR+0x48>)
 80015dc:	22fa      	movs	r2, #250	; 0xfa
 80015de:	701a      	strb	r2, [r3, #0]
		BC = '\374';
 80015e0:	4b09      	ldr	r3, [pc, #36]	; (8001608 <LCD_BlinkingBracketISR+0x4c>)
 80015e2:	22fc      	movs	r2, #252	; 0xfc
 80015e4:	701a      	strb	r2, [r3, #0]
	} else {
		BO = ' ';
		BC = ' ';
	}
}
 80015e6:	e005      	b.n	80015f4 <LCD_BlinkingBracketISR+0x38>
		BO = ' ';
 80015e8:	4b06      	ldr	r3, [pc, #24]	; (8001604 <LCD_BlinkingBracketISR+0x48>)
 80015ea:	2220      	movs	r2, #32
 80015ec:	701a      	strb	r2, [r3, #0]
		BC = ' ';
 80015ee:	4b06      	ldr	r3, [pc, #24]	; (8001608 <LCD_BlinkingBracketISR+0x4c>)
 80015f0:	2220      	movs	r2, #32
 80015f2:	701a      	strb	r2, [r3, #0]
}
 80015f4:	bf00      	nop
 80015f6:	46bd      	mov	sp, r7
 80015f8:	f85d 7b04 	ldr.w	r7, [sp], #4
 80015fc:	4770      	bx	lr
 80015fe:	bf00      	nop
 8001600:	200006ea 	.word	0x200006ea
 8001604:	200006e1 	.word	0x200006e1
 8001608:	200006e2 	.word	0x200006e2

0800160c <ITM_SendChar>:
           \li Is blocking when a debugger is connected, but the previous character sent has not been transmitted.
  \param [in]     ch  Character to transmit.
  \returns            Character to transmit.
 */
__STATIC_INLINE uint32_t ITM_SendChar (uint32_t ch)
{
 800160c:	b480      	push	{r7}
 800160e:	b083      	sub	sp, #12
 8001610:	af00      	add	r7, sp, #0
 8001612:	6078      	str	r0, [r7, #4]
  if (((ITM->TCR & ITM_TCR_ITMENA_Msk) != 0UL) &&      /* ITM enabled */
 8001614:	f04f 4360 	mov.w	r3, #3758096384	; 0xe0000000
 8001618:	f8d3 3e80 	ldr.w	r3, [r3, #3712]	; 0xe80
 800161c:	f003 0301 	and.w	r3, r3, #1
 8001620:	2b00      	cmp	r3, #0
 8001622:	d013      	beq.n	800164c <ITM_SendChar+0x40>
      ((ITM->TER & 1UL               ) != 0UL)   )     /* ITM Port #0 enabled */
 8001624:	f04f 4360 	mov.w	r3, #3758096384	; 0xe0000000
 8001628:	f8d3 3e00 	ldr.w	r3, [r3, #3584]	; 0xe00
 800162c:	f003 0301 	and.w	r3, r3, #1
  if (((ITM->TCR & ITM_TCR_ITMENA_Msk) != 0UL) &&      /* ITM enabled */
 8001630:	2b00      	cmp	r3, #0
 8001632:	d00b      	beq.n	800164c <ITM_SendChar+0x40>
  {
    while (ITM->PORT[0U].u32 == 0UL)
 8001634:	e000      	b.n	8001638 <ITM_SendChar+0x2c>
    {
      __NOP();
 8001636:	bf00      	nop
    while (ITM->PORT[0U].u32 == 0UL)
 8001638:	f04f 4360 	mov.w	r3, #3758096384	; 0xe0000000
 800163c:	681b      	ldr	r3, [r3, #0]
 800163e:	2b00      	cmp	r3, #0
 8001640:	d0f9      	beq.n	8001636 <ITM_SendChar+0x2a>
    }
    ITM->PORT[0U].u8 = (uint8_t)ch;
 8001642:	f04f 4360 	mov.w	r3, #3758096384	; 0xe0000000
 8001646:	687a      	ldr	r2, [r7, #4]
 8001648:	b2d2      	uxtb	r2, r2
 800164a:	701a      	strb	r2, [r3, #0]
  }
  return (ch);
 800164c:	687b      	ldr	r3, [r7, #4]
}
 800164e:	4618      	mov	r0, r3
 8001650:	370c      	adds	r7, #12
 8001652:	46bd      	mov	sp, r7
 8001654:	f85d 7b04 	ldr.w	r7, [sp], #4
 8001658:	4770      	bx	lr
	...

0800165c <main>:
/**
  * @brief  The application entry point.
  * @retval int
  */
int main(void)
{
 800165c:	b580      	push	{r7, lr}
 800165e:	b084      	sub	sp, #16
 8001660:	af00      	add	r7, sp, #0
  /* USER CODE END 1 */

  /* MCU Configuration--------------------------------------------------------*/

  /* Reset of all peripherals, Initializes the Flash interface and the Systick. */
  HAL_Init();
 8001662:	f005 f845 	bl	80066f0 <HAL_Init>
  /* USER CODE BEGIN Init */

  /* USER CODE END Init */

  /* Configure the system clock */
  SystemClock_Config();
 8001666:	f000 f8ab 	bl	80017c0 <SystemClock_Config>

  /* USER CODE BEGIN SysInit */
  // Enable backup SRAM access
  HAL_PWR_EnableBkUpAccess();
 800166a:	f006 fce7 	bl	800803c <HAL_PWR_EnableBkUpAccess>
  __BKPSRAM_CLK_ENABLE();
 800166e:	2300      	movs	r3, #0
 8001670:	607b      	str	r3, [r7, #4]
 8001672:	4b46      	ldr	r3, [pc, #280]	; (800178c <main+0x130>)
 8001674:	6b1b      	ldr	r3, [r3, #48]	; 0x30
 8001676:	4a45      	ldr	r2, [pc, #276]	; (800178c <main+0x130>)
 8001678:	f443 2380 	orr.w	r3, r3, #262144	; 0x40000
 800167c:	6313      	str	r3, [r2, #48]	; 0x30
 800167e:	4b43      	ldr	r3, [pc, #268]	; (800178c <main+0x130>)
 8001680:	6b1b      	ldr	r3, [r3, #48]	; 0x30
 8001682:	f403 2380 	and.w	r3, r3, #262144	; 0x40000
 8001686:	607b      	str	r3, [r7, #4]
 8001688:	687b      	ldr	r3, [r7, #4]
  HAL_PWREx_EnableBkUpReg();
 800168a:	f006 fceb 	bl	8008064 <HAL_PWREx_EnableBkUpReg>
  /* USER CODE END SysInit */

  /* Initialize all configured peripherals */
  MX_GPIO_Init();
 800168e:	f000 fb25 	bl	8001cdc <MX_GPIO_Init>
  MX_DMA_Init();
 8001692:	f000 fb03 	bl	8001c9c <MX_DMA_Init>
  MX_SPI2_Init();
 8001696:	f000 f96b 	bl	8001970 <MX_SPI2_Init>
  MX_TIM2_Init();
 800169a:	f000 f9ef 	bl	8001a7c <MX_TIM2_Init>
  MX_TIM1_Init();
 800169e:	f000 f99d 	bl	80019dc <MX_TIM1_Init>
  MX_TIM3_Init();
 80016a2:	f000 fa5f 	bl	8001b64 <MX_TIM3_Init>
  MX_TIM4_Init();
 80016a6:	f000 faab 	bl	8001c00 <MX_TIM4_Init>
  MX_ADC1_Init();
 80016aa:	f000 f8f3 	bl	8001894 <MX_ADC1_Init>
  /* USER CODE BEGIN 2 */

  HAL_TIM_Base_Start_IT(&htim1);
 80016ae:	4838      	ldr	r0, [pc, #224]	; (8001790 <main+0x134>)
 80016b0:	f007 fc1c 	bl	8008eec <HAL_TIM_Base_Start_IT>
  HAL_TIM_Base_Start_IT(&htim2);
 80016b4:	4837      	ldr	r0, [pc, #220]	; (8001794 <main+0x138>)
 80016b6:	f007 fc19 	bl	8008eec <HAL_TIM_Base_Start_IT>
  HAL_TIM_Base_Start_IT(&htim3);
 80016ba:	4837      	ldr	r0, [pc, #220]	; (8001798 <main+0x13c>)
 80016bc:	f007 fc16 	bl	8008eec <HAL_TIM_Base_Start_IT>
  HAL_TIM_Base_Start_IT(&htim4);
 80016c0:	4836      	ldr	r0, [pc, #216]	; (800179c <main+0x140>)
 80016c2:	f007 fc13 	bl	8008eec <HAL_TIM_Base_Start_IT>

  HAL_ADC_Start_DMA(&hadc1, adcDmaBuffer, 3);
 80016c6:	2203      	movs	r2, #3
 80016c8:	4935      	ldr	r1, [pc, #212]	; (80017a0 <main+0x144>)
 80016ca:	4836      	ldr	r0, [pc, #216]	; (80017a4 <main+0x148>)
 80016cc:	f005 fa2a 	bl	8006b24 <HAL_ADC_Start_DMA>

  LCD_SPIInit(&hspi2);
 80016d0:	4835      	ldr	r0, [pc, #212]	; (80017a8 <main+0x14c>)
 80016d2:	f7ff fe4d 	bl	8001370 <LCD_SPIInit>
  LCD_LoadCustomChars();
 80016d6:	f7ff ff51 	bl	800157c <LCD_LoadCustomChars>

  HAL_GPIO_WritePin(STATUS_LED_GPIO_Port, STATUS_LED_Pin, GPIO_PIN_RESET);
 80016da:	2200      	movs	r2, #0
 80016dc:	2108      	movs	r1, #8
 80016de:	4833      	ldr	r0, [pc, #204]	; (80017ac <main+0x150>)
 80016e0:	f006 fc60 	bl	8007fa4 <HAL_GPIO_WritePin>

  if (checkButton(BTN_ENC, BTN_PUSHED)) {
 80016e4:	2101      	movs	r1, #1
 80016e6:	2003      	movs	r0, #3
 80016e8:	f7ff fdc6 	bl	8001278 <checkButton>
 80016ec:	4603      	mov	r3, r0
 80016ee:	2b00      	cmp	r3, #0
 80016f0:	d016      	beq.n	8001720 <main+0xc4>
	  LCD_Clear();
 80016f2:	f7ff fedf 	bl	80014b4 <LCD_Clear>
	  LCD_WriteXY(0,0,"SRAM reset...");
 80016f6:	4a2e      	ldr	r2, [pc, #184]	; (80017b0 <main+0x154>)
 80016f8:	2100      	movs	r1, #0
 80016fa:	2000      	movs	r0, #0
 80016fc:	f7ff ff13 	bl	8001526 <LCD_WriteXY>
	  HAL_Delay(500);
 8001700:	f44f 70fa 	mov.w	r0, #500	; 0x1f4
 8001704:	f005 f866 	bl	80067d4 <HAL_Delay>
	  storeSRAM();
 8001708:	f004 f9c6 	bl	8005a98 <storeSRAM>
	  LCD_WriteXY(0,1,"...done");
 800170c:	4a29      	ldr	r2, [pc, #164]	; (80017b4 <main+0x158>)
 800170e:	2101      	movs	r1, #1
 8001710:	2000      	movs	r0, #0
 8001712:	f7ff ff08 	bl	8001526 <LCD_WriteXY>
	  HAL_Delay(3000);
 8001716:	f640 30b8 	movw	r0, #3000	; 0xbb8
 800171a:	f005 f85b 	bl	80067d4 <HAL_Delay>
 800171e:	e016      	b.n	800174e <main+0xf2>
  } else {
	  LCD_Clear();
 8001720:	f7ff fec8 	bl	80014b4 <LCD_Clear>
	  LCD_WriteXY(0,0,"Restoring data");
 8001724:	4a24      	ldr	r2, [pc, #144]	; (80017b8 <main+0x15c>)
 8001726:	2100      	movs	r1, #0
 8001728:	2000      	movs	r0, #0
 800172a:	f7ff fefc 	bl	8001526 <LCD_WriteXY>
	  LCD_WriteXY(0,1,"from SRAM...");
 800172e:	4a23      	ldr	r2, [pc, #140]	; (80017bc <main+0x160>)
 8001730:	2101      	movs	r1, #1
 8001732:	2000      	movs	r0, #0
 8001734:	f7ff fef7 	bl	8001526 <LCD_WriteXY>
	  HAL_Delay(500);
 8001738:	f44f 70fa 	mov.w	r0, #500	; 0x1f4
 800173c:	f005 f84a 	bl	80067d4 <HAL_Delay>
	  restoreSRAM();
 8001740:	f004 f9d2 	bl	8005ae8 <restoreSRAM>
	  LCD_WriteXY(0,2,"...done");
 8001744:	4a1b      	ldr	r2, [pc, #108]	; (80017b4 <main+0x158>)
 8001746:	2102      	movs	r1, #2
 8001748:	2000      	movs	r0, #0
 800174a:	f7ff feec 	bl	8001526 <LCD_WriteXY>
  }
  setStore();
 800174e:	f004 f997 	bl	8005a80 <setStore>

  initMenu();
 8001752:	f003 fbb1 	bl	8004eb8 <initMenu>
  while (1)
  {
    /* USER CODE END WHILE */

    /* USER CODE BEGIN 3 */
	  if (call == NULL) {
 8001756:	68fb      	ldr	r3, [r7, #12]
 8001758:	2b00      	cmp	r3, #0
 800175a:	d105      	bne.n	8001768 <main+0x10c>
		  call = Menu();
 800175c:	f003 fc64 	bl	8005028 <Menu>
 8001760:	60f8      	str	r0, [r7, #12]
		  state = 0;
 8001762:	2300      	movs	r3, #0
 8001764:	72fb      	strb	r3, [r7, #11]
 8001766:	e7f6      	b.n	8001756 <main+0xfa>
	  } else {
		  ret = call(state);
 8001768:	f997 200b 	ldrsb.w	r2, [r7, #11]
 800176c:	68fb      	ldr	r3, [r7, #12]
 800176e:	4610      	mov	r0, r2
 8001770:	4798      	blx	r3
 8001772:	4603      	mov	r3, r0
 8001774:	72bb      	strb	r3, [r7, #10]
		  if (ret == -1)
 8001776:	f997 300a 	ldrsb.w	r3, [r7, #10]
 800177a:	f1b3 3fff 	cmp.w	r3, #4294967295	; 0xffffffff
 800177e:	d102      	bne.n	8001786 <main+0x12a>
			  call = NULL;
 8001780:	2300      	movs	r3, #0
 8001782:	60fb      	str	r3, [r7, #12]
 8001784:	e7e7      	b.n	8001756 <main+0xfa>
		  else
			  state = ret;
 8001786:	7abb      	ldrb	r3, [r7, #10]
 8001788:	72fb      	strb	r3, [r7, #11]
	  if (call == NULL) {
 800178a:	e7e4      	b.n	8001756 <main+0xfa>
 800178c:	40023800 	.word	0x40023800
 8001790:	20000884 	.word	0x20000884
 8001794:	200008cc 	.word	0x200008cc
 8001798:	20000794 	.word	0x20000794
 800179c:	2000074c 	.word	0x2000074c
 80017a0:	200006e4 	.word	0x200006e4
 80017a4:	200007dc 	.word	0x200007dc
 80017a8:	200006f4 	.word	0x200006f4
 80017ac:	40020000 	.word	0x40020000
 80017b0:	0800cad8 	.word	0x0800cad8
 80017b4:	0800cae8 	.word	0x0800cae8
 80017b8:	0800caf0 	.word	0x0800caf0
 80017bc:	0800cb00 	.word	0x0800cb00

080017c0 <SystemClock_Config>:
/**
  * @brief System Clock Configuration
  * @retval None
  */
void SystemClock_Config(void)
{
 80017c0:	b580      	push	{r7, lr}
 80017c2:	b094      	sub	sp, #80	; 0x50
 80017c4:	af00      	add	r7, sp, #0
  RCC_OscInitTypeDef RCC_OscInitStruct = {0};
 80017c6:	f107 0320 	add.w	r3, r7, #32
 80017ca:	2230      	movs	r2, #48	; 0x30
 80017cc:	2100      	movs	r1, #0
 80017ce:	4618      	mov	r0, r3
 80017d0:	f008 fa54 	bl	8009c7c <memset>
  RCC_ClkInitTypeDef RCC_ClkInitStruct = {0};
 80017d4:	f107 030c 	add.w	r3, r7, #12
 80017d8:	2200      	movs	r2, #0
 80017da:	601a      	str	r2, [r3, #0]
 80017dc:	605a      	str	r2, [r3, #4]
 80017de:	609a      	str	r2, [r3, #8]
 80017e0:	60da      	str	r2, [r3, #12]
 80017e2:	611a      	str	r2, [r3, #16]

  /** Configure the main internal regulator output voltage
  */
  __HAL_RCC_PWR_CLK_ENABLE();
 80017e4:	2300      	movs	r3, #0
 80017e6:	60bb      	str	r3, [r7, #8]
 80017e8:	4b28      	ldr	r3, [pc, #160]	; (800188c <SystemClock_Config+0xcc>)
 80017ea:	6c1b      	ldr	r3, [r3, #64]	; 0x40
 80017ec:	4a27      	ldr	r2, [pc, #156]	; (800188c <SystemClock_Config+0xcc>)
 80017ee:	f043 5380 	orr.w	r3, r3, #268435456	; 0x10000000
 80017f2:	6413      	str	r3, [r2, #64]	; 0x40
 80017f4:	4b25      	ldr	r3, [pc, #148]	; (800188c <SystemClock_Config+0xcc>)
 80017f6:	6c1b      	ldr	r3, [r3, #64]	; 0x40
 80017f8:	f003 5380 	and.w	r3, r3, #268435456	; 0x10000000
 80017fc:	60bb      	str	r3, [r7, #8]
 80017fe:	68bb      	ldr	r3, [r7, #8]
  __HAL_PWR_VOLTAGESCALING_CONFIG(PWR_REGULATOR_VOLTAGE_SCALE1);
 8001800:	2300      	movs	r3, #0
 8001802:	607b      	str	r3, [r7, #4]
 8001804:	4b22      	ldr	r3, [pc, #136]	; (8001890 <SystemClock_Config+0xd0>)
 8001806:	681b      	ldr	r3, [r3, #0]
 8001808:	4a21      	ldr	r2, [pc, #132]	; (8001890 <SystemClock_Config+0xd0>)
 800180a:	f443 4380 	orr.w	r3, r3, #16384	; 0x4000
 800180e:	6013      	str	r3, [r2, #0]
 8001810:	4b1f      	ldr	r3, [pc, #124]	; (8001890 <SystemClock_Config+0xd0>)
 8001812:	681b      	ldr	r3, [r3, #0]
 8001814:	f403 4380 	and.w	r3, r3, #16384	; 0x4000
 8001818:	607b      	str	r3, [r7, #4]
 800181a:	687b      	ldr	r3, [r7, #4]
  /** Initializes the RCC Oscillators according to the specified parameters
  * in the RCC_OscInitTypeDef structure.
  */
  RCC_OscInitStruct.OscillatorType = RCC_OSCILLATORTYPE_HSE;
 800181c:	2301      	movs	r3, #1
 800181e:	623b      	str	r3, [r7, #32]
  RCC_OscInitStruct.HSEState = RCC_HSE_ON;
 8001820:	f44f 3380 	mov.w	r3, #65536	; 0x10000
 8001824:	627b      	str	r3, [r7, #36]	; 0x24
  RCC_OscInitStruct.PLL.PLLState = RCC_PLL_ON;
 8001826:	2302      	movs	r3, #2
 8001828:	63bb      	str	r3, [r7, #56]	; 0x38
  RCC_OscInitStruct.PLL.PLLSource = RCC_PLLSOURCE_HSE;
 800182a:	f44f 0380 	mov.w	r3, #4194304	; 0x400000
 800182e:	63fb      	str	r3, [r7, #60]	; 0x3c
  RCC_OscInitStruct.PLL.PLLM = 8;
 8001830:	2308      	movs	r3, #8
 8001832:	643b      	str	r3, [r7, #64]	; 0x40
  RCC_OscInitStruct.PLL.PLLN = 64;
 8001834:	2340      	movs	r3, #64	; 0x40
 8001836:	647b      	str	r3, [r7, #68]	; 0x44
  RCC_OscInitStruct.PLL.PLLP = RCC_PLLP_DIV2;
 8001838:	2302      	movs	r3, #2
 800183a:	64bb      	str	r3, [r7, #72]	; 0x48
  RCC_OscInitStruct.PLL.PLLQ = 4;
 800183c:	2304      	movs	r3, #4
 800183e:	64fb      	str	r3, [r7, #76]	; 0x4c
  if (HAL_RCC_OscConfig(&RCC_OscInitStruct) != HAL_OK)
 8001840:	f107 0320 	add.w	r3, r7, #32
 8001844:	4618      	mov	r0, r3
 8001846:	f006 fc33 	bl	80080b0 <HAL_RCC_OscConfig>
 800184a:	4603      	mov	r3, r0
 800184c:	2b00      	cmp	r3, #0
 800184e:	d001      	beq.n	8001854 <SystemClock_Config+0x94>
  {
    Error_Handler();
 8001850:	f000 fb97 	bl	8001f82 <Error_Handler>
  }
  /** Initializes the CPU, AHB and APB buses clocks
  */
  RCC_ClkInitStruct.ClockType = RCC_CLOCKTYPE_HCLK|RCC_CLOCKTYPE_SYSCLK
 8001854:	230f      	movs	r3, #15
 8001856:	60fb      	str	r3, [r7, #12]
                              |RCC_CLOCKTYPE_PCLK1|RCC_CLOCKTYPE_PCLK2;
  RCC_ClkInitStruct.SYSCLKSource = RCC_SYSCLKSOURCE_PLLCLK;
 8001858:	2302      	movs	r3, #2
 800185a:	613b      	str	r3, [r7, #16]
  RCC_ClkInitStruct.AHBCLKDivider = RCC_SYSCLK_DIV1;
 800185c:	2300      	movs	r3, #0
 800185e:	617b      	str	r3, [r7, #20]
  RCC_ClkInitStruct.APB1CLKDivider = RCC_HCLK_DIV8;
 8001860:	f44f 53c0 	mov.w	r3, #6144	; 0x1800
 8001864:	61bb      	str	r3, [r7, #24]
  RCC_ClkInitStruct.APB2CLKDivider = RCC_HCLK_DIV8;
 8001866:	f44f 53c0 	mov.w	r3, #6144	; 0x1800
 800186a:	61fb      	str	r3, [r7, #28]

  if (HAL_RCC_ClockConfig(&RCC_ClkInitStruct, FLASH_LATENCY_2) != HAL_OK)
 800186c:	f107 030c 	add.w	r3, r7, #12
 8001870:	2102      	movs	r1, #2
 8001872:	4618      	mov	r0, r3
 8001874:	f006 fe94 	bl	80085a0 <HAL_RCC_ClockConfig>
 8001878:	4603      	mov	r3, r0
 800187a:	2b00      	cmp	r3, #0
 800187c:	d001      	beq.n	8001882 <SystemClock_Config+0xc2>
  {
    Error_Handler();
 800187e:	f000 fb80 	bl	8001f82 <Error_Handler>
  }
}
 8001882:	bf00      	nop
 8001884:	3750      	adds	r7, #80	; 0x50
 8001886:	46bd      	mov	sp, r7
 8001888:	bd80      	pop	{r7, pc}
 800188a:	bf00      	nop
 800188c:	40023800 	.word	0x40023800
 8001890:	40007000 	.word	0x40007000

08001894 <MX_ADC1_Init>:
  * @brief ADC1 Initialization Function
  * @param None
  * @retval None
  */
static void MX_ADC1_Init(void)
{
 8001894:	b580      	push	{r7, lr}
 8001896:	b084      	sub	sp, #16
 8001898:	af00      	add	r7, sp, #0

  /* USER CODE BEGIN ADC1_Init 0 */

  /* USER CODE END ADC1_Init 0 */

  ADC_ChannelConfTypeDef sConfig = {0};
 800189a:	463b      	mov	r3, r7
 800189c:	2200      	movs	r2, #0
 800189e:	601a      	str	r2, [r3, #0]
 80018a0:	605a      	str	r2, [r3, #4]
 80018a2:	609a      	str	r2, [r3, #8]
 80018a4:	60da      	str	r2, [r3, #12]
  /* USER CODE BEGIN ADC1_Init 1 */

  /* USER CODE END ADC1_Init 1 */
  /** Configure the global features of the ADC (Clock, Resolution, Data Alignment and number of conversion)
  */
  hadc1.Instance = ADC1;
 80018a6:	4b30      	ldr	r3, [pc, #192]	; (8001968 <MX_ADC1_Init+0xd4>)
 80018a8:	4a30      	ldr	r2, [pc, #192]	; (800196c <MX_ADC1_Init+0xd8>)
 80018aa:	601a      	str	r2, [r3, #0]
  hadc1.Init.ClockPrescaler = ADC_CLOCK_SYNC_PCLK_DIV2;
 80018ac:	4b2e      	ldr	r3, [pc, #184]	; (8001968 <MX_ADC1_Init+0xd4>)
 80018ae:	2200      	movs	r2, #0
 80018b0:	605a      	str	r2, [r3, #4]
  hadc1.Init.Resolution = ADC_RESOLUTION_12B;
 80018b2:	4b2d      	ldr	r3, [pc, #180]	; (8001968 <MX_ADC1_Init+0xd4>)
 80018b4:	2200      	movs	r2, #0
 80018b6:	609a      	str	r2, [r3, #8]
  hadc1.Init.ScanConvMode = ENABLE;
 80018b8:	4b2b      	ldr	r3, [pc, #172]	; (8001968 <MX_ADC1_Init+0xd4>)
 80018ba:	2201      	movs	r2, #1
 80018bc:	611a      	str	r2, [r3, #16]
  hadc1.Init.ContinuousConvMode = DISABLE;
 80018be:	4b2a      	ldr	r3, [pc, #168]	; (8001968 <MX_ADC1_Init+0xd4>)
 80018c0:	2200      	movs	r2, #0
 80018c2:	761a      	strb	r2, [r3, #24]
  hadc1.Init.DiscontinuousConvMode = DISABLE;
 80018c4:	4b28      	ldr	r3, [pc, #160]	; (8001968 <MX_ADC1_Init+0xd4>)
 80018c6:	2200      	movs	r2, #0
 80018c8:	f883 2020 	strb.w	r2, [r3, #32]
  hadc1.Init.ExternalTrigConvEdge = ADC_EXTERNALTRIGCONVEDGE_RISING;
 80018cc:	4b26      	ldr	r3, [pc, #152]	; (8001968 <MX_ADC1_Init+0xd4>)
 80018ce:	f04f 5280 	mov.w	r2, #268435456	; 0x10000000
 80018d2:	62da      	str	r2, [r3, #44]	; 0x2c
  hadc1.Init.ExternalTrigConv = ADC_EXTERNALTRIGCONV_T2_TRGO;
 80018d4:	4b24      	ldr	r3, [pc, #144]	; (8001968 <MX_ADC1_Init+0xd4>)
 80018d6:	f04f 62c0 	mov.w	r2, #100663296	; 0x6000000
 80018da:	629a      	str	r2, [r3, #40]	; 0x28
  hadc1.Init.DataAlign = ADC_DATAALIGN_RIGHT;
 80018dc:	4b22      	ldr	r3, [pc, #136]	; (8001968 <MX_ADC1_Init+0xd4>)
 80018de:	2200      	movs	r2, #0
 80018e0:	60da      	str	r2, [r3, #12]
  hadc1.Init.NbrOfConversion = 3;
 80018e2:	4b21      	ldr	r3, [pc, #132]	; (8001968 <MX_ADC1_Init+0xd4>)
 80018e4:	2203      	movs	r2, #3
 80018e6:	61da      	str	r2, [r3, #28]
  hadc1.Init.DMAContinuousRequests = ENABLE;
 80018e8:	4b1f      	ldr	r3, [pc, #124]	; (8001968 <MX_ADC1_Init+0xd4>)
 80018ea:	2201      	movs	r2, #1
 80018ec:	f883 2030 	strb.w	r2, [r3, #48]	; 0x30
  hadc1.Init.EOCSelection = ADC_EOC_SEQ_CONV;
 80018f0:	4b1d      	ldr	r3, [pc, #116]	; (8001968 <MX_ADC1_Init+0xd4>)
 80018f2:	2200      	movs	r2, #0
 80018f4:	615a      	str	r2, [r3, #20]
  if (HAL_ADC_Init(&hadc1) != HAL_OK)
 80018f6:	481c      	ldr	r0, [pc, #112]	; (8001968 <MX_ADC1_Init+0xd4>)
 80018f8:	f004 ff90 	bl	800681c <HAL_ADC_Init>
 80018fc:	4603      	mov	r3, r0
 80018fe:	2b00      	cmp	r3, #0
 8001900:	d001      	beq.n	8001906 <MX_ADC1_Init+0x72>
  {
    Error_Handler();
 8001902:	f000 fb3e 	bl	8001f82 <Error_Handler>
  }
  /** Configure for the selected ADC regular channel its corresponding rank in the sequencer and its sample time.
  */
  sConfig.Channel = ADC_CHANNEL_TEMPSENSOR;
 8001906:	2310      	movs	r3, #16
 8001908:	603b      	str	r3, [r7, #0]
  sConfig.Rank = 1;
 800190a:	2301      	movs	r3, #1
 800190c:	607b      	str	r3, [r7, #4]
  sConfig.SamplingTime = ADC_SAMPLETIME_480CYCLES;
 800190e:	2307      	movs	r3, #7
 8001910:	60bb      	str	r3, [r7, #8]
  if (HAL_ADC_ConfigChannel(&hadc1, &sConfig) != HAL_OK)
 8001912:	463b      	mov	r3, r7
 8001914:	4619      	mov	r1, r3
 8001916:	4814      	ldr	r0, [pc, #80]	; (8001968 <MX_ADC1_Init+0xd4>)
 8001918:	f005 fa32 	bl	8006d80 <HAL_ADC_ConfigChannel>
 800191c:	4603      	mov	r3, r0
 800191e:	2b00      	cmp	r3, #0
 8001920:	d001      	beq.n	8001926 <MX_ADC1_Init+0x92>
  {
    Error_Handler();
 8001922:	f000 fb2e 	bl	8001f82 <Error_Handler>
  }
  /** Configure for the selected ADC regular channel its corresponding rank in the sequencer and its sample time.
  */
  sConfig.Channel = ADC_CHANNEL_VREFINT;
 8001926:	2311      	movs	r3, #17
 8001928:	603b      	str	r3, [r7, #0]
  sConfig.Rank = 2;
 800192a:	2302      	movs	r3, #2
 800192c:	607b      	str	r3, [r7, #4]
  if (HAL_ADC_ConfigChannel(&hadc1, &sConfig) != HAL_OK)
 800192e:	463b      	mov	r3, r7
 8001930:	4619      	mov	r1, r3
 8001932:	480d      	ldr	r0, [pc, #52]	; (8001968 <MX_ADC1_Init+0xd4>)
 8001934:	f005 fa24 	bl	8006d80 <HAL_ADC_ConfigChannel>
 8001938:	4603      	mov	r3, r0
 800193a:	2b00      	cmp	r3, #0
 800193c:	d001      	beq.n	8001942 <MX_ADC1_Init+0xae>
  {
    Error_Handler();
 800193e:	f000 fb20 	bl	8001f82 <Error_Handler>
  }
  /** Configure for the selected ADC regular channel its corresponding rank in the sequencer and its sample time.
  */
  sConfig.Channel = ADC_CHANNEL_VBAT;
 8001942:	2312      	movs	r3, #18
 8001944:	603b      	str	r3, [r7, #0]
  sConfig.Rank = 3;
 8001946:	2303      	movs	r3, #3
 8001948:	607b      	str	r3, [r7, #4]
  if (HAL_ADC_ConfigChannel(&hadc1, &sConfig) != HAL_OK)
 800194a:	463b      	mov	r3, r7
 800194c:	4619      	mov	r1, r3
 800194e:	4806      	ldr	r0, [pc, #24]	; (8001968 <MX_ADC1_Init+0xd4>)
 8001950:	f005 fa16 	bl	8006d80 <HAL_ADC_ConfigChannel>
 8001954:	4603      	mov	r3, r0
 8001956:	2b00      	cmp	r3, #0
 8001958:	d001      	beq.n	800195e <MX_ADC1_Init+0xca>
  {
    Error_Handler();
 800195a:	f000 fb12 	bl	8001f82 <Error_Handler>
  }
  /* USER CODE BEGIN ADC1_Init 2 */

  /* USER CODE END ADC1_Init 2 */

}
 800195e:	bf00      	nop
 8001960:	3710      	adds	r7, #16
 8001962:	46bd      	mov	sp, r7
 8001964:	bd80      	pop	{r7, pc}
 8001966:	bf00      	nop
 8001968:	200007dc 	.word	0x200007dc
 800196c:	40012000 	.word	0x40012000

08001970 <MX_SPI2_Init>:
  * @brief SPI2 Initialization Function
  * @param None
  * @retval None
  */
static void MX_SPI2_Init(void)
{
 8001970:	b580      	push	{r7, lr}
 8001972:	af00      	add	r7, sp, #0

  /* USER CODE BEGIN SPI2_Init 1 */

  /* USER CODE END SPI2_Init 1 */
  /* SPI2 parameter configuration*/
  hspi2.Instance = SPI2;
 8001974:	4b17      	ldr	r3, [pc, #92]	; (80019d4 <MX_SPI2_Init+0x64>)
 8001976:	4a18      	ldr	r2, [pc, #96]	; (80019d8 <MX_SPI2_Init+0x68>)
 8001978:	601a      	str	r2, [r3, #0]
  hspi2.Init.Mode = SPI_MODE_MASTER;
 800197a:	4b16      	ldr	r3, [pc, #88]	; (80019d4 <MX_SPI2_Init+0x64>)
 800197c:	f44f 7282 	mov.w	r2, #260	; 0x104
 8001980:	605a      	str	r2, [r3, #4]
  hspi2.Init.Direction = SPI_DIRECTION_2LINES;
 8001982:	4b14      	ldr	r3, [pc, #80]	; (80019d4 <MX_SPI2_Init+0x64>)
 8001984:	2200      	movs	r2, #0
 8001986:	609a      	str	r2, [r3, #8]
  hspi2.Init.DataSize = SPI_DATASIZE_8BIT;
 8001988:	4b12      	ldr	r3, [pc, #72]	; (80019d4 <MX_SPI2_Init+0x64>)
 800198a:	2200      	movs	r2, #0
 800198c:	60da      	str	r2, [r3, #12]
  hspi2.Init.CLKPolarity = SPI_POLARITY_LOW;
 800198e:	4b11      	ldr	r3, [pc, #68]	; (80019d4 <MX_SPI2_Init+0x64>)
 8001990:	2200      	movs	r2, #0
 8001992:	611a      	str	r2, [r3, #16]
  hspi2.Init.CLKPhase = SPI_PHASE_1EDGE;
 8001994:	4b0f      	ldr	r3, [pc, #60]	; (80019d4 <MX_SPI2_Init+0x64>)
 8001996:	2200      	movs	r2, #0
 8001998:	615a      	str	r2, [r3, #20]
  hspi2.Init.NSS = SPI_NSS_SOFT;
 800199a:	4b0e      	ldr	r3, [pc, #56]	; (80019d4 <MX_SPI2_Init+0x64>)
 800199c:	f44f 7200 	mov.w	r2, #512	; 0x200
 80019a0:	619a      	str	r2, [r3, #24]
  hspi2.Init.BaudRatePrescaler = SPI_BAUDRATEPRESCALER_16;
 80019a2:	4b0c      	ldr	r3, [pc, #48]	; (80019d4 <MX_SPI2_Init+0x64>)
 80019a4:	2218      	movs	r2, #24
 80019a6:	61da      	str	r2, [r3, #28]
  hspi2.Init.FirstBit = SPI_FIRSTBIT_LSB;
 80019a8:	4b0a      	ldr	r3, [pc, #40]	; (80019d4 <MX_SPI2_Init+0x64>)
 80019aa:	2280      	movs	r2, #128	; 0x80
 80019ac:	621a      	str	r2, [r3, #32]
  hspi2.Init.TIMode = SPI_TIMODE_DISABLE;
 80019ae:	4b09      	ldr	r3, [pc, #36]	; (80019d4 <MX_SPI2_Init+0x64>)
 80019b0:	2200      	movs	r2, #0
 80019b2:	625a      	str	r2, [r3, #36]	; 0x24
  hspi2.Init.CRCCalculation = SPI_CRCCALCULATION_DISABLE;
 80019b4:	4b07      	ldr	r3, [pc, #28]	; (80019d4 <MX_SPI2_Init+0x64>)
 80019b6:	2200      	movs	r2, #0
 80019b8:	629a      	str	r2, [r3, #40]	; 0x28
  hspi2.Init.CRCPolynomial = 10;
 80019ba:	4b06      	ldr	r3, [pc, #24]	; (80019d4 <MX_SPI2_Init+0x64>)
 80019bc:	220a      	movs	r2, #10
 80019be:	62da      	str	r2, [r3, #44]	; 0x2c
  if (HAL_SPI_Init(&hspi2) != HAL_OK)
 80019c0:	4804      	ldr	r0, [pc, #16]	; (80019d4 <MX_SPI2_Init+0x64>)
 80019c2:	f006 ffb3 	bl	800892c <HAL_SPI_Init>
 80019c6:	4603      	mov	r3, r0
 80019c8:	2b00      	cmp	r3, #0
 80019ca:	d001      	beq.n	80019d0 <MX_SPI2_Init+0x60>
  {
    Error_Handler();
 80019cc:	f000 fad9 	bl	8001f82 <Error_Handler>
  }
  /* USER CODE BEGIN SPI2_Init 2 */

  /* USER CODE END SPI2_Init 2 */

}
 80019d0:	bf00      	nop
 80019d2:	bd80      	pop	{r7, pc}
 80019d4:	200006f4 	.word	0x200006f4
 80019d8:	40003800 	.word	0x40003800

080019dc <MX_TIM1_Init>:
  * @brief TIM1 Initialization Function
  * @param None
  * @retval None
  */
static void MX_TIM1_Init(void)
{
 80019dc:	b580      	push	{r7, lr}
 80019de:	b086      	sub	sp, #24
 80019e0:	af00      	add	r7, sp, #0

  /* USER CODE BEGIN TIM1_Init 0 */

  /* USER CODE END TIM1_Init 0 */

  TIM_ClockConfigTypeDef sClockSourceConfig = {0};
 80019e2:	f107 0308 	add.w	r3, r7, #8
 80019e6:	2200      	movs	r2, #0
 80019e8:	601a      	str	r2, [r3, #0]
 80019ea:	605a      	str	r2, [r3, #4]
 80019ec:	609a      	str	r2, [r3, #8]
 80019ee:	60da      	str	r2, [r3, #12]
  TIM_MasterConfigTypeDef sMasterConfig = {0};
 80019f0:	463b      	mov	r3, r7
 80019f2:	2200      	movs	r2, #0
 80019f4:	601a      	str	r2, [r3, #0]
 80019f6:	605a      	str	r2, [r3, #4]

  /* USER CODE BEGIN TIM1_Init 1 */

  /* USER CODE END TIM1_Init 1 */
  htim1.Instance = TIM1;
 80019f8:	4b1e      	ldr	r3, [pc, #120]	; (8001a74 <MX_TIM1_Init+0x98>)
 80019fa:	4a1f      	ldr	r2, [pc, #124]	; (8001a78 <MX_TIM1_Init+0x9c>)
 80019fc:	601a      	str	r2, [r3, #0]
  htim1.Init.Prescaler = 10;
 80019fe:	4b1d      	ldr	r3, [pc, #116]	; (8001a74 <MX_TIM1_Init+0x98>)
 8001a00:	220a      	movs	r2, #10
 8001a02:	605a      	str	r2, [r3, #4]
  htim1.Init.CounterMode = TIM_COUNTERMODE_UP;
 8001a04:	4b1b      	ldr	r3, [pc, #108]	; (8001a74 <MX_TIM1_Init+0x98>)
 8001a06:	2200      	movs	r2, #0
 8001a08:	609a      	str	r2, [r3, #8]
  htim1.Init.Period = 4000;
 8001a0a:	4b1a      	ldr	r3, [pc, #104]	; (8001a74 <MX_TIM1_Init+0x98>)
 8001a0c:	f44f 627a 	mov.w	r2, #4000	; 0xfa0
 8001a10:	60da      	str	r2, [r3, #12]
  htim1.Init.ClockDivision = TIM_CLOCKDIVISION_DIV1;
 8001a12:	4b18      	ldr	r3, [pc, #96]	; (8001a74 <MX_TIM1_Init+0x98>)
 8001a14:	2200      	movs	r2, #0
 8001a16:	611a      	str	r2, [r3, #16]
  htim1.Init.RepetitionCounter = 0;
 8001a18:	4b16      	ldr	r3, [pc, #88]	; (8001a74 <MX_TIM1_Init+0x98>)
 8001a1a:	2200      	movs	r2, #0
 8001a1c:	615a      	str	r2, [r3, #20]
  htim1.Init.AutoReloadPreload = TIM_AUTORELOAD_PRELOAD_DISABLE;
 8001a1e:	4b15      	ldr	r3, [pc, #84]	; (8001a74 <MX_TIM1_Init+0x98>)
 8001a20:	2200      	movs	r2, #0
 8001a22:	619a      	str	r2, [r3, #24]
  if (HAL_TIM_Base_Init(&htim1) != HAL_OK)
 8001a24:	4813      	ldr	r0, [pc, #76]	; (8001a74 <MX_TIM1_Init+0x98>)
 8001a26:	f007 fa11 	bl	8008e4c <HAL_TIM_Base_Init>
 8001a2a:	4603      	mov	r3, r0
 8001a2c:	2b00      	cmp	r3, #0
 8001a2e:	d001      	beq.n	8001a34 <MX_TIM1_Init+0x58>
  {
    Error_Handler();
 8001a30:	f000 faa7 	bl	8001f82 <Error_Handler>
  }
  sClockSourceConfig.ClockSource = TIM_CLOCKSOURCE_INTERNAL;
 8001a34:	f44f 5380 	mov.w	r3, #4096	; 0x1000
 8001a38:	60bb      	str	r3, [r7, #8]
  if (HAL_TIM_ConfigClockSource(&htim1, &sClockSourceConfig) != HAL_OK)
 8001a3a:	f107 0308 	add.w	r3, r7, #8
 8001a3e:	4619      	mov	r1, r3
 8001a40:	480c      	ldr	r0, [pc, #48]	; (8001a74 <MX_TIM1_Init+0x98>)
 8001a42:	f007 fc7d 	bl	8009340 <HAL_TIM_ConfigClockSource>
 8001a46:	4603      	mov	r3, r0
 8001a48:	2b00      	cmp	r3, #0
 8001a4a:	d001      	beq.n	8001a50 <MX_TIM1_Init+0x74>
  {
    Error_Handler();
 8001a4c:	f000 fa99 	bl	8001f82 <Error_Handler>
  }
  sMasterConfig.MasterOutputTrigger = TIM_TRGO_RESET;
 8001a50:	2300      	movs	r3, #0
 8001a52:	603b      	str	r3, [r7, #0]
  sMasterConfig.MasterSlaveMode = TIM_MASTERSLAVEMODE_DISABLE;
 8001a54:	2300      	movs	r3, #0
 8001a56:	607b      	str	r3, [r7, #4]
  if (HAL_TIMEx_MasterConfigSynchronization(&htim1, &sMasterConfig) != HAL_OK)
 8001a58:	463b      	mov	r3, r7
 8001a5a:	4619      	mov	r1, r3
 8001a5c:	4805      	ldr	r0, [pc, #20]	; (8001a74 <MX_TIM1_Init+0x98>)
 8001a5e:	f008 f845 	bl	8009aec <HAL_TIMEx_MasterConfigSynchronization>
 8001a62:	4603      	mov	r3, r0
 8001a64:	2b00      	cmp	r3, #0
 8001a66:	d001      	beq.n	8001a6c <MX_TIM1_Init+0x90>
  {
    Error_Handler();
 8001a68:	f000 fa8b 	bl	8001f82 <Error_Handler>
  }
  /* USER CODE BEGIN TIM1_Init 2 */

  /* USER CODE END TIM1_Init 2 */

}
 8001a6c:	bf00      	nop
 8001a6e:	3718      	adds	r7, #24
 8001a70:	46bd      	mov	sp, r7
 8001a72:	bd80      	pop	{r7, pc}
 8001a74:	20000884 	.word	0x20000884
 8001a78:	40010000 	.word	0x40010000

08001a7c <MX_TIM2_Init>:
  * @brief TIM2 Initialization Function
  * @param None
  * @retval None
  */
static void MX_TIM2_Init(void)
{
 8001a7c:	b580      	push	{r7, lr}
 8001a7e:	b08e      	sub	sp, #56	; 0x38
 8001a80:	af00      	add	r7, sp, #0

  /* USER CODE BEGIN TIM2_Init 0 */

  /* USER CODE END TIM2_Init 0 */

  TIM_ClockConfigTypeDef sClockSourceConfig = {0};
 8001a82:	f107 0328 	add.w	r3, r7, #40	; 0x28
 8001a86:	2200      	movs	r2, #0
 8001a88:	601a      	str	r2, [r3, #0]
 8001a8a:	605a      	str	r2, [r3, #4]
 8001a8c:	609a      	str	r2, [r3, #8]
 8001a8e:	60da      	str	r2, [r3, #12]
  TIM_MasterConfigTypeDef sMasterConfig = {0};
 8001a90:	f107 0320 	add.w	r3, r7, #32
 8001a94:	2200      	movs	r2, #0
 8001a96:	601a      	str	r2, [r3, #0]
 8001a98:	605a      	str	r2, [r3, #4]
  TIM_OC_InitTypeDef sConfigOC = {0};
 8001a9a:	1d3b      	adds	r3, r7, #4
 8001a9c:	2200      	movs	r2, #0
 8001a9e:	601a      	str	r2, [r3, #0]
 8001aa0:	605a      	str	r2, [r3, #4]
 8001aa2:	609a      	str	r2, [r3, #8]
 8001aa4:	60da      	str	r2, [r3, #12]
 8001aa6:	611a      	str	r2, [r3, #16]
 8001aa8:	615a      	str	r2, [r3, #20]
 8001aaa:	619a      	str	r2, [r3, #24]

  /* USER CODE BEGIN TIM2_Init 1 */

  /* USER CODE END TIM2_Init 1 */
  htim2.Instance = TIM2;
 8001aac:	4b2c      	ldr	r3, [pc, #176]	; (8001b60 <MX_TIM2_Init+0xe4>)
 8001aae:	f04f 4280 	mov.w	r2, #1073741824	; 0x40000000
 8001ab2:	601a      	str	r2, [r3, #0]
  htim2.Init.Prescaler = 1600;
 8001ab4:	4b2a      	ldr	r3, [pc, #168]	; (8001b60 <MX_TIM2_Init+0xe4>)
 8001ab6:	f44f 62c8 	mov.w	r2, #1600	; 0x640
 8001aba:	605a      	str	r2, [r3, #4]
  htim2.Init.CounterMode = TIM_COUNTERMODE_UP;
 8001abc:	4b28      	ldr	r3, [pc, #160]	; (8001b60 <MX_TIM2_Init+0xe4>)
 8001abe:	2200      	movs	r2, #0
 8001ac0:	609a      	str	r2, [r3, #8]
  htim2.Init.Period = 10000;
 8001ac2:	4b27      	ldr	r3, [pc, #156]	; (8001b60 <MX_TIM2_Init+0xe4>)
 8001ac4:	f242 7210 	movw	r2, #10000	; 0x2710
 8001ac8:	60da      	str	r2, [r3, #12]
  htim2.Init.ClockDivision = TIM_CLOCKDIVISION_DIV1;
 8001aca:	4b25      	ldr	r3, [pc, #148]	; (8001b60 <MX_TIM2_Init+0xe4>)
 8001acc:	2200      	movs	r2, #0
 8001ace:	611a      	str	r2, [r3, #16]
  htim2.Init.AutoReloadPreload = TIM_AUTORELOAD_PRELOAD_ENABLE;
 8001ad0:	4b23      	ldr	r3, [pc, #140]	; (8001b60 <MX_TIM2_Init+0xe4>)
 8001ad2:	2280      	movs	r2, #128	; 0x80
 8001ad4:	619a      	str	r2, [r3, #24]
  if (HAL_TIM_Base_Init(&htim2) != HAL_OK)
 8001ad6:	4822      	ldr	r0, [pc, #136]	; (8001b60 <MX_TIM2_Init+0xe4>)
 8001ad8:	f007 f9b8 	bl	8008e4c <HAL_TIM_Base_Init>
 8001adc:	4603      	mov	r3, r0
 8001ade:	2b00      	cmp	r3, #0
 8001ae0:	d001      	beq.n	8001ae6 <MX_TIM2_Init+0x6a>
  {
    Error_Handler();
 8001ae2:	f000 fa4e 	bl	8001f82 <Error_Handler>
  }
  sClockSourceConfig.ClockSource = TIM_CLOCKSOURCE_INTERNAL;
 8001ae6:	f44f 5380 	mov.w	r3, #4096	; 0x1000
 8001aea:	62bb      	str	r3, [r7, #40]	; 0x28
  if (HAL_TIM_ConfigClockSource(&htim2, &sClockSourceConfig) != HAL_OK)
 8001aec:	f107 0328 	add.w	r3, r7, #40	; 0x28
 8001af0:	4619      	mov	r1, r3
 8001af2:	481b      	ldr	r0, [pc, #108]	; (8001b60 <MX_TIM2_Init+0xe4>)
 8001af4:	f007 fc24 	bl	8009340 <HAL_TIM_ConfigClockSource>
 8001af8:	4603      	mov	r3, r0
 8001afa:	2b00      	cmp	r3, #0
 8001afc:	d001      	beq.n	8001b02 <MX_TIM2_Init+0x86>
  {
    Error_Handler();
 8001afe:	f000 fa40 	bl	8001f82 <Error_Handler>
  }
  if (HAL_TIM_OC_Init(&htim2) != HAL_OK)
 8001b02:	4817      	ldr	r0, [pc, #92]	; (8001b60 <MX_TIM2_Init+0xe4>)
 8001b04:	f007 fa62 	bl	8008fcc <HAL_TIM_OC_Init>
 8001b08:	4603      	mov	r3, r0
 8001b0a:	2b00      	cmp	r3, #0
 8001b0c:	d001      	beq.n	8001b12 <MX_TIM2_Init+0x96>
  {
    Error_Handler();
 8001b0e:	f000 fa38 	bl	8001f82 <Error_Handler>
  }
  sMasterConfig.MasterOutputTrigger = TIM_TRGO_UPDATE;
 8001b12:	2320      	movs	r3, #32
 8001b14:	623b      	str	r3, [r7, #32]
  sMasterConfig.MasterSlaveMode = TIM_MASTERSLAVEMODE_DISABLE;
 8001b16:	2300      	movs	r3, #0
 8001b18:	627b      	str	r3, [r7, #36]	; 0x24
  if (HAL_TIMEx_MasterConfigSynchronization(&htim2, &sMasterConfig) != HAL_OK)
 8001b1a:	f107 0320 	add.w	r3, r7, #32
 8001b1e:	4619      	mov	r1, r3
 8001b20:	480f      	ldr	r0, [pc, #60]	; (8001b60 <MX_TIM2_Init+0xe4>)
 8001b22:	f007 ffe3 	bl	8009aec <HAL_TIMEx_MasterConfigSynchronization>
 8001b26:	4603      	mov	r3, r0
 8001b28:	2b00      	cmp	r3, #0
 8001b2a:	d001      	beq.n	8001b30 <MX_TIM2_Init+0xb4>
  {
    Error_Handler();
 8001b2c:	f000 fa29 	bl	8001f82 <Error_Handler>
  }
  sConfigOC.OCMode = TIM_OCMODE_TIMING;
 8001b30:	2300      	movs	r3, #0
 8001b32:	607b      	str	r3, [r7, #4]
  sConfigOC.Pulse = 0;
 8001b34:	2300      	movs	r3, #0
 8001b36:	60bb      	str	r3, [r7, #8]
  sConfigOC.OCPolarity = TIM_OCPOLARITY_HIGH;
 8001b38:	2300      	movs	r3, #0
 8001b3a:	60fb      	str	r3, [r7, #12]
  sConfigOC.OCFastMode = TIM_OCFAST_DISABLE;
 8001b3c:	2300      	movs	r3, #0
 8001b3e:	617b      	str	r3, [r7, #20]
  if (HAL_TIM_OC_ConfigChannel(&htim2, &sConfigOC, TIM_CHANNEL_2) != HAL_OK)
 8001b40:	1d3b      	adds	r3, r7, #4
 8001b42:	2204      	movs	r2, #4
 8001b44:	4619      	mov	r1, r3
 8001b46:	4806      	ldr	r0, [pc, #24]	; (8001b60 <MX_TIM2_Init+0xe4>)
 8001b48:	f007 fba2 	bl	8009290 <HAL_TIM_OC_ConfigChannel>
 8001b4c:	4603      	mov	r3, r0
 8001b4e:	2b00      	cmp	r3, #0
 8001b50:	d001      	beq.n	8001b56 <MX_TIM2_Init+0xda>
  {
    Error_Handler();
 8001b52:	f000 fa16 	bl	8001f82 <Error_Handler>
  }
  /* USER CODE BEGIN TIM2_Init 2 */

  /* USER CODE END TIM2_Init 2 */

}
 8001b56:	bf00      	nop
 8001b58:	3738      	adds	r7, #56	; 0x38
 8001b5a:	46bd      	mov	sp, r7
 8001b5c:	bd80      	pop	{r7, pc}
 8001b5e:	bf00      	nop
 8001b60:	200008cc 	.word	0x200008cc

08001b64 <MX_TIM3_Init>:
  * @brief TIM3 Initialization Function
  * @param None
  * @retval None
  */
static void MX_TIM3_Init(void)
{
 8001b64:	b580      	push	{r7, lr}
 8001b66:	b086      	sub	sp, #24
 8001b68:	af00      	add	r7, sp, #0

  /* USER CODE BEGIN TIM3_Init 0 */

  /* USER CODE END TIM3_Init 0 */

  TIM_ClockConfigTypeDef sClockSourceConfig = {0};
 8001b6a:	f107 0308 	add.w	r3, r7, #8
 8001b6e:	2200      	movs	r2, #0
 8001b70:	601a      	str	r2, [r3, #0]
 8001b72:	605a      	str	r2, [r3, #4]
 8001b74:	609a      	str	r2, [r3, #8]
 8001b76:	60da      	str	r2, [r3, #12]
  TIM_MasterConfigTypeDef sMasterConfig = {0};
 8001b78:	463b      	mov	r3, r7
 8001b7a:	2200      	movs	r2, #0
 8001b7c:	601a      	str	r2, [r3, #0]
 8001b7e:	605a      	str	r2, [r3, #4]

  /* USER CODE BEGIN TIM3_Init 1 */

  /* USER CODE END TIM3_Init 1 */
  htim3.Instance = TIM3;
 8001b80:	4b1d      	ldr	r3, [pc, #116]	; (8001bf8 <MX_TIM3_Init+0x94>)
 8001b82:	4a1e      	ldr	r2, [pc, #120]	; (8001bfc <MX_TIM3_Init+0x98>)
 8001b84:	601a      	str	r2, [r3, #0]
  htim3.Init.Prescaler = 16;
 8001b86:	4b1c      	ldr	r3, [pc, #112]	; (8001bf8 <MX_TIM3_Init+0x94>)
 8001b88:	2210      	movs	r2, #16
 8001b8a:	605a      	str	r2, [r3, #4]
  htim3.Init.CounterMode = TIM_COUNTERMODE_UP;
 8001b8c:	4b1a      	ldr	r3, [pc, #104]	; (8001bf8 <MX_TIM3_Init+0x94>)
 8001b8e:	2200      	movs	r2, #0
 8001b90:	609a      	str	r2, [r3, #8]
  htim3.Init.Period = 1000;
 8001b92:	4b19      	ldr	r3, [pc, #100]	; (8001bf8 <MX_TIM3_Init+0x94>)
 8001b94:	f44f 727a 	mov.w	r2, #1000	; 0x3e8
 8001b98:	60da      	str	r2, [r3, #12]
  htim3.Init.ClockDivision = TIM_CLOCKDIVISION_DIV1;
 8001b9a:	4b17      	ldr	r3, [pc, #92]	; (8001bf8 <MX_TIM3_Init+0x94>)
 8001b9c:	2200      	movs	r2, #0
 8001b9e:	611a      	str	r2, [r3, #16]
  htim3.Init.AutoReloadPreload = TIM_AUTORELOAD_PRELOAD_ENABLE;
 8001ba0:	4b15      	ldr	r3, [pc, #84]	; (8001bf8 <MX_TIM3_Init+0x94>)
 8001ba2:	2280      	movs	r2, #128	; 0x80
 8001ba4:	619a      	str	r2, [r3, #24]
  if (HAL_TIM_Base_Init(&htim3) != HAL_OK)
 8001ba6:	4814      	ldr	r0, [pc, #80]	; (8001bf8 <MX_TIM3_Init+0x94>)
 8001ba8:	f007 f950 	bl	8008e4c <HAL_TIM_Base_Init>
 8001bac:	4603      	mov	r3, r0
 8001bae:	2b00      	cmp	r3, #0
 8001bb0:	d001      	beq.n	8001bb6 <MX_TIM3_Init+0x52>
  {
    Error_Handler();
 8001bb2:	f000 f9e6 	bl	8001f82 <Error_Handler>
  }
  sClockSourceConfig.ClockSource = TIM_CLOCKSOURCE_INTERNAL;
 8001bb6:	f44f 5380 	mov.w	r3, #4096	; 0x1000
 8001bba:	60bb      	str	r3, [r7, #8]
  if (HAL_TIM_ConfigClockSource(&htim3, &sClockSourceConfig) != HAL_OK)
 8001bbc:	f107 0308 	add.w	r3, r7, #8
 8001bc0:	4619      	mov	r1, r3
 8001bc2:	480d      	ldr	r0, [pc, #52]	; (8001bf8 <MX_TIM3_Init+0x94>)
 8001bc4:	f007 fbbc 	bl	8009340 <HAL_TIM_ConfigClockSource>
 8001bc8:	4603      	mov	r3, r0
 8001bca:	2b00      	cmp	r3, #0
 8001bcc:	d001      	beq.n	8001bd2 <MX_TIM3_Init+0x6e>
  {
    Error_Handler();
 8001bce:	f000 f9d8 	bl	8001f82 <Error_Handler>
  }
  sMasterConfig.MasterOutputTrigger = TIM_TRGO_RESET;
 8001bd2:	2300      	movs	r3, #0
 8001bd4:	603b      	str	r3, [r7, #0]
  sMasterConfig.MasterSlaveMode = TIM_MASTERSLAVEMODE_DISABLE;
 8001bd6:	2300      	movs	r3, #0
 8001bd8:	607b      	str	r3, [r7, #4]
  if (HAL_TIMEx_MasterConfigSynchronization(&htim3, &sMasterConfig) != HAL_OK)
 8001bda:	463b      	mov	r3, r7
 8001bdc:	4619      	mov	r1, r3
 8001bde:	4806      	ldr	r0, [pc, #24]	; (8001bf8 <MX_TIM3_Init+0x94>)
 8001be0:	f007 ff84 	bl	8009aec <HAL_TIMEx_MasterConfigSynchronization>
 8001be4:	4603      	mov	r3, r0
 8001be6:	2b00      	cmp	r3, #0
 8001be8:	d001      	beq.n	8001bee <MX_TIM3_Init+0x8a>
  {
    Error_Handler();
 8001bea:	f000 f9ca 	bl	8001f82 <Error_Handler>
  }
  /* USER CODE BEGIN TIM3_Init 2 */

  /* USER CODE END TIM3_Init 2 */

}
 8001bee:	bf00      	nop
 8001bf0:	3718      	adds	r7, #24
 8001bf2:	46bd      	mov	sp, r7
 8001bf4:	bd80      	pop	{r7, pc}
 8001bf6:	bf00      	nop
 8001bf8:	20000794 	.word	0x20000794
 8001bfc:	40000400 	.word	0x40000400

08001c00 <MX_TIM4_Init>:
  * @brief TIM4 Initialization Function
  * @param None
  * @retval None
  */
static void MX_TIM4_Init(void)
{
 8001c00:	b580      	push	{r7, lr}
 8001c02:	b086      	sub	sp, #24
 8001c04:	af00      	add	r7, sp, #0

  /* USER CODE BEGIN TIM4_Init 0 */

  /* USER CODE END TIM4_Init 0 */

  TIM_ClockConfigTypeDef sClockSourceConfig = {0};
 8001c06:	f107 0308 	add.w	r3, r7, #8
 8001c0a:	2200      	movs	r2, #0
 8001c0c:	601a      	str	r2, [r3, #0]
 8001c0e:	605a      	str	r2, [r3, #4]
 8001c10:	609a      	str	r2, [r3, #8]
 8001c12:	60da      	str	r2, [r3, #12]
  TIM_MasterConfigTypeDef sMasterConfig = {0};
 8001c14:	463b      	mov	r3, r7
 8001c16:	2200      	movs	r2, #0
 8001c18:	601a      	str	r2, [r3, #0]
 8001c1a:	605a      	str	r2, [r3, #4]

  /* USER CODE BEGIN TIM4_Init 1 */

  /* USER CODE END TIM4_Init 1 */
  htim4.Instance = TIM4;
 8001c1c:	4b1d      	ldr	r3, [pc, #116]	; (8001c94 <MX_TIM4_Init+0x94>)
 8001c1e:	4a1e      	ldr	r2, [pc, #120]	; (8001c98 <MX_TIM4_Init+0x98>)
 8001c20:	601a      	str	r2, [r3, #0]
  htim4.Init.Prescaler = 16;
 8001c22:	4b1c      	ldr	r3, [pc, #112]	; (8001c94 <MX_TIM4_Init+0x94>)
 8001c24:	2210      	movs	r2, #16
 8001c26:	605a      	str	r2, [r3, #4]
  htim4.Init.CounterMode = TIM_COUNTERMODE_UP;
 8001c28:	4b1a      	ldr	r3, [pc, #104]	; (8001c94 <MX_TIM4_Init+0x94>)
 8001c2a:	2200      	movs	r2, #0
 8001c2c:	609a      	str	r2, [r3, #8]
  htim4.Init.Period = 10000;
 8001c2e:	4b19      	ldr	r3, [pc, #100]	; (8001c94 <MX_TIM4_Init+0x94>)
 8001c30:	f242 7210 	movw	r2, #10000	; 0x2710
 8001c34:	60da      	str	r2, [r3, #12]
  htim4.Init.ClockDivision = TIM_CLOCKDIVISION_DIV1;
 8001c36:	4b17      	ldr	r3, [pc, #92]	; (8001c94 <MX_TIM4_Init+0x94>)
 8001c38:	2200      	movs	r2, #0
 8001c3a:	611a      	str	r2, [r3, #16]
  htim4.Init.AutoReloadPreload = TIM_AUTORELOAD_PRELOAD_ENABLE;
 8001c3c:	4b15      	ldr	r3, [pc, #84]	; (8001c94 <MX_TIM4_Init+0x94>)
 8001c3e:	2280      	movs	r2, #128	; 0x80
 8001c40:	619a      	str	r2, [r3, #24]
  if (HAL_TIM_Base_Init(&htim4) != HAL_OK)
 8001c42:	4814      	ldr	r0, [pc, #80]	; (8001c94 <MX_TIM4_Init+0x94>)
 8001c44:	f007 f902 	bl	8008e4c <HAL_TIM_Base_Init>
 8001c48:	4603      	mov	r3, r0
 8001c4a:	2b00      	cmp	r3, #0
 8001c4c:	d001      	beq.n	8001c52 <MX_TIM4_Init+0x52>
  {
    Error_Handler();
 8001c4e:	f000 f998 	bl	8001f82 <Error_Handler>
  }
  sClockSourceConfig.ClockSource = TIM_CLOCKSOURCE_INTERNAL;
 8001c52:	f44f 5380 	mov.w	r3, #4096	; 0x1000
 8001c56:	60bb      	str	r3, [r7, #8]
  if (HAL_TIM_ConfigClockSource(&htim4, &sClockSourceConfig) != HAL_OK)
 8001c58:	f107 0308 	add.w	r3, r7, #8
 8001c5c:	4619      	mov	r1, r3
 8001c5e:	480d      	ldr	r0, [pc, #52]	; (8001c94 <MX_TIM4_Init+0x94>)
 8001c60:	f007 fb6e 	bl	8009340 <HAL_TIM_ConfigClockSource>
 8001c64:	4603      	mov	r3, r0
 8001c66:	2b00      	cmp	r3, #0
 8001c68:	d001      	beq.n	8001c6e <MX_TIM4_Init+0x6e>
  {
    Error_Handler();
 8001c6a:	f000 f98a 	bl	8001f82 <Error_Handler>
  }
  sMasterConfig.MasterOutputTrigger = TIM_TRGO_RESET;
 8001c6e:	2300      	movs	r3, #0
 8001c70:	603b      	str	r3, [r7, #0]
  sMasterConfig.MasterSlaveMode = TIM_MASTERSLAVEMODE_DISABLE;
 8001c72:	2300      	movs	r3, #0
 8001c74:	607b      	str	r3, [r7, #4]
  if (HAL_TIMEx_MasterConfigSynchronization(&htim4, &sMasterConfig) != HAL_OK)
 8001c76:	463b      	mov	r3, r7
 8001c78:	4619      	mov	r1, r3
 8001c7a:	4806      	ldr	r0, [pc, #24]	; (8001c94 <MX_TIM4_Init+0x94>)
 8001c7c:	f007 ff36 	bl	8009aec <HAL_TIMEx_MasterConfigSynchronization>
 8001c80:	4603      	mov	r3, r0
 8001c82:	2b00      	cmp	r3, #0
 8001c84:	d001      	beq.n	8001c8a <MX_TIM4_Init+0x8a>
  {
    Error_Handler();
 8001c86:	f000 f97c 	bl	8001f82 <Error_Handler>
  }
  /* USER CODE BEGIN TIM4_Init 2 */

  /* USER CODE END TIM4_Init 2 */

}
 8001c8a:	bf00      	nop
 8001c8c:	3718      	adds	r7, #24
 8001c8e:	46bd      	mov	sp, r7
 8001c90:	bd80      	pop	{r7, pc}
 8001c92:	bf00      	nop
 8001c94:	2000074c 	.word	0x2000074c
 8001c98:	40000800 	.word	0x40000800

08001c9c <MX_DMA_Init>:

/**
  * Enable DMA controller clock
  */
static void MX_DMA_Init(void)
{
 8001c9c:	b580      	push	{r7, lr}
 8001c9e:	b082      	sub	sp, #8
 8001ca0:	af00      	add	r7, sp, #0

  /* DMA controller clock enable */
  __HAL_RCC_DMA2_CLK_ENABLE();
 8001ca2:	2300      	movs	r3, #0
 8001ca4:	607b      	str	r3, [r7, #4]
 8001ca6:	4b0c      	ldr	r3, [pc, #48]	; (8001cd8 <MX_DMA_Init+0x3c>)
 8001ca8:	6b1b      	ldr	r3, [r3, #48]	; 0x30
 8001caa:	4a0b      	ldr	r2, [pc, #44]	; (8001cd8 <MX_DMA_Init+0x3c>)
 8001cac:	f443 0380 	orr.w	r3, r3, #4194304	; 0x400000
 8001cb0:	6313      	str	r3, [r2, #48]	; 0x30
 8001cb2:	4b09      	ldr	r3, [pc, #36]	; (8001cd8 <MX_DMA_Init+0x3c>)
 8001cb4:	6b1b      	ldr	r3, [r3, #48]	; 0x30
 8001cb6:	f403 0380 	and.w	r3, r3, #4194304	; 0x400000
 8001cba:	607b      	str	r3, [r7, #4]
 8001cbc:	687b      	ldr	r3, [r7, #4]

  /* DMA interrupt init */
  /* DMA2_Stream0_IRQn interrupt configuration */
  HAL_NVIC_SetPriority(DMA2_Stream0_IRQn, 2, 0);
 8001cbe:	2200      	movs	r2, #0
 8001cc0:	2102      	movs	r1, #2
 8001cc2:	2038      	movs	r0, #56	; 0x38
 8001cc4:	f005 fc05 	bl	80074d2 <HAL_NVIC_SetPriority>
  HAL_NVIC_EnableIRQ(DMA2_Stream0_IRQn);
 8001cc8:	2038      	movs	r0, #56	; 0x38
 8001cca:	f005 fc1e 	bl	800750a <HAL_NVIC_EnableIRQ>

}
 8001cce:	bf00      	nop
 8001cd0:	3708      	adds	r7, #8
 8001cd2:	46bd      	mov	sp, r7
 8001cd4:	bd80      	pop	{r7, pc}
 8001cd6:	bf00      	nop
 8001cd8:	40023800 	.word	0x40023800

08001cdc <MX_GPIO_Init>:
  * @brief GPIO Initialization Function
  * @param None
  * @retval None
  */
static void MX_GPIO_Init(void)
{
 8001cdc:	b580      	push	{r7, lr}
 8001cde:	b08a      	sub	sp, #40	; 0x28
 8001ce0:	af00      	add	r7, sp, #0
  GPIO_InitTypeDef GPIO_InitStruct = {0};
 8001ce2:	f107 0314 	add.w	r3, r7, #20
 8001ce6:	2200      	movs	r2, #0
 8001ce8:	601a      	str	r2, [r3, #0]
 8001cea:	605a      	str	r2, [r3, #4]
 8001cec:	609a      	str	r2, [r3, #8]
 8001cee:	60da      	str	r2, [r3, #12]
 8001cf0:	611a      	str	r2, [r3, #16]

  /* GPIO Ports Clock Enable */
  __HAL_RCC_GPIOC_CLK_ENABLE();
 8001cf2:	2300      	movs	r3, #0
 8001cf4:	613b      	str	r3, [r7, #16]
 8001cf6:	4b96      	ldr	r3, [pc, #600]	; (8001f50 <MX_GPIO_Init+0x274>)
 8001cf8:	6b1b      	ldr	r3, [r3, #48]	; 0x30
 8001cfa:	4a95      	ldr	r2, [pc, #596]	; (8001f50 <MX_GPIO_Init+0x274>)
 8001cfc:	f043 0304 	orr.w	r3, r3, #4
 8001d00:	6313      	str	r3, [r2, #48]	; 0x30
 8001d02:	4b93      	ldr	r3, [pc, #588]	; (8001f50 <MX_GPIO_Init+0x274>)
 8001d04:	6b1b      	ldr	r3, [r3, #48]	; 0x30
 8001d06:	f003 0304 	and.w	r3, r3, #4
 8001d0a:	613b      	str	r3, [r7, #16]
 8001d0c:	693b      	ldr	r3, [r7, #16]
  __HAL_RCC_GPIOH_CLK_ENABLE();
 8001d0e:	2300      	movs	r3, #0
 8001d10:	60fb      	str	r3, [r7, #12]
 8001d12:	4b8f      	ldr	r3, [pc, #572]	; (8001f50 <MX_GPIO_Init+0x274>)
 8001d14:	6b1b      	ldr	r3, [r3, #48]	; 0x30
 8001d16:	4a8e      	ldr	r2, [pc, #568]	; (8001f50 <MX_GPIO_Init+0x274>)
 8001d18:	f043 0380 	orr.w	r3, r3, #128	; 0x80
 8001d1c:	6313      	str	r3, [r2, #48]	; 0x30
 8001d1e:	4b8c      	ldr	r3, [pc, #560]	; (8001f50 <MX_GPIO_Init+0x274>)
 8001d20:	6b1b      	ldr	r3, [r3, #48]	; 0x30
 8001d22:	f003 0380 	and.w	r3, r3, #128	; 0x80
 8001d26:	60fb      	str	r3, [r7, #12]
 8001d28:	68fb      	ldr	r3, [r7, #12]
  __HAL_RCC_GPIOA_CLK_ENABLE();
 8001d2a:	2300      	movs	r3, #0
 8001d2c:	60bb      	str	r3, [r7, #8]
 8001d2e:	4b88      	ldr	r3, [pc, #544]	; (8001f50 <MX_GPIO_Init+0x274>)
 8001d30:	6b1b      	ldr	r3, [r3, #48]	; 0x30
 8001d32:	4a87      	ldr	r2, [pc, #540]	; (8001f50 <MX_GPIO_Init+0x274>)
 8001d34:	f043 0301 	orr.w	r3, r3, #1
 8001d38:	6313      	str	r3, [r2, #48]	; 0x30
 8001d3a:	4b85      	ldr	r3, [pc, #532]	; (8001f50 <MX_GPIO_Init+0x274>)
 8001d3c:	6b1b      	ldr	r3, [r3, #48]	; 0x30
 8001d3e:	f003 0301 	and.w	r3, r3, #1
 8001d42:	60bb      	str	r3, [r7, #8]
 8001d44:	68bb      	ldr	r3, [r7, #8]
  __HAL_RCC_GPIOB_CLK_ENABLE();
 8001d46:	2300      	movs	r3, #0
 8001d48:	607b      	str	r3, [r7, #4]
 8001d4a:	4b81      	ldr	r3, [pc, #516]	; (8001f50 <MX_GPIO_Init+0x274>)
 8001d4c:	6b1b      	ldr	r3, [r3, #48]	; 0x30
 8001d4e:	4a80      	ldr	r2, [pc, #512]	; (8001f50 <MX_GPIO_Init+0x274>)
 8001d50:	f043 0302 	orr.w	r3, r3, #2
 8001d54:	6313      	str	r3, [r2, #48]	; 0x30
 8001d56:	4b7e      	ldr	r3, [pc, #504]	; (8001f50 <MX_GPIO_Init+0x274>)
 8001d58:	6b1b      	ldr	r3, [r3, #48]	; 0x30
 8001d5a:	f003 0302 	and.w	r3, r3, #2
 8001d5e:	607b      	str	r3, [r7, #4]
 8001d60:	687b      	ldr	r3, [r7, #4]
  __HAL_RCC_GPIOD_CLK_ENABLE();
 8001d62:	2300      	movs	r3, #0
 8001d64:	603b      	str	r3, [r7, #0]
 8001d66:	4b7a      	ldr	r3, [pc, #488]	; (8001f50 <MX_GPIO_Init+0x274>)
 8001d68:	6b1b      	ldr	r3, [r3, #48]	; 0x30
 8001d6a:	4a79      	ldr	r2, [pc, #484]	; (8001f50 <MX_GPIO_Init+0x274>)
 8001d6c:	f043 0308 	orr.w	r3, r3, #8
 8001d70:	6313      	str	r3, [r2, #48]	; 0x30
 8001d72:	4b77      	ldr	r3, [pc, #476]	; (8001f50 <MX_GPIO_Init+0x274>)
 8001d74:	6b1b      	ldr	r3, [r3, #48]	; 0x30
 8001d76:	f003 0308 	and.w	r3, r3, #8
 8001d7a:	603b      	str	r3, [r7, #0]
 8001d7c:	683b      	ldr	r3, [r7, #0]

  /*Configure GPIO pin Output Level */
  HAL_GPIO_WritePin(GPIOC, nTEST_DIFF_A2_Pin|TEST_DIFF_A2_Pin|nTEST_DIFF_A1_Pin|TEST_DIFF_A1_Pin
 8001d7e:	2201      	movs	r2, #1
 8001d80:	f247 010f 	movw	r1, #28687	; 0x700f
 8001d84:	4873      	ldr	r0, [pc, #460]	; (8001f54 <MX_GPIO_Init+0x278>)
 8001d86:	f006 f90d 	bl	8007fa4 <HAL_GPIO_WritePin>
                          |nTEST_DIFF_A0_Pin|TEST_DIFF_A0_Pin|nTEST_DIFF_B2_Pin, GPIO_PIN_SET);

  /*Configure GPIO pin Output Level */
  HAL_GPIO_WritePin(GPIOA, STATUS_LED_Pin|nFP_LCD_RESET_Pin|SEG_A2_Pin|SEG_A1_Pin
 8001d8a:	2200      	movs	r2, #0
 8001d8c:	f44f 61e3 	mov.w	r1, #1816	; 0x718
 8001d90:	4871      	ldr	r0, [pc, #452]	; (8001f58 <MX_GPIO_Init+0x27c>)
 8001d92:	f006 f907 	bl	8007fa4 <HAL_GPIO_WritePin>
                          |SEG_A0_Pin, GPIO_PIN_RESET);

  /*Configure GPIO pin Output Level */
  HAL_GPIO_WritePin(GPIOB, FP_STATUS_SDI_Pin|nFP_STATUS_OE_Pin|FP_STATUS_CLK_Pin|FP_STATUS_LE_Pin
 8001d96:	2200      	movs	r2, #0
 8001d98:	f641 4106 	movw	r1, #7174	; 0x1c06
 8001d9c:	486f      	ldr	r0, [pc, #444]	; (8001f5c <MX_GPIO_Init+0x280>)
 8001d9e:	f006 f901 	bl	8007fa4 <HAL_GPIO_WritePin>
                          |FP_LCD_BL_Pin, GPIO_PIN_RESET);

  /*Configure GPIO pin Output Level */
  HAL_GPIO_WritePin(GPIOC, nSEG_OE_Pin|SEG_LE_Pin|SEG_CLK_Pin|SEG_SDI_Pin, GPIO_PIN_RESET);
 8001da2:	2200      	movs	r2, #0
 8001da4:	f44f 7170 	mov.w	r1, #960	; 0x3c0
 8001da8:	486a      	ldr	r0, [pc, #424]	; (8001f54 <MX_GPIO_Init+0x278>)
 8001daa:	f006 f8fb 	bl	8007fa4 <HAL_GPIO_WritePin>

  /*Configure GPIO pin Output Level */
  HAL_GPIO_WritePin(TEST_DIFF_B2_GPIO_Port, TEST_DIFF_B2_Pin, GPIO_PIN_SET);
 8001dae:	2201      	movs	r2, #1
 8001db0:	2104      	movs	r1, #4
 8001db2:	486b      	ldr	r0, [pc, #428]	; (8001f60 <MX_GPIO_Init+0x284>)
 8001db4:	f006 f8f6 	bl	8007fa4 <HAL_GPIO_WritePin>

  /*Configure GPIO pin Output Level */
  HAL_GPIO_WritePin(GPIOB, nTEST_DIFF_B1_Pin|TEST_DIFF_B1_Pin|nTEST_DIFF_B0_Pin|TEST_DIFF_B0_Pin, GPIO_PIN_SET);
 8001db8:	2201      	movs	r2, #1
 8001dba:	21f0      	movs	r1, #240	; 0xf0
 8001dbc:	4867      	ldr	r0, [pc, #412]	; (8001f5c <MX_GPIO_Init+0x280>)
 8001dbe:	f006 f8f1 	bl	8007fa4 <HAL_GPIO_WritePin>

  /*Configure GPIO pins : nTEST_DIFF_A2_Pin TEST_DIFF_A2_Pin nTEST_DIFF_A1_Pin TEST_DIFF_A1_Pin
                           nTEST_DIFF_A0_Pin TEST_DIFF_A0_Pin nTEST_DIFF_B2_Pin */
  GPIO_InitStruct.Pin = nTEST_DIFF_A2_Pin|TEST_DIFF_A2_Pin|nTEST_DIFF_A1_Pin|TEST_DIFF_A1_Pin
 8001dc2:	f247 030f 	movw	r3, #28687	; 0x700f
 8001dc6:	617b      	str	r3, [r7, #20]
                          |nTEST_DIFF_A0_Pin|TEST_DIFF_A0_Pin|nTEST_DIFF_B2_Pin;
  GPIO_InitStruct.Mode = GPIO_MODE_OUTPUT_OD;
 8001dc8:	2311      	movs	r3, #17
 8001dca:	61bb      	str	r3, [r7, #24]
  GPIO_InitStruct.Pull = GPIO_PULLUP;
 8001dcc:	2301      	movs	r3, #1
 8001dce:	61fb      	str	r3, [r7, #28]
  GPIO_InitStruct.Speed = GPIO_SPEED_FREQ_LOW;
 8001dd0:	2300      	movs	r3, #0
 8001dd2:	623b      	str	r3, [r7, #32]
  HAL_GPIO_Init(GPIOC, &GPIO_InitStruct);
 8001dd4:	f107 0314 	add.w	r3, r7, #20
 8001dd8:	4619      	mov	r1, r3
 8001dda:	485e      	ldr	r0, [pc, #376]	; (8001f54 <MX_GPIO_Init+0x278>)
 8001ddc:	f005 ff2e 	bl	8007c3c <HAL_GPIO_Init>

  /*Configure GPIO pin : V_MON_Pin */
  GPIO_InitStruct.Pin = V_MON_Pin;
 8001de0:	f44f 4300 	mov.w	r3, #32768	; 0x8000
 8001de4:	617b      	str	r3, [r7, #20]
  GPIO_InitStruct.Mode = GPIO_MODE_ANALOG;
 8001de6:	2303      	movs	r3, #3
 8001de8:	61bb      	str	r3, [r7, #24]
  GPIO_InitStruct.Pull = GPIO_NOPULL;
 8001dea:	2300      	movs	r3, #0
 8001dec:	61fb      	str	r3, [r7, #28]
  HAL_GPIO_Init(V_MON_GPIO_Port, &GPIO_InitStruct);
 8001dee:	f107 0314 	add.w	r3, r7, #20
 8001df2:	4619      	mov	r1, r3
 8001df4:	4857      	ldr	r0, [pc, #348]	; (8001f54 <MX_GPIO_Init+0x278>)
 8001df6:	f005 ff21 	bl	8007c3c <HAL_GPIO_Init>

  /*Configure GPIO pins : A2_SE_Pin A1_SE_Pin A0_SE_Pin B2_SE_Pin */
  GPIO_InitStruct.Pin = A2_SE_Pin|A1_SE_Pin|A0_SE_Pin|B2_SE_Pin;
 8001dfa:	f248 0307 	movw	r3, #32775	; 0x8007
 8001dfe:	617b      	str	r3, [r7, #20]
  GPIO_InitStruct.Mode = GPIO_MODE_IT_RISING;
 8001e00:	4b58      	ldr	r3, [pc, #352]	; (8001f64 <MX_GPIO_Init+0x288>)
 8001e02:	61bb      	str	r3, [r7, #24]
  GPIO_InitStruct.Pull = GPIO_NOPULL;
 8001e04:	2300      	movs	r3, #0
 8001e06:	61fb      	str	r3, [r7, #28]
  HAL_GPIO_Init(GPIOA, &GPIO_InitStruct);
 8001e08:	f107 0314 	add.w	r3, r7, #20
 8001e0c:	4619      	mov	r1, r3
 8001e0e:	4852      	ldr	r0, [pc, #328]	; (8001f58 <MX_GPIO_Init+0x27c>)
 8001e10:	f005 ff14 	bl	8007c3c <HAL_GPIO_Init>

  /*Configure GPIO pins : STATUS_LED_Pin nFP_LCD_RESET_Pin SEG_A2_Pin SEG_A1_Pin
                           SEG_A0_Pin */
  GPIO_InitStruct.Pin = STATUS_LED_Pin|nFP_LCD_RESET_Pin|SEG_A2_Pin|SEG_A1_Pin
 8001e14:	f44f 63e3 	mov.w	r3, #1816	; 0x718
 8001e18:	617b      	str	r3, [r7, #20]
                          |SEG_A0_Pin;
  GPIO_InitStruct.Mode = GPIO_MODE_OUTPUT_PP;
 8001e1a:	2301      	movs	r3, #1
 8001e1c:	61bb      	str	r3, [r7, #24]
  GPIO_InitStruct.Pull = GPIO_NOPULL;
 8001e1e:	2300      	movs	r3, #0
 8001e20:	61fb      	str	r3, [r7, #28]
  GPIO_InitStruct.Speed = GPIO_SPEED_FREQ_LOW;
 8001e22:	2300      	movs	r3, #0
 8001e24:	623b      	str	r3, [r7, #32]
  HAL_GPIO_Init(GPIOA, &GPIO_InitStruct);
 8001e26:	f107 0314 	add.w	r3, r7, #20
 8001e2a:	4619      	mov	r1, r3
 8001e2c:	484a      	ldr	r0, [pc, #296]	; (8001f58 <MX_GPIO_Init+0x27c>)
 8001e2e:	f005 ff05 	bl	8007c3c <HAL_GPIO_Init>

  /*Configure GPIO pins : FP_ROT_A_Pin FP_ROT_B_Pin FP_S1_Pin */
  GPIO_InitStruct.Pin = FP_ROT_A_Pin|FP_ROT_B_Pin|FP_S1_Pin;
 8001e32:	23e0      	movs	r3, #224	; 0xe0
 8001e34:	617b      	str	r3, [r7, #20]
  GPIO_InitStruct.Mode = GPIO_MODE_INPUT;
 8001e36:	2300      	movs	r3, #0
 8001e38:	61bb      	str	r3, [r7, #24]
  GPIO_InitStruct.Pull = GPIO_NOPULL;
 8001e3a:	2300      	movs	r3, #0
 8001e3c:	61fb      	str	r3, [r7, #28]
  HAL_GPIO_Init(GPIOA, &GPIO_InitStruct);
 8001e3e:	f107 0314 	add.w	r3, r7, #20
 8001e42:	4619      	mov	r1, r3
 8001e44:	4844      	ldr	r0, [pc, #272]	; (8001f58 <MX_GPIO_Init+0x27c>)
 8001e46:	f005 fef9 	bl	8007c3c <HAL_GPIO_Init>

  /*Configure GPIO pins : FP_S4_Pin FP_S3_Pin */
  GPIO_InitStruct.Pin = FP_S4_Pin|FP_S3_Pin;
 8001e4a:	2330      	movs	r3, #48	; 0x30
 8001e4c:	617b      	str	r3, [r7, #20]
  GPIO_InitStruct.Mode = GPIO_MODE_INPUT;
 8001e4e:	2300      	movs	r3, #0
 8001e50:	61bb      	str	r3, [r7, #24]
  GPIO_InitStruct.Pull = GPIO_NOPULL;
 8001e52:	2300      	movs	r3, #0
 8001e54:	61fb      	str	r3, [r7, #28]
  HAL_GPIO_Init(GPIOC, &GPIO_InitStruct);
 8001e56:	f107 0314 	add.w	r3, r7, #20
 8001e5a:	4619      	mov	r1, r3
 8001e5c:	483d      	ldr	r0, [pc, #244]	; (8001f54 <MX_GPIO_Init+0x278>)
 8001e5e:	f005 feed 	bl	8007c3c <HAL_GPIO_Init>

  /*Configure GPIO pin : FP_S2_Pin */
  GPIO_InitStruct.Pin = FP_S2_Pin;
 8001e62:	2301      	movs	r3, #1
 8001e64:	617b      	str	r3, [r7, #20]
  GPIO_InitStruct.Mode = GPIO_MODE_INPUT;
 8001e66:	2300      	movs	r3, #0
 8001e68:	61bb      	str	r3, [r7, #24]
  GPIO_InitStruct.Pull = GPIO_NOPULL;
 8001e6a:	2300      	movs	r3, #0
 8001e6c:	61fb      	str	r3, [r7, #28]
  HAL_GPIO_Init(FP_S2_GPIO_Port, &GPIO_InitStruct);
 8001e6e:	f107 0314 	add.w	r3, r7, #20
 8001e72:	4619      	mov	r1, r3
 8001e74:	4839      	ldr	r0, [pc, #228]	; (8001f5c <MX_GPIO_Init+0x280>)
 8001e76:	f005 fee1 	bl	8007c3c <HAL_GPIO_Init>

  /*Configure GPIO pins : FP_STATUS_SDI_Pin nFP_STATUS_OE_Pin FP_STATUS_CLK_Pin FP_STATUS_LE_Pin
                           FP_LCD_BL_Pin */
  GPIO_InitStruct.Pin = FP_STATUS_SDI_Pin|nFP_STATUS_OE_Pin|FP_STATUS_CLK_Pin|FP_STATUS_LE_Pin
 8001e7a:	f641 4306 	movw	r3, #7174	; 0x1c06
 8001e7e:	617b      	str	r3, [r7, #20]
                          |FP_LCD_BL_Pin;
  GPIO_InitStruct.Mode = GPIO_MODE_OUTPUT_PP;
 8001e80:	2301      	movs	r3, #1
 8001e82:	61bb      	str	r3, [r7, #24]
  GPIO_InitStruct.Pull = GPIO_NOPULL;
 8001e84:	2300      	movs	r3, #0
 8001e86:	61fb      	str	r3, [r7, #28]
  GPIO_InitStruct.Speed = GPIO_SPEED_FREQ_LOW;
 8001e88:	2300      	movs	r3, #0
 8001e8a:	623b      	str	r3, [r7, #32]
  HAL_GPIO_Init(GPIOB, &GPIO_InitStruct);
 8001e8c:	f107 0314 	add.w	r3, r7, #20
 8001e90:	4619      	mov	r1, r3
 8001e92:	4832      	ldr	r0, [pc, #200]	; (8001f5c <MX_GPIO_Init+0x280>)
 8001e94:	f005 fed2 	bl	8007c3c <HAL_GPIO_Init>

  /*Configure GPIO pins : nSEG_OE_Pin SEG_LE_Pin SEG_CLK_Pin SEG_SDI_Pin */
  GPIO_InitStruct.Pin = nSEG_OE_Pin|SEG_LE_Pin|SEG_CLK_Pin|SEG_SDI_Pin;
 8001e98:	f44f 7370 	mov.w	r3, #960	; 0x3c0
 8001e9c:	617b      	str	r3, [r7, #20]
  GPIO_InitStruct.Mode = GPIO_MODE_OUTPUT_PP;
 8001e9e:	2301      	movs	r3, #1
 8001ea0:	61bb      	str	r3, [r7, #24]
  GPIO_InitStruct.Pull = GPIO_NOPULL;
 8001ea2:	2300      	movs	r3, #0
 8001ea4:	61fb      	str	r3, [r7, #28]
  GPIO_InitStruct.Speed = GPIO_SPEED_FREQ_LOW;
 8001ea6:	2300      	movs	r3, #0
 8001ea8:	623b      	str	r3, [r7, #32]
  HAL_GPIO_Init(GPIOC, &GPIO_InitStruct);
 8001eaa:	f107 0314 	add.w	r3, r7, #20
 8001eae:	4619      	mov	r1, r3
 8001eb0:	4828      	ldr	r0, [pc, #160]	; (8001f54 <MX_GPIO_Init+0x278>)
 8001eb2:	f005 fec3 	bl	8007c3c <HAL_GPIO_Init>

  /*Configure GPIO pins : B1_SE_Pin B0_SE_Pin */
  GPIO_InitStruct.Pin = B1_SE_Pin|B0_SE_Pin;
 8001eb6:	f44f 6340 	mov.w	r3, #3072	; 0xc00
 8001eba:	617b      	str	r3, [r7, #20]
  GPIO_InitStruct.Mode = GPIO_MODE_IT_RISING;
 8001ebc:	4b29      	ldr	r3, [pc, #164]	; (8001f64 <MX_GPIO_Init+0x288>)
 8001ebe:	61bb      	str	r3, [r7, #24]
  GPIO_InitStruct.Pull = GPIO_NOPULL;
 8001ec0:	2300      	movs	r3, #0
 8001ec2:	61fb      	str	r3, [r7, #28]
  HAL_GPIO_Init(GPIOC, &GPIO_InitStruct);
 8001ec4:	f107 0314 	add.w	r3, r7, #20
 8001ec8:	4619      	mov	r1, r3
 8001eca:	4822      	ldr	r0, [pc, #136]	; (8001f54 <MX_GPIO_Init+0x278>)
 8001ecc:	f005 feb6 	bl	8007c3c <HAL_GPIO_Init>

  /*Configure GPIO pin : TEST_DIFF_B2_Pin */
  GPIO_InitStruct.Pin = TEST_DIFF_B2_Pin;
 8001ed0:	2304      	movs	r3, #4
 8001ed2:	617b      	str	r3, [r7, #20]
  GPIO_InitStruct.Mode = GPIO_MODE_OUTPUT_OD;
 8001ed4:	2311      	movs	r3, #17
 8001ed6:	61bb      	str	r3, [r7, #24]
  GPIO_InitStruct.Pull = GPIO_PULLUP;
 8001ed8:	2301      	movs	r3, #1
 8001eda:	61fb      	str	r3, [r7, #28]
  GPIO_InitStruct.Speed = GPIO_SPEED_FREQ_LOW;
 8001edc:	2300      	movs	r3, #0
 8001ede:	623b      	str	r3, [r7, #32]
  HAL_GPIO_Init(TEST_DIFF_B2_GPIO_Port, &GPIO_InitStruct);
 8001ee0:	f107 0314 	add.w	r3, r7, #20
 8001ee4:	4619      	mov	r1, r3
 8001ee6:	481e      	ldr	r0, [pc, #120]	; (8001f60 <MX_GPIO_Init+0x284>)
 8001ee8:	f005 fea8 	bl	8007c3c <HAL_GPIO_Init>

  /*Configure GPIO pins : nTEST_DIFF_B1_Pin TEST_DIFF_B1_Pin nTEST_DIFF_B0_Pin TEST_DIFF_B0_Pin */
  GPIO_InitStruct.Pin = nTEST_DIFF_B1_Pin|TEST_DIFF_B1_Pin|nTEST_DIFF_B0_Pin|TEST_DIFF_B0_Pin;
 8001eec:	23f0      	movs	r3, #240	; 0xf0
 8001eee:	617b      	str	r3, [r7, #20]
  GPIO_InitStruct.Mode = GPIO_MODE_OUTPUT_OD;
 8001ef0:	2311      	movs	r3, #17
 8001ef2:	61bb      	str	r3, [r7, #24]
  GPIO_InitStruct.Pull = GPIO_PULLUP;
 8001ef4:	2301      	movs	r3, #1
 8001ef6:	61fb      	str	r3, [r7, #28]
  GPIO_InitStruct.Speed = GPIO_SPEED_FREQ_LOW;
 8001ef8:	2300      	movs	r3, #0
 8001efa:	623b      	str	r3, [r7, #32]
  HAL_GPIO_Init(GPIOB, &GPIO_InitStruct);
 8001efc:	f107 0314 	add.w	r3, r7, #20
 8001f00:	4619      	mov	r1, r3
 8001f02:	4816      	ldr	r0, [pc, #88]	; (8001f5c <MX_GPIO_Init+0x280>)
 8001f04:	f005 fe9a 	bl	8007c3c <HAL_GPIO_Init>

  /* EXTI interrupt init*/
  HAL_NVIC_SetPriority(EXTI0_IRQn, 0, 0);
 8001f08:	2200      	movs	r2, #0
 8001f0a:	2100      	movs	r1, #0
 8001f0c:	2006      	movs	r0, #6
 8001f0e:	f005 fae0 	bl	80074d2 <HAL_NVIC_SetPriority>
  HAL_NVIC_EnableIRQ(EXTI0_IRQn);
 8001f12:	2006      	movs	r0, #6
 8001f14:	f005 faf9 	bl	800750a <HAL_NVIC_EnableIRQ>

  HAL_NVIC_SetPriority(EXTI1_IRQn, 0, 0);
 8001f18:	2200      	movs	r2, #0
 8001f1a:	2100      	movs	r1, #0
 8001f1c:	2007      	movs	r0, #7
 8001f1e:	f005 fad8 	bl	80074d2 <HAL_NVIC_SetPriority>
  HAL_NVIC_EnableIRQ(EXTI1_IRQn);
 8001f22:	2007      	movs	r0, #7
 8001f24:	f005 faf1 	bl	800750a <HAL_NVIC_EnableIRQ>

  HAL_NVIC_SetPriority(EXTI2_IRQn, 0, 0);
 8001f28:	2200      	movs	r2, #0
 8001f2a:	2100      	movs	r1, #0
 8001f2c:	2008      	movs	r0, #8
 8001f2e:	f005 fad0 	bl	80074d2 <HAL_NVIC_SetPriority>
  HAL_NVIC_EnableIRQ(EXTI2_IRQn);
 8001f32:	2008      	movs	r0, #8
 8001f34:	f005 fae9 	bl	800750a <HAL_NVIC_EnableIRQ>

  HAL_NVIC_SetPriority(EXTI15_10_IRQn, 0, 0);
 8001f38:	2200      	movs	r2, #0
 8001f3a:	2100      	movs	r1, #0
 8001f3c:	2028      	movs	r0, #40	; 0x28
 8001f3e:	f005 fac8 	bl	80074d2 <HAL_NVIC_SetPriority>
  HAL_NVIC_EnableIRQ(EXTI15_10_IRQn);
 8001f42:	2028      	movs	r0, #40	; 0x28
 8001f44:	f005 fae1 	bl	800750a <HAL_NVIC_EnableIRQ>

}
 8001f48:	bf00      	nop
 8001f4a:	3728      	adds	r7, #40	; 0x28
 8001f4c:	46bd      	mov	sp, r7
 8001f4e:	bd80      	pop	{r7, pc}
 8001f50:	40023800 	.word	0x40023800
 8001f54:	40020800 	.word	0x40020800
 8001f58:	40020000 	.word	0x40020000
 8001f5c:	40020400 	.word	0x40020400
 8001f60:	40020c00 	.word	0x40020c00
 8001f64:	10110000 	.word	0x10110000

08001f68 <__io_putchar>:

/* USER CODE BEGIN 4 */
int __io_putchar(int ch) {
 8001f68:	b580      	push	{r7, lr}
 8001f6a:	b082      	sub	sp, #8
 8001f6c:	af00      	add	r7, sp, #0
 8001f6e:	6078      	str	r0, [r7, #4]
    ITM_SendChar(ch);
 8001f70:	687b      	ldr	r3, [r7, #4]
 8001f72:	4618      	mov	r0, r3
 8001f74:	f7ff fb4a 	bl	800160c <ITM_SendChar>
    return ch;
 8001f78:	687b      	ldr	r3, [r7, #4]
}
 8001f7a:	4618      	mov	r0, r3
 8001f7c:	3708      	adds	r7, #8
 8001f7e:	46bd      	mov	sp, r7
 8001f80:	bd80      	pop	{r7, pc}

08001f82 <Error_Handler>:
/**
  * @brief  This function is executed in case of error occurrence.
  * @retval None
  */
void Error_Handler(void)
{
 8001f82:	b480      	push	{r7}
 8001f84:	af00      	add	r7, sp, #0
  /* USER CODE BEGIN Error_Handler_Debug */
  /* User can add his own implementation to report the HAL error return state */

  /* USER CODE END Error_Handler_Debug */
}
 8001f86:	bf00      	nop
 8001f88:	46bd      	mov	sp, r7
 8001f8a:	f85d 7b04 	ldr.w	r7, [sp], #4
 8001f8e:	4770      	bx	lr

08001f90 <setStartStop>:
		{MENU_DEFAULT, 6, "Azimut",					0, setAzimuthWarnPos},
		{MENU_DEFAULT, 6, "Elevation",				0, setElevationWarnPos}
};

int8_t setStartStop(int8_t state)
{
 8001f90:	b580      	push	{r7, lr}
 8001f92:	b08a      	sub	sp, #40	; 0x28
 8001f94:	af00      	add	r7, sp, #0
 8001f96:	4603      	mov	r3, r0
 8001f98:	71fb      	strb	r3, [r7, #7]
	char s[30];
	static uint8_t n = 0;

	if (checkButton(BTN_S2, BTN_LONG))
 8001f9a:	2104      	movs	r1, #4
 8001f9c:	2001      	movs	r0, #1
 8001f9e:	f7ff f96b 	bl	8001278 <checkButton>
 8001fa2:	4603      	mov	r3, r0
 8001fa4:	2b00      	cmp	r3, #0
 8001fa6:	d001      	beq.n	8001fac <setStartStop+0x1c>
		state = -1;
 8001fa8:	23ff      	movs	r3, #255	; 0xff
 8001faa:	71fb      	strb	r3, [r7, #7]

	switch (state) {
 8001fac:	f997 3007 	ldrsb.w	r3, [r7, #7]
 8001fb0:	2b0b      	cmp	r3, #11
 8001fb2:	f200 8139 	bhi.w	8002228 <setStartStop+0x298>
 8001fb6:	a201      	add	r2, pc, #4	; (adr r2, 8001fbc <setStartStop+0x2c>)
 8001fb8:	f852 f023 	ldr.w	pc, [r2, r3, lsl #2]
 8001fbc:	08001fed 	.word	0x08001fed
 8001fc0:	08002001 	.word	0x08002001
 8001fc4:	08002033 	.word	0x08002033
 8001fc8:	0800206b 	.word	0x0800206b
 8001fcc:	0800209f 	.word	0x0800209f
 8001fd0:	08002229 	.word	0x08002229
 8001fd4:	08002229 	.word	0x08002229
 8001fd8:	080020e1 	.word	0x080020e1
 8001fdc:	08002107 	.word	0x08002107
 8001fe0:	08002159 	.word	0x08002159
 8001fe4:	080021bd 	.word	0x080021bd
 8001fe8:	080021e9 	.word	0x080021e9
	case 0:
		if (sys.status == SYS_RUN)
 8001fec:	4b96      	ldr	r3, [pc, #600]	; (8002248 <setStartStop+0x2b8>)
 8001fee:	7b1b      	ldrb	r3, [r3, #12]
 8001ff0:	2b01      	cmp	r3, #1
 8001ff2:	d102      	bne.n	8001ffa <setStartStop+0x6a>
			state = 7;
 8001ff4:	2307      	movs	r3, #7
 8001ff6:	71fb      	strb	r3, [r7, #7]
		else
			state = 1;
		break;
 8001ff8:	e120      	b.n	800223c <setStartStop+0x2ac>
			state = 1;
 8001ffa:	2301      	movs	r3, #1
 8001ffc:	71fb      	strb	r3, [r7, #7]
		break;
 8001ffe:	e11d      	b.n	800223c <setStartStop+0x2ac>
	case 1:
		LCD_Clear();
 8002000:	f7ff fa58 	bl	80014b4 <LCD_Clear>
		LCD_WriteXY(0, 0, " Winkelwertanzeige");
 8002004:	4a91      	ldr	r2, [pc, #580]	; (800224c <setStartStop+0x2bc>)
 8002006:	2100      	movs	r1, #0
 8002008:	2000      	movs	r0, #0
 800200a:	f7ff fa8c 	bl	8001526 <LCD_WriteXY>
		LCD_WriteXY(0, 1, " wird gestartet");
 800200e:	4a90      	ldr	r2, [pc, #576]	; (8002250 <setStartStop+0x2c0>)
 8002010:	2101      	movs	r1, #1
 8002012:	2000      	movs	r0, #0
 8002014:	f7ff fa87 	bl	8001526 <LCD_WriteXY>
		setSystemStatus(SYS_START);
 8002018:	2000      	movs	r0, #0
 800201a:	f003 fdf9 	bl	8005c10 <setSystemStatus>
		n = 0;
 800201e:	4b8d      	ldr	r3, [pc, #564]	; (8002254 <setStartStop+0x2c4>)
 8002020:	2200      	movs	r2, #0
 8002022:	701a      	strb	r2, [r3, #0]
		state++;
 8002024:	f997 3007 	ldrsb.w	r3, [r7, #7]
 8002028:	b2db      	uxtb	r3, r3
 800202a:	3301      	adds	r3, #1
 800202c:	b2db      	uxtb	r3, r3
 800202e:	71fb      	strb	r3, [r7, #7]
		break;
 8002030:	e104      	b.n	800223c <setStartStop+0x2ac>
	case 2:
		if ((sys.status != SYS_RUN) && n < 5) {
 8002032:	4b85      	ldr	r3, [pc, #532]	; (8002248 <setStartStop+0x2b8>)
 8002034:	7b1b      	ldrb	r3, [r3, #12]
 8002036:	2b01      	cmp	r3, #1
 8002038:	d014      	beq.n	8002064 <setStartStop+0xd4>
 800203a:	4b86      	ldr	r3, [pc, #536]	; (8002254 <setStartStop+0x2c4>)
 800203c:	781b      	ldrb	r3, [r3, #0]
 800203e:	2b04      	cmp	r3, #4
 8002040:	d810      	bhi.n	8002064 <setStartStop+0xd4>
			n++;
 8002042:	4b84      	ldr	r3, [pc, #528]	; (8002254 <setStartStop+0x2c4>)
 8002044:	781b      	ldrb	r3, [r3, #0]
 8002046:	3301      	adds	r3, #1
 8002048:	b2da      	uxtb	r2, r3
 800204a:	4b82      	ldr	r3, [pc, #520]	; (8002254 <setStartStop+0x2c4>)
 800204c:	701a      	strb	r2, [r3, #0]
			LCD_WriteXY(n, 2, ".");
 800204e:	4b81      	ldr	r3, [pc, #516]	; (8002254 <setStartStop+0x2c4>)
 8002050:	781b      	ldrb	r3, [r3, #0]
 8002052:	4a81      	ldr	r2, [pc, #516]	; (8002258 <setStartStop+0x2c8>)
 8002054:	2102      	movs	r1, #2
 8002056:	4618      	mov	r0, r3
 8002058:	f7ff fa65 	bl	8001526 <LCD_WriteXY>
			HAL_Delay(200);
 800205c:	20c8      	movs	r0, #200	; 0xc8
 800205e:	f004 fbb9 	bl	80067d4 <HAL_Delay>
		} else {
			state = 3;
		}
		break;
 8002062:	e0eb      	b.n	800223c <setStartStop+0x2ac>
			state = 3;
 8002064:	2303      	movs	r3, #3
 8002066:	71fb      	strb	r3, [r7, #7]
		break;
 8002068:	e0e8      	b.n	800223c <setStartStop+0x2ac>
	case 3:
		if (sys.status == SYS_RUN)
 800206a:	4b77      	ldr	r3, [pc, #476]	; (8002248 <setStartStop+0x2b8>)
 800206c:	7b1b      	ldrb	r3, [r3, #12]
 800206e:	2b01      	cmp	r3, #1
 8002070:	d107      	bne.n	8002082 <setStartStop+0xf2>
			LCD_WriteXY(n, 2, "ok");
 8002072:	4b78      	ldr	r3, [pc, #480]	; (8002254 <setStartStop+0x2c4>)
 8002074:	781b      	ldrb	r3, [r3, #0]
 8002076:	4a79      	ldr	r2, [pc, #484]	; (800225c <setStartStop+0x2cc>)
 8002078:	2102      	movs	r1, #2
 800207a:	4618      	mov	r0, r3
 800207c:	f7ff fa53 	bl	8001526 <LCD_WriteXY>
 8002080:	e006      	b.n	8002090 <setStartStop+0x100>
		else
			LCD_WriteXY(n, 2, "fehlgeschlagen.");
 8002082:	4b74      	ldr	r3, [pc, #464]	; (8002254 <setStartStop+0x2c4>)
 8002084:	781b      	ldrb	r3, [r3, #0]
 8002086:	4a76      	ldr	r2, [pc, #472]	; (8002260 <setStartStop+0x2d0>)
 8002088:	2102      	movs	r1, #2
 800208a:	4618      	mov	r0, r3
 800208c:	f7ff fa4b 	bl	8001526 <LCD_WriteXY>
		state++;
 8002090:	f997 3007 	ldrsb.w	r3, [r7, #7]
 8002094:	b2db      	uxtb	r3, r3
 8002096:	3301      	adds	r3, #1
 8002098:	b2db      	uxtb	r3, r3
 800209a:	71fb      	strb	r3, [r7, #7]
		break;
 800209c:	e0ce      	b.n	800223c <setStartStop+0x2ac>
	case 4:
		if (refreshScreen()) {
 800209e:	f7ff f911 	bl	80012c4 <refreshScreen>
 80020a2:	4603      	mov	r3, r0
 80020a4:	2b00      	cmp	r3, #0
 80020a6:	d010      	beq.n	80020ca <setStartStop+0x13a>
			sprintf(s, "%cOK%c", BO, BC);
 80020a8:	4b6e      	ldr	r3, [pc, #440]	; (8002264 <setStartStop+0x2d4>)
 80020aa:	781b      	ldrb	r3, [r3, #0]
 80020ac:	461a      	mov	r2, r3
 80020ae:	4b6e      	ldr	r3, [pc, #440]	; (8002268 <setStartStop+0x2d8>)
 80020b0:	781b      	ldrb	r3, [r3, #0]
 80020b2:	f107 0008 	add.w	r0, r7, #8
 80020b6:	496d      	ldr	r1, [pc, #436]	; (800226c <setStartStop+0x2dc>)
 80020b8:	f008 fa52 	bl	800a560 <siprintf>
			LCD_WriteXY(8, 3, s);
 80020bc:	f107 0308 	add.w	r3, r7, #8
 80020c0:	461a      	mov	r2, r3
 80020c2:	2103      	movs	r1, #3
 80020c4:	2008      	movs	r0, #8
 80020c6:	f7ff fa2e 	bl	8001526 <LCD_WriteXY>
		}
		if (checkButton(BTN_S2, BTN_SHORT)) state = -1;
 80020ca:	2102      	movs	r1, #2
 80020cc:	2001      	movs	r0, #1
 80020ce:	f7ff f8d3 	bl	8001278 <checkButton>
 80020d2:	4603      	mov	r3, r0
 80020d4:	2b00      	cmp	r3, #0
 80020d6:	f000 80aa 	beq.w	800222e <setStartStop+0x29e>
 80020da:	23ff      	movs	r3, #255	; 0xff
 80020dc:	71fb      	strb	r3, [r7, #7]
		break;
 80020de:	e0a6      	b.n	800222e <setStartStop+0x29e>

	case 7:
		LCD_Clear();
 80020e0:	f7ff f9e8 	bl	80014b4 <LCD_Clear>
		LCD_WriteXY(0, 0, "  Winkelwertanzeige");
 80020e4:	4a62      	ldr	r2, [pc, #392]	; (8002270 <setStartStop+0x2e0>)
 80020e6:	2100      	movs	r1, #0
 80020e8:	2000      	movs	r0, #0
 80020ea:	f7ff fa1c 	bl	8001526 <LCD_WriteXY>
		LCD_WriteXY(0, 1, "     anhalten?");
 80020ee:	4a61      	ldr	r2, [pc, #388]	; (8002274 <setStartStop+0x2e4>)
 80020f0:	2101      	movs	r1, #1
 80020f2:	2000      	movs	r0, #0
 80020f4:	f7ff fa17 	bl	8001526 <LCD_WriteXY>
		state++;
 80020f8:	f997 3007 	ldrsb.w	r3, [r7, #7]
 80020fc:	b2db      	uxtb	r3, r3
 80020fe:	3301      	adds	r3, #1
 8002100:	b2db      	uxtb	r3, r3
 8002102:	71fb      	strb	r3, [r7, #7]
		break;
 8002104:	e09a      	b.n	800223c <setStartStop+0x2ac>
	case 8:
		if (refreshScreen()) {
 8002106:	f7ff f8dd 	bl	80012c4 <refreshScreen>
 800210a:	4603      	mov	r3, r0
 800210c:	2b00      	cmp	r3, #0
 800210e:	d010      	beq.n	8002132 <setStartStop+0x1a2>
			sprintf(s, "   %cnein%c      ja ", BO, BC);
 8002110:	4b54      	ldr	r3, [pc, #336]	; (8002264 <setStartStop+0x2d4>)
 8002112:	781b      	ldrb	r3, [r3, #0]
 8002114:	461a      	mov	r2, r3
 8002116:	4b54      	ldr	r3, [pc, #336]	; (8002268 <setStartStop+0x2d8>)
 8002118:	781b      	ldrb	r3, [r3, #0]
 800211a:	f107 0008 	add.w	r0, r7, #8
 800211e:	4956      	ldr	r1, [pc, #344]	; (8002278 <setStartStop+0x2e8>)
 8002120:	f008 fa1e 	bl	800a560 <siprintf>
			LCD_WriteXY(0, 2, s);
 8002124:	f107 0308 	add.w	r3, r7, #8
 8002128:	461a      	mov	r2, r3
 800212a:	2102      	movs	r1, #2
 800212c:	2000      	movs	r0, #0
 800212e:	f7ff f9fa 	bl	8001526 <LCD_WriteXY>
		}
		if (checkButton(BTN_S2, BTN_SHORT)) state = -1;
 8002132:	2102      	movs	r1, #2
 8002134:	2001      	movs	r0, #1
 8002136:	f7ff f89f 	bl	8001278 <checkButton>
 800213a:	4603      	mov	r3, r0
 800213c:	2b00      	cmp	r3, #0
 800213e:	d001      	beq.n	8002144 <setStartStop+0x1b4>
 8002140:	23ff      	movs	r3, #255	; 0xff
 8002142:	71fb      	strb	r3, [r7, #7]
		if (checkButton(BTN_S3, BTN_SHORT)) state = 9;
 8002144:	2102      	movs	r1, #2
 8002146:	2002      	movs	r0, #2
 8002148:	f7ff f896 	bl	8001278 <checkButton>
 800214c:	4603      	mov	r3, r0
 800214e:	2b00      	cmp	r3, #0
 8002150:	d06f      	beq.n	8002232 <setStartStop+0x2a2>
 8002152:	2309      	movs	r3, #9
 8002154:	71fb      	strb	r3, [r7, #7]
		break;
 8002156:	e06c      	b.n	8002232 <setStartStop+0x2a2>
	case 9:
		if (refreshScreen()) {
 8002158:	f7ff f8b4 	bl	80012c4 <refreshScreen>
 800215c:	4603      	mov	r3, r0
 800215e:	2b00      	cmp	r3, #0
 8002160:	d010      	beq.n	8002184 <setStartStop+0x1f4>
			sprintf(s, "    nein      %cja%c", BO, BC);
 8002162:	4b40      	ldr	r3, [pc, #256]	; (8002264 <setStartStop+0x2d4>)
 8002164:	781b      	ldrb	r3, [r3, #0]
 8002166:	461a      	mov	r2, r3
 8002168:	4b3f      	ldr	r3, [pc, #252]	; (8002268 <setStartStop+0x2d8>)
 800216a:	781b      	ldrb	r3, [r3, #0]
 800216c:	f107 0008 	add.w	r0, r7, #8
 8002170:	4942      	ldr	r1, [pc, #264]	; (800227c <setStartStop+0x2ec>)
 8002172:	f008 f9f5 	bl	800a560 <siprintf>
			LCD_WriteXY(0, 2, s);
 8002176:	f107 0308 	add.w	r3, r7, #8
 800217a:	461a      	mov	r2, r3
 800217c:	2102      	movs	r1, #2
 800217e:	2000      	movs	r0, #0
 8002180:	f7ff f9d1 	bl	8001526 <LCD_WriteXY>
		}
		if (checkButton(BTN_S1, BTN_SHORT)) state--;
 8002184:	2102      	movs	r1, #2
 8002186:	2000      	movs	r0, #0
 8002188:	f7ff f876 	bl	8001278 <checkButton>
 800218c:	4603      	mov	r3, r0
 800218e:	2b00      	cmp	r3, #0
 8002190:	d006      	beq.n	80021a0 <setStartStop+0x210>
 8002192:	f997 3007 	ldrsb.w	r3, [r7, #7]
 8002196:	b2db      	uxtb	r3, r3
 8002198:	3b01      	subs	r3, #1
 800219a:	b2db      	uxtb	r3, r3
 800219c:	71fb      	strb	r3, [r7, #7]
		else if (checkButton(BTN_S2, BTN_SHORT)) state++;
		break;
 800219e:	e04a      	b.n	8002236 <setStartStop+0x2a6>
		else if (checkButton(BTN_S2, BTN_SHORT)) state++;
 80021a0:	2102      	movs	r1, #2
 80021a2:	2001      	movs	r0, #1
 80021a4:	f7ff f868 	bl	8001278 <checkButton>
 80021a8:	4603      	mov	r3, r0
 80021aa:	2b00      	cmp	r3, #0
 80021ac:	d043      	beq.n	8002236 <setStartStop+0x2a6>
 80021ae:	f997 3007 	ldrsb.w	r3, [r7, #7]
 80021b2:	b2db      	uxtb	r3, r3
 80021b4:	3301      	adds	r3, #1
 80021b6:	b2db      	uxtb	r3, r3
 80021b8:	71fb      	strb	r3, [r7, #7]
		break;
 80021ba:	e03c      	b.n	8002236 <setStartStop+0x2a6>
	case 10:
		LCD_Clear();
 80021bc:	f7ff f97a 	bl	80014b4 <LCD_Clear>
		LCD_WriteXY(0, 0, " Winkelwertanzeige");
 80021c0:	4a22      	ldr	r2, [pc, #136]	; (800224c <setStartStop+0x2bc>)
 80021c2:	2100      	movs	r1, #0
 80021c4:	2000      	movs	r0, #0
 80021c6:	f7ff f9ae 	bl	8001526 <LCD_WriteXY>
		LCD_WriteXY(0, 1, "    angehalten.");
 80021ca:	4a2d      	ldr	r2, [pc, #180]	; (8002280 <setStartStop+0x2f0>)
 80021cc:	2101      	movs	r1, #1
 80021ce:	2000      	movs	r0, #0
 80021d0:	f7ff f9a9 	bl	8001526 <LCD_WriteXY>
		setSystemStatus(SYS_STOP);
 80021d4:	2002      	movs	r0, #2
 80021d6:	f003 fd1b 	bl	8005c10 <setSystemStatus>
		state++;
 80021da:	f997 3007 	ldrsb.w	r3, [r7, #7]
 80021de:	b2db      	uxtb	r3, r3
 80021e0:	3301      	adds	r3, #1
 80021e2:	b2db      	uxtb	r3, r3
 80021e4:	71fb      	strb	r3, [r7, #7]
		break;
 80021e6:	e029      	b.n	800223c <setStartStop+0x2ac>
	case 11:
		if (refreshScreen()) {
 80021e8:	f7ff f86c 	bl	80012c4 <refreshScreen>
 80021ec:	4603      	mov	r3, r0
 80021ee:	2b00      	cmp	r3, #0
 80021f0:	d010      	beq.n	8002214 <setStartStop+0x284>
			sprintf(s, "%cOK%c", BO, BC);
 80021f2:	4b1c      	ldr	r3, [pc, #112]	; (8002264 <setStartStop+0x2d4>)
 80021f4:	781b      	ldrb	r3, [r3, #0]
 80021f6:	461a      	mov	r2, r3
 80021f8:	4b1b      	ldr	r3, [pc, #108]	; (8002268 <setStartStop+0x2d8>)
 80021fa:	781b      	ldrb	r3, [r3, #0]
 80021fc:	f107 0008 	add.w	r0, r7, #8
 8002200:	491a      	ldr	r1, [pc, #104]	; (800226c <setStartStop+0x2dc>)
 8002202:	f008 f9ad 	bl	800a560 <siprintf>
			LCD_WriteXY(8, 2, s);
 8002206:	f107 0308 	add.w	r3, r7, #8
 800220a:	461a      	mov	r2, r3
 800220c:	2102      	movs	r1, #2
 800220e:	2008      	movs	r0, #8
 8002210:	f7ff f989 	bl	8001526 <LCD_WriteXY>
		}
		if (checkButton(BTN_S2, BTN_SHORT)) state = -1;
 8002214:	2102      	movs	r1, #2
 8002216:	2001      	movs	r0, #1
 8002218:	f7ff f82e 	bl	8001278 <checkButton>
 800221c:	4603      	mov	r3, r0
 800221e:	2b00      	cmp	r3, #0
 8002220:	d00b      	beq.n	800223a <setStartStop+0x2aa>
 8002222:	23ff      	movs	r3, #255	; 0xff
 8002224:	71fb      	strb	r3, [r7, #7]
		break;
 8002226:	e008      	b.n	800223a <setStartStop+0x2aa>
	default:
		state = -1;
 8002228:	23ff      	movs	r3, #255	; 0xff
 800222a:	71fb      	strb	r3, [r7, #7]
 800222c:	e006      	b.n	800223c <setStartStop+0x2ac>
		break;
 800222e:	bf00      	nop
 8002230:	e004      	b.n	800223c <setStartStop+0x2ac>
		break;
 8002232:	bf00      	nop
 8002234:	e002      	b.n	800223c <setStartStop+0x2ac>
		break;
 8002236:	bf00      	nop
 8002238:	e000      	b.n	800223c <setStartStop+0x2ac>
		break;
 800223a:	bf00      	nop
	}

	return state;
 800223c:	f997 3007 	ldrsb.w	r3, [r7, #7]
}
 8002240:	4618      	mov	r0, r3
 8002242:	3728      	adds	r7, #40	; 0x28
 8002244:	46bd      	mov	sp, r7
 8002246:	bd80      	pop	{r7, pc}
 8002248:	200006c0 	.word	0x200006c0
 800224c:	0800cb50 	.word	0x0800cb50
 8002250:	0800cb64 	.word	0x0800cb64
 8002254:	20000600 	.word	0x20000600
 8002258:	0800cb74 	.word	0x0800cb74
 800225c:	0800cb78 	.word	0x0800cb78
 8002260:	0800cb7c 	.word	0x0800cb7c
 8002264:	200006e1 	.word	0x200006e1
 8002268:	200006e2 	.word	0x200006e2
 800226c:	0800cb8c 	.word	0x0800cb8c
 8002270:	0800cb94 	.word	0x0800cb94
 8002274:	0800cba8 	.word	0x0800cba8
 8002278:	0800cbb8 	.word	0x0800cbb8
 800227c:	0800cbd0 	.word	0x0800cbd0
 8002280:	0800cbe8 	.word	0x0800cbe8

08002284 <setSegOrder>:

int8_t setSegOrder(int8_t state)
{
 8002284:	b580      	push	{r7, lr}
 8002286:	b084      	sub	sp, #16
 8002288:	af00      	add	r7, sp, #0
 800228a:	4603      	mov	r3, r0
 800228c:	71fb      	strb	r3, [r7, #7]
	uint8_t i;

	if (sys.segOrder) {
 800228e:	4b19      	ldr	r3, [pc, #100]	; (80022f4 <setSegOrder+0x70>)
 8002290:	7b9b      	ldrb	r3, [r3, #14]
 8002292:	2b00      	cmp	r3, #0
 8002294:	d003      	beq.n	800229e <setSegOrder+0x1a>
		sys.segOrder = 0;
 8002296:	4b17      	ldr	r3, [pc, #92]	; (80022f4 <setSegOrder+0x70>)
 8002298:	2200      	movs	r2, #0
 800229a:	739a      	strb	r2, [r3, #14]
 800229c:	e002      	b.n	80022a4 <setSegOrder+0x20>
	} else {
		sys.segOrder = 1;
 800229e:	4b15      	ldr	r3, [pc, #84]	; (80022f4 <setSegOrder+0x70>)
 80022a0:	2201      	movs	r2, #1
 80022a2:	739a      	strb	r2, [r3, #14]
	}

	for(i = 0; menuStruct[i].itemId != MENU_SEGORDER;i++);
 80022a4:	2300      	movs	r3, #0
 80022a6:	73fb      	strb	r3, [r7, #15]
 80022a8:	e002      	b.n	80022b0 <setSegOrder+0x2c>
 80022aa:	7bfb      	ldrb	r3, [r7, #15]
 80022ac:	3301      	adds	r3, #1
 80022ae:	73fb      	strb	r3, [r7, #15]
 80022b0:	7bfa      	ldrb	r2, [r7, #15]
 80022b2:	4911      	ldr	r1, [pc, #68]	; (80022f8 <setSegOrder+0x74>)
 80022b4:	4613      	mov	r3, r2
 80022b6:	00db      	lsls	r3, r3, #3
 80022b8:	1a9b      	subs	r3, r3, r2
 80022ba:	009b      	lsls	r3, r3, #2
 80022bc:	440b      	add	r3, r1
 80022be:	781b      	ldrb	r3, [r3, #0]
 80022c0:	2b04      	cmp	r3, #4
 80022c2:	d1f2      	bne.n	80022aa <setSegOrder+0x26>
	sprintf(menuStruct[i].text, "Seg.folge: \372%s\374", segOrder[sys.segOrder]);
 80022c4:	7bfa      	ldrb	r2, [r7, #15]
 80022c6:	4613      	mov	r3, r2
 80022c8:	00db      	lsls	r3, r3, #3
 80022ca:	1a9b      	subs	r3, r3, r2
 80022cc:	009b      	lsls	r3, r3, #2
 80022ce:	4a0a      	ldr	r2, [pc, #40]	; (80022f8 <setSegOrder+0x74>)
 80022d0:	4413      	add	r3, r2
 80022d2:	3302      	adds	r3, #2
 80022d4:	4a07      	ldr	r2, [pc, #28]	; (80022f4 <setSegOrder+0x70>)
 80022d6:	7b92      	ldrb	r2, [r2, #14]
 80022d8:	4611      	mov	r1, r2
 80022da:	4a08      	ldr	r2, [pc, #32]	; (80022fc <setSegOrder+0x78>)
 80022dc:	f852 2021 	ldr.w	r2, [r2, r1, lsl #2]
 80022e0:	4907      	ldr	r1, [pc, #28]	; (8002300 <setSegOrder+0x7c>)
 80022e2:	4618      	mov	r0, r3
 80022e4:	f008 f93c 	bl	800a560 <siprintf>
	return -1;
 80022e8:	f04f 33ff 	mov.w	r3, #4294967295	; 0xffffffff
}
 80022ec:	4618      	mov	r0, r3
 80022ee:	3710      	adds	r7, #16
 80022f0:	46bd      	mov	sp, r7
 80022f2:	bd80      	pop	{r7, pc}
 80022f4:	200006c0 	.word	0x200006c0
 80022f8:	20000000 	.word	0x20000000
 80022fc:	200003e8 	.word	0x200003e8
 8002300:	0800cbf8 	.word	0x0800cbf8

08002304 <setAzimuthWarnPos>:

int8_t setAzimuthWarnPos(int8_t state)
{
 8002304:	b580      	push	{r7, lr}
 8002306:	b082      	sub	sp, #8
 8002308:	af00      	add	r7, sp, #0
 800230a:	4603      	mov	r3, r0
 800230c:	71fb      	strb	r3, [r7, #7]
	return setWarnPos(&azimuthAxis, state);
 800230e:	f997 3007 	ldrsb.w	r3, [r7, #7]
 8002312:	4619      	mov	r1, r3
 8002314:	4803      	ldr	r0, [pc, #12]	; (8002324 <setAzimuthWarnPos+0x20>)
 8002316:	f000 f819 	bl	800234c <setWarnPos>
 800231a:	4603      	mov	r3, r0
}
 800231c:	4618      	mov	r0, r3
 800231e:	3708      	adds	r7, #8
 8002320:	46bd      	mov	sp, r7
 8002322:	bd80      	pop	{r7, pc}
 8002324:	20000398 	.word	0x20000398

08002328 <setElevationWarnPos>:

int8_t setElevationWarnPos(int8_t state)
{
 8002328:	b580      	push	{r7, lr}
 800232a:	b082      	sub	sp, #8
 800232c:	af00      	add	r7, sp, #0
 800232e:	4603      	mov	r3, r0
 8002330:	71fb      	strb	r3, [r7, #7]
	return setWarnPos(&elevationAxis, state);
 8002332:	f997 3007 	ldrsb.w	r3, [r7, #7]
 8002336:	4619      	mov	r1, r3
 8002338:	4803      	ldr	r0, [pc, #12]	; (8002348 <setElevationWarnPos+0x20>)
 800233a:	f000 f807 	bl	800234c <setWarnPos>
 800233e:	4603      	mov	r3, r0
}
 8002340:	4618      	mov	r0, r3
 8002342:	3708      	adds	r7, #8
 8002344:	46bd      	mov	sp, r7
 8002346:	bd80      	pop	{r7, pc}
 8002348:	20000354 	.word	0x20000354

0800234c <setWarnPos>:

int8_t setWarnPos(volatile axisData_t *axis, int8_t state)
{
 800234c:	b590      	push	{r4, r7, lr}
 800234e:	b08d      	sub	sp, #52	; 0x34
 8002350:	af02      	add	r7, sp, #8
 8002352:	6078      	str	r0, [r7, #4]
 8002354:	460b      	mov	r3, r1
 8002356:	70fb      	strb	r3, [r7, #3]
	static dms_t min,max;
	char s[30];


	if (checkButton(BTN_S2, BTN_LONG))
 8002358:	2104      	movs	r1, #4
 800235a:	2001      	movs	r0, #1
 800235c:	f7fe ff8c 	bl	8001278 <checkButton>
 8002360:	4603      	mov	r3, r0
 8002362:	2b00      	cmp	r3, #0
 8002364:	d001      	beq.n	800236a <setWarnPos+0x1e>
		state = -1;
 8002366:	23ff      	movs	r3, #255	; 0xff
 8002368:	70fb      	strb	r3, [r7, #3]

	switch(state) {
 800236a:	f997 3003 	ldrsb.w	r3, [r7, #3]
 800236e:	2b0a      	cmp	r3, #10
 8002370:	f200 8157 	bhi.w	8002622 <setWarnPos+0x2d6>
 8002374:	a201      	add	r2, pc, #4	; (adr r2, 800237c <setWarnPos+0x30>)
 8002376:	f852 f023 	ldr.w	pc, [r2, r3, lsl #2]
 800237a:	bf00      	nop
 800237c:	080023a9 	.word	0x080023a9
 8002380:	080023ff 	.word	0x080023ff
 8002384:	08002485 	.word	0x08002485
 8002388:	080024ff 	.word	0x080024ff
 800238c:	080025a5 	.word	0x080025a5
 8002390:	0800261d 	.word	0x0800261d
 8002394:	0800261d 	.word	0x0800261d
 8002398:	0800261d 	.word	0x0800261d
 800239c:	0800261d 	.word	0x0800261d
 80023a0:	0800261d 	.word	0x0800261d
 80023a4:	0800261d 	.word	0x0800261d
	case 0:
		LCD_Clear();
 80023a8:	f7ff f884 	bl	80014b4 <LCD_Clear>
		sprintf(s, "Warnpos. %s:", axis->name);
 80023ac:	687b      	ldr	r3, [r7, #4]
 80023ae:	f103 0234 	add.w	r2, r3, #52	; 0x34
 80023b2:	f107 0308 	add.w	r3, r7, #8
 80023b6:	49a3      	ldr	r1, [pc, #652]	; (8002644 <setWarnPos+0x2f8>)
 80023b8:	4618      	mov	r0, r3
 80023ba:	f008 f8d1 	bl	800a560 <siprintf>
		LCD_WriteXY(0, 0, s);
 80023be:	f107 0308 	add.w	r3, r7, #8
 80023c2:	461a      	mov	r2, r3
 80023c4:	2100      	movs	r1, #0
 80023c6:	2000      	movs	r0, #0
 80023c8:	f7ff f8ad 	bl	8001526 <LCD_WriteXY>
		sprintf(s, "Max:  %3d\005  %2d' ", max.deg, max.min);
 80023cc:	4b9e      	ldr	r3, [pc, #632]	; (8002648 <setWarnPos+0x2fc>)
 80023ce:	881b      	ldrh	r3, [r3, #0]
 80023d0:	461a      	mov	r2, r3
 80023d2:	4b9d      	ldr	r3, [pc, #628]	; (8002648 <setWarnPos+0x2fc>)
 80023d4:	789b      	ldrb	r3, [r3, #2]
 80023d6:	f107 0008 	add.w	r0, r7, #8
 80023da:	499c      	ldr	r1, [pc, #624]	; (800264c <setWarnPos+0x300>)
 80023dc:	f008 f8c0 	bl	800a560 <siprintf>
		LCD_WriteXY(0, 2, s);
 80023e0:	f107 0308 	add.w	r3, r7, #8
 80023e4:	461a      	mov	r2, r3
 80023e6:	2102      	movs	r1, #2
 80023e8:	2000      	movs	r0, #0
 80023ea:	f7ff f89c 	bl	8001526 <LCD_WriteXY>
		LCD_WriteXY(0, 3, " abbruch     weiter ");
 80023ee:	4a98      	ldr	r2, [pc, #608]	; (8002650 <setWarnPos+0x304>)
 80023f0:	2103      	movs	r1, #3
 80023f2:	2000      	movs	r0, #0
 80023f4:	f7ff f897 	bl	8001526 <LCD_WriteXY>
		state = 1;
 80023f8:	2301      	movs	r3, #1
 80023fa:	70fb      	strb	r3, [r7, #3]
		break;
 80023fc:	e11b      	b.n	8002636 <setWarnPos+0x2ea>
	case 1:
		if (refreshScreen()) {
 80023fe:	f7fe ff61 	bl	80012c4 <refreshScreen>
 8002402:	4603      	mov	r3, r0
 8002404:	2b00      	cmp	r3, #0
 8002406:	d01a      	beq.n	800243e <setWarnPos+0xf2>
			sprintf(s, "Min: %c%3d\005%c %2d' ", BO,min.deg,BC, min.min);
 8002408:	4b92      	ldr	r3, [pc, #584]	; (8002654 <setWarnPos+0x308>)
 800240a:	781b      	ldrb	r3, [r3, #0]
 800240c:	4619      	mov	r1, r3
 800240e:	4b92      	ldr	r3, [pc, #584]	; (8002658 <setWarnPos+0x30c>)
 8002410:	881b      	ldrh	r3, [r3, #0]
 8002412:	461c      	mov	r4, r3
 8002414:	4b91      	ldr	r3, [pc, #580]	; (800265c <setWarnPos+0x310>)
 8002416:	781b      	ldrb	r3, [r3, #0]
 8002418:	461a      	mov	r2, r3
 800241a:	4b8f      	ldr	r3, [pc, #572]	; (8002658 <setWarnPos+0x30c>)
 800241c:	789b      	ldrb	r3, [r3, #2]
 800241e:	f107 0008 	add.w	r0, r7, #8
 8002422:	9301      	str	r3, [sp, #4]
 8002424:	9200      	str	r2, [sp, #0]
 8002426:	4623      	mov	r3, r4
 8002428:	460a      	mov	r2, r1
 800242a:	498d      	ldr	r1, [pc, #564]	; (8002660 <setWarnPos+0x314>)
 800242c:	f008 f898 	bl	800a560 <siprintf>
			LCD_WriteXY(0, 1, s);
 8002430:	f107 0308 	add.w	r3, r7, #8
 8002434:	461a      	mov	r2, r3
 8002436:	2101      	movs	r1, #1
 8002438:	2000      	movs	r0, #0
 800243a:	f7ff f874 	bl	8001526 <LCD_WriteXY>
		}
		rotaryInput(&min.deg, axis->minDeg, axis->maxDeg, 1, 10);
 800243e:	687b      	ldr	r3, [r7, #4]
 8002440:	8e1b      	ldrh	r3, [r3, #48]	; 0x30
 8002442:	b29b      	uxth	r3, r3
 8002444:	4619      	mov	r1, r3
 8002446:	687b      	ldr	r3, [r7, #4]
 8002448:	8e5b      	ldrh	r3, [r3, #50]	; 0x32
 800244a:	b29b      	uxth	r3, r3
 800244c:	461a      	mov	r2, r3
 800244e:	230a      	movs	r3, #10
 8002450:	9300      	str	r3, [sp, #0]
 8002452:	2301      	movs	r3, #1
 8002454:	4880      	ldr	r0, [pc, #512]	; (8002658 <setWarnPos+0x30c>)
 8002456:	f002 fc35 	bl	8004cc4 <rotaryInput>
		if (checkButton(BTN_S1, BTN_SHORT)) state = 5;
 800245a:	2102      	movs	r1, #2
 800245c:	2000      	movs	r0, #0
 800245e:	f7fe ff0b 	bl	8001278 <checkButton>
 8002462:	4603      	mov	r3, r0
 8002464:	2b00      	cmp	r3, #0
 8002466:	d002      	beq.n	800246e <setWarnPos+0x122>
 8002468:	2305      	movs	r3, #5
 800246a:	70fb      	strb	r3, [r7, #3]
		else if (checkButton(BTN_S3, BTN_SHORT)) state = 2;
		break;
 800246c:	e0dc      	b.n	8002628 <setWarnPos+0x2dc>
		else if (checkButton(BTN_S3, BTN_SHORT)) state = 2;
 800246e:	2102      	movs	r1, #2
 8002470:	2002      	movs	r0, #2
 8002472:	f7fe ff01 	bl	8001278 <checkButton>
 8002476:	4603      	mov	r3, r0
 8002478:	2b00      	cmp	r3, #0
 800247a:	f000 80d5 	beq.w	8002628 <setWarnPos+0x2dc>
 800247e:	2302      	movs	r3, #2
 8002480:	70fb      	strb	r3, [r7, #3]
		break;
 8002482:	e0d1      	b.n	8002628 <setWarnPos+0x2dc>
	case 2:
		if (refreshScreen()) {
 8002484:	f7fe ff1e 	bl	80012c4 <refreshScreen>
 8002488:	4603      	mov	r3, r0
 800248a:	2b00      	cmp	r3, #0
 800248c:	d01a      	beq.n	80024c4 <setWarnPos+0x178>
			sprintf(s, "Min:  %3d\005 %c%2d'%c ", min.deg, BO,min.min,BC);
 800248e:	4b72      	ldr	r3, [pc, #456]	; (8002658 <setWarnPos+0x30c>)
 8002490:	881b      	ldrh	r3, [r3, #0]
 8002492:	4619      	mov	r1, r3
 8002494:	4b6f      	ldr	r3, [pc, #444]	; (8002654 <setWarnPos+0x308>)
 8002496:	781b      	ldrb	r3, [r3, #0]
 8002498:	461c      	mov	r4, r3
 800249a:	4b6f      	ldr	r3, [pc, #444]	; (8002658 <setWarnPos+0x30c>)
 800249c:	789b      	ldrb	r3, [r3, #2]
 800249e:	461a      	mov	r2, r3
 80024a0:	4b6e      	ldr	r3, [pc, #440]	; (800265c <setWarnPos+0x310>)
 80024a2:	781b      	ldrb	r3, [r3, #0]
 80024a4:	f107 0008 	add.w	r0, r7, #8
 80024a8:	9301      	str	r3, [sp, #4]
 80024aa:	9200      	str	r2, [sp, #0]
 80024ac:	4623      	mov	r3, r4
 80024ae:	460a      	mov	r2, r1
 80024b0:	496c      	ldr	r1, [pc, #432]	; (8002664 <setWarnPos+0x318>)
 80024b2:	f008 f855 	bl	800a560 <siprintf>
			LCD_WriteXY(0, 1, s);
 80024b6:	f107 0308 	add.w	r3, r7, #8
 80024ba:	461a      	mov	r2, r3
 80024bc:	2101      	movs	r1, #1
 80024be:	2000      	movs	r0, #0
 80024c0:	f7ff f831 	bl	8001526 <LCD_WriteXY>
		}
		rotaryInput(&min.min, 0, 59, 1, 10);
 80024c4:	230a      	movs	r3, #10
 80024c6:	9300      	str	r3, [sp, #0]
 80024c8:	2301      	movs	r3, #1
 80024ca:	223b      	movs	r2, #59	; 0x3b
 80024cc:	2100      	movs	r1, #0
 80024ce:	4866      	ldr	r0, [pc, #408]	; (8002668 <setWarnPos+0x31c>)
 80024d0:	f002 fbf8 	bl	8004cc4 <rotaryInput>
		if (checkButton(BTN_S1, BTN_SHORT)) state = 5;
 80024d4:	2102      	movs	r1, #2
 80024d6:	2000      	movs	r0, #0
 80024d8:	f7fe fece 	bl	8001278 <checkButton>
 80024dc:	4603      	mov	r3, r0
 80024de:	2b00      	cmp	r3, #0
 80024e0:	d002      	beq.n	80024e8 <setWarnPos+0x19c>
 80024e2:	2305      	movs	r3, #5
 80024e4:	70fb      	strb	r3, [r7, #3]
		else if (checkButton(BTN_S3, BTN_SHORT)) state = 3;
		break;
 80024e6:	e0a1      	b.n	800262c <setWarnPos+0x2e0>
		else if (checkButton(BTN_S3, BTN_SHORT)) state = 3;
 80024e8:	2102      	movs	r1, #2
 80024ea:	2002      	movs	r0, #2
 80024ec:	f7fe fec4 	bl	8001278 <checkButton>
 80024f0:	4603      	mov	r3, r0
 80024f2:	2b00      	cmp	r3, #0
 80024f4:	f000 809a 	beq.w	800262c <setWarnPos+0x2e0>
 80024f8:	2303      	movs	r3, #3
 80024fa:	70fb      	strb	r3, [r7, #3]
		break;
 80024fc:	e096      	b.n	800262c <setWarnPos+0x2e0>
	case 3:
		if (refreshScreen()) {
 80024fe:	f7fe fee1 	bl	80012c4 <refreshScreen>
 8002502:	4603      	mov	r3, r0
 8002504:	2b00      	cmp	r3, #0
 8002506:	d02b      	beq.n	8002560 <setWarnPos+0x214>
			sprintf(s, "Min:  %3d\005  %2d' ", min.deg, min.min);
 8002508:	4b53      	ldr	r3, [pc, #332]	; (8002658 <setWarnPos+0x30c>)
 800250a:	881b      	ldrh	r3, [r3, #0]
 800250c:	461a      	mov	r2, r3
 800250e:	4b52      	ldr	r3, [pc, #328]	; (8002658 <setWarnPos+0x30c>)
 8002510:	789b      	ldrb	r3, [r3, #2]
 8002512:	f107 0008 	add.w	r0, r7, #8
 8002516:	4955      	ldr	r1, [pc, #340]	; (800266c <setWarnPos+0x320>)
 8002518:	f008 f822 	bl	800a560 <siprintf>
			LCD_WriteXY(0, 1, s);
 800251c:	f107 0308 	add.w	r3, r7, #8
 8002520:	461a      	mov	r2, r3
 8002522:	2101      	movs	r1, #1
 8002524:	2000      	movs	r0, #0
 8002526:	f7fe fffe 	bl	8001526 <LCD_WriteXY>
			sprintf(s, "Max: %c%3d\005%c %2d' ", BO,max.deg,BC, max.min);
 800252a:	4b4a      	ldr	r3, [pc, #296]	; (8002654 <setWarnPos+0x308>)
 800252c:	781b      	ldrb	r3, [r3, #0]
 800252e:	4619      	mov	r1, r3
 8002530:	4b45      	ldr	r3, [pc, #276]	; (8002648 <setWarnPos+0x2fc>)
 8002532:	881b      	ldrh	r3, [r3, #0]
 8002534:	461c      	mov	r4, r3
 8002536:	4b49      	ldr	r3, [pc, #292]	; (800265c <setWarnPos+0x310>)
 8002538:	781b      	ldrb	r3, [r3, #0]
 800253a:	461a      	mov	r2, r3
 800253c:	4b42      	ldr	r3, [pc, #264]	; (8002648 <setWarnPos+0x2fc>)
 800253e:	789b      	ldrb	r3, [r3, #2]
 8002540:	f107 0008 	add.w	r0, r7, #8
 8002544:	9301      	str	r3, [sp, #4]
 8002546:	9200      	str	r2, [sp, #0]
 8002548:	4623      	mov	r3, r4
 800254a:	460a      	mov	r2, r1
 800254c:	4948      	ldr	r1, [pc, #288]	; (8002670 <setWarnPos+0x324>)
 800254e:	f008 f807 	bl	800a560 <siprintf>
			LCD_WriteXY(0, 2, s);
 8002552:	f107 0308 	add.w	r3, r7, #8
 8002556:	461a      	mov	r2, r3
 8002558:	2102      	movs	r1, #2
 800255a:	2000      	movs	r0, #0
 800255c:	f7fe ffe3 	bl	8001526 <LCD_WriteXY>
		}
		rotaryInput(&max.deg, axis->minDeg, axis->maxDeg, 1, 10);
 8002560:	687b      	ldr	r3, [r7, #4]
 8002562:	8e1b      	ldrh	r3, [r3, #48]	; 0x30
 8002564:	b29b      	uxth	r3, r3
 8002566:	4619      	mov	r1, r3
 8002568:	687b      	ldr	r3, [r7, #4]
 800256a:	8e5b      	ldrh	r3, [r3, #50]	; 0x32
 800256c:	b29b      	uxth	r3, r3
 800256e:	461a      	mov	r2, r3
 8002570:	230a      	movs	r3, #10
 8002572:	9300      	str	r3, [sp, #0]
 8002574:	2301      	movs	r3, #1
 8002576:	4834      	ldr	r0, [pc, #208]	; (8002648 <setWarnPos+0x2fc>)
 8002578:	f002 fba4 	bl	8004cc4 <rotaryInput>
		if (checkButton(BTN_S1, BTN_SHORT)) state = 5;
 800257c:	2102      	movs	r1, #2
 800257e:	2000      	movs	r0, #0
 8002580:	f7fe fe7a 	bl	8001278 <checkButton>
 8002584:	4603      	mov	r3, r0
 8002586:	2b00      	cmp	r3, #0
 8002588:	d002      	beq.n	8002590 <setWarnPos+0x244>
 800258a:	2305      	movs	r3, #5
 800258c:	70fb      	strb	r3, [r7, #3]
		else if (checkButton(BTN_S3, BTN_SHORT)) state = 4;
		break;
 800258e:	e04f      	b.n	8002630 <setWarnPos+0x2e4>
		else if (checkButton(BTN_S3, BTN_SHORT)) state = 4;
 8002590:	2102      	movs	r1, #2
 8002592:	2002      	movs	r0, #2
 8002594:	f7fe fe70 	bl	8001278 <checkButton>
 8002598:	4603      	mov	r3, r0
 800259a:	2b00      	cmp	r3, #0
 800259c:	d048      	beq.n	8002630 <setWarnPos+0x2e4>
 800259e:	2304      	movs	r3, #4
 80025a0:	70fb      	strb	r3, [r7, #3]
		break;
 80025a2:	e045      	b.n	8002630 <setWarnPos+0x2e4>
	case 4:
		if (refreshScreen()) {
 80025a4:	f7fe fe8e 	bl	80012c4 <refreshScreen>
 80025a8:	4603      	mov	r3, r0
 80025aa:	2b00      	cmp	r3, #0
 80025ac:	d01a      	beq.n	80025e4 <setWarnPos+0x298>
			sprintf(s, "Max:  %3d\005 %c%2d'%c ", max.deg,BO,max.min,BC);
 80025ae:	4b26      	ldr	r3, [pc, #152]	; (8002648 <setWarnPos+0x2fc>)
 80025b0:	881b      	ldrh	r3, [r3, #0]
 80025b2:	4619      	mov	r1, r3
 80025b4:	4b27      	ldr	r3, [pc, #156]	; (8002654 <setWarnPos+0x308>)
 80025b6:	781b      	ldrb	r3, [r3, #0]
 80025b8:	461c      	mov	r4, r3
 80025ba:	4b23      	ldr	r3, [pc, #140]	; (8002648 <setWarnPos+0x2fc>)
 80025bc:	789b      	ldrb	r3, [r3, #2]
 80025be:	461a      	mov	r2, r3
 80025c0:	4b26      	ldr	r3, [pc, #152]	; (800265c <setWarnPos+0x310>)
 80025c2:	781b      	ldrb	r3, [r3, #0]
 80025c4:	f107 0008 	add.w	r0, r7, #8
 80025c8:	9301      	str	r3, [sp, #4]
 80025ca:	9200      	str	r2, [sp, #0]
 80025cc:	4623      	mov	r3, r4
 80025ce:	460a      	mov	r2, r1
 80025d0:	4928      	ldr	r1, [pc, #160]	; (8002674 <setWarnPos+0x328>)
 80025d2:	f007 ffc5 	bl	800a560 <siprintf>
			LCD_WriteXY(0, 2, s);
 80025d6:	f107 0308 	add.w	r3, r7, #8
 80025da:	461a      	mov	r2, r3
 80025dc:	2102      	movs	r1, #2
 80025de:	2000      	movs	r0, #0
 80025e0:	f7fe ffa1 	bl	8001526 <LCD_WriteXY>
		}
		rotaryInput(&max.min, 0, 59, 1, 10);
 80025e4:	230a      	movs	r3, #10
 80025e6:	9300      	str	r3, [sp, #0]
 80025e8:	2301      	movs	r3, #1
 80025ea:	223b      	movs	r2, #59	; 0x3b
 80025ec:	2100      	movs	r1, #0
 80025ee:	4822      	ldr	r0, [pc, #136]	; (8002678 <setWarnPos+0x32c>)
 80025f0:	f002 fb68 	bl	8004cc4 <rotaryInput>
		if (checkButton(BTN_S1, BTN_SHORT)) state = 5;
 80025f4:	2102      	movs	r1, #2
 80025f6:	2000      	movs	r0, #0
 80025f8:	f7fe fe3e 	bl	8001278 <checkButton>
 80025fc:	4603      	mov	r3, r0
 80025fe:	2b00      	cmp	r3, #0
 8002600:	d002      	beq.n	8002608 <setWarnPos+0x2bc>
 8002602:	2305      	movs	r3, #5
 8002604:	70fb      	strb	r3, [r7, #3]
		else if (checkButton(BTN_S3, BTN_SHORT)) state = 5;
		break;
 8002606:	e015      	b.n	8002634 <setWarnPos+0x2e8>
		else if (checkButton(BTN_S3, BTN_SHORT)) state = 5;
 8002608:	2102      	movs	r1, #2
 800260a:	2002      	movs	r0, #2
 800260c:	f7fe fe34 	bl	8001278 <checkButton>
 8002610:	4603      	mov	r3, r0
 8002612:	2b00      	cmp	r3, #0
 8002614:	d00e      	beq.n	8002634 <setWarnPos+0x2e8>
 8002616:	2305      	movs	r3, #5
 8002618:	70fb      	strb	r3, [r7, #3]
		break;
 800261a:	e00b      	b.n	8002634 <setWarnPos+0x2e8>
	case 8:

	case 9:

	case 10:
			state = -1;
 800261c:	23ff      	movs	r3, #255	; 0xff
 800261e:	70fb      	strb	r3, [r7, #3]
		break;
 8002620:	e009      	b.n	8002636 <setWarnPos+0x2ea>

	default:
		state = -1;
 8002622:	23ff      	movs	r3, #255	; 0xff
 8002624:	70fb      	strb	r3, [r7, #3]
 8002626:	e006      	b.n	8002636 <setWarnPos+0x2ea>
		break;
 8002628:	bf00      	nop
 800262a:	e004      	b.n	8002636 <setWarnPos+0x2ea>
		break;
 800262c:	bf00      	nop
 800262e:	e002      	b.n	8002636 <setWarnPos+0x2ea>
		break;
 8002630:	bf00      	nop
 8002632:	e000      	b.n	8002636 <setWarnPos+0x2ea>
		break;
 8002634:	bf00      	nop
	}

	return state;
 8002636:	f997 3003 	ldrsb.w	r3, [r7, #3]
}
 800263a:	4618      	mov	r0, r3
 800263c:	372c      	adds	r7, #44	; 0x2c
 800263e:	46bd      	mov	sp, r7
 8002640:	bd90      	pop	{r4, r7, pc}
 8002642:	bf00      	nop
 8002644:	0800cc08 	.word	0x0800cc08
 8002648:	20000604 	.word	0x20000604
 800264c:	0800cc18 	.word	0x0800cc18
 8002650:	0800cc2c 	.word	0x0800cc2c
 8002654:	200006e1 	.word	0x200006e1
 8002658:	20000608 	.word	0x20000608
 800265c:	200006e2 	.word	0x200006e2
 8002660:	0800cc44 	.word	0x0800cc44
 8002664:	0800cc58 	.word	0x0800cc58
 8002668:	2000060a 	.word	0x2000060a
 800266c:	0800cc70 	.word	0x0800cc70
 8002670:	0800cc84 	.word	0x0800cc84
 8002674:	0800cc98 	.word	0x0800cc98
 8002678:	20000606 	.word	0x20000606

0800267c <setAutoRefMode>:


int8_t setAutoRefMode(int8_t state)
{
 800267c:	b580      	push	{r7, lr}
 800267e:	b084      	sub	sp, #16
 8002680:	af00      	add	r7, sp, #0
 8002682:	4603      	mov	r3, r0
 8002684:	71fb      	strb	r3, [r7, #7]
	uint8_t i;
	uint8_t refMode = azimuthAxis.refMode;
 8002686:	4b1d      	ldr	r3, [pc, #116]	; (80026fc <setAutoRefMode+0x80>)
 8002688:	f893 3040 	ldrb.w	r3, [r3, #64]	; 0x40
 800268c:	73bb      	strb	r3, [r7, #14]

	if (refMode < 2) {
 800268e:	7bbb      	ldrb	r3, [r7, #14]
 8002690:	2b01      	cmp	r3, #1
 8002692:	d803      	bhi.n	800269c <setAutoRefMode+0x20>
		refMode++;
 8002694:	7bbb      	ldrb	r3, [r7, #14]
 8002696:	3301      	adds	r3, #1
 8002698:	73bb      	strb	r3, [r7, #14]
 800269a:	e001      	b.n	80026a0 <setAutoRefMode+0x24>
	} else {
		refMode = 0;
 800269c:	2300      	movs	r3, #0
 800269e:	73bb      	strb	r3, [r7, #14]
	}

	azimuthAxis.refMode = refMode;
 80026a0:	4a16      	ldr	r2, [pc, #88]	; (80026fc <setAutoRefMode+0x80>)
 80026a2:	7bbb      	ldrb	r3, [r7, #14]
 80026a4:	f882 3040 	strb.w	r3, [r2, #64]	; 0x40
	elevationAxis.refMode = refMode;
 80026a8:	4a15      	ldr	r2, [pc, #84]	; (8002700 <setAutoRefMode+0x84>)
 80026aa:	7bbb      	ldrb	r3, [r7, #14]
 80026ac:	f882 3040 	strb.w	r3, [r2, #64]	; 0x40

	for(i = 0; menuStruct[i].itemId != MENU_REFMODE;i++);
 80026b0:	2300      	movs	r3, #0
 80026b2:	73fb      	strb	r3, [r7, #15]
 80026b4:	e002      	b.n	80026bc <setAutoRefMode+0x40>
 80026b6:	7bfb      	ldrb	r3, [r7, #15]
 80026b8:	3301      	adds	r3, #1
 80026ba:	73fb      	strb	r3, [r7, #15]
 80026bc:	7bfa      	ldrb	r2, [r7, #15]
 80026be:	4911      	ldr	r1, [pc, #68]	; (8002704 <setAutoRefMode+0x88>)
 80026c0:	4613      	mov	r3, r2
 80026c2:	00db      	lsls	r3, r3, #3
 80026c4:	1a9b      	subs	r3, r3, r2
 80026c6:	009b      	lsls	r3, r3, #2
 80026c8:	440b      	add	r3, r1
 80026ca:	781b      	ldrb	r3, [r3, #0]
 80026cc:	2b01      	cmp	r3, #1
 80026ce:	d1f2      	bne.n	80026b6 <setAutoRefMode+0x3a>
	sprintf(menuStruct[i].text, "Modus: \372%s\374", refModes[refMode]);
 80026d0:	7bfa      	ldrb	r2, [r7, #15]
 80026d2:	4613      	mov	r3, r2
 80026d4:	00db      	lsls	r3, r3, #3
 80026d6:	1a9b      	subs	r3, r3, r2
 80026d8:	009b      	lsls	r3, r3, #2
 80026da:	4a0a      	ldr	r2, [pc, #40]	; (8002704 <setAutoRefMode+0x88>)
 80026dc:	4413      	add	r3, r2
 80026de:	1c98      	adds	r0, r3, #2
 80026e0:	7bbb      	ldrb	r3, [r7, #14]
 80026e2:	4a09      	ldr	r2, [pc, #36]	; (8002708 <setAutoRefMode+0x8c>)
 80026e4:	f852 3023 	ldr.w	r3, [r2, r3, lsl #2]
 80026e8:	461a      	mov	r2, r3
 80026ea:	4908      	ldr	r1, [pc, #32]	; (800270c <setAutoRefMode+0x90>)
 80026ec:	f007 ff38 	bl	800a560 <siprintf>
	return -1;
 80026f0:	f04f 33ff 	mov.w	r3, #4294967295	; 0xffffffff
}
 80026f4:	4618      	mov	r0, r3
 80026f6:	3710      	adds	r7, #16
 80026f8:	46bd      	mov	sp, r7
 80026fa:	bd80      	pop	{r7, pc}
 80026fc:	20000398 	.word	0x20000398
 8002700:	20000354 	.word	0x20000354
 8002704:	20000000 	.word	0x20000000
 8002708:	200003dc 	.word	0x200003dc
 800270c:	0800ccb0 	.word	0x0800ccb0

08002710 <showVersion>:


int8_t showVersion(int8_t state)
{
 8002710:	b580      	push	{r7, lr}
 8002712:	b08a      	sub	sp, #40	; 0x28
 8002714:	af00      	add	r7, sp, #0
 8002716:	4603      	mov	r3, r0
 8002718:	71fb      	strb	r3, [r7, #7]
	char s[30];

	if (checkButton(BTN_S2, BTN_LONG))
 800271a:	2104      	movs	r1, #4
 800271c:	2001      	movs	r0, #1
 800271e:	f7fe fdab 	bl	8001278 <checkButton>
 8002722:	4603      	mov	r3, r0
 8002724:	2b00      	cmp	r3, #0
 8002726:	d001      	beq.n	800272c <showVersion+0x1c>
		state = -1;
 8002728:	23ff      	movs	r3, #255	; 0xff
 800272a:	71fb      	strb	r3, [r7, #7]

	switch (state) {
 800272c:	f997 3007 	ldrsb.w	r3, [r7, #7]
 8002730:	2b00      	cmp	r3, #0
 8002732:	d002      	beq.n	800273a <showVersion+0x2a>
 8002734:	2b01      	cmp	r3, #1
 8002736:	d039      	beq.n	80027ac <showVersion+0x9c>
 8002738:	e042      	b.n	80027c0 <showVersion+0xb0>
	case 0:
		LCD_Clear();
 800273a:	f7fe febb 	bl	80014b4 <LCD_Clear>
		LCD_WriteXY(0,0,"Winkelwertanzeige");
 800273e:	4a25      	ldr	r2, [pc, #148]	; (80027d4 <showVersion+0xc4>)
 8002740:	2100      	movs	r1, #0
 8002742:	2000      	movs	r0, #0
 8002744:	f7fe feef 	bl	8001526 <LCD_WriteXY>
		LCD_WriteXY(0,1,"Steuerpult");
 8002748:	4a23      	ldr	r2, [pc, #140]	; (80027d8 <showVersion+0xc8>)
 800274a:	2101      	movs	r1, #1
 800274c:	2000      	movs	r0, #0
 800274e:	f7fe feea 	bl	8001526 <LCD_WriteXY>
		LCD_WriteXY(0,2,"Firmware Ver.:");
 8002752:	4a22      	ldr	r2, [pc, #136]	; (80027dc <showVersion+0xcc>)
 8002754:	2102      	movs	r1, #2
 8002756:	2000      	movs	r0, #0
 8002758:	f7fe fee5 	bl	8001526 <LCD_WriteXY>
		LCD_WriteXY(0,3,"Date:");
 800275c:	4a20      	ldr	r2, [pc, #128]	; (80027e0 <showVersion+0xd0>)
 800275e:	2103      	movs	r1, #3
 8002760:	2000      	movs	r0, #0
 8002762:	f7fe fee0 	bl	8001526 <LCD_WriteXY>
		sprintf(s, "%s", FIRMWARE_VERSION);
 8002766:	f107 0308 	add.w	r3, r7, #8
 800276a:	4a1e      	ldr	r2, [pc, #120]	; (80027e4 <showVersion+0xd4>)
 800276c:	491e      	ldr	r1, [pc, #120]	; (80027e8 <showVersion+0xd8>)
 800276e:	4618      	mov	r0, r3
 8002770:	f007 fef6 	bl	800a560 <siprintf>
		LCD_WriteXY(15,2,s);
 8002774:	f107 0308 	add.w	r3, r7, #8
 8002778:	461a      	mov	r2, r3
 800277a:	2102      	movs	r1, #2
 800277c:	200f      	movs	r0, #15
 800277e:	f7fe fed2 	bl	8001526 <LCD_WriteXY>
		sprintf(s, "%s", __DATE__);
 8002782:	f107 0308 	add.w	r3, r7, #8
 8002786:	4a19      	ldr	r2, [pc, #100]	; (80027ec <showVersion+0xdc>)
 8002788:	4917      	ldr	r1, [pc, #92]	; (80027e8 <showVersion+0xd8>)
 800278a:	4618      	mov	r0, r3
 800278c:	f007 fee8 	bl	800a560 <siprintf>
		LCD_WriteXY(6,3,s);
 8002790:	f107 0308 	add.w	r3, r7, #8
 8002794:	461a      	mov	r2, r3
 8002796:	2103      	movs	r1, #3
 8002798:	2006      	movs	r0, #6
 800279a:	f7fe fec4 	bl	8001526 <LCD_WriteXY>

		state++;
 800279e:	f997 3007 	ldrsb.w	r3, [r7, #7]
 80027a2:	b2db      	uxtb	r3, r3
 80027a4:	3301      	adds	r3, #1
 80027a6:	b2db      	uxtb	r3, r3
 80027a8:	71fb      	strb	r3, [r7, #7]
		break;
 80027aa:	e00d      	b.n	80027c8 <showVersion+0xb8>
	case 1:
		if (checkButton(BTN_S2, BTN_SHORT)) {
 80027ac:	2102      	movs	r1, #2
 80027ae:	2001      	movs	r0, #1
 80027b0:	f7fe fd62 	bl	8001278 <checkButton>
 80027b4:	4603      	mov	r3, r0
 80027b6:	2b00      	cmp	r3, #0
 80027b8:	d005      	beq.n	80027c6 <showVersion+0xb6>
			state = -1;
 80027ba:	23ff      	movs	r3, #255	; 0xff
 80027bc:	71fb      	strb	r3, [r7, #7]
		}
		break;
 80027be:	e002      	b.n	80027c6 <showVersion+0xb6>
	default:
		state = -1;
 80027c0:	23ff      	movs	r3, #255	; 0xff
 80027c2:	71fb      	strb	r3, [r7, #7]
 80027c4:	e000      	b.n	80027c8 <showVersion+0xb8>
		break;
 80027c6:	bf00      	nop
	}

	return state;
 80027c8:	f997 3007 	ldrsb.w	r3, [r7, #7]
}
 80027cc:	4618      	mov	r0, r3
 80027ce:	3728      	adds	r7, #40	; 0x28
 80027d0:	46bd      	mov	sp, r7
 80027d2:	bd80      	pop	{r7, pc}
 80027d4:	0800ccbc 	.word	0x0800ccbc
 80027d8:	0800ccd0 	.word	0x0800ccd0
 80027dc:	0800ccdc 	.word	0x0800ccdc
 80027e0:	0800ccec 	.word	0x0800ccec
 80027e4:	0800ccf4 	.word	0x0800ccf4
 80027e8:	0800ccf8 	.word	0x0800ccf8
 80027ec:	0800ccfc 	.word	0x0800ccfc

080027f0 <setRefMaxSpeed>:

int8_t setRefMaxSpeed(int8_t state)
{
 80027f0:	b580      	push	{r7, lr}
 80027f2:	b08c      	sub	sp, #48	; 0x30
 80027f4:	af02      	add	r7, sp, #8
 80027f6:	4603      	mov	r3, r0
 80027f8:	71fb      	strb	r3, [r7, #7]
	static int32_t refMaxSpeed = 1000;
	uint8_t i;
	char s[30];

	if (checkButton(BTN_S2, BTN_LONG))
 80027fa:	2104      	movs	r1, #4
 80027fc:	2001      	movs	r0, #1
 80027fe:	f7fe fd3b 	bl	8001278 <checkButton>
 8002802:	4603      	mov	r3, r0
 8002804:	2b00      	cmp	r3, #0
 8002806:	d001      	beq.n	800280c <setRefMaxSpeed+0x1c>
		state = -1;
 8002808:	23ff      	movs	r3, #255	; 0xff
 800280a:	71fb      	strb	r3, [r7, #7]

	switch (state) {
 800280c:	f997 3007 	ldrsb.w	r3, [r7, #7]
 8002810:	2b00      	cmp	r3, #0
 8002812:	d002      	beq.n	800281a <setRefMaxSpeed+0x2a>
 8002814:	2b01      	cmp	r3, #1
 8002816:	d013      	beq.n	8002840 <setRefMaxSpeed+0x50>
 8002818:	e066      	b.n	80028e8 <setRefMaxSpeed+0xf8>
	case 0:
		LCD_Clear();
 800281a:	f7fe fe4b 	bl	80014b4 <LCD_Clear>
		LCD_WriteXY(0, 0, "Max. Geschwindigkeit");
 800281e:	4a37      	ldr	r2, [pc, #220]	; (80028fc <setRefMaxSpeed+0x10c>)
 8002820:	2100      	movs	r1, #0
 8002822:	2000      	movs	r0, #0
 8002824:	f7fe fe7f 	bl	8001526 <LCD_WriteXY>
		LCD_WriteXY(0, 1, "bei Auto. Referenz:");
 8002828:	4a35      	ldr	r2, [pc, #212]	; (8002900 <setRefMaxSpeed+0x110>)
 800282a:	2101      	movs	r1, #1
 800282c:	2000      	movs	r0, #0
 800282e:	f7fe fe7a 	bl	8001526 <LCD_WriteXY>
		state++;
 8002832:	f997 3007 	ldrsb.w	r3, [r7, #7]
 8002836:	b2db      	uxtb	r3, r3
 8002838:	3301      	adds	r3, #1
 800283a:	b2db      	uxtb	r3, r3
 800283c:	71fb      	strb	r3, [r7, #7]
		break;
 800283e:	e057      	b.n	80028f0 <setRefMaxSpeed+0x100>
	case 1:
		if (refreshScreen()) {
 8002840:	f7fe fd40 	bl	80012c4 <refreshScreen>
 8002844:	4603      	mov	r3, r0
 8002846:	2b00      	cmp	r3, #0
 8002848:	d00e      	beq.n	8002868 <setRefMaxSpeed+0x78>
			sprintf(s, "%ld\231  ", refMaxSpeed);
 800284a:	4b2e      	ldr	r3, [pc, #184]	; (8002904 <setRefMaxSpeed+0x114>)
 800284c:	681a      	ldr	r2, [r3, #0]
 800284e:	f107 0308 	add.w	r3, r7, #8
 8002852:	492d      	ldr	r1, [pc, #180]	; (8002908 <setRefMaxSpeed+0x118>)
 8002854:	4618      	mov	r0, r3
 8002856:	f007 fe83 	bl	800a560 <siprintf>
			LCD_WriteXY(7, 2, s);
 800285a:	f107 0308 	add.w	r3, r7, #8
 800285e:	461a      	mov	r2, r3
 8002860:	2102      	movs	r1, #2
 8002862:	2007      	movs	r0, #7
 8002864:	f7fe fe5f 	bl	8001526 <LCD_WriteXY>
		}
		rotaryInput(&refMaxSpeed, 0, 3000, 1, 1);
 8002868:	2301      	movs	r3, #1
 800286a:	9300      	str	r3, [sp, #0]
 800286c:	2301      	movs	r3, #1
 800286e:	f640 32b8 	movw	r2, #3000	; 0xbb8
 8002872:	2100      	movs	r1, #0
 8002874:	4823      	ldr	r0, [pc, #140]	; (8002904 <setRefMaxSpeed+0x114>)
 8002876:	f002 fa25 	bl	8004cc4 <rotaryInput>
		if (checkButton(BTN_S2, BTN_SHORT)) {
 800287a:	2102      	movs	r1, #2
 800287c:	2001      	movs	r0, #1
 800287e:	f7fe fcfb 	bl	8001278 <checkButton>
 8002882:	4603      	mov	r3, r0
 8002884:	2b00      	cmp	r3, #0
 8002886:	d032      	beq.n	80028ee <setRefMaxSpeed+0xfe>
			elevationAxis.refMaxSpeed = refMaxSpeed;
 8002888:	4b1e      	ldr	r3, [pc, #120]	; (8002904 <setRefMaxSpeed+0x114>)
 800288a:	681b      	ldr	r3, [r3, #0]
 800288c:	b29a      	uxth	r2, r3
 800288e:	4b1f      	ldr	r3, [pc, #124]	; (800290c <setRefMaxSpeed+0x11c>)
 8002890:	829a      	strh	r2, [r3, #20]
			azimuthAxis.refMaxSpeed = refMaxSpeed;
 8002892:	4b1c      	ldr	r3, [pc, #112]	; (8002904 <setRefMaxSpeed+0x114>)
 8002894:	681b      	ldr	r3, [r3, #0]
 8002896:	b29a      	uxth	r2, r3
 8002898:	4b1d      	ldr	r3, [pc, #116]	; (8002910 <setRefMaxSpeed+0x120>)
 800289a:	829a      	strh	r2, [r3, #20]
			for(i = 0; menuStruct[i].itemId != MENU_REFSPEED;i++);
 800289c:	2300      	movs	r3, #0
 800289e:	f887 3027 	strb.w	r3, [r7, #39]	; 0x27
 80028a2:	e004      	b.n	80028ae <setRefMaxSpeed+0xbe>
 80028a4:	f897 3027 	ldrb.w	r3, [r7, #39]	; 0x27
 80028a8:	3301      	adds	r3, #1
 80028aa:	f887 3027 	strb.w	r3, [r7, #39]	; 0x27
 80028ae:	f897 2027 	ldrb.w	r2, [r7, #39]	; 0x27
 80028b2:	4918      	ldr	r1, [pc, #96]	; (8002914 <setRefMaxSpeed+0x124>)
 80028b4:	4613      	mov	r3, r2
 80028b6:	00db      	lsls	r3, r3, #3
 80028b8:	1a9b      	subs	r3, r3, r2
 80028ba:	009b      	lsls	r3, r3, #2
 80028bc:	440b      	add	r3, r1
 80028be:	781b      	ldrb	r3, [r3, #0]
 80028c0:	2b02      	cmp	r3, #2
 80028c2:	d1ef      	bne.n	80028a4 <setRefMaxSpeed+0xb4>
			sprintf(menuStruct[i].text, "Max.geschw.:%d\231", refMaxSpeed);
 80028c4:	f897 2027 	ldrb.w	r2, [r7, #39]	; 0x27
 80028c8:	4613      	mov	r3, r2
 80028ca:	00db      	lsls	r3, r3, #3
 80028cc:	1a9b      	subs	r3, r3, r2
 80028ce:	009b      	lsls	r3, r3, #2
 80028d0:	4a10      	ldr	r2, [pc, #64]	; (8002914 <setRefMaxSpeed+0x124>)
 80028d2:	4413      	add	r3, r2
 80028d4:	3302      	adds	r3, #2
 80028d6:	4a0b      	ldr	r2, [pc, #44]	; (8002904 <setRefMaxSpeed+0x114>)
 80028d8:	6812      	ldr	r2, [r2, #0]
 80028da:	490f      	ldr	r1, [pc, #60]	; (8002918 <setRefMaxSpeed+0x128>)
 80028dc:	4618      	mov	r0, r3
 80028de:	f007 fe3f 	bl	800a560 <siprintf>
			state = -1;
 80028e2:	23ff      	movs	r3, #255	; 0xff
 80028e4:	71fb      	strb	r3, [r7, #7]
		}
		break;
 80028e6:	e002      	b.n	80028ee <setRefMaxSpeed+0xfe>
	default:
		state = -1;
 80028e8:	23ff      	movs	r3, #255	; 0xff
 80028ea:	71fb      	strb	r3, [r7, #7]
 80028ec:	e000      	b.n	80028f0 <setRefMaxSpeed+0x100>
		break;
 80028ee:	bf00      	nop
	}

	return state;
 80028f0:	f997 3007 	ldrsb.w	r3, [r7, #7]
}
 80028f4:	4618      	mov	r0, r3
 80028f6:	3728      	adds	r7, #40	; 0x28
 80028f8:	46bd      	mov	sp, r7
 80028fa:	bd80      	pop	{r7, pc}
 80028fc:	0800cd08 	.word	0x0800cd08
 8002900:	0800cd20 	.word	0x0800cd20
 8002904:	20000348 	.word	0x20000348
 8002908:	0800cd34 	.word	0x0800cd34
 800290c:	20000354 	.word	0x20000354
 8002910:	20000398 	.word	0x20000398
 8002914:	20000000 	.word	0x20000000
 8002918:	0800cd3c 	.word	0x0800cd3c

0800291c <setRefWarnThres>:

int8_t setRefWarnThres(int8_t state)
{
 800291c:	b580      	push	{r7, lr}
 800291e:	b08c      	sub	sp, #48	; 0x30
 8002920:	af02      	add	r7, sp, #8
 8002922:	4603      	mov	r3, r0
 8002924:	71fb      	strb	r3, [r7, #7]
	static int32_t refWarnSec = 60;
	uint8_t i;
	char s[30];

	if (checkButton(BTN_S2, BTN_LONG))
 8002926:	2104      	movs	r1, #4
 8002928:	2001      	movs	r0, #1
 800292a:	f7fe fca5 	bl	8001278 <checkButton>
 800292e:	4603      	mov	r3, r0
 8002930:	2b00      	cmp	r3, #0
 8002932:	d001      	beq.n	8002938 <setRefWarnThres+0x1c>
		state = -1;
 8002934:	23ff      	movs	r3, #255	; 0xff
 8002936:	71fb      	strb	r3, [r7, #7]

	switch (state) {
 8002938:	f997 3007 	ldrsb.w	r3, [r7, #7]
 800293c:	2b00      	cmp	r3, #0
 800293e:	d002      	beq.n	8002946 <setRefWarnThres+0x2a>
 8002940:	2b01      	cmp	r3, #1
 8002942:	d013      	beq.n	800296c <setRefWarnThres+0x50>
 8002944:	e07d      	b.n	8002a42 <setRefWarnThres+0x126>
	case 0:
		LCD_Clear();
 8002946:	f7fe fdb5 	bl	80014b4 <LCD_Clear>
		LCD_WriteXY(0, 0, "Erlaubte Abweichung");
 800294a:	4a43      	ldr	r2, [pc, #268]	; (8002a58 <setRefWarnThres+0x13c>)
 800294c:	2100      	movs	r1, #0
 800294e:	2000      	movs	r0, #0
 8002950:	f7fe fde9 	bl	8001526 <LCD_WriteXY>
		LCD_WriteXY(0, 1, "zur Ref. Position:");
 8002954:	4a41      	ldr	r2, [pc, #260]	; (8002a5c <setRefWarnThres+0x140>)
 8002956:	2101      	movs	r1, #1
 8002958:	2000      	movs	r0, #0
 800295a:	f7fe fde4 	bl	8001526 <LCD_WriteXY>
		state++;
 800295e:	f997 3007 	ldrsb.w	r3, [r7, #7]
 8002962:	b2db      	uxtb	r3, r3
 8002964:	3301      	adds	r3, #1
 8002966:	b2db      	uxtb	r3, r3
 8002968:	71fb      	strb	r3, [r7, #7]
		break;
 800296a:	e06e      	b.n	8002a4a <setRefWarnThres+0x12e>
	case 1:
		if (refreshScreen()) {
 800296c:	f7fe fcaa 	bl	80012c4 <refreshScreen>
 8002970:	4603      	mov	r3, r0
 8002972:	2b00      	cmp	r3, #0
 8002974:	d00e      	beq.n	8002994 <setRefWarnThres+0x78>
			sprintf(s, "%ld\231  ", refWarnSec);
 8002976:	4b3a      	ldr	r3, [pc, #232]	; (8002a60 <setRefWarnThres+0x144>)
 8002978:	681a      	ldr	r2, [r3, #0]
 800297a:	f107 0308 	add.w	r3, r7, #8
 800297e:	4939      	ldr	r1, [pc, #228]	; (8002a64 <setRefWarnThres+0x148>)
 8002980:	4618      	mov	r0, r3
 8002982:	f007 fded 	bl	800a560 <siprintf>
			LCD_WriteXY(7, 2, s);
 8002986:	f107 0308 	add.w	r3, r7, #8
 800298a:	461a      	mov	r2, r3
 800298c:	2102      	movs	r1, #2
 800298e:	2007      	movs	r0, #7
 8002990:	f7fe fdc9 	bl	8001526 <LCD_WriteXY>
		}
		rotaryInput(&refWarnSec, 0, 100, 1, 1);
 8002994:	2301      	movs	r3, #1
 8002996:	9300      	str	r3, [sp, #0]
 8002998:	2301      	movs	r3, #1
 800299a:	2264      	movs	r2, #100	; 0x64
 800299c:	2100      	movs	r1, #0
 800299e:	4830      	ldr	r0, [pc, #192]	; (8002a60 <setRefWarnThres+0x144>)
 80029a0:	f002 f990 	bl	8004cc4 <rotaryInput>
		if (checkButton(BTN_S2, BTN_SHORT)) {
 80029a4:	2102      	movs	r1, #2
 80029a6:	2001      	movs	r0, #1
 80029a8:	f7fe fc66 	bl	8001278 <checkButton>
 80029ac:	4603      	mov	r3, r0
 80029ae:	2b00      	cmp	r3, #0
 80029b0:	d04a      	beq.n	8002a48 <setRefWarnThres+0x12c>
			elevationAxis.refWarnCounts = refWarnSec / elevationAxis.secondsPerCount;
 80029b2:	4b2b      	ldr	r3, [pc, #172]	; (8002a60 <setRefWarnThres+0x144>)
