
WW-Steuerpultanzeige.elf:     file format elf32-littlearm

Sections:
Idx Name          Size      VMA       LMA       File off  Algn
  0 .isr_vector   00000188  08000000  08000000  00010000  2**0
                  CONTENTS, ALLOC, LOAD, READONLY, DATA
  1 .text         00009148  08000190  08000190  00010190  2**4
                  CONTENTS, ALLOC, LOAD, READONLY, CODE
  2 .rodata       00000a58  080092d8  080092d8  000192d8  2**3
                  CONTENTS, ALLOC, LOAD, READONLY, DATA
  3 .ARM.extab    00000000  08009d30  08009d30  000205cc  2**0
                  CONTENTS
  4 .ARM          00000008  08009d30  08009d30  00019d30  2**2
                  CONTENTS, ALLOC, LOAD, READONLY, DATA
  5 .preinit_array 00000000  08009d38  08009d38  000205cc  2**0
                  CONTENTS, ALLOC, LOAD, DATA
  6 .init_array   00000004  08009d38  08009d38  00019d38  2**2
                  CONTENTS, ALLOC, LOAD, DATA
  7 .fini_array   00000004  08009d3c  08009d3c  00019d3c  2**2
                  CONTENTS, ALLOC, LOAD, DATA
  8 .data         000005cc  20000000  08009d40  00020000  2**2
                  CONTENTS, ALLOC, LOAD, DATA
  9 .bss          00000364  200005cc  0800a30c  000205cc  2**2
                  ALLOC
 10 ._user_heap_stack 00000600  20000930  0800a30c  00020930  2**0
                  ALLOC
 11 .ARM.attributes 00000030  00000000  00000000  000205cc  2**0
                  CONTENTS, READONLY
 12 .comment      00000053  00000000  00000000  000205fc  2**0
                  CONTENTS, READONLY
 13 .debug_frame  00001318  00000000  00000000  00020650  2**2
                  CONTENTS, READONLY, DEBUGGING, OCTETS

Disassembly of section .text:

08000190 <__do_global_dtors_aux>:
 8000190:	b510      	push	{r4, lr}
 8000192:	4c05      	ldr	r4, [pc, #20]	; (80001a8 <__do_global_dtors_aux+0x18>)
 8000194:	7823      	ldrb	r3, [r4, #0]
 8000196:	b933      	cbnz	r3, 80001a6 <__do_global_dtors_aux+0x16>
 8000198:	4b04      	ldr	r3, [pc, #16]	; (80001ac <__do_global_dtors_aux+0x1c>)
 800019a:	b113      	cbz	r3, 80001a2 <__do_global_dtors_aux+0x12>
 800019c:	4804      	ldr	r0, [pc, #16]	; (80001b0 <__do_global_dtors_aux+0x20>)
 800019e:	f3af 8000 	nop.w
 80001a2:	2301      	movs	r3, #1
 80001a4:	7023      	strb	r3, [r4, #0]
 80001a6:	bd10      	pop	{r4, pc}
 80001a8:	200005cc 	.word	0x200005cc
 80001ac:	00000000 	.word	0x00000000
 80001b0:	080092c0 	.word	0x080092c0

080001b4 <frame_dummy>:
 80001b4:	b508      	push	{r3, lr}
 80001b6:	4b03      	ldr	r3, [pc, #12]	; (80001c4 <frame_dummy+0x10>)
 80001b8:	b11b      	cbz	r3, 80001c2 <frame_dummy+0xe>
 80001ba:	4903      	ldr	r1, [pc, #12]	; (80001c8 <frame_dummy+0x14>)
 80001bc:	4803      	ldr	r0, [pc, #12]	; (80001cc <frame_dummy+0x18>)
 80001be:	f3af 8000 	nop.w
 80001c2:	bd08      	pop	{r3, pc}
 80001c4:	00000000 	.word	0x00000000
 80001c8:	200005d0 	.word	0x200005d0
 80001cc:	080092c0 	.word	0x080092c0

080001d0 <strlen>:
 80001d0:	4603      	mov	r3, r0
 80001d2:	f813 2b01 	ldrb.w	r2, [r3], #1
 80001d6:	2a00      	cmp	r2, #0
 80001d8:	d1fb      	bne.n	80001d2 <strlen+0x2>
 80001da:	1a18      	subs	r0, r3, r0
 80001dc:	3801      	subs	r0, #1
 80001de:	4770      	bx	lr

080001e0 <memchr>:
 80001e0:	f001 01ff 	and.w	r1, r1, #255	; 0xff
 80001e4:	2a10      	cmp	r2, #16
 80001e6:	db2b      	blt.n	8000240 <memchr+0x60>
 80001e8:	f010 0f07 	tst.w	r0, #7
 80001ec:	d008      	beq.n	8000200 <memchr+0x20>
 80001ee:	f810 3b01 	ldrb.w	r3, [r0], #1
 80001f2:	3a01      	subs	r2, #1
 80001f4:	428b      	cmp	r3, r1
 80001f6:	d02d      	beq.n	8000254 <memchr+0x74>
 80001f8:	f010 0f07 	tst.w	r0, #7
 80001fc:	b342      	cbz	r2, 8000250 <memchr+0x70>
 80001fe:	d1f6      	bne.n	80001ee <memchr+0xe>
 8000200:	b4f0      	push	{r4, r5, r6, r7}
 8000202:	ea41 2101 	orr.w	r1, r1, r1, lsl #8
 8000206:	ea41 4101 	orr.w	r1, r1, r1, lsl #16
 800020a:	f022 0407 	bic.w	r4, r2, #7
 800020e:	f07f 0700 	mvns.w	r7, #0
 8000212:	2300      	movs	r3, #0
 8000214:	e8f0 5602 	ldrd	r5, r6, [r0], #8
 8000218:	3c08      	subs	r4, #8
 800021a:	ea85 0501 	eor.w	r5, r5, r1
 800021e:	ea86 0601 	eor.w	r6, r6, r1
 8000222:	fa85 f547 	uadd8	r5, r5, r7
 8000226:	faa3 f587 	sel	r5, r3, r7
 800022a:	fa86 f647 	uadd8	r6, r6, r7
 800022e:	faa5 f687 	sel	r6, r5, r7
 8000232:	b98e      	cbnz	r6, 8000258 <memchr+0x78>
 8000234:	d1ee      	bne.n	8000214 <memchr+0x34>
 8000236:	bcf0      	pop	{r4, r5, r6, r7}
 8000238:	f001 01ff 	and.w	r1, r1, #255	; 0xff
 800023c:	f002 0207 	and.w	r2, r2, #7
 8000240:	b132      	cbz	r2, 8000250 <memchr+0x70>
 8000242:	f810 3b01 	ldrb.w	r3, [r0], #1
 8000246:	3a01      	subs	r2, #1
 8000248:	ea83 0301 	eor.w	r3, r3, r1
 800024c:	b113      	cbz	r3, 8000254 <memchr+0x74>
 800024e:	d1f8      	bne.n	8000242 <memchr+0x62>
 8000250:	2000      	movs	r0, #0
 8000252:	4770      	bx	lr
 8000254:	3801      	subs	r0, #1
 8000256:	4770      	bx	lr
 8000258:	2d00      	cmp	r5, #0
 800025a:	bf06      	itte	eq
 800025c:	4635      	moveq	r5, r6
 800025e:	3803      	subeq	r0, #3
 8000260:	3807      	subne	r0, #7
 8000262:	f015 0f01 	tst.w	r5, #1
 8000266:	d107      	bne.n	8000278 <memchr+0x98>
 8000268:	3001      	adds	r0, #1
 800026a:	f415 7f80 	tst.w	r5, #256	; 0x100
 800026e:	bf02      	ittt	eq
 8000270:	3001      	addeq	r0, #1
 8000272:	f415 3fc0 	tsteq.w	r5, #98304	; 0x18000
 8000276:	3001      	addeq	r0, #1
 8000278:	bcf0      	pop	{r4, r5, r6, r7}
 800027a:	3801      	subs	r0, #1
 800027c:	4770      	bx	lr
 800027e:	bf00      	nop

08000280 <__aeabi_drsub>:
 8000280:	f081 4100 	eor.w	r1, r1, #2147483648	; 0x80000000
 8000284:	e002      	b.n	800028c <__adddf3>
 8000286:	bf00      	nop

08000288 <__aeabi_dsub>:
 8000288:	f083 4300 	eor.w	r3, r3, #2147483648	; 0x80000000

0800028c <__adddf3>:
 800028c:	b530      	push	{r4, r5, lr}
 800028e:	ea4f 0441 	mov.w	r4, r1, lsl #1
 8000292:	ea4f 0543 	mov.w	r5, r3, lsl #1
 8000296:	ea94 0f05 	teq	r4, r5
 800029a:	bf08      	it	eq
 800029c:	ea90 0f02 	teqeq	r0, r2
 80002a0:	bf1f      	itttt	ne
 80002a2:	ea54 0c00 	orrsne.w	ip, r4, r0
 80002a6:	ea55 0c02 	orrsne.w	ip, r5, r2
 80002aa:	ea7f 5c64 	mvnsne.w	ip, r4, asr #21
 80002ae:	ea7f 5c65 	mvnsne.w	ip, r5, asr #21
 80002b2:	f000 80e2 	beq.w	800047a <__adddf3+0x1ee>
 80002b6:	ea4f 5454 	mov.w	r4, r4, lsr #21
 80002ba:	ebd4 5555 	rsbs	r5, r4, r5, lsr #21
 80002be:	bfb8      	it	lt
 80002c0:	426d      	neglt	r5, r5
 80002c2:	dd0c      	ble.n	80002de <__adddf3+0x52>
 80002c4:	442c      	add	r4, r5
 80002c6:	ea80 0202 	eor.w	r2, r0, r2
 80002ca:	ea81 0303 	eor.w	r3, r1, r3
 80002ce:	ea82 0000 	eor.w	r0, r2, r0
 80002d2:	ea83 0101 	eor.w	r1, r3, r1
 80002d6:	ea80 0202 	eor.w	r2, r0, r2
 80002da:	ea81 0303 	eor.w	r3, r1, r3
 80002de:	2d36      	cmp	r5, #54	; 0x36
 80002e0:	bf88      	it	hi
 80002e2:	bd30      	pophi	{r4, r5, pc}
 80002e4:	f011 4f00 	tst.w	r1, #2147483648	; 0x80000000
 80002e8:	ea4f 3101 	mov.w	r1, r1, lsl #12
 80002ec:	f44f 1c80 	mov.w	ip, #1048576	; 0x100000
 80002f0:	ea4c 3111 	orr.w	r1, ip, r1, lsr #12
 80002f4:	d002      	beq.n	80002fc <__adddf3+0x70>
 80002f6:	4240      	negs	r0, r0
 80002f8:	eb61 0141 	sbc.w	r1, r1, r1, lsl #1
 80002fc:	f013 4f00 	tst.w	r3, #2147483648	; 0x80000000
 8000300:	ea4f 3303 	mov.w	r3, r3, lsl #12
 8000304:	ea4c 3313 	orr.w	r3, ip, r3, lsr #12
 8000308:	d002      	beq.n	8000310 <__adddf3+0x84>
 800030a:	4252      	negs	r2, r2
 800030c:	eb63 0343 	sbc.w	r3, r3, r3, lsl #1
 8000310:	ea94 0f05 	teq	r4, r5
 8000314:	f000 80a7 	beq.w	8000466 <__adddf3+0x1da>
 8000318:	f1a4 0401 	sub.w	r4, r4, #1
 800031c:	f1d5 0e20 	rsbs	lr, r5, #32
 8000320:	db0d      	blt.n	800033e <__adddf3+0xb2>
 8000322:	fa02 fc0e 	lsl.w	ip, r2, lr
 8000326:	fa22 f205 	lsr.w	r2, r2, r5
 800032a:	1880      	adds	r0, r0, r2
 800032c:	f141 0100 	adc.w	r1, r1, #0
 8000330:	fa03 f20e 	lsl.w	r2, r3, lr
 8000334:	1880      	adds	r0, r0, r2
 8000336:	fa43 f305 	asr.w	r3, r3, r5
 800033a:	4159      	adcs	r1, r3
 800033c:	e00e      	b.n	800035c <__adddf3+0xd0>
 800033e:	f1a5 0520 	sub.w	r5, r5, #32
 8000342:	f10e 0e20 	add.w	lr, lr, #32
 8000346:	2a01      	cmp	r2, #1
 8000348:	fa03 fc0e 	lsl.w	ip, r3, lr
 800034c:	bf28      	it	cs
 800034e:	f04c 0c02 	orrcs.w	ip, ip, #2
 8000352:	fa43 f305 	asr.w	r3, r3, r5
 8000356:	18c0      	adds	r0, r0, r3
 8000358:	eb51 71e3 	adcs.w	r1, r1, r3, asr #31
 800035c:	f001 4500 	and.w	r5, r1, #2147483648	; 0x80000000
 8000360:	d507      	bpl.n	8000372 <__adddf3+0xe6>
 8000362:	f04f 0e00 	mov.w	lr, #0
 8000366:	f1dc 0c00 	rsbs	ip, ip, #0
 800036a:	eb7e 0000 	sbcs.w	r0, lr, r0
 800036e:	eb6e 0101 	sbc.w	r1, lr, r1
 8000372:	f5b1 1f80 	cmp.w	r1, #1048576	; 0x100000
 8000376:	d31b      	bcc.n	80003b0 <__adddf3+0x124>
 8000378:	f5b1 1f00 	cmp.w	r1, #2097152	; 0x200000
 800037c:	d30c      	bcc.n	8000398 <__adddf3+0x10c>
 800037e:	0849      	lsrs	r1, r1, #1
 8000380:	ea5f 0030 	movs.w	r0, r0, rrx
 8000384:	ea4f 0c3c 	mov.w	ip, ip, rrx
 8000388:	f104 0401 	add.w	r4, r4, #1
 800038c:	ea4f 5244 	mov.w	r2, r4, lsl #21
 8000390:	f512 0f80 	cmn.w	r2, #4194304	; 0x400000
 8000394:	f080 809a 	bcs.w	80004cc <__adddf3+0x240>
 8000398:	f1bc 4f00 	cmp.w	ip, #2147483648	; 0x80000000
 800039c:	bf08      	it	eq
 800039e:	ea5f 0c50 	movseq.w	ip, r0, lsr #1
 80003a2:	f150 0000 	adcs.w	r0, r0, #0
 80003a6:	eb41 5104 	adc.w	r1, r1, r4, lsl #20
 80003aa:	ea41 0105 	orr.w	r1, r1, r5
 80003ae:	bd30      	pop	{r4, r5, pc}
 80003b0:	ea5f 0c4c 	movs.w	ip, ip, lsl #1
 80003b4:	4140      	adcs	r0, r0
 80003b6:	eb41 0101 	adc.w	r1, r1, r1
 80003ba:	3c01      	subs	r4, #1
 80003bc:	bf28      	it	cs
 80003be:	f5b1 1f80 	cmpcs.w	r1, #1048576	; 0x100000
 80003c2:	d2e9      	bcs.n	8000398 <__adddf3+0x10c>
 80003c4:	f091 0f00 	teq	r1, #0
 80003c8:	bf04      	itt	eq
 80003ca:	4601      	moveq	r1, r0
 80003cc:	2000      	moveq	r0, #0
 80003ce:	fab1 f381 	clz	r3, r1
 80003d2:	bf08      	it	eq
 80003d4:	3320      	addeq	r3, #32
 80003d6:	f1a3 030b 	sub.w	r3, r3, #11
 80003da:	f1b3 0220 	subs.w	r2, r3, #32
 80003de:	da0c      	bge.n	80003fa <__adddf3+0x16e>
 80003e0:	320c      	adds	r2, #12
 80003e2:	dd08      	ble.n	80003f6 <__adddf3+0x16a>
 80003e4:	f102 0c14 	add.w	ip, r2, #20
 80003e8:	f1c2 020c 	rsb	r2, r2, #12
 80003ec:	fa01 f00c 	lsl.w	r0, r1, ip
 80003f0:	fa21 f102 	lsr.w	r1, r1, r2
 80003f4:	e00c      	b.n	8000410 <__adddf3+0x184>
 80003f6:	f102 0214 	add.w	r2, r2, #20
 80003fa:	bfd8      	it	le
 80003fc:	f1c2 0c20 	rsble	ip, r2, #32
 8000400:	fa01 f102 	lsl.w	r1, r1, r2
 8000404:	fa20 fc0c 	lsr.w	ip, r0, ip
 8000408:	bfdc      	itt	le
 800040a:	ea41 010c 	orrle.w	r1, r1, ip
 800040e:	4090      	lslle	r0, r2
 8000410:	1ae4      	subs	r4, r4, r3
 8000412:	bfa2      	ittt	ge
 8000414:	eb01 5104 	addge.w	r1, r1, r4, lsl #20
 8000418:	4329      	orrge	r1, r5
 800041a:	bd30      	popge	{r4, r5, pc}
 800041c:	ea6f 0404 	mvn.w	r4, r4
 8000420:	3c1f      	subs	r4, #31
 8000422:	da1c      	bge.n	800045e <__adddf3+0x1d2>
 8000424:	340c      	adds	r4, #12
 8000426:	dc0e      	bgt.n	8000446 <__adddf3+0x1ba>
 8000428:	f104 0414 	add.w	r4, r4, #20
 800042c:	f1c4 0220 	rsb	r2, r4, #32
 8000430:	fa20 f004 	lsr.w	r0, r0, r4
 8000434:	fa01 f302 	lsl.w	r3, r1, r2
 8000438:	ea40 0003 	orr.w	r0, r0, r3
 800043c:	fa21 f304 	lsr.w	r3, r1, r4
 8000440:	ea45 0103 	orr.w	r1, r5, r3
 8000444:	bd30      	pop	{r4, r5, pc}
 8000446:	f1c4 040c 	rsb	r4, r4, #12
 800044a:	f1c4 0220 	rsb	r2, r4, #32
 800044e:	fa20 f002 	lsr.w	r0, r0, r2
 8000452:	fa01 f304 	lsl.w	r3, r1, r4
 8000456:	ea40 0003 	orr.w	r0, r0, r3
 800045a:	4629      	mov	r1, r5
 800045c:	bd30      	pop	{r4, r5, pc}
 800045e:	fa21 f004 	lsr.w	r0, r1, r4
 8000462:	4629      	mov	r1, r5
 8000464:	bd30      	pop	{r4, r5, pc}
 8000466:	f094 0f00 	teq	r4, #0
 800046a:	f483 1380 	eor.w	r3, r3, #1048576	; 0x100000
 800046e:	bf06      	itte	eq
 8000470:	f481 1180 	eoreq.w	r1, r1, #1048576	; 0x100000
 8000474:	3401      	addeq	r4, #1
 8000476:	3d01      	subne	r5, #1
 8000478:	e74e      	b.n	8000318 <__adddf3+0x8c>
 800047a:	ea7f 5c64 	mvns.w	ip, r4, asr #21
 800047e:	bf18      	it	ne
 8000480:	ea7f 5c65 	mvnsne.w	ip, r5, asr #21
 8000484:	d029      	beq.n	80004da <__adddf3+0x24e>
 8000486:	ea94 0f05 	teq	r4, r5
 800048a:	bf08      	it	eq
 800048c:	ea90 0f02 	teqeq	r0, r2
 8000490:	d005      	beq.n	800049e <__adddf3+0x212>
 8000492:	ea54 0c00 	orrs.w	ip, r4, r0
 8000496:	bf04      	itt	eq
 8000498:	4619      	moveq	r1, r3
 800049a:	4610      	moveq	r0, r2
 800049c:	bd30      	pop	{r4, r5, pc}
 800049e:	ea91 0f03 	teq	r1, r3
 80004a2:	bf1e      	ittt	ne
 80004a4:	2100      	movne	r1, #0
 80004a6:	2000      	movne	r0, #0
 80004a8:	bd30      	popne	{r4, r5, pc}
 80004aa:	ea5f 5c54 	movs.w	ip, r4, lsr #21
 80004ae:	d105      	bne.n	80004bc <__adddf3+0x230>
 80004b0:	0040      	lsls	r0, r0, #1
 80004b2:	4149      	adcs	r1, r1
 80004b4:	bf28      	it	cs
 80004b6:	f041 4100 	orrcs.w	r1, r1, #2147483648	; 0x80000000
 80004ba:	bd30      	pop	{r4, r5, pc}
 80004bc:	f514 0480 	adds.w	r4, r4, #4194304	; 0x400000
 80004c0:	bf3c      	itt	cc
 80004c2:	f501 1180 	addcc.w	r1, r1, #1048576	; 0x100000
 80004c6:	bd30      	popcc	{r4, r5, pc}
 80004c8:	f001 4500 	and.w	r5, r1, #2147483648	; 0x80000000
 80004cc:	f045 41fe 	orr.w	r1, r5, #2130706432	; 0x7f000000
 80004d0:	f441 0170 	orr.w	r1, r1, #15728640	; 0xf00000
 80004d4:	f04f 0000 	mov.w	r0, #0
 80004d8:	bd30      	pop	{r4, r5, pc}
 80004da:	ea7f 5c64 	mvns.w	ip, r4, asr #21
 80004de:	bf1a      	itte	ne
 80004e0:	4619      	movne	r1, r3
 80004e2:	4610      	movne	r0, r2
 80004e4:	ea7f 5c65 	mvnseq.w	ip, r5, asr #21
 80004e8:	bf1c      	itt	ne
 80004ea:	460b      	movne	r3, r1
 80004ec:	4602      	movne	r2, r0
 80004ee:	ea50 3401 	orrs.w	r4, r0, r1, lsl #12
 80004f2:	bf06      	itte	eq
 80004f4:	ea52 3503 	orrseq.w	r5, r2, r3, lsl #12
 80004f8:	ea91 0f03 	teqeq	r1, r3
 80004fc:	f441 2100 	orrne.w	r1, r1, #524288	; 0x80000
 8000500:	bd30      	pop	{r4, r5, pc}
 8000502:	bf00      	nop

08000504 <__aeabi_ui2d>:
 8000504:	f090 0f00 	teq	r0, #0
 8000508:	bf04      	itt	eq
 800050a:	2100      	moveq	r1, #0
 800050c:	4770      	bxeq	lr
 800050e:	b530      	push	{r4, r5, lr}
 8000510:	f44f 6480 	mov.w	r4, #1024	; 0x400
 8000514:	f104 0432 	add.w	r4, r4, #50	; 0x32
 8000518:	f04f 0500 	mov.w	r5, #0
 800051c:	f04f 0100 	mov.w	r1, #0
 8000520:	e750      	b.n	80003c4 <__adddf3+0x138>
 8000522:	bf00      	nop

08000524 <__aeabi_i2d>:
 8000524:	f090 0f00 	teq	r0, #0
 8000528:	bf04      	itt	eq
 800052a:	2100      	moveq	r1, #0
 800052c:	4770      	bxeq	lr
 800052e:	b530      	push	{r4, r5, lr}
 8000530:	f44f 6480 	mov.w	r4, #1024	; 0x400
 8000534:	f104 0432 	add.w	r4, r4, #50	; 0x32
 8000538:	f010 4500 	ands.w	r5, r0, #2147483648	; 0x80000000
 800053c:	bf48      	it	mi
 800053e:	4240      	negmi	r0, r0
 8000540:	f04f 0100 	mov.w	r1, #0
 8000544:	e73e      	b.n	80003c4 <__adddf3+0x138>
 8000546:	bf00      	nop

08000548 <__aeabi_f2d>:
 8000548:	0042      	lsls	r2, r0, #1
 800054a:	ea4f 01e2 	mov.w	r1, r2, asr #3
 800054e:	ea4f 0131 	mov.w	r1, r1, rrx
 8000552:	ea4f 7002 	mov.w	r0, r2, lsl #28
 8000556:	bf1f      	itttt	ne
 8000558:	f012 437f 	andsne.w	r3, r2, #4278190080	; 0xff000000
 800055c:	f093 4f7f 	teqne	r3, #4278190080	; 0xff000000
 8000560:	f081 5160 	eorne.w	r1, r1, #939524096	; 0x38000000
 8000564:	4770      	bxne	lr
 8000566:	f032 427f 	bics.w	r2, r2, #4278190080	; 0xff000000
 800056a:	bf08      	it	eq
 800056c:	4770      	bxeq	lr
 800056e:	f093 4f7f 	teq	r3, #4278190080	; 0xff000000
 8000572:	bf04      	itt	eq
 8000574:	f441 2100 	orreq.w	r1, r1, #524288	; 0x80000
 8000578:	4770      	bxeq	lr
 800057a:	b530      	push	{r4, r5, lr}
 800057c:	f44f 7460 	mov.w	r4, #896	; 0x380
 8000580:	f001 4500 	and.w	r5, r1, #2147483648	; 0x80000000
 8000584:	f021 4100 	bic.w	r1, r1, #2147483648	; 0x80000000
 8000588:	e71c      	b.n	80003c4 <__adddf3+0x138>
 800058a:	bf00      	nop

0800058c <__aeabi_ul2d>:
 800058c:	ea50 0201 	orrs.w	r2, r0, r1
 8000590:	bf08      	it	eq
 8000592:	4770      	bxeq	lr
 8000594:	b530      	push	{r4, r5, lr}
 8000596:	f04f 0500 	mov.w	r5, #0
 800059a:	e00a      	b.n	80005b2 <__aeabi_l2d+0x16>

0800059c <__aeabi_l2d>:
 800059c:	ea50 0201 	orrs.w	r2, r0, r1
 80005a0:	bf08      	it	eq
 80005a2:	4770      	bxeq	lr
 80005a4:	b530      	push	{r4, r5, lr}
 80005a6:	f011 4500 	ands.w	r5, r1, #2147483648	; 0x80000000
 80005aa:	d502      	bpl.n	80005b2 <__aeabi_l2d+0x16>
 80005ac:	4240      	negs	r0, r0
 80005ae:	eb61 0141 	sbc.w	r1, r1, r1, lsl #1
 80005b2:	f44f 6480 	mov.w	r4, #1024	; 0x400
 80005b6:	f104 0432 	add.w	r4, r4, #50	; 0x32
 80005ba:	ea5f 5c91 	movs.w	ip, r1, lsr #22
 80005be:	f43f aed8 	beq.w	8000372 <__adddf3+0xe6>
 80005c2:	f04f 0203 	mov.w	r2, #3
 80005c6:	ea5f 0cdc 	movs.w	ip, ip, lsr #3
 80005ca:	bf18      	it	ne
 80005cc:	3203      	addne	r2, #3
 80005ce:	ea5f 0cdc 	movs.w	ip, ip, lsr #3
 80005d2:	bf18      	it	ne
 80005d4:	3203      	addne	r2, #3
 80005d6:	eb02 02dc 	add.w	r2, r2, ip, lsr #3
 80005da:	f1c2 0320 	rsb	r3, r2, #32
 80005de:	fa00 fc03 	lsl.w	ip, r0, r3
 80005e2:	fa20 f002 	lsr.w	r0, r0, r2
 80005e6:	fa01 fe03 	lsl.w	lr, r1, r3
 80005ea:	ea40 000e 	orr.w	r0, r0, lr
 80005ee:	fa21 f102 	lsr.w	r1, r1, r2
 80005f2:	4414      	add	r4, r2
 80005f4:	e6bd      	b.n	8000372 <__adddf3+0xe6>
 80005f6:	bf00      	nop

080005f8 <__aeabi_dmul>:
 80005f8:	b570      	push	{r4, r5, r6, lr}
 80005fa:	f04f 0cff 	mov.w	ip, #255	; 0xff
 80005fe:	f44c 6ce0 	orr.w	ip, ip, #1792	; 0x700
 8000602:	ea1c 5411 	ands.w	r4, ip, r1, lsr #20
 8000606:	bf1d      	ittte	ne
 8000608:	ea1c 5513 	andsne.w	r5, ip, r3, lsr #20
 800060c:	ea94 0f0c 	teqne	r4, ip
 8000610:	ea95 0f0c 	teqne	r5, ip
 8000614:	f000 f8de 	bleq	80007d4 <__aeabi_dmul+0x1dc>
 8000618:	442c      	add	r4, r5
 800061a:	ea81 0603 	eor.w	r6, r1, r3
 800061e:	ea21 514c 	bic.w	r1, r1, ip, lsl #21
 8000622:	ea23 534c 	bic.w	r3, r3, ip, lsl #21
 8000626:	ea50 3501 	orrs.w	r5, r0, r1, lsl #12
 800062a:	bf18      	it	ne
 800062c:	ea52 3503 	orrsne.w	r5, r2, r3, lsl #12
 8000630:	f441 1180 	orr.w	r1, r1, #1048576	; 0x100000
 8000634:	f443 1380 	orr.w	r3, r3, #1048576	; 0x100000
 8000638:	d038      	beq.n	80006ac <__aeabi_dmul+0xb4>
 800063a:	fba0 ce02 	umull	ip, lr, r0, r2
 800063e:	f04f 0500 	mov.w	r5, #0
 8000642:	fbe1 e502 	umlal	lr, r5, r1, r2
 8000646:	f006 4200 	and.w	r2, r6, #2147483648	; 0x80000000
 800064a:	fbe0 e503 	umlal	lr, r5, r0, r3
 800064e:	f04f 0600 	mov.w	r6, #0
 8000652:	fbe1 5603 	umlal	r5, r6, r1, r3
 8000656:	f09c 0f00 	teq	ip, #0
 800065a:	bf18      	it	ne
 800065c:	f04e 0e01 	orrne.w	lr, lr, #1
 8000660:	f1a4 04ff 	sub.w	r4, r4, #255	; 0xff
 8000664:	f5b6 7f00 	cmp.w	r6, #512	; 0x200
 8000668:	f564 7440 	sbc.w	r4, r4, #768	; 0x300
 800066c:	d204      	bcs.n	8000678 <__aeabi_dmul+0x80>
 800066e:	ea5f 0e4e 	movs.w	lr, lr, lsl #1
 8000672:	416d      	adcs	r5, r5
 8000674:	eb46 0606 	adc.w	r6, r6, r6
 8000678:	ea42 21c6 	orr.w	r1, r2, r6, lsl #11
 800067c:	ea41 5155 	orr.w	r1, r1, r5, lsr #21
 8000680:	ea4f 20c5 	mov.w	r0, r5, lsl #11
 8000684:	ea40 505e 	orr.w	r0, r0, lr, lsr #21
 8000688:	ea4f 2ece 	mov.w	lr, lr, lsl #11
 800068c:	f1b4 0cfd 	subs.w	ip, r4, #253	; 0xfd
 8000690:	bf88      	it	hi
 8000692:	f5bc 6fe0 	cmphi.w	ip, #1792	; 0x700
 8000696:	d81e      	bhi.n	80006d6 <__aeabi_dmul+0xde>
 8000698:	f1be 4f00 	cmp.w	lr, #2147483648	; 0x80000000
 800069c:	bf08      	it	eq
 800069e:	ea5f 0e50 	movseq.w	lr, r0, lsr #1
 80006a2:	f150 0000 	adcs.w	r0, r0, #0
 80006a6:	eb41 5104 	adc.w	r1, r1, r4, lsl #20
 80006aa:	bd70      	pop	{r4, r5, r6, pc}
 80006ac:	f006 4600 	and.w	r6, r6, #2147483648	; 0x80000000
 80006b0:	ea46 0101 	orr.w	r1, r6, r1
 80006b4:	ea40 0002 	orr.w	r0, r0, r2
 80006b8:	ea81 0103 	eor.w	r1, r1, r3
 80006bc:	ebb4 045c 	subs.w	r4, r4, ip, lsr #1
 80006c0:	bfc2      	ittt	gt
 80006c2:	ebd4 050c 	rsbsgt	r5, r4, ip
 80006c6:	ea41 5104 	orrgt.w	r1, r1, r4, lsl #20
 80006ca:	bd70      	popgt	{r4, r5, r6, pc}
 80006cc:	f441 1180 	orr.w	r1, r1, #1048576	; 0x100000
 80006d0:	f04f 0e00 	mov.w	lr, #0
 80006d4:	3c01      	subs	r4, #1
 80006d6:	f300 80ab 	bgt.w	8000830 <__aeabi_dmul+0x238>
 80006da:	f114 0f36 	cmn.w	r4, #54	; 0x36
 80006de:	bfde      	ittt	le
 80006e0:	2000      	movle	r0, #0
 80006e2:	f001 4100 	andle.w	r1, r1, #2147483648	; 0x80000000
 80006e6:	bd70      	pople	{r4, r5, r6, pc}
 80006e8:	f1c4 0400 	rsb	r4, r4, #0
 80006ec:	3c20      	subs	r4, #32
 80006ee:	da35      	bge.n	800075c <__aeabi_dmul+0x164>
 80006f0:	340c      	adds	r4, #12
 80006f2:	dc1b      	bgt.n	800072c <__aeabi_dmul+0x134>
 80006f4:	f104 0414 	add.w	r4, r4, #20
 80006f8:	f1c4 0520 	rsb	r5, r4, #32
 80006fc:	fa00 f305 	lsl.w	r3, r0, r5
 8000700:	fa20 f004 	lsr.w	r0, r0, r4
 8000704:	fa01 f205 	lsl.w	r2, r1, r5
 8000708:	ea40 0002 	orr.w	r0, r0, r2
 800070c:	f001 4200 	and.w	r2, r1, #2147483648	; 0x80000000
 8000710:	f021 4100 	bic.w	r1, r1, #2147483648	; 0x80000000
 8000714:	eb10 70d3 	adds.w	r0, r0, r3, lsr #31
 8000718:	fa21 f604 	lsr.w	r6, r1, r4
 800071c:	eb42 0106 	adc.w	r1, r2, r6
 8000720:	ea5e 0e43 	orrs.w	lr, lr, r3, lsl #1
 8000724:	bf08      	it	eq
 8000726:	ea20 70d3 	biceq.w	r0, r0, r3, lsr #31
 800072a:	bd70      	pop	{r4, r5, r6, pc}
 800072c:	f1c4 040c 	rsb	r4, r4, #12
 8000730:	f1c4 0520 	rsb	r5, r4, #32
 8000734:	fa00 f304 	lsl.w	r3, r0, r4
 8000738:	fa20 f005 	lsr.w	r0, r0, r5
 800073c:	fa01 f204 	lsl.w	r2, r1, r4
 8000740:	ea40 0002 	orr.w	r0, r0, r2
 8000744:	f001 4100 	and.w	r1, r1, #2147483648	; 0x80000000
 8000748:	eb10 70d3 	adds.w	r0, r0, r3, lsr #31
 800074c:	f141 0100 	adc.w	r1, r1, #0
 8000750:	ea5e 0e43 	orrs.w	lr, lr, r3, lsl #1
 8000754:	bf08      	it	eq
 8000756:	ea20 70d3 	biceq.w	r0, r0, r3, lsr #31
 800075a:	bd70      	pop	{r4, r5, r6, pc}
 800075c:	f1c4 0520 	rsb	r5, r4, #32
 8000760:	fa00 f205 	lsl.w	r2, r0, r5
 8000764:	ea4e 0e02 	orr.w	lr, lr, r2
 8000768:	fa20 f304 	lsr.w	r3, r0, r4
 800076c:	fa01 f205 	lsl.w	r2, r1, r5
 8000770:	ea43 0302 	orr.w	r3, r3, r2
 8000774:	fa21 f004 	lsr.w	r0, r1, r4
 8000778:	f001 4100 	and.w	r1, r1, #2147483648	; 0x80000000
 800077c:	fa21 f204 	lsr.w	r2, r1, r4
 8000780:	ea20 0002 	bic.w	r0, r0, r2
 8000784:	eb00 70d3 	add.w	r0, r0, r3, lsr #31
 8000788:	ea5e 0e43 	orrs.w	lr, lr, r3, lsl #1
 800078c:	bf08      	it	eq
 800078e:	ea20 70d3 	biceq.w	r0, r0, r3, lsr #31
 8000792:	bd70      	pop	{r4, r5, r6, pc}
 8000794:	f094 0f00 	teq	r4, #0
 8000798:	d10f      	bne.n	80007ba <__aeabi_dmul+0x1c2>
 800079a:	f001 4600 	and.w	r6, r1, #2147483648	; 0x80000000
 800079e:	0040      	lsls	r0, r0, #1
 80007a0:	eb41 0101 	adc.w	r1, r1, r1
 80007a4:	f411 1f80 	tst.w	r1, #1048576	; 0x100000
 80007a8:	bf08      	it	eq
 80007aa:	3c01      	subeq	r4, #1
 80007ac:	d0f7      	beq.n	800079e <__aeabi_dmul+0x1a6>
 80007ae:	ea41 0106 	orr.w	r1, r1, r6
 80007b2:	f095 0f00 	teq	r5, #0
 80007b6:	bf18      	it	ne
 80007b8:	4770      	bxne	lr
 80007ba:	f003 4600 	and.w	r6, r3, #2147483648	; 0x80000000
 80007be:	0052      	lsls	r2, r2, #1
 80007c0:	eb43 0303 	adc.w	r3, r3, r3
 80007c4:	f413 1f80 	tst.w	r3, #1048576	; 0x100000
 80007c8:	bf08      	it	eq
 80007ca:	3d01      	subeq	r5, #1
 80007cc:	d0f7      	beq.n	80007be <__aeabi_dmul+0x1c6>
 80007ce:	ea43 0306 	orr.w	r3, r3, r6
 80007d2:	4770      	bx	lr
 80007d4:	ea94 0f0c 	teq	r4, ip
 80007d8:	ea0c 5513 	and.w	r5, ip, r3, lsr #20
 80007dc:	bf18      	it	ne
 80007de:	ea95 0f0c 	teqne	r5, ip
 80007e2:	d00c      	beq.n	80007fe <__aeabi_dmul+0x206>
 80007e4:	ea50 0641 	orrs.w	r6, r0, r1, lsl #1
 80007e8:	bf18      	it	ne
 80007ea:	ea52 0643 	orrsne.w	r6, r2, r3, lsl #1
 80007ee:	d1d1      	bne.n	8000794 <__aeabi_dmul+0x19c>
 80007f0:	ea81 0103 	eor.w	r1, r1, r3
 80007f4:	f001 4100 	and.w	r1, r1, #2147483648	; 0x80000000
 80007f8:	f04f 0000 	mov.w	r0, #0
 80007fc:	bd70      	pop	{r4, r5, r6, pc}
 80007fe:	ea50 0641 	orrs.w	r6, r0, r1, lsl #1
 8000802:	bf06      	itte	eq
 8000804:	4610      	moveq	r0, r2
 8000806:	4619      	moveq	r1, r3
 8000808:	ea52 0643 	orrsne.w	r6, r2, r3, lsl #1
 800080c:	d019      	beq.n	8000842 <__aeabi_dmul+0x24a>
 800080e:	ea94 0f0c 	teq	r4, ip
 8000812:	d102      	bne.n	800081a <__aeabi_dmul+0x222>
 8000814:	ea50 3601 	orrs.w	r6, r0, r1, lsl #12
 8000818:	d113      	bne.n	8000842 <__aeabi_dmul+0x24a>
 800081a:	ea95 0f0c 	teq	r5, ip
 800081e:	d105      	bne.n	800082c <__aeabi_dmul+0x234>
 8000820:	ea52 3603 	orrs.w	r6, r2, r3, lsl #12
 8000824:	bf1c      	itt	ne
 8000826:	4610      	movne	r0, r2
 8000828:	4619      	movne	r1, r3
 800082a:	d10a      	bne.n	8000842 <__aeabi_dmul+0x24a>
 800082c:	ea81 0103 	eor.w	r1, r1, r3
 8000830:	f001 4100 	and.w	r1, r1, #2147483648	; 0x80000000
 8000834:	f041 41fe 	orr.w	r1, r1, #2130706432	; 0x7f000000
 8000838:	f441 0170 	orr.w	r1, r1, #15728640	; 0xf00000
 800083c:	f04f 0000 	mov.w	r0, #0
 8000840:	bd70      	pop	{r4, r5, r6, pc}
 8000842:	f041 41fe 	orr.w	r1, r1, #2130706432	; 0x7f000000
 8000846:	f441 0178 	orr.w	r1, r1, #16252928	; 0xf80000
 800084a:	bd70      	pop	{r4, r5, r6, pc}

0800084c <__aeabi_ddiv>:
 800084c:	b570      	push	{r4, r5, r6, lr}
 800084e:	f04f 0cff 	mov.w	ip, #255	; 0xff
 8000852:	f44c 6ce0 	orr.w	ip, ip, #1792	; 0x700
 8000856:	ea1c 5411 	ands.w	r4, ip, r1, lsr #20
 800085a:	bf1d      	ittte	ne
 800085c:	ea1c 5513 	andsne.w	r5, ip, r3, lsr #20
 8000860:	ea94 0f0c 	teqne	r4, ip
 8000864:	ea95 0f0c 	teqne	r5, ip
 8000868:	f000 f8a7 	bleq	80009ba <__aeabi_ddiv+0x16e>
 800086c:	eba4 0405 	sub.w	r4, r4, r5
 8000870:	ea81 0e03 	eor.w	lr, r1, r3
 8000874:	ea52 3503 	orrs.w	r5, r2, r3, lsl #12
 8000878:	ea4f 3101 	mov.w	r1, r1, lsl #12
 800087c:	f000 8088 	beq.w	8000990 <__aeabi_ddiv+0x144>
 8000880:	ea4f 3303 	mov.w	r3, r3, lsl #12
 8000884:	f04f 5580 	mov.w	r5, #268435456	; 0x10000000
 8000888:	ea45 1313 	orr.w	r3, r5, r3, lsr #4
 800088c:	ea43 6312 	orr.w	r3, r3, r2, lsr #24
 8000890:	ea4f 2202 	mov.w	r2, r2, lsl #8
 8000894:	ea45 1511 	orr.w	r5, r5, r1, lsr #4
 8000898:	ea45 6510 	orr.w	r5, r5, r0, lsr #24
 800089c:	ea4f 2600 	mov.w	r6, r0, lsl #8
 80008a0:	f00e 4100 	and.w	r1, lr, #2147483648	; 0x80000000
 80008a4:	429d      	cmp	r5, r3
 80008a6:	bf08      	it	eq
 80008a8:	4296      	cmpeq	r6, r2
 80008aa:	f144 04fd 	adc.w	r4, r4, #253	; 0xfd
 80008ae:	f504 7440 	add.w	r4, r4, #768	; 0x300
 80008b2:	d202      	bcs.n	80008ba <__aeabi_ddiv+0x6e>
 80008b4:	085b      	lsrs	r3, r3, #1
 80008b6:	ea4f 0232 	mov.w	r2, r2, rrx
 80008ba:	1ab6      	subs	r6, r6, r2
 80008bc:	eb65 0503 	sbc.w	r5, r5, r3
 80008c0:	085b      	lsrs	r3, r3, #1
 80008c2:	ea4f 0232 	mov.w	r2, r2, rrx
 80008c6:	f44f 1080 	mov.w	r0, #1048576	; 0x100000
 80008ca:	f44f 2c00 	mov.w	ip, #524288	; 0x80000
 80008ce:	ebb6 0e02 	subs.w	lr, r6, r2
 80008d2:	eb75 0e03 	sbcs.w	lr, r5, r3
 80008d6:	bf22      	ittt	cs
 80008d8:	1ab6      	subcs	r6, r6, r2
 80008da:	4675      	movcs	r5, lr
 80008dc:	ea40 000c 	orrcs.w	r0, r0, ip
 80008e0:	085b      	lsrs	r3, r3, #1
 80008e2:	ea4f 0232 	mov.w	r2, r2, rrx
 80008e6:	ebb6 0e02 	subs.w	lr, r6, r2
 80008ea:	eb75 0e03 	sbcs.w	lr, r5, r3
 80008ee:	bf22      	ittt	cs
 80008f0:	1ab6      	subcs	r6, r6, r2
 80008f2:	4675      	movcs	r5, lr
 80008f4:	ea40 005c 	orrcs.w	r0, r0, ip, lsr #1
 80008f8:	085b      	lsrs	r3, r3, #1
 80008fa:	ea4f 0232 	mov.w	r2, r2, rrx
 80008fe:	ebb6 0e02 	subs.w	lr, r6, r2
 8000902:	eb75 0e03 	sbcs.w	lr, r5, r3
 8000906:	bf22      	ittt	cs
 8000908:	1ab6      	subcs	r6, r6, r2
 800090a:	4675      	movcs	r5, lr
 800090c:	ea40 009c 	orrcs.w	r0, r0, ip, lsr #2
 8000910:	085b      	lsrs	r3, r3, #1
 8000912:	ea4f 0232 	mov.w	r2, r2, rrx
 8000916:	ebb6 0e02 	subs.w	lr, r6, r2
 800091a:	eb75 0e03 	sbcs.w	lr, r5, r3
 800091e:	bf22      	ittt	cs
 8000920:	1ab6      	subcs	r6, r6, r2
 8000922:	4675      	movcs	r5, lr
 8000924:	ea40 00dc 	orrcs.w	r0, r0, ip, lsr #3
 8000928:	ea55 0e06 	orrs.w	lr, r5, r6
 800092c:	d018      	beq.n	8000960 <__aeabi_ddiv+0x114>
 800092e:	ea4f 1505 	mov.w	r5, r5, lsl #4
 8000932:	ea45 7516 	orr.w	r5, r5, r6, lsr #28
 8000936:	ea4f 1606 	mov.w	r6, r6, lsl #4
 800093a:	ea4f 03c3 	mov.w	r3, r3, lsl #3
 800093e:	ea43 7352 	orr.w	r3, r3, r2, lsr #29
 8000942:	ea4f 02c2 	mov.w	r2, r2, lsl #3
 8000946:	ea5f 1c1c 	movs.w	ip, ip, lsr #4
 800094a:	d1c0      	bne.n	80008ce <__aeabi_ddiv+0x82>
 800094c:	f411 1f80 	tst.w	r1, #1048576	; 0x100000
 8000950:	d10b      	bne.n	800096a <__aeabi_ddiv+0x11e>
 8000952:	ea41 0100 	orr.w	r1, r1, r0
 8000956:	f04f 0000 	mov.w	r0, #0
 800095a:	f04f 4c00 	mov.w	ip, #2147483648	; 0x80000000
 800095e:	e7b6      	b.n	80008ce <__aeabi_ddiv+0x82>
 8000960:	f411 1f80 	tst.w	r1, #1048576	; 0x100000
 8000964:	bf04      	itt	eq
 8000966:	4301      	orreq	r1, r0
 8000968:	2000      	moveq	r0, #0
 800096a:	f1b4 0cfd 	subs.w	ip, r4, #253	; 0xfd
 800096e:	bf88      	it	hi
 8000970:	f5bc 6fe0 	cmphi.w	ip, #1792	; 0x700
 8000974:	f63f aeaf 	bhi.w	80006d6 <__aeabi_dmul+0xde>
 8000978:	ebb5 0c03 	subs.w	ip, r5, r3
 800097c:	bf04      	itt	eq
 800097e:	ebb6 0c02 	subseq.w	ip, r6, r2
 8000982:	ea5f 0c50 	movseq.w	ip, r0, lsr #1
 8000986:	f150 0000 	adcs.w	r0, r0, #0
 800098a:	eb41 5104 	adc.w	r1, r1, r4, lsl #20
 800098e:	bd70      	pop	{r4, r5, r6, pc}
 8000990:	f00e 4e00 	and.w	lr, lr, #2147483648	; 0x80000000
 8000994:	ea4e 3111 	orr.w	r1, lr, r1, lsr #12
 8000998:	eb14 045c 	adds.w	r4, r4, ip, lsr #1
 800099c:	bfc2      	ittt	gt
 800099e:	ebd4 050c 	rsbsgt	r5, r4, ip
 80009a2:	ea41 5104 	orrgt.w	r1, r1, r4, lsl #20
 80009a6:	bd70      	popgt	{r4, r5, r6, pc}
 80009a8:	f441 1180 	orr.w	r1, r1, #1048576	; 0x100000
 80009ac:	f04f 0e00 	mov.w	lr, #0
 80009b0:	3c01      	subs	r4, #1
 80009b2:	e690      	b.n	80006d6 <__aeabi_dmul+0xde>
 80009b4:	ea45 0e06 	orr.w	lr, r5, r6
 80009b8:	e68d      	b.n	80006d6 <__aeabi_dmul+0xde>
 80009ba:	ea0c 5513 	and.w	r5, ip, r3, lsr #20
 80009be:	ea94 0f0c 	teq	r4, ip
 80009c2:	bf08      	it	eq
 80009c4:	ea95 0f0c 	teqeq	r5, ip
 80009c8:	f43f af3b 	beq.w	8000842 <__aeabi_dmul+0x24a>
 80009cc:	ea94 0f0c 	teq	r4, ip
 80009d0:	d10a      	bne.n	80009e8 <__aeabi_ddiv+0x19c>
 80009d2:	ea50 3401 	orrs.w	r4, r0, r1, lsl #12
 80009d6:	f47f af34 	bne.w	8000842 <__aeabi_dmul+0x24a>
 80009da:	ea95 0f0c 	teq	r5, ip
 80009de:	f47f af25 	bne.w	800082c <__aeabi_dmul+0x234>
 80009e2:	4610      	mov	r0, r2
 80009e4:	4619      	mov	r1, r3
 80009e6:	e72c      	b.n	8000842 <__aeabi_dmul+0x24a>
 80009e8:	ea95 0f0c 	teq	r5, ip
 80009ec:	d106      	bne.n	80009fc <__aeabi_ddiv+0x1b0>
 80009ee:	ea52 3503 	orrs.w	r5, r2, r3, lsl #12
 80009f2:	f43f aefd 	beq.w	80007f0 <__aeabi_dmul+0x1f8>
 80009f6:	4610      	mov	r0, r2
 80009f8:	4619      	mov	r1, r3
 80009fa:	e722      	b.n	8000842 <__aeabi_dmul+0x24a>
 80009fc:	ea50 0641 	orrs.w	r6, r0, r1, lsl #1
 8000a00:	bf18      	it	ne
 8000a02:	ea52 0643 	orrsne.w	r6, r2, r3, lsl #1
 8000a06:	f47f aec5 	bne.w	8000794 <__aeabi_dmul+0x19c>
 8000a0a:	ea50 0441 	orrs.w	r4, r0, r1, lsl #1
 8000a0e:	f47f af0d 	bne.w	800082c <__aeabi_dmul+0x234>
 8000a12:	ea52 0543 	orrs.w	r5, r2, r3, lsl #1
 8000a16:	f47f aeeb 	bne.w	80007f0 <__aeabi_dmul+0x1f8>
 8000a1a:	e712      	b.n	8000842 <__aeabi_dmul+0x24a>

08000a1c <__gedf2>:
 8000a1c:	f04f 3cff 	mov.w	ip, #4294967295	; 0xffffffff
 8000a20:	e006      	b.n	8000a30 <__cmpdf2+0x4>
 8000a22:	bf00      	nop

08000a24 <__ledf2>:
 8000a24:	f04f 0c01 	mov.w	ip, #1
 8000a28:	e002      	b.n	8000a30 <__cmpdf2+0x4>
 8000a2a:	bf00      	nop

08000a2c <__cmpdf2>:
 8000a2c:	f04f 0c01 	mov.w	ip, #1
 8000a30:	f84d cd04 	str.w	ip, [sp, #-4]!
 8000a34:	ea4f 0c41 	mov.w	ip, r1, lsl #1
 8000a38:	ea7f 5c6c 	mvns.w	ip, ip, asr #21
 8000a3c:	ea4f 0c43 	mov.w	ip, r3, lsl #1
 8000a40:	bf18      	it	ne
 8000a42:	ea7f 5c6c 	mvnsne.w	ip, ip, asr #21
 8000a46:	d01b      	beq.n	8000a80 <__cmpdf2+0x54>
 8000a48:	b001      	add	sp, #4
 8000a4a:	ea50 0c41 	orrs.w	ip, r0, r1, lsl #1
 8000a4e:	bf0c      	ite	eq
 8000a50:	ea52 0c43 	orrseq.w	ip, r2, r3, lsl #1
 8000a54:	ea91 0f03 	teqne	r1, r3
 8000a58:	bf02      	ittt	eq
 8000a5a:	ea90 0f02 	teqeq	r0, r2
 8000a5e:	2000      	moveq	r0, #0
 8000a60:	4770      	bxeq	lr
 8000a62:	f110 0f00 	cmn.w	r0, #0
 8000a66:	ea91 0f03 	teq	r1, r3
 8000a6a:	bf58      	it	pl
 8000a6c:	4299      	cmppl	r1, r3
 8000a6e:	bf08      	it	eq
 8000a70:	4290      	cmpeq	r0, r2
 8000a72:	bf2c      	ite	cs
 8000a74:	17d8      	asrcs	r0, r3, #31
 8000a76:	ea6f 70e3 	mvncc.w	r0, r3, asr #31
 8000a7a:	f040 0001 	orr.w	r0, r0, #1
 8000a7e:	4770      	bx	lr
 8000a80:	ea4f 0c41 	mov.w	ip, r1, lsl #1
 8000a84:	ea7f 5c6c 	mvns.w	ip, ip, asr #21
 8000a88:	d102      	bne.n	8000a90 <__cmpdf2+0x64>
 8000a8a:	ea50 3c01 	orrs.w	ip, r0, r1, lsl #12
 8000a8e:	d107      	bne.n	8000aa0 <__cmpdf2+0x74>
 8000a90:	ea4f 0c43 	mov.w	ip, r3, lsl #1
 8000a94:	ea7f 5c6c 	mvns.w	ip, ip, asr #21
 8000a98:	d1d6      	bne.n	8000a48 <__cmpdf2+0x1c>
 8000a9a:	ea52 3c03 	orrs.w	ip, r2, r3, lsl #12
 8000a9e:	d0d3      	beq.n	8000a48 <__cmpdf2+0x1c>
 8000aa0:	f85d 0b04 	ldr.w	r0, [sp], #4
 8000aa4:	4770      	bx	lr
 8000aa6:	bf00      	nop

08000aa8 <__aeabi_cdrcmple>:
 8000aa8:	4684      	mov	ip, r0
 8000aaa:	4610      	mov	r0, r2
 8000aac:	4662      	mov	r2, ip
 8000aae:	468c      	mov	ip, r1
 8000ab0:	4619      	mov	r1, r3
 8000ab2:	4663      	mov	r3, ip
 8000ab4:	e000      	b.n	8000ab8 <__aeabi_cdcmpeq>
 8000ab6:	bf00      	nop

08000ab8 <__aeabi_cdcmpeq>:
 8000ab8:	b501      	push	{r0, lr}
 8000aba:	f7ff ffb7 	bl	8000a2c <__cmpdf2>
 8000abe:	2800      	cmp	r0, #0
 8000ac0:	bf48      	it	mi
 8000ac2:	f110 0f00 	cmnmi.w	r0, #0
 8000ac6:	bd01      	pop	{r0, pc}

08000ac8 <__aeabi_dcmpeq>:
 8000ac8:	f84d ed08 	str.w	lr, [sp, #-8]!
 8000acc:	f7ff fff4 	bl	8000ab8 <__aeabi_cdcmpeq>
 8000ad0:	bf0c      	ite	eq
 8000ad2:	2001      	moveq	r0, #1
 8000ad4:	2000      	movne	r0, #0
 8000ad6:	f85d fb08 	ldr.w	pc, [sp], #8
 8000ada:	bf00      	nop

08000adc <__aeabi_dcmplt>:
 8000adc:	f84d ed08 	str.w	lr, [sp, #-8]!
 8000ae0:	f7ff ffea 	bl	8000ab8 <__aeabi_cdcmpeq>
 8000ae4:	bf34      	ite	cc
 8000ae6:	2001      	movcc	r0, #1
 8000ae8:	2000      	movcs	r0, #0
 8000aea:	f85d fb08 	ldr.w	pc, [sp], #8
 8000aee:	bf00      	nop

08000af0 <__aeabi_dcmple>:
 8000af0:	f84d ed08 	str.w	lr, [sp, #-8]!
 8000af4:	f7ff ffe0 	bl	8000ab8 <__aeabi_cdcmpeq>
 8000af8:	bf94      	ite	ls
 8000afa:	2001      	movls	r0, #1
 8000afc:	2000      	movhi	r0, #0
 8000afe:	f85d fb08 	ldr.w	pc, [sp], #8
 8000b02:	bf00      	nop

08000b04 <__aeabi_dcmpge>:
 8000b04:	f84d ed08 	str.w	lr, [sp, #-8]!
 8000b08:	f7ff ffce 	bl	8000aa8 <__aeabi_cdrcmple>
 8000b0c:	bf94      	ite	ls
 8000b0e:	2001      	movls	r0, #1
 8000b10:	2000      	movhi	r0, #0
 8000b12:	f85d fb08 	ldr.w	pc, [sp], #8
 8000b16:	bf00      	nop

08000b18 <__aeabi_dcmpgt>:
 8000b18:	f84d ed08 	str.w	lr, [sp, #-8]!
 8000b1c:	f7ff ffc4 	bl	8000aa8 <__aeabi_cdrcmple>
 8000b20:	bf34      	ite	cc
 8000b22:	2001      	movcc	r0, #1
 8000b24:	2000      	movcs	r0, #0
 8000b26:	f85d fb08 	ldr.w	pc, [sp], #8
 8000b2a:	bf00      	nop

08000b2c <__aeabi_dcmpun>:
 8000b2c:	ea4f 0c41 	mov.w	ip, r1, lsl #1
 8000b30:	ea7f 5c6c 	mvns.w	ip, ip, asr #21
 8000b34:	d102      	bne.n	8000b3c <__aeabi_dcmpun+0x10>
 8000b36:	ea50 3c01 	orrs.w	ip, r0, r1, lsl #12
 8000b3a:	d10a      	bne.n	8000b52 <__aeabi_dcmpun+0x26>
 8000b3c:	ea4f 0c43 	mov.w	ip, r3, lsl #1
 8000b40:	ea7f 5c6c 	mvns.w	ip, ip, asr #21
 8000b44:	d102      	bne.n	8000b4c <__aeabi_dcmpun+0x20>
 8000b46:	ea52 3c03 	orrs.w	ip, r2, r3, lsl #12
 8000b4a:	d102      	bne.n	8000b52 <__aeabi_dcmpun+0x26>
 8000b4c:	f04f 0000 	mov.w	r0, #0
 8000b50:	4770      	bx	lr
 8000b52:	f04f 0001 	mov.w	r0, #1
 8000b56:	4770      	bx	lr

08000b58 <__aeabi_d2iz>:
 8000b58:	ea4f 0241 	mov.w	r2, r1, lsl #1
 8000b5c:	f512 1200 	adds.w	r2, r2, #2097152	; 0x200000
 8000b60:	d215      	bcs.n	8000b8e <__aeabi_d2iz+0x36>
 8000b62:	d511      	bpl.n	8000b88 <__aeabi_d2iz+0x30>
 8000b64:	f46f 7378 	mvn.w	r3, #992	; 0x3e0
 8000b68:	ebb3 5262 	subs.w	r2, r3, r2, asr #21
 8000b6c:	d912      	bls.n	8000b94 <__aeabi_d2iz+0x3c>
 8000b6e:	ea4f 23c1 	mov.w	r3, r1, lsl #11
 8000b72:	f043 4300 	orr.w	r3, r3, #2147483648	; 0x80000000
 8000b76:	ea43 5350 	orr.w	r3, r3, r0, lsr #21
 8000b7a:	f011 4f00 	tst.w	r1, #2147483648	; 0x80000000
 8000b7e:	fa23 f002 	lsr.w	r0, r3, r2
 8000b82:	bf18      	it	ne
 8000b84:	4240      	negne	r0, r0
 8000b86:	4770      	bx	lr
 8000b88:	f04f 0000 	mov.w	r0, #0
 8000b8c:	4770      	bx	lr
 8000b8e:	ea50 3001 	orrs.w	r0, r0, r1, lsl #12
 8000b92:	d105      	bne.n	8000ba0 <__aeabi_d2iz+0x48>
 8000b94:	f011 4000 	ands.w	r0, r1, #2147483648	; 0x80000000
 8000b98:	bf08      	it	eq
 8000b9a:	f06f 4000 	mvneq.w	r0, #2147483648	; 0x80000000
 8000b9e:	4770      	bx	lr
 8000ba0:	f04f 0000 	mov.w	r0, #0
 8000ba4:	4770      	bx	lr
 8000ba6:	bf00      	nop

08000ba8 <__aeabi_d2uiz>:
 8000ba8:	004a      	lsls	r2, r1, #1
 8000baa:	d211      	bcs.n	8000bd0 <__aeabi_d2uiz+0x28>
 8000bac:	f512 1200 	adds.w	r2, r2, #2097152	; 0x200000
 8000bb0:	d211      	bcs.n	8000bd6 <__aeabi_d2uiz+0x2e>
 8000bb2:	d50d      	bpl.n	8000bd0 <__aeabi_d2uiz+0x28>
 8000bb4:	f46f 7378 	mvn.w	r3, #992	; 0x3e0
 8000bb8:	ebb3 5262 	subs.w	r2, r3, r2, asr #21
 8000bbc:	d40e      	bmi.n	8000bdc <__aeabi_d2uiz+0x34>
 8000bbe:	ea4f 23c1 	mov.w	r3, r1, lsl #11
 8000bc2:	f043 4300 	orr.w	r3, r3, #2147483648	; 0x80000000
 8000bc6:	ea43 5350 	orr.w	r3, r3, r0, lsr #21
 8000bca:	fa23 f002 	lsr.w	r0, r3, r2
 8000bce:	4770      	bx	lr
 8000bd0:	f04f 0000 	mov.w	r0, #0
 8000bd4:	4770      	bx	lr
 8000bd6:	ea50 3001 	orrs.w	r0, r0, r1, lsl #12
 8000bda:	d102      	bne.n	8000be2 <__aeabi_d2uiz+0x3a>
 8000bdc:	f04f 30ff 	mov.w	r0, #4294967295	; 0xffffffff
 8000be0:	4770      	bx	lr
 8000be2:	f04f 0000 	mov.w	r0, #0
 8000be6:	4770      	bx	lr

08000be8 <__aeabi_d2f>:
 8000be8:	ea4f 0241 	mov.w	r2, r1, lsl #1
 8000bec:	f1b2 43e0 	subs.w	r3, r2, #1879048192	; 0x70000000
 8000bf0:	bf24      	itt	cs
 8000bf2:	f5b3 1c00 	subscs.w	ip, r3, #2097152	; 0x200000
 8000bf6:	f1dc 5cfe 	rsbscs	ip, ip, #532676608	; 0x1fc00000
 8000bfa:	d90d      	bls.n	8000c18 <__aeabi_d2f+0x30>
 8000bfc:	f001 4c00 	and.w	ip, r1, #2147483648	; 0x80000000
 8000c00:	ea4f 02c0 	mov.w	r2, r0, lsl #3
 8000c04:	ea4c 7050 	orr.w	r0, ip, r0, lsr #29
 8000c08:	f1b2 4f00 	cmp.w	r2, #2147483648	; 0x80000000
 8000c0c:	eb40 0083 	adc.w	r0, r0, r3, lsl #2
 8000c10:	bf08      	it	eq
 8000c12:	f020 0001 	biceq.w	r0, r0, #1
 8000c16:	4770      	bx	lr
 8000c18:	f011 4f80 	tst.w	r1, #1073741824	; 0x40000000
 8000c1c:	d121      	bne.n	8000c62 <__aeabi_d2f+0x7a>
 8000c1e:	f113 7238 	adds.w	r2, r3, #48234496	; 0x2e00000
 8000c22:	bfbc      	itt	lt
 8000c24:	f001 4000 	andlt.w	r0, r1, #2147483648	; 0x80000000
 8000c28:	4770      	bxlt	lr
 8000c2a:	f441 1180 	orr.w	r1, r1, #1048576	; 0x100000
 8000c2e:	ea4f 5252 	mov.w	r2, r2, lsr #21
 8000c32:	f1c2 0218 	rsb	r2, r2, #24
 8000c36:	f1c2 0c20 	rsb	ip, r2, #32
 8000c3a:	fa10 f30c 	lsls.w	r3, r0, ip
 8000c3e:	fa20 f002 	lsr.w	r0, r0, r2
 8000c42:	bf18      	it	ne
 8000c44:	f040 0001 	orrne.w	r0, r0, #1
 8000c48:	ea4f 23c1 	mov.w	r3, r1, lsl #11
 8000c4c:	ea4f 23d3 	mov.w	r3, r3, lsr #11
 8000c50:	fa03 fc0c 	lsl.w	ip, r3, ip
 8000c54:	ea40 000c 	orr.w	r0, r0, ip
 8000c58:	fa23 f302 	lsr.w	r3, r3, r2
 8000c5c:	ea4f 0343 	mov.w	r3, r3, lsl #1
 8000c60:	e7cc      	b.n	8000bfc <__aeabi_d2f+0x14>
 8000c62:	ea7f 5362 	mvns.w	r3, r2, asr #21
 8000c66:	d107      	bne.n	8000c78 <__aeabi_d2f+0x90>
 8000c68:	ea50 3301 	orrs.w	r3, r0, r1, lsl #12
 8000c6c:	bf1e      	ittt	ne
 8000c6e:	f04f 40fe 	movne.w	r0, #2130706432	; 0x7f000000
 8000c72:	f440 0040 	orrne.w	r0, r0, #12582912	; 0xc00000
 8000c76:	4770      	bxne	lr
 8000c78:	f001 4000 	and.w	r0, r1, #2147483648	; 0x80000000
 8000c7c:	f040 40fe 	orr.w	r0, r0, #2130706432	; 0x7f000000
 8000c80:	f440 0000 	orr.w	r0, r0, #8388608	; 0x800000
 8000c84:	4770      	bx	lr
 8000c86:	bf00      	nop

08000c88 <__aeabi_uldivmod>:
 8000c88:	b953      	cbnz	r3, 8000ca0 <__aeabi_uldivmod+0x18>
 8000c8a:	b94a      	cbnz	r2, 8000ca0 <__aeabi_uldivmod+0x18>
 8000c8c:	2900      	cmp	r1, #0
 8000c8e:	bf08      	it	eq
 8000c90:	2800      	cmpeq	r0, #0
 8000c92:	bf1c      	itt	ne
 8000c94:	f04f 31ff 	movne.w	r1, #4294967295	; 0xffffffff
 8000c98:	f04f 30ff 	movne.w	r0, #4294967295	; 0xffffffff
 8000c9c:	f000 b96e 	b.w	8000f7c <__aeabi_idiv0>
 8000ca0:	f1ad 0c08 	sub.w	ip, sp, #8
 8000ca4:	e96d ce04 	strd	ip, lr, [sp, #-16]!
 8000ca8:	f000 f806 	bl	8000cb8 <__udivmoddi4>
 8000cac:	f8dd e004 	ldr.w	lr, [sp, #4]
 8000cb0:	e9dd 2302 	ldrd	r2, r3, [sp, #8]
 8000cb4:	b004      	add	sp, #16
 8000cb6:	4770      	bx	lr

08000cb8 <__udivmoddi4>:
 8000cb8:	e92d 47f0 	stmdb	sp!, {r4, r5, r6, r7, r8, r9, sl, lr}
 8000cbc:	9d08      	ldr	r5, [sp, #32]
 8000cbe:	4604      	mov	r4, r0
 8000cc0:	468c      	mov	ip, r1
 8000cc2:	2b00      	cmp	r3, #0
 8000cc4:	f040 8083 	bne.w	8000dce <__udivmoddi4+0x116>
 8000cc8:	428a      	cmp	r2, r1
 8000cca:	4617      	mov	r7, r2
 8000ccc:	d947      	bls.n	8000d5e <__udivmoddi4+0xa6>
 8000cce:	fab2 f282 	clz	r2, r2
 8000cd2:	b142      	cbz	r2, 8000ce6 <__udivmoddi4+0x2e>
 8000cd4:	f1c2 0020 	rsb	r0, r2, #32
 8000cd8:	fa24 f000 	lsr.w	r0, r4, r0
 8000cdc:	4091      	lsls	r1, r2
 8000cde:	4097      	lsls	r7, r2
 8000ce0:	ea40 0c01 	orr.w	ip, r0, r1
 8000ce4:	4094      	lsls	r4, r2
 8000ce6:	ea4f 4817 	mov.w	r8, r7, lsr #16
 8000cea:	0c23      	lsrs	r3, r4, #16
 8000cec:	fbbc f6f8 	udiv	r6, ip, r8
 8000cf0:	fa1f fe87 	uxth.w	lr, r7
 8000cf4:	fb08 c116 	mls	r1, r8, r6, ip
 8000cf8:	ea43 4301 	orr.w	r3, r3, r1, lsl #16
 8000cfc:	fb06 f10e 	mul.w	r1, r6, lr
 8000d00:	4299      	cmp	r1, r3
 8000d02:	d909      	bls.n	8000d18 <__udivmoddi4+0x60>
 8000d04:	18fb      	adds	r3, r7, r3
 8000d06:	f106 30ff 	add.w	r0, r6, #4294967295	; 0xffffffff
 8000d0a:	f080 8119 	bcs.w	8000f40 <__udivmoddi4+0x288>
 8000d0e:	4299      	cmp	r1, r3
 8000d10:	f240 8116 	bls.w	8000f40 <__udivmoddi4+0x288>
 8000d14:	3e02      	subs	r6, #2
 8000d16:	443b      	add	r3, r7
 8000d18:	1a5b      	subs	r3, r3, r1
 8000d1a:	b2a4      	uxth	r4, r4
 8000d1c:	fbb3 f0f8 	udiv	r0, r3, r8
 8000d20:	fb08 3310 	mls	r3, r8, r0, r3
 8000d24:	ea44 4403 	orr.w	r4, r4, r3, lsl #16
 8000d28:	fb00 fe0e 	mul.w	lr, r0, lr
 8000d2c:	45a6      	cmp	lr, r4
 8000d2e:	d909      	bls.n	8000d44 <__udivmoddi4+0x8c>
 8000d30:	193c      	adds	r4, r7, r4
 8000d32:	f100 33ff 	add.w	r3, r0, #4294967295	; 0xffffffff
 8000d36:	f080 8105 	bcs.w	8000f44 <__udivmoddi4+0x28c>
 8000d3a:	45a6      	cmp	lr, r4
 8000d3c:	f240 8102 	bls.w	8000f44 <__udivmoddi4+0x28c>
 8000d40:	3802      	subs	r0, #2
 8000d42:	443c      	add	r4, r7
 8000d44:	ea40 4006 	orr.w	r0, r0, r6, lsl #16
 8000d48:	eba4 040e 	sub.w	r4, r4, lr
 8000d4c:	2600      	movs	r6, #0
 8000d4e:	b11d      	cbz	r5, 8000d58 <__udivmoddi4+0xa0>
 8000d50:	40d4      	lsrs	r4, r2
 8000d52:	2300      	movs	r3, #0
 8000d54:	e9c5 4300 	strd	r4, r3, [r5]
 8000d58:	4631      	mov	r1, r6
 8000d5a:	e8bd 87f0 	ldmia.w	sp!, {r4, r5, r6, r7, r8, r9, sl, pc}
 8000d5e:	b902      	cbnz	r2, 8000d62 <__udivmoddi4+0xaa>
 8000d60:	deff      	udf	#255	; 0xff
 8000d62:	fab2 f282 	clz	r2, r2
 8000d66:	2a00      	cmp	r2, #0
 8000d68:	d150      	bne.n	8000e0c <__udivmoddi4+0x154>
 8000d6a:	1bcb      	subs	r3, r1, r7
 8000d6c:	ea4f 4e17 	mov.w	lr, r7, lsr #16
 8000d70:	fa1f f887 	uxth.w	r8, r7
 8000d74:	2601      	movs	r6, #1
 8000d76:	fbb3 fcfe 	udiv	ip, r3, lr
 8000d7a:	0c21      	lsrs	r1, r4, #16
 8000d7c:	fb0e 331c 	mls	r3, lr, ip, r3
 8000d80:	ea41 4103 	orr.w	r1, r1, r3, lsl #16
 8000d84:	fb08 f30c 	mul.w	r3, r8, ip
 8000d88:	428b      	cmp	r3, r1
 8000d8a:	d907      	bls.n	8000d9c <__udivmoddi4+0xe4>
 8000d8c:	1879      	adds	r1, r7, r1
 8000d8e:	f10c 30ff 	add.w	r0, ip, #4294967295	; 0xffffffff
 8000d92:	d202      	bcs.n	8000d9a <__udivmoddi4+0xe2>
 8000d94:	428b      	cmp	r3, r1
 8000d96:	f200 80e9 	bhi.w	8000f6c <__udivmoddi4+0x2b4>
 8000d9a:	4684      	mov	ip, r0
 8000d9c:	1ac9      	subs	r1, r1, r3
 8000d9e:	b2a3      	uxth	r3, r4
 8000da0:	fbb1 f0fe 	udiv	r0, r1, lr
 8000da4:	fb0e 1110 	mls	r1, lr, r0, r1
 8000da8:	ea43 4401 	orr.w	r4, r3, r1, lsl #16
 8000dac:	fb08 f800 	mul.w	r8, r8, r0
 8000db0:	45a0      	cmp	r8, r4
 8000db2:	d907      	bls.n	8000dc4 <__udivmoddi4+0x10c>
 8000db4:	193c      	adds	r4, r7, r4
 8000db6:	f100 33ff 	add.w	r3, r0, #4294967295	; 0xffffffff
 8000dba:	d202      	bcs.n	8000dc2 <__udivmoddi4+0x10a>
 8000dbc:	45a0      	cmp	r8, r4
 8000dbe:	f200 80d9 	bhi.w	8000f74 <__udivmoddi4+0x2bc>
 8000dc2:	4618      	mov	r0, r3
 8000dc4:	eba4 0408 	sub.w	r4, r4, r8
 8000dc8:	ea40 400c 	orr.w	r0, r0, ip, lsl #16
 8000dcc:	e7bf      	b.n	8000d4e <__udivmoddi4+0x96>
 8000dce:	428b      	cmp	r3, r1
 8000dd0:	d909      	bls.n	8000de6 <__udivmoddi4+0x12e>
 8000dd2:	2d00      	cmp	r5, #0
 8000dd4:	f000 80b1 	beq.w	8000f3a <__udivmoddi4+0x282>
 8000dd8:	2600      	movs	r6, #0
 8000dda:	e9c5 0100 	strd	r0, r1, [r5]
 8000dde:	4630      	mov	r0, r6
 8000de0:	4631      	mov	r1, r6
 8000de2:	e8bd 87f0 	ldmia.w	sp!, {r4, r5, r6, r7, r8, r9, sl, pc}
 8000de6:	fab3 f683 	clz	r6, r3
 8000dea:	2e00      	cmp	r6, #0
 8000dec:	d14a      	bne.n	8000e84 <__udivmoddi4+0x1cc>
 8000dee:	428b      	cmp	r3, r1
 8000df0:	d302      	bcc.n	8000df8 <__udivmoddi4+0x140>
 8000df2:	4282      	cmp	r2, r0
 8000df4:	f200 80b8 	bhi.w	8000f68 <__udivmoddi4+0x2b0>
 8000df8:	1a84      	subs	r4, r0, r2
 8000dfa:	eb61 0103 	sbc.w	r1, r1, r3
 8000dfe:	2001      	movs	r0, #1
 8000e00:	468c      	mov	ip, r1
 8000e02:	2d00      	cmp	r5, #0
 8000e04:	d0a8      	beq.n	8000d58 <__udivmoddi4+0xa0>
 8000e06:	e9c5 4c00 	strd	r4, ip, [r5]
 8000e0a:	e7a5      	b.n	8000d58 <__udivmoddi4+0xa0>
 8000e0c:	f1c2 0320 	rsb	r3, r2, #32
 8000e10:	fa20 f603 	lsr.w	r6, r0, r3
 8000e14:	4097      	lsls	r7, r2
 8000e16:	fa01 f002 	lsl.w	r0, r1, r2
 8000e1a:	ea4f 4e17 	mov.w	lr, r7, lsr #16
 8000e1e:	40d9      	lsrs	r1, r3
 8000e20:	4330      	orrs	r0, r6
 8000e22:	0c03      	lsrs	r3, r0, #16
 8000e24:	fbb1 f6fe 	udiv	r6, r1, lr
 8000e28:	fa1f f887 	uxth.w	r8, r7
 8000e2c:	fb0e 1116 	mls	r1, lr, r6, r1
 8000e30:	ea43 4301 	orr.w	r3, r3, r1, lsl #16
 8000e34:	fb06 f108 	mul.w	r1, r6, r8
 8000e38:	4299      	cmp	r1, r3
 8000e3a:	fa04 f402 	lsl.w	r4, r4, r2
 8000e3e:	d909      	bls.n	8000e54 <__udivmoddi4+0x19c>
 8000e40:	18fb      	adds	r3, r7, r3
 8000e42:	f106 3cff 	add.w	ip, r6, #4294967295	; 0xffffffff
 8000e46:	f080 808d 	bcs.w	8000f64 <__udivmoddi4+0x2ac>
 8000e4a:	4299      	cmp	r1, r3
 8000e4c:	f240 808a 	bls.w	8000f64 <__udivmoddi4+0x2ac>
 8000e50:	3e02      	subs	r6, #2
 8000e52:	443b      	add	r3, r7
 8000e54:	1a5b      	subs	r3, r3, r1
 8000e56:	b281      	uxth	r1, r0
 8000e58:	fbb3 f0fe 	udiv	r0, r3, lr
 8000e5c:	fb0e 3310 	mls	r3, lr, r0, r3
 8000e60:	ea41 4103 	orr.w	r1, r1, r3, lsl #16
 8000e64:	fb00 f308 	mul.w	r3, r0, r8
 8000e68:	428b      	cmp	r3, r1
 8000e6a:	d907      	bls.n	8000e7c <__udivmoddi4+0x1c4>
 8000e6c:	1879      	adds	r1, r7, r1
 8000e6e:	f100 3cff 	add.w	ip, r0, #4294967295	; 0xffffffff
 8000e72:	d273      	bcs.n	8000f5c <__udivmoddi4+0x2a4>
 8000e74:	428b      	cmp	r3, r1
 8000e76:	d971      	bls.n	8000f5c <__udivmoddi4+0x2a4>
 8000e78:	3802      	subs	r0, #2
 8000e7a:	4439      	add	r1, r7
 8000e7c:	1acb      	subs	r3, r1, r3
 8000e7e:	ea40 4606 	orr.w	r6, r0, r6, lsl #16
 8000e82:	e778      	b.n	8000d76 <__udivmoddi4+0xbe>
 8000e84:	f1c6 0c20 	rsb	ip, r6, #32
 8000e88:	fa03 f406 	lsl.w	r4, r3, r6
 8000e8c:	fa22 f30c 	lsr.w	r3, r2, ip
 8000e90:	431c      	orrs	r4, r3
 8000e92:	fa20 f70c 	lsr.w	r7, r0, ip
 8000e96:	fa01 f306 	lsl.w	r3, r1, r6
 8000e9a:	ea4f 4e14 	mov.w	lr, r4, lsr #16
 8000e9e:	fa21 f10c 	lsr.w	r1, r1, ip
 8000ea2:	431f      	orrs	r7, r3
 8000ea4:	0c3b      	lsrs	r3, r7, #16
 8000ea6:	fbb1 f9fe 	udiv	r9, r1, lr
 8000eaa:	fa1f f884 	uxth.w	r8, r4
 8000eae:	fb0e 1119 	mls	r1, lr, r9, r1
 8000eb2:	ea43 4101 	orr.w	r1, r3, r1, lsl #16
 8000eb6:	fb09 fa08 	mul.w	sl, r9, r8
 8000eba:	458a      	cmp	sl, r1
 8000ebc:	fa02 f206 	lsl.w	r2, r2, r6
 8000ec0:	fa00 f306 	lsl.w	r3, r0, r6
 8000ec4:	d908      	bls.n	8000ed8 <__udivmoddi4+0x220>
 8000ec6:	1861      	adds	r1, r4, r1
 8000ec8:	f109 30ff 	add.w	r0, r9, #4294967295	; 0xffffffff
 8000ecc:	d248      	bcs.n	8000f60 <__udivmoddi4+0x2a8>
 8000ece:	458a      	cmp	sl, r1
 8000ed0:	d946      	bls.n	8000f60 <__udivmoddi4+0x2a8>
 8000ed2:	f1a9 0902 	sub.w	r9, r9, #2
 8000ed6:	4421      	add	r1, r4
 8000ed8:	eba1 010a 	sub.w	r1, r1, sl
 8000edc:	b2bf      	uxth	r7, r7
 8000ede:	fbb1 f0fe 	udiv	r0, r1, lr
 8000ee2:	fb0e 1110 	mls	r1, lr, r0, r1
 8000ee6:	ea47 4701 	orr.w	r7, r7, r1, lsl #16
 8000eea:	fb00 f808 	mul.w	r8, r0, r8
 8000eee:	45b8      	cmp	r8, r7
 8000ef0:	d907      	bls.n	8000f02 <__udivmoddi4+0x24a>
 8000ef2:	19e7      	adds	r7, r4, r7
 8000ef4:	f100 31ff 	add.w	r1, r0, #4294967295	; 0xffffffff
 8000ef8:	d22e      	bcs.n	8000f58 <__udivmoddi4+0x2a0>
 8000efa:	45b8      	cmp	r8, r7
 8000efc:	d92c      	bls.n	8000f58 <__udivmoddi4+0x2a0>
 8000efe:	3802      	subs	r0, #2
 8000f00:	4427      	add	r7, r4
 8000f02:	ea40 4009 	orr.w	r0, r0, r9, lsl #16
 8000f06:	eba7 0708 	sub.w	r7, r7, r8
 8000f0a:	fba0 8902 	umull	r8, r9, r0, r2
 8000f0e:	454f      	cmp	r7, r9
 8000f10:	46c6      	mov	lr, r8
 8000f12:	4649      	mov	r1, r9
 8000f14:	d31a      	bcc.n	8000f4c <__udivmoddi4+0x294>
 8000f16:	d017      	beq.n	8000f48 <__udivmoddi4+0x290>
 8000f18:	b15d      	cbz	r5, 8000f32 <__udivmoddi4+0x27a>
 8000f1a:	ebb3 020e 	subs.w	r2, r3, lr
 8000f1e:	eb67 0701 	sbc.w	r7, r7, r1
 8000f22:	fa07 fc0c 	lsl.w	ip, r7, ip
 8000f26:	40f2      	lsrs	r2, r6
 8000f28:	ea4c 0202 	orr.w	r2, ip, r2
 8000f2c:	40f7      	lsrs	r7, r6
 8000f2e:	e9c5 2700 	strd	r2, r7, [r5]
 8000f32:	2600      	movs	r6, #0
 8000f34:	4631      	mov	r1, r6
 8000f36:	e8bd 87f0 	ldmia.w	sp!, {r4, r5, r6, r7, r8, r9, sl, pc}
 8000f3a:	462e      	mov	r6, r5
 8000f3c:	4628      	mov	r0, r5
 8000f3e:	e70b      	b.n	8000d58 <__udivmoddi4+0xa0>
 8000f40:	4606      	mov	r6, r0
 8000f42:	e6e9      	b.n	8000d18 <__udivmoddi4+0x60>
 8000f44:	4618      	mov	r0, r3
 8000f46:	e6fd      	b.n	8000d44 <__udivmoddi4+0x8c>
 8000f48:	4543      	cmp	r3, r8
 8000f4a:	d2e5      	bcs.n	8000f18 <__udivmoddi4+0x260>
 8000f4c:	ebb8 0e02 	subs.w	lr, r8, r2
 8000f50:	eb69 0104 	sbc.w	r1, r9, r4
 8000f54:	3801      	subs	r0, #1
 8000f56:	e7df      	b.n	8000f18 <__udivmoddi4+0x260>
 8000f58:	4608      	mov	r0, r1
 8000f5a:	e7d2      	b.n	8000f02 <__udivmoddi4+0x24a>
 8000f5c:	4660      	mov	r0, ip
 8000f5e:	e78d      	b.n	8000e7c <__udivmoddi4+0x1c4>
 8000f60:	4681      	mov	r9, r0
 8000f62:	e7b9      	b.n	8000ed8 <__udivmoddi4+0x220>
 8000f64:	4666      	mov	r6, ip
 8000f66:	e775      	b.n	8000e54 <__udivmoddi4+0x19c>
 8000f68:	4630      	mov	r0, r6
 8000f6a:	e74a      	b.n	8000e02 <__udivmoddi4+0x14a>
 8000f6c:	f1ac 0c02 	sub.w	ip, ip, #2
 8000f70:	4439      	add	r1, r7
 8000f72:	e713      	b.n	8000d9c <__udivmoddi4+0xe4>
 8000f74:	3802      	subs	r0, #2
 8000f76:	443c      	add	r4, r7
 8000f78:	e724      	b.n	8000dc4 <__udivmoddi4+0x10c>
 8000f7a:	bf00      	nop

08000f7c <__aeabi_idiv0>:
 8000f7c:	4770      	bx	lr
 8000f7e:	bf00      	nop

08000f80 <encoderISR>:
 8000f80:	b510      	push	{r4, lr}
 8000f82:	2120      	movs	r1, #32
 8000f84:	4814      	ldr	r0, [pc, #80]	; (8000fd8 <encoderISR+0x58>)
 8000f86:	f004 fa91 	bl	80054ac <HAL_GPIO_ReadPin>
 8000f8a:	2140      	movs	r1, #64	; 0x40
 8000f8c:	4604      	mov	r4, r0
 8000f8e:	4812      	ldr	r0, [pc, #72]	; (8000fd8 <encoderISR+0x58>)
 8000f90:	f004 fa8c 	bl	80054ac <HAL_GPIO_ReadPin>
 8000f94:	4b11      	ldr	r3, [pc, #68]	; (8000fdc <encoderISR+0x5c>)
 8000f96:	781a      	ldrb	r2, [r3, #0]
 8000f98:	f002 0107 	and.w	r1, r2, #7
 8000f9c:	4a10      	ldr	r2, [pc, #64]	; (8000fe0 <encoderISR+0x60>)
 8000f9e:	ea44 0040 	orr.w	r0, r4, r0, lsl #1
 8000fa2:	eb02 0281 	add.w	r2, r2, r1, lsl #2
 8000fa6:	5c12      	ldrb	r2, [r2, r0]
 8000fa8:	701a      	strb	r2, [r3, #0]
 8000faa:	781a      	ldrb	r2, [r3, #0]
 8000fac:	0612      	lsls	r2, r2, #24
 8000fae:	d507      	bpl.n	8000fc0 <encoderISR+0x40>
 8000fb0:	4a0c      	ldr	r2, [pc, #48]	; (8000fe4 <encoderISR+0x64>)
 8000fb2:	2101      	movs	r1, #1
 8000fb4:	7011      	strb	r1, [r2, #0]
 8000fb6:	490c      	ldr	r1, [pc, #48]	; (8000fe8 <encoderISR+0x68>)
 8000fb8:	880a      	ldrh	r2, [r1, #0]
 8000fba:	3201      	adds	r2, #1
 8000fbc:	b212      	sxth	r2, r2
 8000fbe:	800a      	strh	r2, [r1, #0]
 8000fc0:	781b      	ldrb	r3, [r3, #0]
 8000fc2:	065b      	lsls	r3, r3, #25
 8000fc4:	d507      	bpl.n	8000fd6 <encoderISR+0x56>
 8000fc6:	4b07      	ldr	r3, [pc, #28]	; (8000fe4 <encoderISR+0x64>)
 8000fc8:	2202      	movs	r2, #2
 8000fca:	701a      	strb	r2, [r3, #0]
 8000fcc:	4a06      	ldr	r2, [pc, #24]	; (8000fe8 <encoderISR+0x68>)
 8000fce:	8813      	ldrh	r3, [r2, #0]
 8000fd0:	3b01      	subs	r3, #1
 8000fd2:	b21b      	sxth	r3, r3
 8000fd4:	8013      	strh	r3, [r2, #0]
 8000fd6:	bd10      	pop	{r4, pc}
 8000fd8:	40020000 	.word	0x40020000
 8000fdc:	200005fc 	.word	0x200005fc
 8000fe0:	080092f8 	.word	0x080092f8
 8000fe4:	200005fd 	.word	0x200005fd
 8000fe8:	200006f2 	.word	0x200006f2

08000fec <checkEncoder>:
 8000fec:	4a04      	ldr	r2, [pc, #16]	; (8001000 <checkEncoder+0x14>)
 8000fee:	7813      	ldrb	r3, [r2, #0]
 8000ff0:	4018      	ands	r0, r3
 8000ff2:	d004      	beq.n	8000ffe <checkEncoder+0x12>
 8000ff4:	2300      	movs	r3, #0
 8000ff6:	7013      	strb	r3, [r2, #0]
 8000ff8:	4b02      	ldr	r3, [pc, #8]	; (8001004 <checkEncoder+0x18>)
 8000ffa:	2001      	movs	r0, #1
 8000ffc:	7018      	strb	r0, [r3, #0]
 8000ffe:	4770      	bx	lr
 8001000:	200005fd 	.word	0x200005fd
 8001004:	200006e4 	.word	0x200006e4

08001008 <encoderSpeedISR>:
 8001008:	4a05      	ldr	r2, [pc, #20]	; (8001020 <encoderSpeedISR+0x18>)
 800100a:	4906      	ldr	r1, [pc, #24]	; (8001024 <encoderSpeedISR+0x1c>)
 800100c:	8813      	ldrh	r3, [r2, #0]
 800100e:	b21b      	sxth	r3, r3
 8001010:	2b00      	cmp	r3, #0
 8001012:	bfb8      	it	lt
 8001014:	425b      	neglt	r3, r3
 8001016:	b29b      	uxth	r3, r3
 8001018:	800b      	strh	r3, [r1, #0]
 800101a:	2300      	movs	r3, #0
 800101c:	8013      	strh	r3, [r2, #0]
 800101e:	4770      	bx	lr
 8001020:	200006f2 	.word	0x200006f2
 8001024:	200006f0 	.word	0x200006f0

08001028 <getEncoderVelocity>:
 8001028:	4b01      	ldr	r3, [pc, #4]	; (8001030 <getEncoderVelocity+0x8>)
 800102a:	8818      	ldrh	r0, [r3, #0]
 800102c:	b2c0      	uxtb	r0, r0
 800102e:	4770      	bx	lr
 8001030:	200006f0 	.word	0x200006f0

08001034 <pushButtonISR>:
 8001034:	b510      	push	{r4, lr}
 8001036:	4832      	ldr	r0, [pc, #200]	; (8001100 <pushButtonISR+0xcc>)
 8001038:	4c32      	ldr	r4, [pc, #200]	; (8001104 <pushButtonISR+0xd0>)
 800103a:	2180      	movs	r1, #128	; 0x80
 800103c:	f004 fa36 	bl	80054ac <HAL_GPIO_ReadPin>
 8001040:	7823      	ldrb	r3, [r4, #0]
 8001042:	2800      	cmp	r0, #0
 8001044:	d040      	beq.n	80010c8 <pushButtonISR+0x94>
 8001046:	f043 0301 	orr.w	r3, r3, #1
 800104a:	482f      	ldr	r0, [pc, #188]	; (8001108 <pushButtonISR+0xd4>)
 800104c:	7023      	strb	r3, [r4, #0]
 800104e:	2101      	movs	r1, #1
 8001050:	f004 fa2c 	bl	80054ac <HAL_GPIO_ReadPin>
 8001054:	7863      	ldrb	r3, [r4, #1]
 8001056:	2800      	cmp	r0, #0
 8001058:	d039      	beq.n	80010ce <pushButtonISR+0x9a>
 800105a:	f043 0301 	orr.w	r3, r3, #1
 800105e:	482b      	ldr	r0, [pc, #172]	; (800110c <pushButtonISR+0xd8>)
 8001060:	7063      	strb	r3, [r4, #1]
 8001062:	2120      	movs	r1, #32
 8001064:	f004 fa22 	bl	80054ac <HAL_GPIO_ReadPin>
 8001068:	78a3      	ldrb	r3, [r4, #2]
 800106a:	2800      	cmp	r0, #0
 800106c:	d032      	beq.n	80010d4 <pushButtonISR+0xa0>
 800106e:	f043 0301 	orr.w	r3, r3, #1
 8001072:	4826      	ldr	r0, [pc, #152]	; (800110c <pushButtonISR+0xd8>)
 8001074:	70a3      	strb	r3, [r4, #2]
 8001076:	2110      	movs	r1, #16
 8001078:	f004 fa18 	bl	80054ac <HAL_GPIO_ReadPin>
 800107c:	78e3      	ldrb	r3, [r4, #3]
 800107e:	b360      	cbz	r0, 80010da <pushButtonISR+0xa6>
 8001080:	f043 0301 	orr.w	r3, r3, #1
 8001084:	4922      	ldr	r1, [pc, #136]	; (8001110 <pushButtonISR+0xdc>)
 8001086:	70e3      	strb	r3, [r4, #3]
 8001088:	2300      	movs	r3, #0
 800108a:	5ce2      	ldrb	r2, [r4, r3]
 800108c:	06d2      	lsls	r2, r2, #27
 800108e:	d40d      	bmi.n	80010ac <pushButtonISR+0x78>
 8001090:	680a      	ldr	r2, [r1, #0]
 8001092:	f1a2 000a 	sub.w	r0, r2, #10
 8001096:	2827      	cmp	r0, #39	; 0x27
 8001098:	d822      	bhi.n	80010e0 <pushButtonISR+0xac>
 800109a:	5ce0      	ldrb	r0, [r4, r3]
 800109c:	f040 0002 	orr.w	r0, r0, #2
 80010a0:	54e0      	strb	r0, [r4, r3]
 80010a2:	5ce0      	ldrb	r0, [r4, r3]
 80010a4:	07c0      	lsls	r0, r0, #31
 80010a6:	bf44      	itt	mi
 80010a8:	3201      	addmi	r2, #1
 80010aa:	600a      	strmi	r2, [r1, #0]
 80010ac:	5ce2      	ldrb	r2, [r4, r3]
 80010ae:	f012 0201 	ands.w	r2, r2, #1
 80010b2:	bf08      	it	eq
 80010b4:	54e2      	strbeq	r2, [r4, r3]
 80010b6:	f103 0301 	add.w	r3, r3, #1
 80010ba:	bf08      	it	eq
 80010bc:	600a      	streq	r2, [r1, #0]
 80010be:	2b04      	cmp	r3, #4
 80010c0:	f101 0104 	add.w	r1, r1, #4
 80010c4:	d1e1      	bne.n	800108a <pushButtonISR+0x56>
 80010c6:	bd10      	pop	{r4, pc}
 80010c8:	f003 03fe 	and.w	r3, r3, #254	; 0xfe
 80010cc:	e7bd      	b.n	800104a <pushButtonISR+0x16>
 80010ce:	f003 03fe 	and.w	r3, r3, #254	; 0xfe
 80010d2:	e7c4      	b.n	800105e <pushButtonISR+0x2a>
 80010d4:	f003 03fe 	and.w	r3, r3, #254	; 0xfe
 80010d8:	e7cb      	b.n	8001072 <pushButtonISR+0x3e>
 80010da:	f003 03fe 	and.w	r3, r3, #254	; 0xfe
 80010de:	e7d1      	b.n	8001084 <pushButtonISR+0x50>
 80010e0:	f1a2 0032 	sub.w	r0, r2, #50	; 0x32
 80010e4:	f5b0 7fe1 	cmp.w	r0, #450	; 0x1c2
 80010e8:	d203      	bcs.n	80010f2 <pushButtonISR+0xbe>
 80010ea:	5ce0      	ldrb	r0, [r4, r3]
 80010ec:	f040 0004 	orr.w	r0, r0, #4
 80010f0:	e7d6      	b.n	80010a0 <pushButtonISR+0x6c>
 80010f2:	f5b2 7ffa 	cmp.w	r2, #500	; 0x1f4
 80010f6:	d3d4      	bcc.n	80010a2 <pushButtonISR+0x6e>
 80010f8:	5ce0      	ldrb	r0, [r4, r3]
 80010fa:	f040 0008 	orr.w	r0, r0, #8
 80010fe:	e7cf      	b.n	80010a0 <pushButtonISR+0x6c>
 8001100:	40020000 	.word	0x40020000
 8001104:	200005e8 	.word	0x200005e8
 8001108:	40020400 	.word	0x40020400
 800110c:	40020800 	.word	0x40020800
 8001110:	200005ec 	.word	0x200005ec

08001114 <checkButton>:
 8001114:	4a05      	ldr	r2, [pc, #20]	; (800112c <checkButton+0x18>)
 8001116:	5c13      	ldrb	r3, [r2, r0]
 8001118:	4019      	ands	r1, r3
 800111a:	d004      	beq.n	8001126 <checkButton+0x12>
 800111c:	2310      	movs	r3, #16
 800111e:	5413      	strb	r3, [r2, r0]
 8001120:	4b03      	ldr	r3, [pc, #12]	; (8001130 <checkButton+0x1c>)
 8001122:	2101      	movs	r1, #1
 8001124:	7019      	strb	r1, [r3, #0]
 8001126:	4608      	mov	r0, r1
 8001128:	4770      	bx	lr
 800112a:	bf00      	nop
 800112c:	200005e8 	.word	0x200005e8
 8001130:	200006e4 	.word	0x200006e4

08001134 <refreshScreen>:
 8001134:	4b04      	ldr	r3, [pc, #16]	; (8001148 <refreshScreen+0x14>)
 8001136:	781a      	ldrb	r2, [r3, #0]
 8001138:	f002 00ff 	and.w	r0, r2, #255	; 0xff
 800113c:	b112      	cbz	r2, 8001144 <refreshScreen+0x10>
 800113e:	2200      	movs	r2, #0
 8001140:	701a      	strb	r2, [r3, #0]
 8001142:	2001      	movs	r0, #1
 8001144:	4770      	bx	lr
 8001146:	bf00      	nop
 8001148:	200006e4 	.word	0x200006e4

0800114c <updateStatusLEDs>:
 800114c:	b570      	push	{r4, r5, r6, lr}
 800114e:	4e15      	ldr	r6, [pc, #84]	; (80011a4 <updateStatusLEDs+0x58>)
 8001150:	4d15      	ldr	r5, [pc, #84]	; (80011a8 <updateStatusLEDs+0x5c>)
 8001152:	2400      	movs	r4, #0
 8001154:	7832      	ldrb	r2, [r6, #0]
 8001156:	4122      	asrs	r2, r4
 8001158:	f012 0201 	ands.w	r2, r2, #1
 800115c:	bf18      	it	ne
 800115e:	2201      	movne	r2, #1
 8001160:	2102      	movs	r1, #2
 8001162:	4628      	mov	r0, r5
 8001164:	f004 f9a8 	bl	80054b8 <HAL_GPIO_WritePin>
 8001168:	480f      	ldr	r0, [pc, #60]	; (80011a8 <updateStatusLEDs+0x5c>)
 800116a:	2201      	movs	r2, #1
 800116c:	f44f 6180 	mov.w	r1, #1024	; 0x400
 8001170:	f004 f9a2 	bl	80054b8 <HAL_GPIO_WritePin>
 8001174:	3401      	adds	r4, #1
 8001176:	480c      	ldr	r0, [pc, #48]	; (80011a8 <updateStatusLEDs+0x5c>)
 8001178:	2200      	movs	r2, #0
 800117a:	f44f 6180 	mov.w	r1, #1024	; 0x400
 800117e:	f004 f99b 	bl	80054b8 <HAL_GPIO_WritePin>
 8001182:	2c08      	cmp	r4, #8
 8001184:	d1e6      	bne.n	8001154 <updateStatusLEDs+0x8>
 8001186:	4808      	ldr	r0, [pc, #32]	; (80011a8 <updateStatusLEDs+0x5c>)
 8001188:	2201      	movs	r2, #1
 800118a:	f44f 6100 	mov.w	r1, #2048	; 0x800
 800118e:	f004 f993 	bl	80054b8 <HAL_GPIO_WritePin>
 8001192:	e8bd 4070 	ldmia.w	sp!, {r4, r5, r6, lr}
 8001196:	4804      	ldr	r0, [pc, #16]	; (80011a8 <updateStatusLEDs+0x5c>)
 8001198:	2200      	movs	r2, #0
 800119a:	f44f 6100 	mov.w	r1, #2048	; 0x800
 800119e:	f004 b98b 	b.w	80054b8 <HAL_GPIO_WritePin>
 80011a2:	bf00      	nop
 80011a4:	200006e7 	.word	0x200006e7
 80011a8:	40020400 	.word	0x40020400

080011ac <LCD_SendByte>:
 80011ac:	b507      	push	{r0, r1, r2, lr}
 80011ae:	0189      	lsls	r1, r1, #6
 80011b0:	ea41 1140 	orr.w	r1, r1, r0, lsl #5
 80011b4:	480a      	ldr	r0, [pc, #40]	; (80011e0 <LCD_SendByte+0x34>)
 80011b6:	f002 030f 	and.w	r3, r2, #15
 80011ba:	f041 011f 	orr.w	r1, r1, #31
 80011be:	0912      	lsrs	r2, r2, #4
 80011c0:	f88d 1004 	strb.w	r1, [sp, #4]
 80011c4:	f88d 3005 	strb.w	r3, [sp, #5]
 80011c8:	f88d 2006 	strb.w	r2, [sp, #6]
 80011cc:	f04f 33ff 	mov.w	r3, #4294967295	; 0xffffffff
 80011d0:	2203      	movs	r2, #3
 80011d2:	a901      	add	r1, sp, #4
 80011d4:	6800      	ldr	r0, [r0, #0]
 80011d6:	f004 fcfb 	bl	8005bd0 <HAL_SPI_Transmit>
 80011da:	b003      	add	sp, #12
 80011dc:	f85d fb04 	ldr.w	pc, [sp], #4
 80011e0:	200006f4 	.word	0x200006f4

080011e4 <LCD_SPIInit>:
 80011e4:	4b34      	ldr	r3, [pc, #208]	; (80012b8 <LCD_SPIInit+0xd4>)
 80011e6:	b510      	push	{r4, lr}
 80011e8:	4c34      	ldr	r4, [pc, #208]	; (80012bc <LCD_SPIInit+0xd8>)
 80011ea:	6018      	str	r0, [r3, #0]
 80011ec:	2201      	movs	r2, #1
 80011ee:	4834      	ldr	r0, [pc, #208]	; (80012c0 <LCD_SPIInit+0xdc>)
 80011f0:	f44f 5180 	mov.w	r1, #4096	; 0x1000
 80011f4:	f004 f960 	bl	80054b8 <HAL_GPIO_WritePin>
 80011f8:	2200      	movs	r2, #0
 80011fa:	2110      	movs	r1, #16
 80011fc:	4620      	mov	r0, r4
 80011fe:	f004 f95b 	bl	80054b8 <HAL_GPIO_WritePin>
 8001202:	2005      	movs	r0, #5
 8001204:	f003 fb98 	bl	8004938 <HAL_Delay>
 8001208:	4620      	mov	r0, r4
 800120a:	2201      	movs	r2, #1
 800120c:	2110      	movs	r1, #16
 800120e:	f004 f953 	bl	80054b8 <HAL_GPIO_WritePin>
 8001212:	2100      	movs	r1, #0
 8001214:	4608      	mov	r0, r1
 8001216:	223a      	movs	r2, #58	; 0x3a
 8001218:	f7ff ffc8 	bl	80011ac <LCD_SendByte>
 800121c:	2100      	movs	r1, #0
 800121e:	4608      	mov	r0, r1
 8001220:	2209      	movs	r2, #9
 8001222:	f7ff ffc3 	bl	80011ac <LCD_SendByte>
 8001226:	2100      	movs	r1, #0
 8001228:	4608      	mov	r0, r1
 800122a:	2206      	movs	r2, #6
 800122c:	f7ff ffbe 	bl	80011ac <LCD_SendByte>
 8001230:	2100      	movs	r1, #0
 8001232:	4608      	mov	r0, r1
 8001234:	221e      	movs	r2, #30
 8001236:	f7ff ffb9 	bl	80011ac <LCD_SendByte>
 800123a:	2100      	movs	r1, #0
 800123c:	4608      	mov	r0, r1
 800123e:	2239      	movs	r2, #57	; 0x39
 8001240:	f7ff ffb4 	bl	80011ac <LCD_SendByte>
 8001244:	2100      	movs	r1, #0
 8001246:	4608      	mov	r0, r1
 8001248:	221b      	movs	r2, #27
 800124a:	f7ff ffaf 	bl	80011ac <LCD_SendByte>
 800124e:	2100      	movs	r1, #0
 8001250:	4608      	mov	r0, r1
 8001252:	226e      	movs	r2, #110	; 0x6e
 8001254:	f7ff ffaa 	bl	80011ac <LCD_SendByte>
 8001258:	2100      	movs	r1, #0
 800125a:	4608      	mov	r0, r1
 800125c:	2257      	movs	r2, #87	; 0x57
 800125e:	f7ff ffa5 	bl	80011ac <LCD_SendByte>
 8001262:	2100      	movs	r1, #0
 8001264:	4608      	mov	r0, r1
 8001266:	2272      	movs	r2, #114	; 0x72
 8001268:	f7ff ffa0 	bl	80011ac <LCD_SendByte>
 800126c:	2100      	movs	r1, #0
 800126e:	4608      	mov	r0, r1
 8001270:	2238      	movs	r2, #56	; 0x38
 8001272:	f7ff ff9b 	bl	80011ac <LCD_SendByte>
 8001276:	2100      	movs	r1, #0
 8001278:	4608      	mov	r0, r1
 800127a:	220c      	movs	r2, #12
 800127c:	f7ff ff96 	bl	80011ac <LCD_SendByte>
 8001280:	2100      	movs	r1, #0
 8001282:	4608      	mov	r0, r1
 8001284:	2201      	movs	r2, #1
 8001286:	f7ff ff91 	bl	80011ac <LCD_SendByte>
 800128a:	2100      	movs	r1, #0
 800128c:	4608      	mov	r0, r1
 800128e:	223a      	movs	r2, #58	; 0x3a
 8001290:	f7ff ff8c 	bl	80011ac <LCD_SendByte>
 8001294:	2100      	movs	r1, #0
 8001296:	4608      	mov	r0, r1
 8001298:	2272      	movs	r2, #114	; 0x72
 800129a:	f7ff ff87 	bl	80011ac <LCD_SendByte>
 800129e:	2200      	movs	r2, #0
 80012a0:	4610      	mov	r0, r2
 80012a2:	2101      	movs	r1, #1
 80012a4:	f7ff ff82 	bl	80011ac <LCD_SendByte>
 80012a8:	2100      	movs	r1, #0
 80012aa:	e8bd 4010 	ldmia.w	sp!, {r4, lr}
 80012ae:	2238      	movs	r2, #56	; 0x38
 80012b0:	4608      	mov	r0, r1
 80012b2:	f7ff bf7b 	b.w	80011ac <LCD_SendByte>
 80012b6:	bf00      	nop
 80012b8:	200006f4 	.word	0x200006f4
 80012bc:	40020000 	.word	0x40020000
 80012c0:	40020400 	.word	0x40020400

080012c4 <LCD_Clear>:
 80012c4:	2100      	movs	r1, #0
 80012c6:	2201      	movs	r2, #1
 80012c8:	4608      	mov	r0, r1
 80012ca:	f7ff bf6f 	b.w	80011ac <LCD_SendByte>

080012ce <LCD_SetContrast>:
 80012ce:	2100      	movs	r1, #0
 80012d0:	b510      	push	{r4, lr}
 80012d2:	2239      	movs	r2, #57	; 0x39
 80012d4:	4604      	mov	r4, r0
 80012d6:	4608      	mov	r0, r1
 80012d8:	f7ff ff68 	bl	80011ac <LCD_SendByte>
 80012dc:	2100      	movs	r1, #0
 80012de:	f3c4 1201 	ubfx	r2, r4, #4, #2
 80012e2:	4608      	mov	r0, r1
 80012e4:	f042 0254 	orr.w	r2, r2, #84	; 0x54
 80012e8:	f7ff ff60 	bl	80011ac <LCD_SendByte>
 80012ec:	2100      	movs	r1, #0
 80012ee:	f004 020f 	and.w	r2, r4, #15
 80012f2:	4608      	mov	r0, r1
 80012f4:	f042 0270 	orr.w	r2, r2, #112	; 0x70
 80012f8:	f7ff ff58 	bl	80011ac <LCD_SendByte>
 80012fc:	2100      	movs	r1, #0
 80012fe:	e8bd 4010 	ldmia.w	sp!, {r4, lr}
 8001302:	2238      	movs	r2, #56	; 0x38
 8001304:	4608      	mov	r0, r1
 8001306:	f7ff bf51 	b.w	80011ac <LCD_SendByte>

0800130a <LCD_WriteXY>:
 800130a:	eb00 1141 	add.w	r1, r0, r1, lsl #5
 800130e:	b510      	push	{r4, lr}
 8001310:	4614      	mov	r4, r2
 8001312:	f061 027f 	orn	r2, r1, #127	; 0x7f
 8001316:	2100      	movs	r1, #0
 8001318:	b2d2      	uxtb	r2, r2
 800131a:	4608      	mov	r0, r1
 800131c:	f7ff ff46 	bl	80011ac <LCD_SendByte>
 8001320:	3c01      	subs	r4, #1
 8001322:	f814 2f01 	ldrb.w	r2, [r4, #1]!
 8001326:	b902      	cbnz	r2, 800132a <LCD_WriteXY+0x20>
 8001328:	bd10      	pop	{r4, pc}
 800132a:	2101      	movs	r1, #1
 800132c:	2000      	movs	r0, #0
 800132e:	f7ff ff3d 	bl	80011ac <LCD_SendByte>
 8001332:	e7f6      	b.n	8001322 <LCD_WriteXY+0x18>

08001334 <LCD_LoadCustomChars>:
 8001334:	2100      	movs	r1, #0
 8001336:	b538      	push	{r3, r4, r5, lr}
 8001338:	2248      	movs	r2, #72	; 0x48
 800133a:	4608      	mov	r0, r1
 800133c:	f7ff ff36 	bl	80011ac <LCD_SendByte>
 8001340:	4d06      	ldr	r5, [pc, #24]	; (800135c <LCD_LoadCustomChars+0x28>)
 8001342:	2448      	movs	r4, #72	; 0x48
 8001344:	f815 2b01 	ldrb.w	r2, [r5], #1
 8001348:	2101      	movs	r1, #1
 800134a:	2000      	movs	r0, #0
 800134c:	3c01      	subs	r4, #1
 800134e:	f7ff ff2d 	bl	80011ac <LCD_SendByte>
 8001352:	f014 04ff 	ands.w	r4, r4, #255	; 0xff
 8001356:	d1f5      	bne.n	8001344 <LCD_LoadCustomChars+0x10>
 8001358:	bd38      	pop	{r3, r4, r5, pc}
 800135a:	bf00      	nop
 800135c:	08009314 	.word	0x08009314

08001360 <LCD_BlinkingBracketISR>:
 8001360:	4b08      	ldr	r3, [pc, #32]	; (8001384 <LCD_BlinkingBracketISR+0x24>)
 8001362:	4909      	ldr	r1, [pc, #36]	; (8001388 <LCD_BlinkingBracketISR+0x28>)
 8001364:	781a      	ldrb	r2, [r3, #0]
 8001366:	f082 0201 	eor.w	r2, r2, #1
 800136a:	701a      	strb	r2, [r3, #0]
 800136c:	781a      	ldrb	r2, [r3, #0]
 800136e:	4b07      	ldr	r3, [pc, #28]	; (800138c <LCD_BlinkingBracketISR+0x2c>)
 8001370:	b122      	cbz	r2, 800137c <LCD_BlinkingBracketISR+0x1c>
 8001372:	22fa      	movs	r2, #250	; 0xfa
 8001374:	700a      	strb	r2, [r1, #0]
 8001376:	22fc      	movs	r2, #252	; 0xfc
 8001378:	701a      	strb	r2, [r3, #0]
 800137a:	4770      	bx	lr
 800137c:	2220      	movs	r2, #32
 800137e:	700a      	strb	r2, [r1, #0]
 8001380:	e7fa      	b.n	8001378 <LCD_BlinkingBracketISR+0x18>
 8001382:	bf00      	nop
 8001384:	200006ee 	.word	0x200006ee
 8001388:	200006e5 	.word	0x200006e5
 800138c:	200006e6 	.word	0x200006e6

08001390 <SystemClock_Config>:
 8001390:	b530      	push	{r4, r5, lr}
 8001392:	b095      	sub	sp, #84	; 0x54
 8001394:	2210      	movs	r2, #16
 8001396:	2100      	movs	r1, #0
 8001398:	a80a      	add	r0, sp, #40	; 0x28
 800139a:	f005 f869 	bl	8006470 <memset>
 800139e:	2214      	movs	r2, #20
 80013a0:	2100      	movs	r1, #0
 80013a2:	a803      	add	r0, sp, #12
 80013a4:	f005 f864 	bl	8006470 <memset>
 80013a8:	2500      	movs	r5, #0
 80013aa:	4b1c      	ldr	r3, [pc, #112]	; (800141c <SystemClock_Config+0x8c>)
 80013ac:	9501      	str	r5, [sp, #4]
 80013ae:	6c1a      	ldr	r2, [r3, #64]	; 0x40
 80013b0:	f042 5280 	orr.w	r2, r2, #268435456	; 0x10000000
 80013b4:	641a      	str	r2, [r3, #64]	; 0x40
 80013b6:	6c1b      	ldr	r3, [r3, #64]	; 0x40
 80013b8:	f003 5380 	and.w	r3, r3, #268435456	; 0x10000000
 80013bc:	9301      	str	r3, [sp, #4]
 80013be:	9b01      	ldr	r3, [sp, #4]
 80013c0:	4b17      	ldr	r3, [pc, #92]	; (8001420 <SystemClock_Config+0x90>)
 80013c2:	9502      	str	r5, [sp, #8]
 80013c4:	681a      	ldr	r2, [r3, #0]
 80013c6:	f442 4280 	orr.w	r2, r2, #16384	; 0x4000
 80013ca:	601a      	str	r2, [r3, #0]
 80013cc:	681b      	ldr	r3, [r3, #0]
 80013ce:	f403 4380 	and.w	r3, r3, #16384	; 0x4000
 80013d2:	9302      	str	r3, [sp, #8]
 80013d4:	2201      	movs	r2, #1
 80013d6:	9b02      	ldr	r3, [sp, #8]
 80013d8:	f44f 3380 	mov.w	r3, #65536	; 0x10000
 80013dc:	2402      	movs	r4, #2
 80013de:	e9cd 2308 	strd	r2, r3, [sp, #32]
 80013e2:	f44f 0380 	mov.w	r3, #4194304	; 0x400000
 80013e6:	e9cd 430e 	strd	r4, r3, [sp, #56]	; 0x38
 80013ea:	2108      	movs	r1, #8
 80013ec:	2340      	movs	r3, #64	; 0x40
 80013ee:	e9cd 1310 	strd	r1, r3, [sp, #64]	; 0x40
 80013f2:	a808      	add	r0, sp, #32
 80013f4:	2304      	movs	r3, #4
 80013f6:	9313      	str	r3, [sp, #76]	; 0x4c
 80013f8:	9412      	str	r4, [sp, #72]	; 0x48
 80013fa:	f004 f89f 	bl	800553c <HAL_RCC_OscConfig>
 80013fe:	230f      	movs	r3, #15
 8001400:	e9cd 3403 	strd	r3, r4, [sp, #12]
 8001404:	4621      	mov	r1, r4
 8001406:	f44f 53c0 	mov.w	r3, #6144	; 0x1800
 800140a:	a803      	add	r0, sp, #12
 800140c:	e9cd 3306 	strd	r3, r3, [sp, #24]
 8001410:	9505      	str	r5, [sp, #20]
 8001412:	f004 fa65 	bl	80058e0 <HAL_RCC_ClockConfig>
 8001416:	b015      	add	sp, #84	; 0x54
 8001418:	bd30      	pop	{r4, r5, pc}
 800141a:	bf00      	nop
 800141c:	40023800 	.word	0x40023800
 8001420:	40007000 	.word	0x40007000

08001424 <main>:
 8001424:	e92d 4ff0 	stmdb	sp!, {r4, r5, r6, r7, r8, r9, sl, fp, lr}
 8001428:	b097      	sub	sp, #92	; 0x5c
 800142a:	2400      	movs	r4, #0
 800142c:	4dcb      	ldr	r5, [pc, #812]	; (800175c <main+0x338>)
 800142e:	4ecc      	ldr	r6, [pc, #816]	; (8001760 <main+0x33c>)
 8001430:	f8df 8354 	ldr.w	r8, [pc, #852]	; 8001788 <main+0x364>
 8001434:	f003 fa54 	bl	80048e0 <HAL_Init>
 8001438:	f7ff ffaa 	bl	8001390 <SystemClock_Config>
 800143c:	f004 f856 	bl	80054ec <HAL_PWR_EnableBkUpAccess>
 8001440:	9402      	str	r4, [sp, #8]
 8001442:	6b2b      	ldr	r3, [r5, #48]	; 0x30
 8001444:	f443 2380 	orr.w	r3, r3, #262144	; 0x40000
 8001448:	632b      	str	r3, [r5, #48]	; 0x30
 800144a:	6b2b      	ldr	r3, [r5, #48]	; 0x30
 800144c:	f403 2380 	and.w	r3, r3, #262144	; 0x40000
 8001450:	9302      	str	r3, [sp, #8]
 8001452:	9b02      	ldr	r3, [sp, #8]
 8001454:	f004 f858 	bl	8005508 <HAL_PWREx_EnableBkUpReg>
 8001458:	2214      	movs	r2, #20
 800145a:	4621      	mov	r1, r4
 800145c:	a80f      	add	r0, sp, #60	; 0x3c
 800145e:	f005 f807 	bl	8006470 <memset>
 8001462:	9404      	str	r4, [sp, #16]
 8001464:	6b2b      	ldr	r3, [r5, #48]	; 0x30
 8001466:	48bf      	ldr	r0, [pc, #764]	; (8001764 <main+0x340>)
 8001468:	f043 0304 	orr.w	r3, r3, #4
 800146c:	632b      	str	r3, [r5, #48]	; 0x30
 800146e:	6b2b      	ldr	r3, [r5, #48]	; 0x30
 8001470:	f003 0304 	and.w	r3, r3, #4
 8001474:	9304      	str	r3, [sp, #16]
 8001476:	9b04      	ldr	r3, [sp, #16]
 8001478:	9405      	str	r4, [sp, #20]
 800147a:	6b2b      	ldr	r3, [r5, #48]	; 0x30
 800147c:	f043 0380 	orr.w	r3, r3, #128	; 0x80
 8001480:	632b      	str	r3, [r5, #48]	; 0x30
 8001482:	6b2b      	ldr	r3, [r5, #48]	; 0x30
 8001484:	f003 0380 	and.w	r3, r3, #128	; 0x80
 8001488:	9305      	str	r3, [sp, #20]
 800148a:	9b05      	ldr	r3, [sp, #20]
 800148c:	9406      	str	r4, [sp, #24]
 800148e:	6b2b      	ldr	r3, [r5, #48]	; 0x30
 8001490:	f043 0301 	orr.w	r3, r3, #1
 8001494:	632b      	str	r3, [r5, #48]	; 0x30
 8001496:	6b2b      	ldr	r3, [r5, #48]	; 0x30
 8001498:	f003 0301 	and.w	r3, r3, #1
 800149c:	9306      	str	r3, [sp, #24]
 800149e:	9b06      	ldr	r3, [sp, #24]
 80014a0:	9407      	str	r4, [sp, #28]
 80014a2:	6b2b      	ldr	r3, [r5, #48]	; 0x30
 80014a4:	f043 0302 	orr.w	r3, r3, #2
 80014a8:	632b      	str	r3, [r5, #48]	; 0x30
 80014aa:	6b2b      	ldr	r3, [r5, #48]	; 0x30
 80014ac:	f003 0302 	and.w	r3, r3, #2
 80014b0:	9307      	str	r3, [sp, #28]
 80014b2:	9b07      	ldr	r3, [sp, #28]
 80014b4:	9408      	str	r4, [sp, #32]
 80014b6:	6b2b      	ldr	r3, [r5, #48]	; 0x30
 80014b8:	f043 0308 	orr.w	r3, r3, #8
 80014bc:	632b      	str	r3, [r5, #48]	; 0x30
 80014be:	6b2b      	ldr	r3, [r5, #48]	; 0x30
 80014c0:	f003 0308 	and.w	r3, r3, #8
 80014c4:	9308      	str	r3, [sp, #32]
 80014c6:	2201      	movs	r2, #1
 80014c8:	f247 010f 	movw	r1, #28687	; 0x700f
 80014cc:	9b08      	ldr	r3, [sp, #32]
 80014ce:	f003 fff3 	bl	80054b8 <HAL_GPIO_WritePin>
 80014d2:	48a5      	ldr	r0, [pc, #660]	; (8001768 <main+0x344>)
 80014d4:	4622      	mov	r2, r4
 80014d6:	f44f 61e3 	mov.w	r1, #1816	; 0x718
 80014da:	f003 ffed 	bl	80054b8 <HAL_GPIO_WritePin>
 80014de:	48a3      	ldr	r0, [pc, #652]	; (800176c <main+0x348>)
 80014e0:	4622      	mov	r2, r4
 80014e2:	f641 4106 	movw	r1, #7174	; 0x1c06
 80014e6:	f003 ffe7 	bl	80054b8 <HAL_GPIO_WritePin>
 80014ea:	489e      	ldr	r0, [pc, #632]	; (8001764 <main+0x340>)
 80014ec:	4622      	mov	r2, r4
 80014ee:	f44f 7170 	mov.w	r1, #960	; 0x3c0
 80014f2:	f003 ffe1 	bl	80054b8 <HAL_GPIO_WritePin>
 80014f6:	489e      	ldr	r0, [pc, #632]	; (8001770 <main+0x34c>)
 80014f8:	2201      	movs	r2, #1
 80014fa:	2104      	movs	r1, #4
 80014fc:	f003 ffdc 	bl	80054b8 <HAL_GPIO_WritePin>
 8001500:	489a      	ldr	r0, [pc, #616]	; (800176c <main+0x348>)
 8001502:	2201      	movs	r2, #1
 8001504:	21f0      	movs	r1, #240	; 0xf0
 8001506:	2701      	movs	r7, #1
 8001508:	f003 ffd6 	bl	80054b8 <HAL_GPIO_WritePin>
 800150c:	f247 020f 	movw	r2, #28687	; 0x700f
 8001510:	2311      	movs	r3, #17
 8001512:	4894      	ldr	r0, [pc, #592]	; (8001764 <main+0x340>)
 8001514:	a90f      	add	r1, sp, #60	; 0x3c
 8001516:	e9cd 230f 	strd	r2, r3, [sp, #60]	; 0x3c
 800151a:	e9cd 7411 	strd	r7, r4, [sp, #68]	; 0x44
 800151e:	f003 feeb 	bl	80052f8 <HAL_GPIO_Init>
 8001522:	2303      	movs	r3, #3
 8001524:	f44f 4100 	mov.w	r1, #32768	; 0x8000
 8001528:	e9cd 130f 	strd	r1, r3, [sp, #60]	; 0x3c
 800152c:	488d      	ldr	r0, [pc, #564]	; (8001764 <main+0x340>)
 800152e:	9411      	str	r4, [sp, #68]	; 0x44
 8001530:	a90f      	add	r1, sp, #60	; 0x3c
 8001532:	f003 fee1 	bl	80052f8 <HAL_GPIO_Init>
 8001536:	f248 0307 	movw	r3, #32775	; 0x8007
 800153a:	488b      	ldr	r0, [pc, #556]	; (8001768 <main+0x344>)
 800153c:	9411      	str	r4, [sp, #68]	; 0x44
 800153e:	a90f      	add	r1, sp, #60	; 0x3c
 8001540:	e9cd 360f 	strd	r3, r6, [sp, #60]	; 0x3c
 8001544:	f003 fed8 	bl	80052f8 <HAL_GPIO_Init>
 8001548:	f44f 63e3 	mov.w	r3, #1816	; 0x718
 800154c:	4886      	ldr	r0, [pc, #536]	; (8001768 <main+0x344>)
 800154e:	a90f      	add	r1, sp, #60	; 0x3c
 8001550:	e9cd 370f 	strd	r3, r7, [sp, #60]	; 0x3c
 8001554:	e9cd 4411 	strd	r4, r4, [sp, #68]	; 0x44
 8001558:	f003 fece 	bl	80052f8 <HAL_GPIO_Init>
 800155c:	23e0      	movs	r3, #224	; 0xe0
 800155e:	4882      	ldr	r0, [pc, #520]	; (8001768 <main+0x344>)
 8001560:	9411      	str	r4, [sp, #68]	; 0x44
 8001562:	a90f      	add	r1, sp, #60	; 0x3c
 8001564:	e9cd 340f 	strd	r3, r4, [sp, #60]	; 0x3c
 8001568:	f003 fec6 	bl	80052f8 <HAL_GPIO_Init>
 800156c:	2330      	movs	r3, #48	; 0x30
 800156e:	487d      	ldr	r0, [pc, #500]	; (8001764 <main+0x340>)
 8001570:	9411      	str	r4, [sp, #68]	; 0x44
 8001572:	a90f      	add	r1, sp, #60	; 0x3c
 8001574:	e9cd 340f 	strd	r3, r4, [sp, #60]	; 0x3c
 8001578:	f003 febe 	bl	80052f8 <HAL_GPIO_Init>
 800157c:	487b      	ldr	r0, [pc, #492]	; (800176c <main+0x348>)
 800157e:	9411      	str	r4, [sp, #68]	; 0x44
 8001580:	a90f      	add	r1, sp, #60	; 0x3c
 8001582:	e9cd 740f 	strd	r7, r4, [sp, #60]	; 0x3c
 8001586:	f003 feb7 	bl	80052f8 <HAL_GPIO_Init>
 800158a:	f641 4306 	movw	r3, #7174	; 0x1c06
 800158e:	4877      	ldr	r0, [pc, #476]	; (800176c <main+0x348>)
 8001590:	a90f      	add	r1, sp, #60	; 0x3c
 8001592:	e9cd 370f 	strd	r3, r7, [sp, #60]	; 0x3c
 8001596:	e9cd 4411 	strd	r4, r4, [sp, #68]	; 0x44
 800159a:	f003 fead 	bl	80052f8 <HAL_GPIO_Init>
 800159e:	f44f 7370 	mov.w	r3, #960	; 0x3c0
 80015a2:	4870      	ldr	r0, [pc, #448]	; (8001764 <main+0x340>)
 80015a4:	a90f      	add	r1, sp, #60	; 0x3c
 80015a6:	e9cd 370f 	strd	r3, r7, [sp, #60]	; 0x3c
 80015aa:	e9cd 4411 	strd	r4, r4, [sp, #68]	; 0x44
 80015ae:	f003 fea3 	bl	80052f8 <HAL_GPIO_Init>
 80015b2:	f44f 6340 	mov.w	r3, #3072	; 0xc00
 80015b6:	486b      	ldr	r0, [pc, #428]	; (8001764 <main+0x340>)
 80015b8:	9411      	str	r4, [sp, #68]	; 0x44
 80015ba:	a90f      	add	r1, sp, #60	; 0x3c
 80015bc:	e9cd 360f 	strd	r3, r6, [sp, #60]	; 0x3c
 80015c0:	f04f 0904 	mov.w	r9, #4
 80015c4:	f003 fe98 	bl	80052f8 <HAL_GPIO_Init>
 80015c8:	2311      	movs	r3, #17
 80015ca:	4869      	ldr	r0, [pc, #420]	; (8001770 <main+0x34c>)
 80015cc:	4e69      	ldr	r6, [pc, #420]	; (8001774 <main+0x350>)
 80015ce:	a90f      	add	r1, sp, #60	; 0x3c
 80015d0:	e9cd 930f 	strd	r9, r3, [sp, #60]	; 0x3c
 80015d4:	e9cd 7411 	strd	r7, r4, [sp, #68]	; 0x44
 80015d8:	f003 fe8e 	bl	80052f8 <HAL_GPIO_Init>
 80015dc:	2311      	movs	r3, #17
 80015de:	20f0      	movs	r0, #240	; 0xf0
 80015e0:	e9cd 030f 	strd	r0, r3, [sp, #60]	; 0x3c
 80015e4:	a90f      	add	r1, sp, #60	; 0x3c
 80015e6:	4861      	ldr	r0, [pc, #388]	; (800176c <main+0x348>)
 80015e8:	e9cd 7411 	strd	r7, r4, [sp, #68]	; 0x44
 80015ec:	f003 fe84 	bl	80052f8 <HAL_GPIO_Init>
 80015f0:	4622      	mov	r2, r4
 80015f2:	4621      	mov	r1, r4
 80015f4:	2006      	movs	r0, #6
 80015f6:	f003 fc87 	bl	8004f08 <HAL_NVIC_SetPriority>
 80015fa:	2006      	movs	r0, #6
 80015fc:	f003 fcb6 	bl	8004f6c <HAL_NVIC_EnableIRQ>
 8001600:	4622      	mov	r2, r4
 8001602:	4621      	mov	r1, r4
 8001604:	2007      	movs	r0, #7
 8001606:	f003 fc7f 	bl	8004f08 <HAL_NVIC_SetPriority>
 800160a:	2007      	movs	r0, #7
 800160c:	f003 fcae 	bl	8004f6c <HAL_NVIC_EnableIRQ>
 8001610:	4622      	mov	r2, r4
 8001612:	4621      	mov	r1, r4
 8001614:	2008      	movs	r0, #8
 8001616:	f003 fc77 	bl	8004f08 <HAL_NVIC_SetPriority>
 800161a:	2008      	movs	r0, #8
 800161c:	f003 fca6 	bl	8004f6c <HAL_NVIC_EnableIRQ>
 8001620:	4622      	mov	r2, r4
 8001622:	4621      	mov	r1, r4
 8001624:	2028      	movs	r0, #40	; 0x28
 8001626:	f003 fc6f 	bl	8004f08 <HAL_NVIC_SetPriority>
 800162a:	2028      	movs	r0, #40	; 0x28
 800162c:	f003 fc9e 	bl	8004f6c <HAL_NVIC_EnableIRQ>
 8001630:	9403      	str	r4, [sp, #12]
 8001632:	6b2b      	ldr	r3, [r5, #48]	; 0x30
 8001634:	f443 0380 	orr.w	r3, r3, #4194304	; 0x400000
 8001638:	632b      	str	r3, [r5, #48]	; 0x30
 800163a:	6b2b      	ldr	r3, [r5, #48]	; 0x30
 800163c:	4d4e      	ldr	r5, [pc, #312]	; (8001778 <main+0x354>)
 800163e:	f403 0380 	and.w	r3, r3, #4194304	; 0x400000
 8001642:	4622      	mov	r2, r4
 8001644:	2102      	movs	r1, #2
 8001646:	9303      	str	r3, [sp, #12]
 8001648:	2038      	movs	r0, #56	; 0x38
 800164a:	9b03      	ldr	r3, [sp, #12]
 800164c:	f003 fc5c 	bl	8004f08 <HAL_NVIC_SetPriority>
 8001650:	2038      	movs	r0, #56	; 0x38
 8001652:	f003 fc8b 	bl	8004f6c <HAL_NVIC_EnableIRQ>
 8001656:	f44f 7382 	mov.w	r3, #260	; 0x104
 800165a:	f44f 7c00 	mov.w	ip, #512	; 0x200
 800165e:	e9c6 5300 	strd	r5, r3, [r6]
 8001662:	2318      	movs	r3, #24
 8001664:	e9c6 c306 	strd	ip, r3, [r6, #24]
 8001668:	f04f 0b10 	mov.w	fp, #16
 800166c:	2380      	movs	r3, #128	; 0x80
 800166e:	f04f 0a0a 	mov.w	sl, #10
 8001672:	4630      	mov	r0, r6
 8001674:	e9c6 3408 	strd	r3, r4, [r6, #32]
 8001678:	f8c6 a02c 	str.w	sl, [r6, #44]	; 0x2c
 800167c:	e9c6 4402 	strd	r4, r4, [r6, #8]
 8001680:	e9c6 4404 	strd	r4, r4, [r6, #16]
 8001684:	62b4      	str	r4, [r6, #40]	; 0x28
 8001686:	f004 fa47 	bl	8005b18 <HAL_SPI_Init>
 800168a:	465a      	mov	r2, fp
 800168c:	4621      	mov	r1, r4
 800168e:	a80b      	add	r0, sp, #44	; 0x2c
 8001690:	f004 feee 	bl	8006470 <memset>
 8001694:	221c      	movs	r2, #28
 8001696:	4621      	mov	r1, r4
 8001698:	a80f      	add	r0, sp, #60	; 0x3c
 800169a:	e9cd 4409 	strd	r4, r4, [sp, #36]	; 0x24
 800169e:	f004 fee7 	bl	8006470 <memset>
 80016a2:	f04f 4e80 	mov.w	lr, #1073741824	; 0x40000000
 80016a6:	f44f 63c8 	mov.w	r3, #1600	; 0x640
 80016aa:	e9c8 e300 	strd	lr, r3, [r8]
 80016ae:	f242 7310 	movw	r3, #10000	; 0x2710
 80016b2:	e9c8 3403 	strd	r3, r4, [r8, #12]
 80016b6:	4640      	mov	r0, r8
 80016b8:	2380      	movs	r3, #128	; 0x80
 80016ba:	f44f 5580 	mov.w	r5, #4096	; 0x1000
 80016be:	f8c8 3018 	str.w	r3, [r8, #24]
 80016c2:	f8c8 4008 	str.w	r4, [r8, #8]
 80016c6:	f004 fd07 	bl	80060d8 <HAL_TIM_Base_Init>
 80016ca:	a90b      	add	r1, sp, #44	; 0x2c
 80016cc:	4640      	mov	r0, r8
 80016ce:	950b      	str	r5, [sp, #44]	; 0x2c
 80016d0:	f004 fdc1 	bl	8006256 <HAL_TIM_ConfigClockSource>
 80016d4:	4640      	mov	r0, r8
 80016d6:	f004 fd2b 	bl	8006130 <HAL_TIM_OC_Init>
 80016da:	2320      	movs	r3, #32
 80016dc:	a909      	add	r1, sp, #36	; 0x24
 80016de:	4640      	mov	r0, r8
 80016e0:	e9cd 3409 	strd	r3, r4, [sp, #36]	; 0x24
 80016e4:	f004 fe4c 	bl	8006380 <HAL_TIMEx_MasterConfigSynchronization>
 80016e8:	464a      	mov	r2, r9
 80016ea:	a90f      	add	r1, sp, #60	; 0x3c
 80016ec:	4640      	mov	r0, r8
 80016ee:	e9cd 440f 	strd	r4, r4, [sp, #60]	; 0x3c
 80016f2:	9411      	str	r4, [sp, #68]	; 0x44
 80016f4:	9413      	str	r4, [sp, #76]	; 0x4c
 80016f6:	f004 fd7d 	bl	80061f4 <HAL_TIM_OC_ConfigChannel>
 80016fa:	465a      	mov	r2, fp
 80016fc:	4621      	mov	r1, r4
 80016fe:	a80f      	add	r0, sp, #60	; 0x3c
 8001700:	f004 feb6 	bl	8006470 <memset>
 8001704:	f8df 9084 	ldr.w	r9, [pc, #132]	; 800178c <main+0x368>
 8001708:	4b1c      	ldr	r3, [pc, #112]	; (800177c <main+0x358>)
 800170a:	f8c9 4008 	str.w	r4, [r9, #8]
 800170e:	e9c9 3a00 	strd	r3, sl, [r9]
 8001712:	4648      	mov	r0, r9
 8001714:	f44f 637a 	mov.w	r3, #4000	; 0xfa0
 8001718:	e9c9 3403 	strd	r3, r4, [r9, #12]
 800171c:	e9cd 440b 	strd	r4, r4, [sp, #44]	; 0x2c
 8001720:	e9c9 4405 	strd	r4, r4, [r9, #20]
 8001724:	f004 fcd8 	bl	80060d8 <HAL_TIM_Base_Init>
 8001728:	a90f      	add	r1, sp, #60	; 0x3c
 800172a:	4648      	mov	r0, r9
 800172c:	950f      	str	r5, [sp, #60]	; 0x3c
 800172e:	f004 fd92 	bl	8006256 <HAL_TIM_ConfigClockSource>
 8001732:	a90b      	add	r1, sp, #44	; 0x2c
 8001734:	4648      	mov	r0, r9
 8001736:	e9cd 440b 	strd	r4, r4, [sp, #44]	; 0x2c
 800173a:	f004 fe21 	bl	8006380 <HAL_TIMEx_MasterConfigSynchronization>
 800173e:	465a      	mov	r2, fp
 8001740:	4621      	mov	r1, r4
 8001742:	a80f      	add	r0, sp, #60	; 0x3c
 8001744:	f004 fe94 	bl	8006470 <memset>
 8001748:	4b0d      	ldr	r3, [pc, #52]	; (8001780 <main+0x35c>)
 800174a:	4a0e      	ldr	r2, [pc, #56]	; (8001784 <main+0x360>)
 800174c:	609c      	str	r4, [r3, #8]
 800174e:	e9c3 2b00 	strd	r2, fp, [r3]
 8001752:	f44f 727a 	mov.w	r2, #1000	; 0x3e8
 8001756:	e9c3 2403 	strd	r2, r4, [r3, #12]
 800175a:	e019      	b.n	8001790 <main+0x36c>
 800175c:	40023800 	.word	0x40023800
 8001760:	10110000 	.word	0x10110000
 8001764:	40020800 	.word	0x40020800
 8001768:	40020000 	.word	0x40020000
 800176c:	40020400 	.word	0x40020400
 8001770:	40020c00 	.word	0x40020c00
 8001774:	200006f8 	.word	0x200006f8
 8001778:	40003800 	.word	0x40003800
 800177c:	40010000 	.word	0x40010000
 8001780:	20000798 	.word	0x20000798
 8001784:	40000400 	.word	0x40000400
 8001788:	200008d0 	.word	0x200008d0
 800178c:	20000888 	.word	0x20000888
 8001790:	4618      	mov	r0, r3
 8001792:	2280      	movs	r2, #128	; 0x80
 8001794:	619a      	str	r2, [r3, #24]
 8001796:	e9cd 440b 	strd	r4, r4, [sp, #44]	; 0x2c
 800179a:	f004 fc9d 	bl	80060d8 <HAL_TIM_Base_Init>
 800179e:	4b63      	ldr	r3, [pc, #396]	; (800192c <main+0x508>)
 80017a0:	950f      	str	r5, [sp, #60]	; 0x3c
 80017a2:	a90f      	add	r1, sp, #60	; 0x3c
 80017a4:	4618      	mov	r0, r3
 80017a6:	f004 fd56 	bl	8006256 <HAL_TIM_ConfigClockSource>
 80017aa:	4b60      	ldr	r3, [pc, #384]	; (800192c <main+0x508>)
 80017ac:	f8df a1a4 	ldr.w	sl, [pc, #420]	; 8001954 <main+0x530>
 80017b0:	4618      	mov	r0, r3
 80017b2:	a90b      	add	r1, sp, #44	; 0x2c
 80017b4:	e9cd 440b 	strd	r4, r4, [sp, #44]	; 0x2c
 80017b8:	f004 fde2 	bl	8006380 <HAL_TIMEx_MasterConfigSynchronization>
 80017bc:	465a      	mov	r2, fp
 80017be:	4621      	mov	r1, r4
 80017c0:	a80f      	add	r0, sp, #60	; 0x3c
 80017c2:	f004 fe55 	bl	8006470 <memset>
 80017c6:	4a5a      	ldr	r2, [pc, #360]	; (8001930 <main+0x50c>)
 80017c8:	f8ca 4008 	str.w	r4, [sl, #8]
 80017cc:	f242 7310 	movw	r3, #10000	; 0x2710
 80017d0:	e9ca 3403 	strd	r3, r4, [sl, #12]
 80017d4:	4650      	mov	r0, sl
 80017d6:	2380      	movs	r3, #128	; 0x80
 80017d8:	e9ca 2b00 	strd	r2, fp, [sl]
 80017dc:	f8ca 3018 	str.w	r3, [sl, #24]
 80017e0:	e9cd 440b 	strd	r4, r4, [sp, #44]	; 0x2c
 80017e4:	f004 fc78 	bl	80060d8 <HAL_TIM_Base_Init>
 80017e8:	a90f      	add	r1, sp, #60	; 0x3c
 80017ea:	4650      	mov	r0, sl
 80017ec:	950f      	str	r5, [sp, #60]	; 0x3c
 80017ee:	f004 fd32 	bl	8006256 <HAL_TIM_ConfigClockSource>
 80017f2:	a90b      	add	r1, sp, #44	; 0x2c
 80017f4:	4650      	mov	r0, sl
 80017f6:	e9cd 440b 	strd	r4, r4, [sp, #44]	; 0x2c
 80017fa:	f004 fdc1 	bl	8006380 <HAL_TIMEx_MasterConfigSynchronization>
 80017fe:	465a      	mov	r2, fp
 8001800:	4621      	mov	r1, r4
 8001802:	a80f      	add	r0, sp, #60	; 0x3c
 8001804:	f004 fe34 	bl	8006470 <memset>
 8001808:	4d4a      	ldr	r5, [pc, #296]	; (8001934 <main+0x510>)
 800180a:	4a4b      	ldr	r2, [pc, #300]	; (8001938 <main+0x514>)
 800180c:	60ac      	str	r4, [r5, #8]
 800180e:	e9c5 2400 	strd	r2, r4, [r5]
 8001812:	f04f 5380 	mov.w	r3, #268435456	; 0x10000000
 8001816:	f04f 62c0 	mov.w	r2, #100663296	; 0x6000000
 800181a:	e9c5 230a 	strd	r2, r3, [r5, #40]	; 0x28
 800181e:	4628      	mov	r0, r5
 8001820:	2303      	movs	r3, #3
 8001822:	61eb      	str	r3, [r5, #28]
 8001824:	612f      	str	r7, [r5, #16]
 8001826:	762c      	strb	r4, [r5, #24]
 8001828:	f885 4020 	strb.w	r4, [r5, #32]
 800182c:	60ec      	str	r4, [r5, #12]
 800182e:	f885 7030 	strb.w	r7, [r5, #48]	; 0x30
 8001832:	616c      	str	r4, [r5, #20]
 8001834:	f003 f894 	bl	8004960 <HAL_ADC_Init>
 8001838:	2207      	movs	r2, #7
 800183a:	a90f      	add	r1, sp, #60	; 0x3c
 800183c:	4628      	mov	r0, r5
 800183e:	9211      	str	r2, [sp, #68]	; 0x44
 8001840:	e9cd b70f 	strd	fp, r7, [sp, #60]	; 0x3c
 8001844:	f003 faba 	bl	8004dbc <HAL_ADC_ConfigChannel>
 8001848:	f04f 0b02 	mov.w	fp, #2
 800184c:	2311      	movs	r3, #17
 800184e:	a90f      	add	r1, sp, #60	; 0x3c
 8001850:	4628      	mov	r0, r5
 8001852:	e9cd 3b0f 	strd	r3, fp, [sp, #60]	; 0x3c
 8001856:	f003 fab1 	bl	8004dbc <HAL_ADC_ConfigChannel>
 800185a:	2212      	movs	r2, #18
 800185c:	a90f      	add	r1, sp, #60	; 0x3c
 800185e:	2303      	movs	r3, #3
 8001860:	4628      	mov	r0, r5
 8001862:	e9cd 230f 	strd	r2, r3, [sp, #60]	; 0x3c
 8001866:	f003 faa9 	bl	8004dbc <HAL_ADC_ConfigChannel>
 800186a:	4648      	mov	r0, r9
 800186c:	f004 faec 	bl	8005e48 <HAL_TIM_Base_Start_IT>
 8001870:	4640      	mov	r0, r8
 8001872:	f004 fae9 	bl	8005e48 <HAL_TIM_Base_Start_IT>
 8001876:	4b2d      	ldr	r3, [pc, #180]	; (800192c <main+0x508>)
 8001878:	4618      	mov	r0, r3
 800187a:	f004 fae5 	bl	8005e48 <HAL_TIM_Base_Start_IT>
 800187e:	4650      	mov	r0, sl
 8001880:	f004 fae2 	bl	8005e48 <HAL_TIM_Base_Start_IT>
 8001884:	492d      	ldr	r1, [pc, #180]	; (800193c <main+0x518>)
 8001886:	2203      	movs	r2, #3
 8001888:	4628      	mov	r0, r5
 800188a:	f003 f90f 	bl	8004aac <HAL_ADC_Start_DMA>
 800188e:	4630      	mov	r0, r6
 8001890:	f7ff fca8 	bl	80011e4 <LCD_SPIInit>
 8001894:	f7ff fd4e 	bl	8001334 <LCD_LoadCustomChars>
 8001898:	4829      	ldr	r0, [pc, #164]	; (8001940 <main+0x51c>)
 800189a:	2108      	movs	r1, #8
 800189c:	4622      	mov	r2, r4
 800189e:	f003 fe0b 	bl	80054b8 <HAL_GPIO_WritePin>
 80018a2:	4639      	mov	r1, r7
 80018a4:	2003      	movs	r0, #3
 80018a6:	f7ff fc35 	bl	8001114 <checkButton>
 80018aa:	b300      	cbz	r0, 80018ee <main+0x4ca>
 80018ac:	f7ff fd0a 	bl	80012c4 <LCD_Clear>
 80018b0:	4a24      	ldr	r2, [pc, #144]	; (8001944 <main+0x520>)
 80018b2:	4621      	mov	r1, r4
 80018b4:	4620      	mov	r0, r4
 80018b6:	f7ff fd28 	bl	800130a <LCD_WriteXY>
 80018ba:	f44f 70fa 	mov.w	r0, #500	; 0x1f4
 80018be:	f003 f83b 	bl	8004938 <HAL_Delay>
 80018c2:	f002 fbb1 	bl	8004028 <storeSRAM>
 80018c6:	4620      	mov	r0, r4
 80018c8:	4a1f      	ldr	r2, [pc, #124]	; (8001948 <main+0x524>)
 80018ca:	4639      	mov	r1, r7
 80018cc:	f7ff fd1d 	bl	800130a <LCD_WriteXY>
 80018d0:	f640 30b8 	movw	r0, #3000	; 0xbb8
 80018d4:	f003 f830 	bl	8004938 <HAL_Delay>
 80018d8:	f002 fba0 	bl	800401c <setStore>
 80018dc:	f001 fff2 	bl	80038c4 <initMenu>
 80018e0:	9b01      	ldr	r3, [sp, #4]
 80018e2:	b9e3      	cbnz	r3, 800191e <main+0x4fa>
 80018e4:	f002 f85c 	bl	80039a0 <Menu>
 80018e8:	2400      	movs	r4, #0
 80018ea:	9001      	str	r0, [sp, #4]
 80018ec:	e7f8      	b.n	80018e0 <main+0x4bc>
 80018ee:	f7ff fce9 	bl	80012c4 <LCD_Clear>
 80018f2:	4621      	mov	r1, r4
 80018f4:	4620      	mov	r0, r4
 80018f6:	4a15      	ldr	r2, [pc, #84]	; (800194c <main+0x528>)
 80018f8:	f7ff fd07 	bl	800130a <LCD_WriteXY>
 80018fc:	4639      	mov	r1, r7
 80018fe:	4a14      	ldr	r2, [pc, #80]	; (8001950 <main+0x52c>)
 8001900:	4620      	mov	r0, r4
 8001902:	f7ff fd02 	bl	800130a <LCD_WriteXY>
 8001906:	f44f 70fa 	mov.w	r0, #500	; 0x1f4
 800190a:	f003 f815 	bl	8004938 <HAL_Delay>
 800190e:	f002 fba5 	bl	800405c <restoreSRAM>
 8001912:	4a0d      	ldr	r2, [pc, #52]	; (8001948 <main+0x524>)
 8001914:	4659      	mov	r1, fp
 8001916:	4620      	mov	r0, r4
 8001918:	f7ff fcf7 	bl	800130a <LCD_WriteXY>
 800191c:	e7dc      	b.n	80018d8 <main+0x4b4>
 800191e:	9b01      	ldr	r3, [sp, #4]
 8001920:	4620      	mov	r0, r4
 8001922:	4798      	blx	r3
 8001924:	1c43      	adds	r3, r0, #1
 8001926:	4604      	mov	r4, r0
 8001928:	d1da      	bne.n	80018e0 <main+0x4bc>
 800192a:	e7db      	b.n	80018e4 <main+0x4c0>
 800192c:	20000798 	.word	0x20000798
 8001930:	40000800 	.word	0x40000800
 8001934:	200007e0 	.word	0x200007e0
 8001938:	40012000 	.word	0x40012000
 800193c:	200006e8 	.word	0x200006e8
 8001940:	40020000 	.word	0x40020000
 8001944:	0800935c 	.word	0x0800935c
 8001948:	0800936a 	.word	0x0800936a
 800194c:	08009372 	.word	0x08009372
 8001950:	08009381 	.word	0x08009381
 8001954:	20000750 	.word	0x20000750

08001958 <__io_putchar>:
 8001958:	f04f 4360 	mov.w	r3, #3758096384	; 0xe0000000
 800195c:	f8d3 2e80 	ldr.w	r2, [r3, #3712]	; 0xe80
 8001960:	07d1      	lsls	r1, r2, #31
 8001962:	d507      	bpl.n	8001974 <__io_putchar+0x1c>
 8001964:	f8d3 2e00 	ldr.w	r2, [r3, #3584]	; 0xe00
 8001968:	07d2      	lsls	r2, r2, #31
 800196a:	d503      	bpl.n	8001974 <__io_putchar+0x1c>
 800196c:	681a      	ldr	r2, [r3, #0]
 800196e:	b112      	cbz	r2, 8001976 <__io_putchar+0x1e>
 8001970:	b2c2      	uxtb	r2, r0
 8001972:	701a      	strb	r2, [r3, #0]
 8001974:	4770      	bx	lr
 8001976:	bf00      	nop
 8001978:	e7f8      	b.n	800196c <__io_putchar+0x14>

0800197a <Error_Handler>:
 800197a:	4770      	bx	lr

0800197c <setStartStop>:
 800197c:	b510      	push	{r4, lr}
 800197e:	2104      	movs	r1, #4
 8001980:	b088      	sub	sp, #32
 8001982:	4604      	mov	r4, r0
 8001984:	2001      	movs	r0, #1
 8001986:	f7ff fbc5 	bl	8001114 <checkButton>
 800198a:	b110      	cbz	r0, 8001992 <setStartStop+0x16>
 800198c:	f04f 34ff 	mov.w	r4, #4294967295	; 0xffffffff
 8001990:	e022      	b.n	80019d8 <setStartStop+0x5c>
 8001992:	2c0b      	cmp	r4, #11
 8001994:	d8fa      	bhi.n	800198c <setStartStop+0x10>
 8001996:	a301      	add	r3, pc, #4	; (adr r3, 800199c <setStartStop+0x20>)
 8001998:	f853 f024 	ldr.w	pc, [r3, r4, lsl #2]
 800199c:	080019cd 	.word	0x080019cd
 80019a0:	080019df 	.word	0x080019df
 80019a4:	08001a07 	.word	0x08001a07
 80019a8:	08001a31 	.word	0x08001a31
 80019ac:	08001a4b 	.word	0x08001a4b
 80019b0:	0800198d 	.word	0x0800198d
 80019b4:	0800198d 	.word	0x0800198d
 80019b8:	08001a79 	.word	0x08001a79
 80019bc:	08001a95 	.word	0x08001a95
 80019c0:	08001ad5 	.word	0x08001ad5
 80019c4:	08001b11 	.word	0x08001b11
 80019c8:	08001b33 	.word	0x08001b33
 80019cc:	4b61      	ldr	r3, [pc, #388]	; (8001b54 <setStartStop+0x1d8>)
 80019ce:	7b1b      	ldrb	r3, [r3, #12]
 80019d0:	2b01      	cmp	r3, #1
 80019d2:	bf0c      	ite	eq
 80019d4:	2407      	moveq	r4, #7
 80019d6:	2401      	movne	r4, #1
 80019d8:	4620      	mov	r0, r4
 80019da:	b008      	add	sp, #32
 80019dc:	bd10      	pop	{r4, pc}
 80019de:	f7ff fc71 	bl	80012c4 <LCD_Clear>
 80019e2:	2100      	movs	r1, #0
 80019e4:	4608      	mov	r0, r1
 80019e6:	4a5c      	ldr	r2, [pc, #368]	; (8001b58 <setStartStop+0x1dc>)
 80019e8:	f7ff fc8f 	bl	800130a <LCD_WriteXY>
 80019ec:	4a5b      	ldr	r2, [pc, #364]	; (8001b5c <setStartStop+0x1e0>)
 80019ee:	2101      	movs	r1, #1
 80019f0:	2000      	movs	r0, #0
 80019f2:	f7ff fc8a 	bl	800130a <LCD_WriteXY>
 80019f6:	2000      	movs	r0, #0
 80019f8:	f002 fb86 	bl	8004108 <setSystemStatus>
 80019fc:	4b58      	ldr	r3, [pc, #352]	; (8001b60 <setStartStop+0x1e4>)
 80019fe:	2200      	movs	r2, #0
 8001a00:	701a      	strb	r2, [r3, #0]
 8001a02:	2402      	movs	r4, #2
 8001a04:	e7e8      	b.n	80019d8 <setStartStop+0x5c>
 8001a06:	4b53      	ldr	r3, [pc, #332]	; (8001b54 <setStartStop+0x1d8>)
 8001a08:	7b1b      	ldrb	r3, [r3, #12]
 8001a0a:	2b01      	cmp	r3, #1
 8001a0c:	f000 80a0 	beq.w	8001b50 <setStartStop+0x1d4>
 8001a10:	4b53      	ldr	r3, [pc, #332]	; (8001b60 <setStartStop+0x1e4>)
 8001a12:	7818      	ldrb	r0, [r3, #0]
 8001a14:	2804      	cmp	r0, #4
 8001a16:	f200 809b 	bhi.w	8001b50 <setStartStop+0x1d4>
 8001a1a:	3001      	adds	r0, #1
 8001a1c:	b2c0      	uxtb	r0, r0
 8001a1e:	4a51      	ldr	r2, [pc, #324]	; (8001b64 <setStartStop+0x1e8>)
 8001a20:	7018      	strb	r0, [r3, #0]
 8001a22:	2102      	movs	r1, #2
 8001a24:	f7ff fc71 	bl	800130a <LCD_WriteXY>
 8001a28:	20c8      	movs	r0, #200	; 0xc8
 8001a2a:	f002 ff85 	bl	8004938 <HAL_Delay>
 8001a2e:	e7d3      	b.n	80019d8 <setStartStop+0x5c>
 8001a30:	4b4b      	ldr	r3, [pc, #300]	; (8001b60 <setStartStop+0x1e4>)
 8001a32:	7818      	ldrb	r0, [r3, #0]
 8001a34:	4b47      	ldr	r3, [pc, #284]	; (8001b54 <setStartStop+0x1d8>)
 8001a36:	7b1b      	ldrb	r3, [r3, #12]
 8001a38:	2b01      	cmp	r3, #1
 8001a3a:	bf0c      	ite	eq
 8001a3c:	4a4a      	ldreq	r2, [pc, #296]	; (8001b68 <setStartStop+0x1ec>)
 8001a3e:	4a4b      	ldrne	r2, [pc, #300]	; (8001b6c <setStartStop+0x1f0>)
 8001a40:	2102      	movs	r1, #2
 8001a42:	f7ff fc62 	bl	800130a <LCD_WriteXY>
 8001a46:	2404      	movs	r4, #4
 8001a48:	e7c6      	b.n	80019d8 <setStartStop+0x5c>
 8001a4a:	f7ff fb73 	bl	8001134 <refreshScreen>
 8001a4e:	b160      	cbz	r0, 8001a6a <setStartStop+0xee>
 8001a50:	4b47      	ldr	r3, [pc, #284]	; (8001b70 <setStartStop+0x1f4>)
 8001a52:	4a48      	ldr	r2, [pc, #288]	; (8001b74 <setStartStop+0x1f8>)
 8001a54:	4948      	ldr	r1, [pc, #288]	; (8001b78 <setStartStop+0x1fc>)
 8001a56:	7812      	ldrb	r2, [r2, #0]
 8001a58:	781b      	ldrb	r3, [r3, #0]
 8001a5a:	4668      	mov	r0, sp
 8001a5c:	f005 f97a 	bl	8006d54 <siprintf>
 8001a60:	466a      	mov	r2, sp
 8001a62:	2103      	movs	r1, #3
 8001a64:	2008      	movs	r0, #8
 8001a66:	f7ff fc50 	bl	800130a <LCD_WriteXY>
 8001a6a:	2102      	movs	r1, #2
 8001a6c:	2001      	movs	r0, #1
 8001a6e:	f7ff fb51 	bl	8001114 <checkButton>
 8001a72:	2800      	cmp	r0, #0
 8001a74:	d0b0      	beq.n	80019d8 <setStartStop+0x5c>
 8001a76:	e789      	b.n	800198c <setStartStop+0x10>
 8001a78:	f7ff fc24 	bl	80012c4 <LCD_Clear>
 8001a7c:	2100      	movs	r1, #0
 8001a7e:	4608      	mov	r0, r1
 8001a80:	4a3e      	ldr	r2, [pc, #248]	; (8001b7c <setStartStop+0x200>)
 8001a82:	f7ff fc42 	bl	800130a <LCD_WriteXY>
 8001a86:	4a3e      	ldr	r2, [pc, #248]	; (8001b80 <setStartStop+0x204>)
 8001a88:	2101      	movs	r1, #1
 8001a8a:	2000      	movs	r0, #0
 8001a8c:	f7ff fc3d 	bl	800130a <LCD_WriteXY>
 8001a90:	2408      	movs	r4, #8
 8001a92:	e7a1      	b.n	80019d8 <setStartStop+0x5c>
 8001a94:	f7ff fb4e 	bl	8001134 <refreshScreen>
 8001a98:	b160      	cbz	r0, 8001ab4 <setStartStop+0x138>
 8001a9a:	4b35      	ldr	r3, [pc, #212]	; (8001b70 <setStartStop+0x1f4>)
 8001a9c:	4a35      	ldr	r2, [pc, #212]	; (8001b74 <setStartStop+0x1f8>)
 8001a9e:	4939      	ldr	r1, [pc, #228]	; (8001b84 <setStartStop+0x208>)
 8001aa0:	7812      	ldrb	r2, [r2, #0]
 8001aa2:	781b      	ldrb	r3, [r3, #0]
 8001aa4:	4668      	mov	r0, sp
 8001aa6:	f005 f955 	bl	8006d54 <siprintf>
 8001aaa:	466a      	mov	r2, sp
 8001aac:	2102      	movs	r1, #2
 8001aae:	2000      	movs	r0, #0
 8001ab0:	f7ff fc2b 	bl	800130a <LCD_WriteXY>
 8001ab4:	2102      	movs	r1, #2
 8001ab6:	2001      	movs	r0, #1
 8001ab8:	f7ff fb2c 	bl	8001114 <checkButton>
 8001abc:	2102      	movs	r1, #2
 8001abe:	2800      	cmp	r0, #0
 8001ac0:	4608      	mov	r0, r1
 8001ac2:	bf18      	it	ne
 8001ac4:	f04f 34ff 	movne.w	r4, #4294967295	; 0xffffffff
 8001ac8:	f7ff fb24 	bl	8001114 <checkButton>
 8001acc:	2800      	cmp	r0, #0
 8001ace:	d083      	beq.n	80019d8 <setStartStop+0x5c>
 8001ad0:	2409      	movs	r4, #9
 8001ad2:	e781      	b.n	80019d8 <setStartStop+0x5c>
 8001ad4:	f7ff fb2e 	bl	8001134 <refreshScreen>
 8001ad8:	b160      	cbz	r0, 8001af4 <setStartStop+0x178>
 8001ada:	4b25      	ldr	r3, [pc, #148]	; (8001b70 <setStartStop+0x1f4>)
 8001adc:	4a25      	ldr	r2, [pc, #148]	; (8001b74 <setStartStop+0x1f8>)
 8001ade:	492a      	ldr	r1, [pc, #168]	; (8001b88 <setStartStop+0x20c>)
 8001ae0:	7812      	ldrb	r2, [r2, #0]
 8001ae2:	781b      	ldrb	r3, [r3, #0]
 8001ae4:	4668      	mov	r0, sp
 8001ae6:	f005 f935 	bl	8006d54 <siprintf>
 8001aea:	466a      	mov	r2, sp
 8001aec:	2102      	movs	r1, #2
 8001aee:	2000      	movs	r0, #0
 8001af0:	f7ff fc0b 	bl	800130a <LCD_WriteXY>
 8001af4:	2102      	movs	r1, #2
 8001af6:	2000      	movs	r0, #0
 8001af8:	f7ff fb0c 	bl	8001114 <checkButton>
 8001afc:	2800      	cmp	r0, #0
 8001afe:	d1c7      	bne.n	8001a90 <setStartStop+0x114>
 8001b00:	2102      	movs	r1, #2
 8001b02:	2001      	movs	r0, #1
 8001b04:	f7ff fb06 	bl	8001114 <checkButton>
 8001b08:	2800      	cmp	r0, #0
 8001b0a:	d0e1      	beq.n	8001ad0 <setStartStop+0x154>
 8001b0c:	240a      	movs	r4, #10
 8001b0e:	e763      	b.n	80019d8 <setStartStop+0x5c>
 8001b10:	f7ff fbd8 	bl	80012c4 <LCD_Clear>
 8001b14:	2100      	movs	r1, #0
 8001b16:	4608      	mov	r0, r1
 8001b18:	4a0f      	ldr	r2, [pc, #60]	; (8001b58 <setStartStop+0x1dc>)
 8001b1a:	f7ff fbf6 	bl	800130a <LCD_WriteXY>
 8001b1e:	4a1b      	ldr	r2, [pc, #108]	; (8001b8c <setStartStop+0x210>)
 8001b20:	2101      	movs	r1, #1
 8001b22:	2000      	movs	r0, #0
 8001b24:	f7ff fbf1 	bl	800130a <LCD_WriteXY>
 8001b28:	2002      	movs	r0, #2
 8001b2a:	f002 faed 	bl	8004108 <setSystemStatus>
 8001b2e:	240b      	movs	r4, #11
 8001b30:	e752      	b.n	80019d8 <setStartStop+0x5c>
 8001b32:	f7ff faff 	bl	8001134 <refreshScreen>
 8001b36:	2800      	cmp	r0, #0
 8001b38:	d097      	beq.n	8001a6a <setStartStop+0xee>
 8001b3a:	4b0d      	ldr	r3, [pc, #52]	; (8001b70 <setStartStop+0x1f4>)
 8001b3c:	4a0d      	ldr	r2, [pc, #52]	; (8001b74 <setStartStop+0x1f8>)
 8001b3e:	490e      	ldr	r1, [pc, #56]	; (8001b78 <setStartStop+0x1fc>)
 8001b40:	7812      	ldrb	r2, [r2, #0]
 8001b42:	781b      	ldrb	r3, [r3, #0]
 8001b44:	4668      	mov	r0, sp
 8001b46:	f005 f905 	bl	8006d54 <siprintf>
 8001b4a:	466a      	mov	r2, sp
 8001b4c:	2102      	movs	r1, #2
 8001b4e:	e789      	b.n	8001a64 <setStartStop+0xe8>
 8001b50:	2403      	movs	r4, #3
 8001b52:	e741      	b.n	80019d8 <setStartStop+0x5c>
 8001b54:	200006cc 	.word	0x200006cc
 8001b58:	080093e9 	.word	0x080093e9
 8001b5c:	080093be 	.word	0x080093be
 8001b60:	200006a8 	.word	0x200006a8
 8001b64:	0800938c 	.word	0x0800938c
 8001b68:	080093ce 	.word	0x080093ce
 8001b6c:	080093d1 	.word	0x080093d1
 8001b70:	200006e6 	.word	0x200006e6
 8001b74:	200006e5 	.word	0x200006e5
 8001b78:	080093e1 	.word	0x080093e1
 8001b7c:	080093e8 	.word	0x080093e8
 8001b80:	080093fc 	.word	0x080093fc
 8001b84:	0800940b 	.word	0x0800940b
 8001b88:	08009420 	.word	0x08009420
 8001b8c:	08009435 	.word	0x08009435

08001b90 <setSegOrder>:
 8001b90:	b538      	push	{r3, r4, r5, lr}
 8001b92:	4b0d      	ldr	r3, [pc, #52]	; (8001bc8 <setSegOrder+0x38>)
 8001b94:	480d      	ldr	r0, [pc, #52]	; (8001bcc <setSegOrder+0x3c>)
 8001b96:	7b9a      	ldrb	r2, [r3, #14]
 8001b98:	fab2 f282 	clz	r2, r2
 8001b9c:	0952      	lsrs	r2, r2, #5
 8001b9e:	739a      	strb	r2, [r3, #14]
 8001ba0:	2100      	movs	r1, #0
 8001ba2:	251c      	movs	r5, #28
 8001ba4:	b2cb      	uxtb	r3, r1
 8001ba6:	436b      	muls	r3, r5
 8001ba8:	3101      	adds	r1, #1
 8001baa:	5cc4      	ldrb	r4, [r0, r3]
 8001bac:	2c04      	cmp	r4, #4
 8001bae:	d1f9      	bne.n	8001ba4 <setSegOrder+0x14>
 8001bb0:	4907      	ldr	r1, [pc, #28]	; (8001bd0 <setSegOrder+0x40>)
 8001bb2:	3302      	adds	r3, #2
 8001bb4:	f851 2022 	ldr.w	r2, [r1, r2, lsl #2]
 8001bb8:	4906      	ldr	r1, [pc, #24]	; (8001bd4 <setSegOrder+0x44>)
 8001bba:	4418      	add	r0, r3
 8001bbc:	f005 f8ca 	bl	8006d54 <siprintf>
 8001bc0:	f04f 30ff 	mov.w	r0, #4294967295	; 0xffffffff
 8001bc4:	bd38      	pop	{r3, r4, r5, pc}
 8001bc6:	bf00      	nop
 8001bc8:	200006cc 	.word	0x200006cc
 8001bcc:	20000004 	.word	0x20000004
 8001bd0:	200003e8 	.word	0x200003e8
 8001bd4:	08009445 	.word	0x08009445

08001bd8 <setAutoRefMode>:
 8001bd8:	b538      	push	{r3, r4, r5, lr}
 8001bda:	4a11      	ldr	r2, [pc, #68]	; (8001c20 <setAutoRefMode+0x48>)
 8001bdc:	4c11      	ldr	r4, [pc, #68]	; (8001c24 <setAutoRefMode+0x4c>)
 8001bde:	f892 1040 	ldrb.w	r1, [r2, #64]	; 0x40
 8001be2:	b2cb      	uxtb	r3, r1
 8001be4:	2901      	cmp	r1, #1
 8001be6:	bf9a      	itte	ls
 8001be8:	3301      	addls	r3, #1
 8001bea:	b2db      	uxtbls	r3, r3
 8001bec:	2300      	movhi	r3, #0
 8001bee:	f882 3040 	strb.w	r3, [r2, #64]	; 0x40
 8001bf2:	4a0d      	ldr	r2, [pc, #52]	; (8001c28 <setAutoRefMode+0x50>)
 8001bf4:	2100      	movs	r1, #0
 8001bf6:	f882 3040 	strb.w	r3, [r2, #64]	; 0x40
 8001bfa:	251c      	movs	r5, #28
 8001bfc:	b2ca      	uxtb	r2, r1
 8001bfe:	436a      	muls	r2, r5
 8001c00:	3101      	adds	r1, #1
 8001c02:	5ca0      	ldrb	r0, [r4, r2]
 8001c04:	2801      	cmp	r0, #1
 8001c06:	d1f9      	bne.n	8001bfc <setAutoRefMode+0x24>
 8001c08:	1c90      	adds	r0, r2, #2
 8001c0a:	4a08      	ldr	r2, [pc, #32]	; (8001c2c <setAutoRefMode+0x54>)
 8001c0c:	4908      	ldr	r1, [pc, #32]	; (8001c30 <setAutoRefMode+0x58>)
 8001c0e:	f852 2023 	ldr.w	r2, [r2, r3, lsl #2]
 8001c12:	4420      	add	r0, r4
 8001c14:	f005 f89e 	bl	8006d54 <siprintf>
 8001c18:	f04f 30ff 	mov.w	r0, #4294967295	; 0xffffffff
 8001c1c:	bd38      	pop	{r3, r4, r5, pc}
 8001c1e:	bf00      	nop
 8001c20:	20000354 	.word	0x20000354
 8001c24:	20000004 	.word	0x20000004
 8001c28:	20000398 	.word	0x20000398
 8001c2c:	200003dc 	.word	0x200003dc
 8001c30:	08009455 	.word	0x08009455
 8001c34:	00000000 	.word	0x00000000

08001c38 <StatusDisplay>:
 8001c38:	b5f0      	push	{r4, r5, r6, r7, lr}
 8001c3a:	4d93      	ldr	r5, [pc, #588]	; (8001e88 <StatusDisplay+0x250>)
 8001c3c:	4604      	mov	r4, r0
 8001c3e:	e895 000f 	ldmia.w	r5, {r0, r1, r2, r3}
 8001c42:	b093      	sub	sp, #76	; 0x4c
 8001c44:	ae02      	add	r6, sp, #8
 8001c46:	3510      	adds	r5, #16
 8001c48:	e886 000f 	stmia.w	r6, {r0, r1, r2, r3}
 8001c4c:	e895 000f 	ldmia.w	r5, {r0, r1, r2, r3}
 8001c50:	ae06      	add	r6, sp, #24
 8001c52:	e886 000f 	stmia.w	r6, {r0, r1, r2, r3}
 8001c56:	2104      	movs	r1, #4
 8001c58:	2001      	movs	r0, #1
 8001c5a:	f7ff fa5b 	bl	8001114 <checkButton>
 8001c5e:	b110      	cbz	r0, 8001c66 <StatusDisplay+0x2e>
 8001c60:	f04f 34ff 	mov.w	r4, #4294967295	; 0xffffffff
 8001c64:	e022      	b.n	8001cac <StatusDisplay+0x74>
 8001c66:	2c07      	cmp	r4, #7
 8001c68:	d8fa      	bhi.n	8001c60 <StatusDisplay+0x28>
 8001c6a:	e8df f014 	tbh	[pc, r4, lsl #1]
 8001c6e:	0008      	.short	0x0008
 8001c70:	00940022 	.word	0x00940022
 8001c74:	00f400ac 	.word	0x00f400ac
 8001c78:	01ac012f 	.word	0x01ac012f
 8001c7c:	01c4      	.short	0x01c4
 8001c7e:	f7ff fb21 	bl	80012c4 <LCD_Clear>
 8001c82:	2100      	movs	r1, #0
 8001c84:	4608      	mov	r0, r1
 8001c86:	4a81      	ldr	r2, [pc, #516]	; (8001e8c <StatusDisplay+0x254>)
 8001c88:	f7ff fb3f 	bl	800130a <LCD_WriteXY>
 8001c8c:	4a80      	ldr	r2, [pc, #512]	; (8001e90 <StatusDisplay+0x258>)
 8001c8e:	2101      	movs	r1, #1
 8001c90:	2000      	movs	r0, #0
 8001c92:	f7ff fb3a 	bl	800130a <LCD_WriteXY>
 8001c96:	4a7f      	ldr	r2, [pc, #508]	; (8001e94 <StatusDisplay+0x25c>)
 8001c98:	2102      	movs	r1, #2
 8001c9a:	2000      	movs	r0, #0
 8001c9c:	f7ff fb35 	bl	800130a <LCD_WriteXY>
 8001ca0:	4a7d      	ldr	r2, [pc, #500]	; (8001e98 <StatusDisplay+0x260>)
 8001ca2:	2103      	movs	r1, #3
 8001ca4:	2000      	movs	r0, #0
 8001ca6:	f7ff fb30 	bl	800130a <LCD_WriteXY>
 8001caa:	2401      	movs	r4, #1
 8001cac:	4620      	mov	r0, r4
 8001cae:	b013      	add	sp, #76	; 0x4c
 8001cb0:	bdf0      	pop	{r4, r5, r6, r7, pc}
 8001cb2:	f7ff fa3f 	bl	8001134 <refreshScreen>
 8001cb6:	2800      	cmp	r0, #0
 8001cb8:	d05a      	beq.n	8001d70 <StatusDisplay+0x138>
 8001cba:	4e78      	ldr	r6, [pc, #480]	; (8001e9c <StatusDisplay+0x264>)
 8001cbc:	8c32      	ldrh	r2, [r6, #32]
 8001cbe:	f896 3022 	ldrb.w	r3, [r6, #34]	; 0x22
 8001cc2:	f896 1023 	ldrb.w	r1, [r6, #35]	; 0x23
 8001cc6:	9100      	str	r1, [sp, #0]
 8001cc8:	af0a      	add	r7, sp, #40	; 0x28
 8001cca:	b292      	uxth	r2, r2
 8001ccc:	4974      	ldr	r1, [pc, #464]	; (8001ea0 <StatusDisplay+0x268>)
 8001cce:	4638      	mov	r0, r7
 8001cd0:	f005 f840 	bl	8006d54 <siprintf>
 8001cd4:	8c32      	ldrh	r2, [r6, #32]
 8001cd6:	8e73      	ldrh	r3, [r6, #50]	; 0x32
 8001cd8:	b292      	uxth	r2, r2
 8001cda:	b29b      	uxth	r3, r3
 8001cdc:	429a      	cmp	r2, r3
 8001cde:	d805      	bhi.n	8001cec <StatusDisplay+0xb4>
 8001ce0:	8c32      	ldrh	r2, [r6, #32]
 8001ce2:	8e33      	ldrh	r3, [r6, #48]	; 0x30
 8001ce4:	b292      	uxth	r2, r2
 8001ce6:	b29b      	uxth	r3, r3
 8001ce8:	429a      	cmp	r2, r3
 8001cea:	d250      	bcs.n	8001d8e <StatusDisplay+0x156>
 8001cec:	4b6d      	ldr	r3, [pc, #436]	; (8001ea4 <StatusDisplay+0x26c>)
 8001cee:	4a6e      	ldr	r2, [pc, #440]	; (8001ea8 <StatusDisplay+0x270>)
 8001cf0:	781b      	ldrb	r3, [r3, #0]
 8001cf2:	2b00      	cmp	r3, #0
 8001cf4:	bf18      	it	ne
 8001cf6:	463a      	movne	r2, r7
 8001cf8:	4d6c      	ldr	r5, [pc, #432]	; (8001eac <StatusDisplay+0x274>)
 8001cfa:	2101      	movs	r1, #1
 8001cfc:	2008      	movs	r0, #8
 8001cfe:	f7ff fb04 	bl	800130a <LCD_WriteXY>
 8001d02:	8c2a      	ldrh	r2, [r5, #32]
 8001d04:	f895 3022 	ldrb.w	r3, [r5, #34]	; 0x22
 8001d08:	f895 1023 	ldrb.w	r1, [r5, #35]	; 0x23
 8001d0c:	9100      	str	r1, [sp, #0]
 8001d0e:	b292      	uxth	r2, r2
 8001d10:	4963      	ldr	r1, [pc, #396]	; (8001ea0 <StatusDisplay+0x268>)
 8001d12:	4638      	mov	r0, r7
 8001d14:	f005 f81e 	bl	8006d54 <siprintf>
 8001d18:	8c2a      	ldrh	r2, [r5, #32]
 8001d1a:	8e6b      	ldrh	r3, [r5, #50]	; 0x32
 8001d1c:	b292      	uxth	r2, r2
 8001d1e:	b29b      	uxth	r3, r3
 8001d20:	429a      	cmp	r2, r3
 8001d22:	d805      	bhi.n	8001d30 <StatusDisplay+0xf8>
 8001d24:	8c2a      	ldrh	r2, [r5, #32]
 8001d26:	8e2b      	ldrh	r3, [r5, #48]	; 0x30
 8001d28:	b292      	uxth	r2, r2
 8001d2a:	b29b      	uxth	r3, r3
 8001d2c:	429a      	cmp	r2, r3
 8001d2e:	d230      	bcs.n	8001d92 <StatusDisplay+0x15a>
 8001d30:	4b5c      	ldr	r3, [pc, #368]	; (8001ea4 <StatusDisplay+0x26c>)
 8001d32:	4a5d      	ldr	r2, [pc, #372]	; (8001ea8 <StatusDisplay+0x270>)
 8001d34:	781b      	ldrb	r3, [r3, #0]
 8001d36:	2b00      	cmp	r3, #0
 8001d38:	bf18      	it	ne
 8001d3a:	463a      	movne	r2, r7
 8001d3c:	2102      	movs	r1, #2
 8001d3e:	2008      	movs	r0, #8
 8001d40:	f7ff fae3 	bl	800130a <LCD_WriteXY>
 8001d44:	f896 203e 	ldrb.w	r2, [r6, #62]	; 0x3e
 8001d48:	f895 303e 	ldrb.w	r3, [r5, #62]	; 0x3e
 8001d4c:	a912      	add	r1, sp, #72	; 0x48
 8001d4e:	eb01 0383 	add.w	r3, r1, r3, lsl #2
 8001d52:	eb01 0282 	add.w	r2, r1, r2, lsl #2
 8001d56:	f853 3c30 	ldr.w	r3, [r3, #-48]
 8001d5a:	f852 2c40 	ldr.w	r2, [r2, #-64]
 8001d5e:	4954      	ldr	r1, [pc, #336]	; (8001eb0 <StatusDisplay+0x278>)
 8001d60:	4638      	mov	r0, r7
 8001d62:	f004 fff7 	bl	8006d54 <siprintf>
 8001d66:	463a      	mov	r2, r7
 8001d68:	2103      	movs	r1, #3
 8001d6a:	2008      	movs	r0, #8
 8001d6c:	f7ff facd 	bl	800130a <LCD_WriteXY>
 8001d70:	2102      	movs	r1, #2
 8001d72:	2000      	movs	r0, #0
 8001d74:	f7ff f9ce 	bl	8001114 <checkButton>
 8001d78:	2800      	cmp	r0, #0
 8001d7a:	f47f af71 	bne.w	8001c60 <StatusDisplay+0x28>
 8001d7e:	2102      	movs	r1, #2
 8001d80:	4608      	mov	r0, r1
 8001d82:	f7ff f9c7 	bl	8001114 <checkButton>
 8001d86:	2800      	cmp	r0, #0
 8001d88:	d090      	beq.n	8001cac <StatusDisplay+0x74>
 8001d8a:	2402      	movs	r4, #2
 8001d8c:	e78e      	b.n	8001cac <StatusDisplay+0x74>
 8001d8e:	463a      	mov	r2, r7
 8001d90:	e7b2      	b.n	8001cf8 <StatusDisplay+0xc0>
 8001d92:	463a      	mov	r2, r7
 8001d94:	e7d2      	b.n	8001d3c <StatusDisplay+0x104>
 8001d96:	f7ff fa95 	bl	80012c4 <LCD_Clear>
 8001d9a:	2100      	movs	r1, #0
 8001d9c:	4608      	mov	r0, r1
 8001d9e:	4a45      	ldr	r2, [pc, #276]	; (8001eb4 <StatusDisplay+0x27c>)
 8001da0:	f7ff fab3 	bl	800130a <LCD_WriteXY>
 8001da4:	4a3a      	ldr	r2, [pc, #232]	; (8001e90 <StatusDisplay+0x258>)
 8001da6:	2101      	movs	r1, #1
 8001da8:	2000      	movs	r0, #0
 8001daa:	f7ff faae 	bl	800130a <LCD_WriteXY>
 8001dae:	4a39      	ldr	r2, [pc, #228]	; (8001e94 <StatusDisplay+0x25c>)
 8001db0:	2102      	movs	r1, #2
 8001db2:	2000      	movs	r0, #0
 8001db4:	f7ff faa9 	bl	800130a <LCD_WriteXY>
 8001db8:	4a37      	ldr	r2, [pc, #220]	; (8001e98 <StatusDisplay+0x260>)
 8001dba:	2103      	movs	r1, #3
 8001dbc:	2000      	movs	r0, #0
 8001dbe:	f7ff faa4 	bl	800130a <LCD_WriteXY>
 8001dc2:	2403      	movs	r4, #3
 8001dc4:	e772      	b.n	8001cac <StatusDisplay+0x74>
 8001dc6:	f7ff f9b5 	bl	8001134 <refreshScreen>
 8001dca:	2800      	cmp	r0, #0
 8001dcc:	d033      	beq.n	8001e36 <StatusDisplay+0x1fe>
 8001dce:	4e33      	ldr	r6, [pc, #204]	; (8001e9c <StatusDisplay+0x264>)
 8001dd0:	4d36      	ldr	r5, [pc, #216]	; (8001eac <StatusDisplay+0x274>)
 8001dd2:	69f0      	ldr	r0, [r6, #28]
 8001dd4:	f7fe fbb8 	bl	8000548 <__aeabi_f2d>
 8001dd8:	460b      	mov	r3, r1
 8001dda:	4602      	mov	r2, r0
 8001ddc:	4936      	ldr	r1, [pc, #216]	; (8001eb8 <StatusDisplay+0x280>)
 8001dde:	a80a      	add	r0, sp, #40	; 0x28
 8001de0:	f004 ffb8 	bl	8006d54 <siprintf>
 8001de4:	aa0a      	add	r2, sp, #40	; 0x28
 8001de6:	2101      	movs	r1, #1
 8001de8:	2008      	movs	r0, #8
 8001dea:	f7ff fa8e 	bl	800130a <LCD_WriteXY>
 8001dee:	69e8      	ldr	r0, [r5, #28]
 8001df0:	f7fe fbaa 	bl	8000548 <__aeabi_f2d>
 8001df4:	460b      	mov	r3, r1
 8001df6:	4602      	mov	r2, r0
 8001df8:	492f      	ldr	r1, [pc, #188]	; (8001eb8 <StatusDisplay+0x280>)
 8001dfa:	a80a      	add	r0, sp, #40	; 0x28
 8001dfc:	f004 ffaa 	bl	8006d54 <siprintf>
 8001e00:	aa0a      	add	r2, sp, #40	; 0x28
 8001e02:	2102      	movs	r1, #2
 8001e04:	2008      	movs	r0, #8
 8001e06:	f7ff fa80 	bl	800130a <LCD_WriteXY>
 8001e0a:	f896 203e 	ldrb.w	r2, [r6, #62]	; 0x3e
 8001e0e:	f895 303e 	ldrb.w	r3, [r5, #62]	; 0x3e
 8001e12:	a912      	add	r1, sp, #72	; 0x48
 8001e14:	eb01 0383 	add.w	r3, r1, r3, lsl #2
 8001e18:	eb01 0282 	add.w	r2, r1, r2, lsl #2
 8001e1c:	f853 3c30 	ldr.w	r3, [r3, #-48]
 8001e20:	f852 2c40 	ldr.w	r2, [r2, #-64]
 8001e24:	4922      	ldr	r1, [pc, #136]	; (8001eb0 <StatusDisplay+0x278>)
 8001e26:	a80a      	add	r0, sp, #40	; 0x28
 8001e28:	f004 ff94 	bl	8006d54 <siprintf>
 8001e2c:	aa0a      	add	r2, sp, #40	; 0x28
 8001e2e:	2103      	movs	r1, #3
 8001e30:	2008      	movs	r0, #8
 8001e32:	f7ff fa6a 	bl	800130a <LCD_WriteXY>
 8001e36:	2102      	movs	r1, #2
 8001e38:	2000      	movs	r0, #0
 8001e3a:	f7ff f96b 	bl	8001114 <checkButton>
 8001e3e:	2800      	cmp	r0, #0
 8001e40:	f040 8109 	bne.w	8002056 <StatusDisplay+0x41e>
 8001e44:	2102      	movs	r1, #2
 8001e46:	4608      	mov	r0, r1
 8001e48:	f7ff f964 	bl	8001114 <checkButton>
 8001e4c:	2800      	cmp	r0, #0
 8001e4e:	f43f af2d 	beq.w	8001cac <StatusDisplay+0x74>
 8001e52:	2404      	movs	r4, #4
 8001e54:	e72a      	b.n	8001cac <StatusDisplay+0x74>
 8001e56:	f7ff fa35 	bl	80012c4 <LCD_Clear>
 8001e5a:	2100      	movs	r1, #0
 8001e5c:	4608      	mov	r0, r1
 8001e5e:	4a17      	ldr	r2, [pc, #92]	; (8001ebc <StatusDisplay+0x284>)
 8001e60:	f7ff fa53 	bl	800130a <LCD_WriteXY>
 8001e64:	4a16      	ldr	r2, [pc, #88]	; (8001ec0 <StatusDisplay+0x288>)
 8001e66:	2101      	movs	r1, #1
 8001e68:	2000      	movs	r0, #0
 8001e6a:	f7ff fa4e 	bl	800130a <LCD_WriteXY>
 8001e6e:	4a15      	ldr	r2, [pc, #84]	; (8001ec4 <StatusDisplay+0x28c>)
 8001e70:	2102      	movs	r1, #2
 8001e72:	2000      	movs	r0, #0
 8001e74:	f7ff fa49 	bl	800130a <LCD_WriteXY>
 8001e78:	4a13      	ldr	r2, [pc, #76]	; (8001ec8 <StatusDisplay+0x290>)
 8001e7a:	2103      	movs	r1, #3
 8001e7c:	2000      	movs	r0, #0
 8001e7e:	f7ff fa44 	bl	800130a <LCD_WriteXY>
 8001e82:	2405      	movs	r4, #5
 8001e84:	e712      	b.n	8001cac <StatusDisplay+0x74>
 8001e86:	bf00      	nop
 8001e88:	080092d8 	.word	0x080092d8
 8001e8c:	08009774 	.word	0x08009774
 8001e90:	0800946e 	.word	0x0800946e
 8001e94:	08009476 	.word	0x08009476
 8001e98:	0800947d 	.word	0x0800947d
 8001e9c:	20000354 	.word	0x20000354
 8001ea0:	08009485 	.word	0x08009485
 8001ea4:	200006ee 	.word	0x200006ee
 8001ea8:	08009461 	.word	0x08009461
 8001eac:	20000398 	.word	0x20000398
 8001eb0:	08009494 	.word	0x08009494
 8001eb4:	080095de 	.word	0x080095de
 8001eb8:	0800949a 	.word	0x0800949a
 8001ebc:	080094a3 	.word	0x080094a3
 8001ec0:	080094ad 	.word	0x080094ad
 8001ec4:	080094b7 	.word	0x080094b7
 8001ec8:	080094c3 	.word	0x080094c3
 8001ecc:	f7ff f932 	bl	8001134 <refreshScreen>
 8001ed0:	2800      	cmp	r0, #0
 8001ed2:	d05e      	beq.n	8001f92 <StatusDisplay+0x35a>
 8001ed4:	4e64      	ldr	r6, [pc, #400]	; (8002068 <StatusDisplay+0x430>)
 8001ed6:	6830      	ldr	r0, [r6, #0]
 8001ed8:	f7fe fb36 	bl	8000548 <__aeabi_f2d>
 8001edc:	ad0a      	add	r5, sp, #40	; 0x28
 8001ede:	4602      	mov	r2, r0
 8001ee0:	460b      	mov	r3, r1
 8001ee2:	4628      	mov	r0, r5
 8001ee4:	4961      	ldr	r1, [pc, #388]	; (800206c <StatusDisplay+0x434>)
 8001ee6:	f004 ff35 	bl	8006d54 <siprintf>
 8001eea:	6830      	ldr	r0, [r6, #0]
 8001eec:	f7fe fb2c 	bl	8000548 <__aeabi_f2d>
 8001ef0:	a35b      	add	r3, pc, #364	; (adr r3, 8002060 <StatusDisplay+0x428>)
 8001ef2:	e9d3 2300 	ldrd	r2, r3, [r3]
 8001ef6:	f7fe fe05 	bl	8000b04 <__aeabi_dcmpge>
 8001efa:	2800      	cmp	r0, #0
 8001efc:	d158      	bne.n	8001fb0 <StatusDisplay+0x378>
 8001efe:	4b5c      	ldr	r3, [pc, #368]	; (8002070 <StatusDisplay+0x438>)
 8001f00:	4a5c      	ldr	r2, [pc, #368]	; (8002074 <StatusDisplay+0x43c>)
 8001f02:	781b      	ldrb	r3, [r3, #0]
 8001f04:	2b00      	cmp	r3, #0
 8001f06:	bf18      	it	ne
 8001f08:	462a      	movne	r2, r5
 8001f0a:	2100      	movs	r1, #0
 8001f0c:	200f      	movs	r0, #15
 8001f0e:	f7ff f9fc 	bl	800130a <LCD_WriteXY>
 8001f12:	68b0      	ldr	r0, [r6, #8]
 8001f14:	f7fe fb18 	bl	8000548 <__aeabi_f2d>
 8001f18:	4602      	mov	r2, r0
 8001f1a:	460b      	mov	r3, r1
 8001f1c:	4628      	mov	r0, r5
 8001f1e:	4953      	ldr	r1, [pc, #332]	; (800206c <StatusDisplay+0x434>)
 8001f20:	f004 ff18 	bl	8006d54 <siprintf>
 8001f24:	ed96 7a02 	vldr	s14, [r6, #8]
 8001f28:	eef0 7a04 	vmov.f32	s15, #4	; 0x40200000  2.5
 8001f2c:	eeb4 7ae7 	vcmpe.f32	s14, s15
 8001f30:	eef1 fa10 	vmrs	APSR_nzcv, fpscr
 8001f34:	da3e      	bge.n	8001fb4 <StatusDisplay+0x37c>
 8001f36:	4b4e      	ldr	r3, [pc, #312]	; (8002070 <StatusDisplay+0x438>)
 8001f38:	4a4e      	ldr	r2, [pc, #312]	; (8002074 <StatusDisplay+0x43c>)
 8001f3a:	781b      	ldrb	r3, [r3, #0]
 8001f3c:	2b00      	cmp	r3, #0
 8001f3e:	bf18      	it	ne
 8001f40:	462a      	movne	r2, r5
 8001f42:	2101      	movs	r1, #1
 8001f44:	200f      	movs	r0, #15
 8001f46:	f7ff f9e0 	bl	800130a <LCD_WriteXY>
 8001f4a:	6870      	ldr	r0, [r6, #4]
 8001f4c:	f7fe fafc 	bl	8000548 <__aeabi_f2d>
 8001f50:	4602      	mov	r2, r0
 8001f52:	460b      	mov	r3, r1
 8001f54:	4628      	mov	r0, r5
 8001f56:	4948      	ldr	r1, [pc, #288]	; (8002078 <StatusDisplay+0x440>)
 8001f58:	f004 fefc 	bl	8006d54 <siprintf>
 8001f5c:	ed96 7a01 	vldr	s14, [r6, #4]
 8001f60:	eddf 7a46 	vldr	s15, [pc, #280]	; 800207c <StatusDisplay+0x444>
 8001f64:	eeb4 7ae7 	vcmpe.f32	s14, s15
 8001f68:	eef1 fa10 	vmrs	APSR_nzcv, fpscr
 8001f6c:	d924      	bls.n	8001fb8 <StatusDisplay+0x380>
 8001f6e:	4b40      	ldr	r3, [pc, #256]	; (8002070 <StatusDisplay+0x438>)
 8001f70:	4a43      	ldr	r2, [pc, #268]	; (8002080 <StatusDisplay+0x448>)
 8001f72:	781b      	ldrb	r3, [r3, #0]
 8001f74:	2b00      	cmp	r3, #0
 8001f76:	bf18      	it	ne
 8001f78:	462a      	movne	r2, r5
 8001f7a:	2102      	movs	r1, #2
 8001f7c:	200e      	movs	r0, #14
 8001f7e:	f7ff f9c4 	bl	800130a <LCD_WriteXY>
 8001f82:	7b73      	ldrb	r3, [r6, #13]
 8001f84:	2b02      	cmp	r3, #2
 8001f86:	d119      	bne.n	8001fbc <StatusDisplay+0x384>
 8001f88:	4a3e      	ldr	r2, [pc, #248]	; (8002084 <StatusDisplay+0x44c>)
 8001f8a:	2103      	movs	r1, #3
 8001f8c:	200e      	movs	r0, #14
 8001f8e:	f7ff f9bc 	bl	800130a <LCD_WriteXY>
 8001f92:	2102      	movs	r1, #2
 8001f94:	2000      	movs	r0, #0
 8001f96:	f7ff f8bd 	bl	8001114 <checkButton>
 8001f9a:	2800      	cmp	r0, #0
 8001f9c:	f47f aef5 	bne.w	8001d8a <StatusDisplay+0x152>
 8001fa0:	2102      	movs	r1, #2
 8001fa2:	4608      	mov	r0, r1
 8001fa4:	f7ff f8b6 	bl	8001114 <checkButton>
 8001fa8:	2800      	cmp	r0, #0
 8001faa:	bf18      	it	ne
 8001fac:	2406      	movne	r4, #6
 8001fae:	e67d      	b.n	8001cac <StatusDisplay+0x74>
 8001fb0:	462a      	mov	r2, r5
 8001fb2:	e7aa      	b.n	8001f0a <StatusDisplay+0x2d2>
 8001fb4:	462a      	mov	r2, r5
 8001fb6:	e7c4      	b.n	8001f42 <StatusDisplay+0x30a>
 8001fb8:	462a      	mov	r2, r5
 8001fba:	e7de      	b.n	8001f7a <StatusDisplay+0x342>
 8001fbc:	b90b      	cbnz	r3, 8001fc2 <StatusDisplay+0x38a>
 8001fbe:	4a32      	ldr	r2, [pc, #200]	; (8002088 <StatusDisplay+0x450>)
 8001fc0:	e7e3      	b.n	8001f8a <StatusDisplay+0x352>
 8001fc2:	4a32      	ldr	r2, [pc, #200]	; (800208c <StatusDisplay+0x454>)
 8001fc4:	e7e1      	b.n	8001f8a <StatusDisplay+0x352>
 8001fc6:	f7ff f97d 	bl	80012c4 <LCD_Clear>
 8001fca:	2100      	movs	r1, #0
 8001fcc:	4608      	mov	r0, r1
 8001fce:	4a30      	ldr	r2, [pc, #192]	; (8002090 <StatusDisplay+0x458>)
 8001fd0:	f7ff f99b 	bl	800130a <LCD_WriteXY>
 8001fd4:	4a2f      	ldr	r2, [pc, #188]	; (8002094 <StatusDisplay+0x45c>)
 8001fd6:	2101      	movs	r1, #1
 8001fd8:	2000      	movs	r0, #0
 8001fda:	f7ff f996 	bl	800130a <LCD_WriteXY>
 8001fde:	4a2e      	ldr	r2, [pc, #184]	; (8002098 <StatusDisplay+0x460>)
 8001fe0:	2102      	movs	r1, #2
 8001fe2:	2000      	movs	r0, #0
 8001fe4:	f7ff f991 	bl	800130a <LCD_WriteXY>
 8001fe8:	4a2c      	ldr	r2, [pc, #176]	; (800209c <StatusDisplay+0x464>)
 8001fea:	2103      	movs	r1, #3
 8001fec:	2000      	movs	r0, #0
 8001fee:	f7ff f98c 	bl	800130a <LCD_WriteXY>
 8001ff2:	2407      	movs	r4, #7
 8001ff4:	e65a      	b.n	8001cac <StatusDisplay+0x74>
 8001ff6:	f7ff f89d 	bl	8001134 <refreshScreen>
 8001ffa:	b348      	cbz	r0, 8002050 <StatusDisplay+0x418>
 8001ffc:	4e28      	ldr	r6, [pc, #160]	; (80020a0 <StatusDisplay+0x468>)
 8001ffe:	4929      	ldr	r1, [pc, #164]	; (80020a4 <StatusDisplay+0x46c>)
 8002000:	6832      	ldr	r2, [r6, #0]
 8002002:	4d29      	ldr	r5, [pc, #164]	; (80020a8 <StatusDisplay+0x470>)
 8002004:	a80a      	add	r0, sp, #40	; 0x28
 8002006:	f004 fea5 	bl	8006d54 <siprintf>
 800200a:	aa0a      	add	r2, sp, #40	; 0x28
 800200c:	2100      	movs	r1, #0
 800200e:	2009      	movs	r0, #9
 8002010:	f7ff f97b 	bl	800130a <LCD_WriteXY>
 8002014:	682a      	ldr	r2, [r5, #0]
 8002016:	4923      	ldr	r1, [pc, #140]	; (80020a4 <StatusDisplay+0x46c>)
 8002018:	a80a      	add	r0, sp, #40	; 0x28
 800201a:	f004 fe9b 	bl	8006d54 <siprintf>
 800201e:	aa0a      	add	r2, sp, #40	; 0x28
 8002020:	2101      	movs	r1, #1
 8002022:	2009      	movs	r0, #9
 8002024:	f7ff f971 	bl	800130a <LCD_WriteXY>
 8002028:	68b2      	ldr	r2, [r6, #8]
 800202a:	491e      	ldr	r1, [pc, #120]	; (80020a4 <StatusDisplay+0x46c>)
 800202c:	a80a      	add	r0, sp, #40	; 0x28
 800202e:	f004 fe91 	bl	8006d54 <siprintf>
 8002032:	aa0a      	add	r2, sp, #40	; 0x28
 8002034:	2102      	movs	r1, #2
 8002036:	2009      	movs	r0, #9
 8002038:	f7ff f967 	bl	800130a <LCD_WriteXY>
 800203c:	68aa      	ldr	r2, [r5, #8]
 800203e:	4919      	ldr	r1, [pc, #100]	; (80020a4 <StatusDisplay+0x46c>)
 8002040:	a80a      	add	r0, sp, #40	; 0x28
 8002042:	f004 fe87 	bl	8006d54 <siprintf>
 8002046:	aa0a      	add	r2, sp, #40	; 0x28
 8002048:	2103      	movs	r1, #3
 800204a:	2009      	movs	r0, #9
 800204c:	f7ff f95d 	bl	800130a <LCD_WriteXY>
 8002050:	2102      	movs	r1, #2
 8002052:	2000      	movs	r0, #0
 8002054:	e6f8      	b.n	8001e48 <StatusDisplay+0x210>
 8002056:	2400      	movs	r4, #0
 8002058:	e628      	b.n	8001cac <StatusDisplay+0x74>
 800205a:	bf00      	nop
 800205c:	f3af 8000 	nop.w
 8002060:	9999999a 	.word	0x9999999a
 8002064:	40099999 	.word	0x40099999
 8002068:	200006cc 	.word	0x200006cc
 800206c:	080098dc 	.word	0x080098dc
 8002070:	200006ee 	.word	0x200006ee
 8002074:	08009468 	.word	0x08009468
 8002078:	080094cf 	.word	0x080094cf
 800207c:	42480000 	.word	0x42480000
 8002080:	08009467 	.word	0x08009467
 8002084:	080094d7 	.word	0x080094d7
 8002088:	080094de 	.word	0x080094de
 800208c:	080098ab 	.word	0x080098ab
 8002090:	080094e5 	.word	0x080094e5
 8002094:	080094ee 	.word	0x080094ee
 8002098:	080094f7 	.word	0x080094f7
 800209c:	08009500 	.word	0x08009500
 80020a0:	20000354 	.word	0x20000354
 80020a4:	08009509 	.word	0x08009509
 80020a8:	20000398 	.word	0x20000398

080020ac <showVersion>:
 80020ac:	b510      	push	{r4, lr}
 80020ae:	2104      	movs	r1, #4
 80020b0:	b088      	sub	sp, #32
 80020b2:	4604      	mov	r4, r0
 80020b4:	2001      	movs	r0, #1
 80020b6:	f7ff f82d 	bl	8001114 <checkButton>
 80020ba:	b910      	cbnz	r0, 80020c2 <showVersion+0x16>
 80020bc:	b124      	cbz	r4, 80020c8 <showVersion+0x1c>
 80020be:	2c01      	cmp	r4, #1
 80020c0:	d02e      	beq.n	8002120 <showVersion+0x74>
 80020c2:	f04f 34ff 	mov.w	r4, #4294967295	; 0xffffffff
 80020c6:	e028      	b.n	800211a <showVersion+0x6e>
 80020c8:	f7ff f8fc 	bl	80012c4 <LCD_Clear>
 80020cc:	4621      	mov	r1, r4
 80020ce:	4620      	mov	r0, r4
 80020d0:	4a17      	ldr	r2, [pc, #92]	; (8002130 <showVersion+0x84>)
 80020d2:	f7ff f91a 	bl	800130a <LCD_WriteXY>
 80020d6:	4620      	mov	r0, r4
 80020d8:	4a16      	ldr	r2, [pc, #88]	; (8002134 <showVersion+0x88>)
 80020da:	2101      	movs	r1, #1
 80020dc:	f7ff f915 	bl	800130a <LCD_WriteXY>
 80020e0:	4620      	mov	r0, r4
 80020e2:	4a15      	ldr	r2, [pc, #84]	; (8002138 <showVersion+0x8c>)
 80020e4:	2102      	movs	r1, #2
 80020e6:	f7ff f910 	bl	800130a <LCD_WriteXY>
 80020ea:	4a14      	ldr	r2, [pc, #80]	; (800213c <showVersion+0x90>)
 80020ec:	4620      	mov	r0, r4
 80020ee:	2103      	movs	r1, #3
 80020f0:	f7ff f90b 	bl	800130a <LCD_WriteXY>
 80020f4:	4912      	ldr	r1, [pc, #72]	; (8002140 <showVersion+0x94>)
 80020f6:	4668      	mov	r0, sp
 80020f8:	f004 fe5b 	bl	8006db2 <strcpy>
 80020fc:	466a      	mov	r2, sp
 80020fe:	2102      	movs	r1, #2
 8002100:	200f      	movs	r0, #15
 8002102:	f7ff f902 	bl	800130a <LCD_WriteXY>
 8002106:	490f      	ldr	r1, [pc, #60]	; (8002144 <showVersion+0x98>)
 8002108:	4668      	mov	r0, sp
 800210a:	f004 fe52 	bl	8006db2 <strcpy>
 800210e:	466a      	mov	r2, sp
 8002110:	2103      	movs	r1, #3
 8002112:	2006      	movs	r0, #6
 8002114:	f7ff f8f9 	bl	800130a <LCD_WriteXY>
 8002118:	2401      	movs	r4, #1
 800211a:	4620      	mov	r0, r4
 800211c:	b008      	add	sp, #32
 800211e:	bd10      	pop	{r4, pc}
 8002120:	2102      	movs	r1, #2
 8002122:	4620      	mov	r0, r4
 8002124:	f7fe fff6 	bl	8001114 <checkButton>
 8002128:	2800      	cmp	r0, #0
 800212a:	d0f6      	beq.n	800211a <showVersion+0x6e>
 800212c:	e7c9      	b.n	80020c2 <showVersion+0x16>
 800212e:	bf00      	nop
 8002130:	080093ea 	.word	0x080093ea
 8002134:	08009511 	.word	0x08009511
 8002138:	0800951c 	.word	0x0800951c
 800213c:	0800952b 	.word	0x0800952b
 8002140:	08009531 	.word	0x08009531
 8002144:	08009535 	.word	0x08009535

08002148 <rotaryInput>:
 8002148:	e92d 41f0 	stmdb	sp!, {r4, r5, r6, r7, r8, lr}
 800214c:	4698      	mov	r8, r3
 800214e:	4605      	mov	r5, r0
 8002150:	460e      	mov	r6, r1
 8002152:	4617      	mov	r7, r2
 8002154:	f7fe ff68 	bl	8001028 <getEncoderVelocity>
 8002158:	f8bd 3018 	ldrh.w	r3, [sp, #24]
 800215c:	b284      	uxth	r4, r0
 800215e:	429c      	cmp	r4, r3
 8002160:	f04f 0001 	mov.w	r0, #1
 8002164:	bf98      	it	ls
 8002166:	fa1f f488 	uxthls.w	r4, r8
 800216a:	f7fe ff3f 	bl	8000fec <checkEncoder>
 800216e:	b138      	cbz	r0, 8002180 <rotaryInput+0x38>
 8002170:	6828      	ldr	r0, [r5, #0]
 8002172:	4404      	add	r4, r0
 8002174:	42bc      	cmp	r4, r7
 8002176:	bfd4      	ite	le
 8002178:	602c      	strle	r4, [r5, #0]
 800217a:	602f      	strgt	r7, [r5, #0]
 800217c:	e8bd 81f0 	ldmia.w	sp!, {r4, r5, r6, r7, r8, pc}
 8002180:	2002      	movs	r0, #2
 8002182:	f7fe ff33 	bl	8000fec <checkEncoder>
 8002186:	2800      	cmp	r0, #0
 8002188:	d0f8      	beq.n	800217c <rotaryInput+0x34>
 800218a:	6828      	ldr	r0, [r5, #0]
 800218c:	1b00      	subs	r0, r0, r4
 800218e:	42b0      	cmp	r0, r6
 8002190:	bfac      	ite	ge
 8002192:	6028      	strge	r0, [r5, #0]
 8002194:	602e      	strlt	r6, [r5, #0]
 8002196:	e7f1      	b.n	800217c <rotaryInput+0x34>

08002198 <setWarnPos>:
 8002198:	b530      	push	{r4, r5, lr}
 800219a:	4605      	mov	r5, r0
 800219c:	b08b      	sub	sp, #44	; 0x2c
 800219e:	460c      	mov	r4, r1
 80021a0:	2001      	movs	r0, #1
 80021a2:	2104      	movs	r1, #4
 80021a4:	f7fe ffb6 	bl	8001114 <checkButton>
 80021a8:	2800      	cmp	r0, #0
 80021aa:	f040 80e8 	bne.w	800237e <setWarnPos+0x1e6>
 80021ae:	2c04      	cmp	r4, #4
 80021b0:	f200 80e5 	bhi.w	800237e <setWarnPos+0x1e6>
 80021b4:	e8df f014 	tbh	[pc, r4, lsl #1]
 80021b8:	00270005 	.word	0x00270005
 80021bc:	00800055 	.word	0x00800055
 80021c0:	00b9      	.short	0x00b9
 80021c2:	f7ff f87f 	bl	80012c4 <LCD_Clear>
 80021c6:	496f      	ldr	r1, [pc, #444]	; (8002384 <setWarnPos+0x1ec>)
 80021c8:	f105 0234 	add.w	r2, r5, #52	; 0x34
 80021cc:	a802      	add	r0, sp, #8
 80021ce:	f004 fdc1 	bl	8006d54 <siprintf>
 80021d2:	2100      	movs	r1, #0
 80021d4:	4608      	mov	r0, r1
 80021d6:	aa02      	add	r2, sp, #8
 80021d8:	f7ff f897 	bl	800130a <LCD_WriteXY>
 80021dc:	4a6a      	ldr	r2, [pc, #424]	; (8002388 <setWarnPos+0x1f0>)
 80021de:	496b      	ldr	r1, [pc, #428]	; (800238c <setWarnPos+0x1f4>)
 80021e0:	7893      	ldrb	r3, [r2, #2]
 80021e2:	8812      	ldrh	r2, [r2, #0]
 80021e4:	a802      	add	r0, sp, #8
 80021e6:	f004 fdb5 	bl	8006d54 <siprintf>
 80021ea:	aa02      	add	r2, sp, #8
 80021ec:	2102      	movs	r1, #2
 80021ee:	2000      	movs	r0, #0
 80021f0:	f7ff f88b 	bl	800130a <LCD_WriteXY>
 80021f4:	4a66      	ldr	r2, [pc, #408]	; (8002390 <setWarnPos+0x1f8>)
 80021f6:	2103      	movs	r1, #3
 80021f8:	2000      	movs	r0, #0
 80021fa:	f7ff f886 	bl	800130a <LCD_WriteXY>
 80021fe:	2401      	movs	r4, #1
 8002200:	4620      	mov	r0, r4
 8002202:	b00b      	add	sp, #44	; 0x2c
 8002204:	bd30      	pop	{r4, r5, pc}
 8002206:	f7fe ff95 	bl	8001134 <refreshScreen>
 800220a:	b188      	cbz	r0, 8002230 <setWarnPos+0x98>
 800220c:	4b61      	ldr	r3, [pc, #388]	; (8002394 <setWarnPos+0x1fc>)
 800220e:	4962      	ldr	r1, [pc, #392]	; (8002398 <setWarnPos+0x200>)
 8002210:	789a      	ldrb	r2, [r3, #2]
 8002212:	9201      	str	r2, [sp, #4]
 8002214:	4a61      	ldr	r2, [pc, #388]	; (800239c <setWarnPos+0x204>)
 8002216:	7812      	ldrb	r2, [r2, #0]
 8002218:	9200      	str	r2, [sp, #0]
 800221a:	4a61      	ldr	r2, [pc, #388]	; (80023a0 <setWarnPos+0x208>)
 800221c:	881b      	ldrh	r3, [r3, #0]
 800221e:	7812      	ldrb	r2, [r2, #0]
 8002220:	a802      	add	r0, sp, #8
 8002222:	f004 fd97 	bl	8006d54 <siprintf>
 8002226:	aa02      	add	r2, sp, #8
 8002228:	2101      	movs	r1, #1
 800222a:	2000      	movs	r0, #0
 800222c:	f7ff f86d 	bl	800130a <LCD_WriteXY>
 8002230:	8e29      	ldrh	r1, [r5, #48]	; 0x30
 8002232:	8e6a      	ldrh	r2, [r5, #50]	; 0x32
 8002234:	4857      	ldr	r0, [pc, #348]	; (8002394 <setWarnPos+0x1fc>)
 8002236:	230a      	movs	r3, #10
 8002238:	9300      	str	r3, [sp, #0]
 800223a:	b289      	uxth	r1, r1
 800223c:	2301      	movs	r3, #1
 800223e:	b292      	uxth	r2, r2
 8002240:	f7ff ff82 	bl	8002148 <rotaryInput>
 8002244:	2102      	movs	r1, #2
 8002246:	2000      	movs	r0, #0
 8002248:	f7fe ff64 	bl	8001114 <checkButton>
 800224c:	2800      	cmp	r0, #0
 800224e:	f040 8094 	bne.w	800237a <setWarnPos+0x1e2>
 8002252:	2102      	movs	r1, #2
 8002254:	4608      	mov	r0, r1
 8002256:	f7fe ff5d 	bl	8001114 <checkButton>
 800225a:	2800      	cmp	r0, #0
 800225c:	d0d0      	beq.n	8002200 <setWarnPos+0x68>
 800225e:	2402      	movs	r4, #2
 8002260:	e7ce      	b.n	8002200 <setWarnPos+0x68>
 8002262:	f7fe ff67 	bl	8001134 <refreshScreen>
 8002266:	b188      	cbz	r0, 800228c <setWarnPos+0xf4>
 8002268:	4b4c      	ldr	r3, [pc, #304]	; (800239c <setWarnPos+0x204>)
 800226a:	4a4a      	ldr	r2, [pc, #296]	; (8002394 <setWarnPos+0x1fc>)
 800226c:	781b      	ldrb	r3, [r3, #0]
 800226e:	9301      	str	r3, [sp, #4]
 8002270:	7893      	ldrb	r3, [r2, #2]
 8002272:	9300      	str	r3, [sp, #0]
 8002274:	4b4a      	ldr	r3, [pc, #296]	; (80023a0 <setWarnPos+0x208>)
 8002276:	8812      	ldrh	r2, [r2, #0]
 8002278:	494a      	ldr	r1, [pc, #296]	; (80023a4 <setWarnPos+0x20c>)
 800227a:	781b      	ldrb	r3, [r3, #0]
 800227c:	a802      	add	r0, sp, #8
 800227e:	f004 fd69 	bl	8006d54 <siprintf>
 8002282:	aa02      	add	r2, sp, #8
 8002284:	2101      	movs	r1, #1
 8002286:	2000      	movs	r0, #0
 8002288:	f7ff f83f 	bl	800130a <LCD_WriteXY>
 800228c:	230a      	movs	r3, #10
 800228e:	4846      	ldr	r0, [pc, #280]	; (80023a8 <setWarnPos+0x210>)
 8002290:	9300      	str	r3, [sp, #0]
 8002292:	2100      	movs	r1, #0
 8002294:	2301      	movs	r3, #1
 8002296:	223b      	movs	r2, #59	; 0x3b
 8002298:	f7ff ff56 	bl	8002148 <rotaryInput>
 800229c:	2102      	movs	r1, #2
 800229e:	2000      	movs	r0, #0
 80022a0:	f7fe ff38 	bl	8001114 <checkButton>
 80022a4:	2800      	cmp	r0, #0
 80022a6:	d168      	bne.n	800237a <setWarnPos+0x1e2>
 80022a8:	2102      	movs	r1, #2
 80022aa:	4608      	mov	r0, r1
 80022ac:	f7fe ff32 	bl	8001114 <checkButton>
 80022b0:	2800      	cmp	r0, #0
 80022b2:	d0d4      	beq.n	800225e <setWarnPos+0xc6>
 80022b4:	2403      	movs	r4, #3
 80022b6:	e7a3      	b.n	8002200 <setWarnPos+0x68>
 80022b8:	f7fe ff3c 	bl	8001134 <refreshScreen>
 80022bc:	b1e8      	cbz	r0, 80022fa <setWarnPos+0x162>
 80022be:	4a35      	ldr	r2, [pc, #212]	; (8002394 <setWarnPos+0x1fc>)
 80022c0:	493a      	ldr	r1, [pc, #232]	; (80023ac <setWarnPos+0x214>)
 80022c2:	7893      	ldrb	r3, [r2, #2]
 80022c4:	8812      	ldrh	r2, [r2, #0]
 80022c6:	a802      	add	r0, sp, #8
 80022c8:	f004 fd44 	bl	8006d54 <siprintf>
 80022cc:	aa02      	add	r2, sp, #8
 80022ce:	2101      	movs	r1, #1
 80022d0:	2000      	movs	r0, #0
 80022d2:	f7ff f81a 	bl	800130a <LCD_WriteXY>
 80022d6:	4b2c      	ldr	r3, [pc, #176]	; (8002388 <setWarnPos+0x1f0>)
 80022d8:	4935      	ldr	r1, [pc, #212]	; (80023b0 <setWarnPos+0x218>)
 80022da:	789a      	ldrb	r2, [r3, #2]
 80022dc:	9201      	str	r2, [sp, #4]
 80022de:	4a2f      	ldr	r2, [pc, #188]	; (800239c <setWarnPos+0x204>)
 80022e0:	7812      	ldrb	r2, [r2, #0]
 80022e2:	9200      	str	r2, [sp, #0]
 80022e4:	4a2e      	ldr	r2, [pc, #184]	; (80023a0 <setWarnPos+0x208>)
 80022e6:	881b      	ldrh	r3, [r3, #0]
 80022e8:	7812      	ldrb	r2, [r2, #0]
 80022ea:	a802      	add	r0, sp, #8
 80022ec:	f004 fd32 	bl	8006d54 <siprintf>
 80022f0:	aa02      	add	r2, sp, #8
 80022f2:	2102      	movs	r1, #2
 80022f4:	2000      	movs	r0, #0
 80022f6:	f7ff f808 	bl	800130a <LCD_WriteXY>
 80022fa:	8e29      	ldrh	r1, [r5, #48]	; 0x30
 80022fc:	8e6a      	ldrh	r2, [r5, #50]	; 0x32
 80022fe:	4822      	ldr	r0, [pc, #136]	; (8002388 <setWarnPos+0x1f0>)
 8002300:	230a      	movs	r3, #10
 8002302:	9300      	str	r3, [sp, #0]
 8002304:	b289      	uxth	r1, r1
 8002306:	2301      	movs	r3, #1
 8002308:	b292      	uxth	r2, r2
 800230a:	f7ff ff1d 	bl	8002148 <rotaryInput>
 800230e:	2102      	movs	r1, #2
 8002310:	2000      	movs	r0, #0
 8002312:	f7fe feff 	bl	8001114 <checkButton>
 8002316:	2800      	cmp	r0, #0
 8002318:	d12f      	bne.n	800237a <setWarnPos+0x1e2>
 800231a:	2102      	movs	r1, #2
 800231c:	4608      	mov	r0, r1
 800231e:	f7fe fef9 	bl	8001114 <checkButton>
 8002322:	2800      	cmp	r0, #0
 8002324:	d0c6      	beq.n	80022b4 <setWarnPos+0x11c>
 8002326:	2404      	movs	r4, #4
 8002328:	e76a      	b.n	8002200 <setWarnPos+0x68>
 800232a:	f7fe ff03 	bl	8001134 <refreshScreen>
 800232e:	b188      	cbz	r0, 8002354 <setWarnPos+0x1bc>
 8002330:	4b1a      	ldr	r3, [pc, #104]	; (800239c <setWarnPos+0x204>)
 8002332:	4a15      	ldr	r2, [pc, #84]	; (8002388 <setWarnPos+0x1f0>)
 8002334:	781b      	ldrb	r3, [r3, #0]
 8002336:	9301      	str	r3, [sp, #4]
 8002338:	7893      	ldrb	r3, [r2, #2]
 800233a:	9300      	str	r3, [sp, #0]
 800233c:	4b18      	ldr	r3, [pc, #96]	; (80023a0 <setWarnPos+0x208>)
 800233e:	8812      	ldrh	r2, [r2, #0]
 8002340:	491c      	ldr	r1, [pc, #112]	; (80023b4 <setWarnPos+0x21c>)
 8002342:	781b      	ldrb	r3, [r3, #0]
 8002344:	a802      	add	r0, sp, #8
 8002346:	f004 fd05 	bl	8006d54 <siprintf>
 800234a:	aa02      	add	r2, sp, #8
 800234c:	2102      	movs	r1, #2
 800234e:	2000      	movs	r0, #0
 8002350:	f7fe ffdb 	bl	800130a <LCD_WriteXY>
 8002354:	230a      	movs	r3, #10
 8002356:	4818      	ldr	r0, [pc, #96]	; (80023b8 <setWarnPos+0x220>)
 8002358:	9300      	str	r3, [sp, #0]
 800235a:	2100      	movs	r1, #0
 800235c:	2301      	movs	r3, #1
 800235e:	223b      	movs	r2, #59	; 0x3b
 8002360:	f7ff fef2 	bl	8002148 <rotaryInput>
 8002364:	2102      	movs	r1, #2
 8002366:	2000      	movs	r0, #0
 8002368:	f7fe fed4 	bl	8001114 <checkButton>
 800236c:	b928      	cbnz	r0, 800237a <setWarnPos+0x1e2>
 800236e:	2102      	movs	r1, #2
 8002370:	4608      	mov	r0, r1
 8002372:	f7fe fecf 	bl	8001114 <checkButton>
 8002376:	2800      	cmp	r0, #0
 8002378:	d0d5      	beq.n	8002326 <setWarnPos+0x18e>
 800237a:	2405      	movs	r4, #5
 800237c:	e740      	b.n	8002200 <setWarnPos+0x68>
 800237e:	f04f 34ff 	mov.w	r4, #4294967295	; 0xffffffff
 8002382:	e73d      	b.n	8002200 <setWarnPos+0x68>
 8002384:	08009541 	.word	0x08009541
 8002388:	20000696 	.word	0x20000696
 800238c:	0800954e 	.word	0x0800954e
 8002390:	08009560 	.word	0x08009560
 8002394:	2000069a 	.word	0x2000069a
 8002398:	08009575 	.word	0x08009575
 800239c:	200006e6 	.word	0x200006e6
 80023a0:	200006e5 	.word	0x200006e5
 80023a4:	08009589 	.word	0x08009589
 80023a8:	2000069c 	.word	0x2000069c
 80023ac:	0800959e 	.word	0x0800959e
 80023b0:	080095b0 	.word	0x080095b0
 80023b4:	080095c4 	.word	0x080095c4
 80023b8:	20000698 	.word	0x20000698

080023bc <setAzimuthWarnPos>:
 80023bc:	4601      	mov	r1, r0
 80023be:	4801      	ldr	r0, [pc, #4]	; (80023c4 <setAzimuthWarnPos+0x8>)
 80023c0:	f7ff beea 	b.w	8002198 <setWarnPos>
 80023c4:	20000354 	.word	0x20000354

080023c8 <setElevationWarnPos>:
 80023c8:	4601      	mov	r1, r0
 80023ca:	4801      	ldr	r0, [pc, #4]	; (80023d0 <setElevationWarnPos+0x8>)
 80023cc:	f7ff bee4 	b.w	8002198 <setWarnPos>
 80023d0:	20000398 	.word	0x20000398

080023d4 <setRefMaxSpeed>:
 80023d4:	b570      	push	{r4, r5, r6, lr}
 80023d6:	2104      	movs	r1, #4
 80023d8:	b08a      	sub	sp, #40	; 0x28
 80023da:	4604      	mov	r4, r0
 80023dc:	2001      	movs	r0, #1
 80023de:	f7fe fe99 	bl	8001114 <checkButton>
 80023e2:	b910      	cbnz	r0, 80023ea <setRefMaxSpeed+0x16>
 80023e4:	b124      	cbz	r4, 80023f0 <setRefMaxSpeed+0x1c>
 80023e6:	2c01      	cmp	r4, #1
 80023e8:	d012      	beq.n	8002410 <setRefMaxSpeed+0x3c>
 80023ea:	f04f 34ff 	mov.w	r4, #4294967295	; 0xffffffff
 80023ee:	e00c      	b.n	800240a <setRefMaxSpeed+0x36>
 80023f0:	f7fe ff68 	bl	80012c4 <LCD_Clear>
 80023f4:	4621      	mov	r1, r4
 80023f6:	4620      	mov	r0, r4
 80023f8:	4a1e      	ldr	r2, [pc, #120]	; (8002474 <setRefMaxSpeed+0xa0>)
 80023fa:	f7fe ff86 	bl	800130a <LCD_WriteXY>
 80023fe:	4620      	mov	r0, r4
 8002400:	4a1d      	ldr	r2, [pc, #116]	; (8002478 <setRefMaxSpeed+0xa4>)
 8002402:	2101      	movs	r1, #1
 8002404:	f7fe ff81 	bl	800130a <LCD_WriteXY>
 8002408:	2401      	movs	r4, #1
 800240a:	4620      	mov	r0, r4
 800240c:	b00a      	add	sp, #40	; 0x28
 800240e:	bd70      	pop	{r4, r5, r6, pc}
 8002410:	f7fe fe90 	bl	8001134 <refreshScreen>
 8002414:	4e19      	ldr	r6, [pc, #100]	; (800247c <setRefMaxSpeed+0xa8>)
 8002416:	b148      	cbz	r0, 800242c <setRefMaxSpeed+0x58>
 8002418:	6832      	ldr	r2, [r6, #0]
 800241a:	4919      	ldr	r1, [pc, #100]	; (8002480 <setRefMaxSpeed+0xac>)
 800241c:	a802      	add	r0, sp, #8
 800241e:	f004 fc99 	bl	8006d54 <siprintf>
 8002422:	aa02      	add	r2, sp, #8
 8002424:	2102      	movs	r1, #2
 8002426:	2007      	movs	r0, #7
 8002428:	f7fe ff6f 	bl	800130a <LCD_WriteXY>
 800242c:	2501      	movs	r5, #1
 800242e:	4813      	ldr	r0, [pc, #76]	; (800247c <setRefMaxSpeed+0xa8>)
 8002430:	9500      	str	r5, [sp, #0]
 8002432:	2100      	movs	r1, #0
 8002434:	462b      	mov	r3, r5
 8002436:	f640 32b8 	movw	r2, #3000	; 0xbb8
 800243a:	f7ff fe85 	bl	8002148 <rotaryInput>
 800243e:	2102      	movs	r1, #2
 8002440:	4628      	mov	r0, r5
 8002442:	f7fe fe67 	bl	8001114 <checkButton>
 8002446:	2800      	cmp	r0, #0
 8002448:	d0df      	beq.n	800240a <setRefMaxSpeed+0x36>
 800244a:	6832      	ldr	r2, [r6, #0]
 800244c:	490d      	ldr	r1, [pc, #52]	; (8002484 <setRefMaxSpeed+0xb0>)
 800244e:	480e      	ldr	r0, [pc, #56]	; (8002488 <setRefMaxSpeed+0xb4>)
 8002450:	b293      	uxth	r3, r2
 8002452:	828b      	strh	r3, [r1, #20]
 8002454:	490d      	ldr	r1, [pc, #52]	; (800248c <setRefMaxSpeed+0xb8>)
 8002456:	251c      	movs	r5, #28
 8002458:	828b      	strh	r3, [r1, #20]
 800245a:	2100      	movs	r1, #0
 800245c:	b2cb      	uxtb	r3, r1
 800245e:	436b      	muls	r3, r5
 8002460:	3101      	adds	r1, #1
 8002462:	5cc4      	ldrb	r4, [r0, r3]
 8002464:	2c02      	cmp	r4, #2
 8002466:	d1f9      	bne.n	800245c <setRefMaxSpeed+0x88>
 8002468:	3302      	adds	r3, #2
 800246a:	4909      	ldr	r1, [pc, #36]	; (8002490 <setRefMaxSpeed+0xbc>)
 800246c:	4418      	add	r0, r3
 800246e:	f004 fc71 	bl	8006d54 <siprintf>
 8002472:	e7ba      	b.n	80023ea <setRefMaxSpeed+0x16>
 8002474:	080095d9 	.word	0x080095d9
 8002478:	080095ee 	.word	0x080095ee
 800247c:	2000034c 	.word	0x2000034c
 8002480:	08009602 	.word	0x08009602
 8002484:	20000398 	.word	0x20000398
 8002488:	20000004 	.word	0x20000004
 800248c:	20000354 	.word	0x20000354
 8002490:	08009609 	.word	0x08009609

08002494 <setRefWarnThres>:
 8002494:	b570      	push	{r4, r5, r6, lr}
 8002496:	2104      	movs	r1, #4
 8002498:	b08a      	sub	sp, #40	; 0x28
 800249a:	4604      	mov	r4, r0
 800249c:	2001      	movs	r0, #1
 800249e:	f7fe fe39 	bl	8001114 <checkButton>
 80024a2:	b910      	cbnz	r0, 80024aa <setRefWarnThres+0x16>
 80024a4:	b124      	cbz	r4, 80024b0 <setRefWarnThres+0x1c>
 80024a6:	2c01      	cmp	r4, #1
 80024a8:	d012      	beq.n	80024d0 <setRefWarnThres+0x3c>
 80024aa:	f04f 34ff 	mov.w	r4, #4294967295	; 0xffffffff
 80024ae:	e00c      	b.n	80024ca <setRefWarnThres+0x36>
 80024b0:	f7fe ff08 	bl	80012c4 <LCD_Clear>
 80024b4:	4621      	mov	r1, r4
 80024b6:	4620      	mov	r0, r4
 80024b8:	4a26      	ldr	r2, [pc, #152]	; (8002554 <setRefWarnThres+0xc0>)
 80024ba:	f7fe ff26 	bl	800130a <LCD_WriteXY>
 80024be:	4620      	mov	r0, r4
 80024c0:	4a25      	ldr	r2, [pc, #148]	; (8002558 <setRefWarnThres+0xc4>)
 80024c2:	2101      	movs	r1, #1
 80024c4:	f7fe ff21 	bl	800130a <LCD_WriteXY>
 80024c8:	2401      	movs	r4, #1
 80024ca:	4620      	mov	r0, r4
 80024cc:	b00a      	add	sp, #40	; 0x28
 80024ce:	bd70      	pop	{r4, r5, r6, pc}
 80024d0:	f7fe fe30 	bl	8001134 <refreshScreen>
 80024d4:	4e21      	ldr	r6, [pc, #132]	; (800255c <setRefWarnThres+0xc8>)
 80024d6:	b148      	cbz	r0, 80024ec <setRefWarnThres+0x58>
 80024d8:	6832      	ldr	r2, [r6, #0]
 80024da:	4921      	ldr	r1, [pc, #132]	; (8002560 <setRefWarnThres+0xcc>)
 80024dc:	a802      	add	r0, sp, #8
 80024de:	f004 fc39 	bl	8006d54 <siprintf>
 80024e2:	aa02      	add	r2, sp, #8
 80024e4:	2102      	movs	r1, #2
 80024e6:	2007      	movs	r0, #7
 80024e8:	f7fe ff0f 	bl	800130a <LCD_WriteXY>
 80024ec:	2501      	movs	r5, #1
 80024ee:	481b      	ldr	r0, [pc, #108]	; (800255c <setRefWarnThres+0xc8>)
 80024f0:	9500      	str	r5, [sp, #0]
 80024f2:	2100      	movs	r1, #0
 80024f4:	462b      	mov	r3, r5
 80024f6:	2264      	movs	r2, #100	; 0x64
 80024f8:	f7ff fe26 	bl	8002148 <rotaryInput>
 80024fc:	2102      	movs	r1, #2
 80024fe:	4628      	mov	r0, r5
 8002500:	f7fe fe08 	bl	8001114 <checkButton>
 8002504:	2800      	cmp	r0, #0
 8002506:	d0e0      	beq.n	80024ca <setRefWarnThres+0x36>
 8002508:	6832      	ldr	r2, [r6, #0]
 800250a:	4b16      	ldr	r3, [pc, #88]	; (8002564 <setRefWarnThres+0xd0>)
 800250c:	4816      	ldr	r0, [pc, #88]	; (8002568 <setRefWarnThres+0xd4>)
 800250e:	edd3 6a0b 	vldr	s13, [r3, #44]	; 0x2c
 8002512:	ee07 2a90 	vmov	s15, r2
 8002516:	eeb8 7ae7 	vcvt.f32.s32	s14, s15
 800251a:	2100      	movs	r1, #0
 800251c:	eec7 7a26 	vdiv.f32	s15, s14, s13
 8002520:	251c      	movs	r5, #28
 8002522:	eefc 7ae7 	vcvt.u32.f32	s15, s15
 8002526:	edc3 7a04 	vstr	s15, [r3, #16]
 800252a:	4b10      	ldr	r3, [pc, #64]	; (800256c <setRefWarnThres+0xd8>)
 800252c:	edd3 6a0b 	vldr	s13, [r3, #44]	; 0x2c
 8002530:	eec7 7a26 	vdiv.f32	s15, s14, s13
 8002534:	eefc 7ae7 	vcvt.u32.f32	s15, s15
 8002538:	edc3 7a04 	vstr	s15, [r3, #16]
 800253c:	b2cb      	uxtb	r3, r1
 800253e:	436b      	muls	r3, r5
 8002540:	3101      	adds	r1, #1
 8002542:	5cc4      	ldrb	r4, [r0, r3]
 8002544:	2c03      	cmp	r4, #3
 8002546:	d1f9      	bne.n	800253c <setRefWarnThres+0xa8>
 8002548:	3302      	adds	r3, #2
 800254a:	4909      	ldr	r1, [pc, #36]	; (8002570 <setRefWarnThres+0xdc>)
 800254c:	4418      	add	r0, r3
 800254e:	f004 fc01 	bl	8006d54 <siprintf>
 8002552:	e7aa      	b.n	80024aa <setRefWarnThres+0x16>
 8002554:	08009619 	.word	0x08009619
 8002558:	0800962d 	.word	0x0800962d
 800255c:	20000350 	.word	0x20000350
 8002560:	08009602 	.word	0x08009602
 8002564:	20000398 	.word	0x20000398
 8002568:	20000004 	.word	0x20000004
 800256c:	20000354 	.word	0x20000354
 8002570:	08009640 	.word	0x08009640

08002574 <setAutoRefPos>:
 8002574:	b570      	push	{r4, r5, r6, lr}
 8002576:	4605      	mov	r5, r0
 8002578:	b08c      	sub	sp, #48	; 0x30
 800257a:	460c      	mov	r4, r1
 800257c:	2001      	movs	r0, #1
 800257e:	2104      	movs	r1, #4
 8002580:	f7fe fdc8 	bl	8001114 <checkButton>
 8002584:	2800      	cmp	r0, #0
 8002586:	f040 8202 	bne.w	800298e <setAutoRefPos+0x41a>
 800258a:	2c0b      	cmp	r4, #11
 800258c:	f200 81ff 	bhi.w	800298e <setAutoRefPos+0x41a>
 8002590:	e8df f014 	tbh	[pc, r4, lsl #1]
 8002594:	00480010 	.word	0x00480010
 8002598:	00b70081 	.word	0x00b70081
 800259c:	012500f0 	.word	0x012500f0
 80025a0:	019f0176 	.word	0x019f0176
 80025a4:	01bd000c 	.word	0x01bd000c
 80025a8:	020001db 	.word	0x020001db
 80025ac:	2400      	movs	r4, #0
 80025ae:	4620      	mov	r0, r4
 80025b0:	b00c      	add	sp, #48	; 0x30
 80025b2:	bd70      	pop	{r4, r5, r6, pc}
 80025b4:	edd5 7a03 	vldr	s15, [r5, #12]
 80025b8:	ed95 7a0b 	vldr	s14, [r5, #44]	; 0x2c
 80025bc:	48a2      	ldr	r0, [pc, #648]	; (8002848 <setAutoRefPos+0x2d4>)
 80025be:	eef8 7a67 	vcvt.f32.u32	s15, s15
 80025c2:	f44f 6161 	mov.w	r1, #3600	; 0xe10
 80025c6:	ee67 7a87 	vmul.f32	s15, s15, s14
 80025ca:	eefc 7ae7 	vcvt.u32.f32	s15, s15
 80025ce:	ee17 3a90 	vmov	r3, s15
 80025d2:	fbb3 f2f1 	udiv	r2, r3, r1
 80025d6:	6002      	str	r2, [r0, #0]
 80025d8:	489c      	ldr	r0, [pc, #624]	; (800284c <setAutoRefPos+0x2d8>)
 80025da:	fb01 3212 	mls	r2, r1, r2, r3
 80025de:	213c      	movs	r1, #60	; 0x3c
 80025e0:	fbb2 f2f1 	udiv	r2, r2, r1
 80025e4:	6002      	str	r2, [r0, #0]
 80025e6:	fbb3 f2f1 	udiv	r2, r3, r1
 80025ea:	fb01 3312 	mls	r3, r1, r2, r3
 80025ee:	4a98      	ldr	r2, [pc, #608]	; (8002850 <setAutoRefPos+0x2dc>)
 80025f0:	6013      	str	r3, [r2, #0]
 80025f2:	f7fe fe67 	bl	80012c4 <LCD_Clear>
 80025f6:	2100      	movs	r1, #0
 80025f8:	4608      	mov	r0, r1
 80025fa:	4a96      	ldr	r2, [pc, #600]	; (8002854 <setAutoRefPos+0x2e0>)
 80025fc:	f7fe fe85 	bl	800130a <LCD_WriteXY>
 8002600:	4995      	ldr	r1, [pc, #596]	; (8002858 <setAutoRefPos+0x2e4>)
 8002602:	f105 0234 	add.w	r2, r5, #52	; 0x34
 8002606:	a804      	add	r0, sp, #16
 8002608:	f004 fba4 	bl	8006d54 <siprintf>
 800260c:	aa04      	add	r2, sp, #16
 800260e:	2101      	movs	r1, #1
 8002610:	2000      	movs	r0, #0
 8002612:	f7fe fe7a 	bl	800130a <LCD_WriteXY>
 8002616:	4a91      	ldr	r2, [pc, #580]	; (800285c <setAutoRefPos+0x2e8>)
 8002618:	2103      	movs	r1, #3
 800261a:	2000      	movs	r0, #0
 800261c:	f7fe fe75 	bl	800130a <LCD_WriteXY>
 8002620:	2401      	movs	r4, #1
 8002622:	e7c4      	b.n	80025ae <setAutoRefPos+0x3a>
 8002624:	f7fe fd86 	bl	8001134 <refreshScreen>
 8002628:	4e87      	ldr	r6, [pc, #540]	; (8002848 <setAutoRefPos+0x2d4>)
 800262a:	b1a0      	cbz	r0, 8002656 <setAutoRefPos+0xe2>
 800262c:	4b88      	ldr	r3, [pc, #544]	; (8002850 <setAutoRefPos+0x2dc>)
 800262e:	4a8c      	ldr	r2, [pc, #560]	; (8002860 <setAutoRefPos+0x2ec>)
 8002630:	681b      	ldr	r3, [r3, #0]
 8002632:	9302      	str	r3, [sp, #8]
 8002634:	4b85      	ldr	r3, [pc, #532]	; (800284c <setAutoRefPos+0x2d8>)
 8002636:	498b      	ldr	r1, [pc, #556]	; (8002864 <setAutoRefPos+0x2f0>)
 8002638:	681b      	ldr	r3, [r3, #0]
 800263a:	9301      	str	r3, [sp, #4]
 800263c:	4b8a      	ldr	r3, [pc, #552]	; (8002868 <setAutoRefPos+0x2f4>)
 800263e:	781b      	ldrb	r3, [r3, #0]
 8002640:	9300      	str	r3, [sp, #0]
 8002642:	7812      	ldrb	r2, [r2, #0]
 8002644:	6833      	ldr	r3, [r6, #0]
 8002646:	a804      	add	r0, sp, #16
 8002648:	f004 fb84 	bl	8006d54 <siprintf>
 800264c:	2102      	movs	r1, #2
 800264e:	aa04      	add	r2, sp, #16
 8002650:	4608      	mov	r0, r1
 8002652:	f7fe fe5a 	bl	800130a <LCD_WriteXY>
 8002656:	8e29      	ldrh	r1, [r5, #48]	; 0x30
 8002658:	8e6a      	ldrh	r2, [r5, #50]	; 0x32
 800265a:	487b      	ldr	r0, [pc, #492]	; (8002848 <setAutoRefPos+0x2d4>)
 800265c:	230a      	movs	r3, #10
 800265e:	9300      	str	r3, [sp, #0]
 8002660:	b289      	uxth	r1, r1
 8002662:	2301      	movs	r3, #1
 8002664:	b292      	uxth	r2, r2
 8002666:	f7ff fd6f 	bl	8002148 <rotaryInput>
 800266a:	2102      	movs	r1, #2
 800266c:	2003      	movs	r0, #3
 800266e:	f7fe fd51 	bl	8001114 <checkButton>
 8002672:	b110      	cbz	r0, 800267a <setAutoRefPos+0x106>
 8002674:	2300      	movs	r3, #0
 8002676:	6033      	str	r3, [r6, #0]
 8002678:	e799      	b.n	80025ae <setAutoRefPos+0x3a>
 800267a:	2102      	movs	r1, #2
 800267c:	f7fe fd4a 	bl	8001114 <checkButton>
 8002680:	2800      	cmp	r0, #0
 8002682:	f040 80aa 	bne.w	80027da <setAutoRefPos+0x266>
 8002686:	2102      	movs	r1, #2
 8002688:	4608      	mov	r0, r1
 800268a:	f7fe fd43 	bl	8001114 <checkButton>
 800268e:	2800      	cmp	r0, #0
 8002690:	d0c6      	beq.n	8002620 <setAutoRefPos+0xac>
 8002692:	2402      	movs	r4, #2
 8002694:	e78b      	b.n	80025ae <setAutoRefPos+0x3a>
 8002696:	f7fe fd4d 	bl	8001134 <refreshScreen>
 800269a:	4d6c      	ldr	r5, [pc, #432]	; (800284c <setAutoRefPos+0x2d8>)
 800269c:	b1a0      	cbz	r0, 80026c8 <setAutoRefPos+0x154>
 800269e:	4b6c      	ldr	r3, [pc, #432]	; (8002850 <setAutoRefPos+0x2dc>)
 80026a0:	4a69      	ldr	r2, [pc, #420]	; (8002848 <setAutoRefPos+0x2d4>)
 80026a2:	681b      	ldr	r3, [r3, #0]
 80026a4:	9302      	str	r3, [sp, #8]
 80026a6:	4b70      	ldr	r3, [pc, #448]	; (8002868 <setAutoRefPos+0x2f4>)
 80026a8:	4970      	ldr	r1, [pc, #448]	; (800286c <setAutoRefPos+0x2f8>)
 80026aa:	781b      	ldrb	r3, [r3, #0]
 80026ac:	9301      	str	r3, [sp, #4]
 80026ae:	682b      	ldr	r3, [r5, #0]
 80026b0:	9300      	str	r3, [sp, #0]
 80026b2:	4b6b      	ldr	r3, [pc, #428]	; (8002860 <setAutoRefPos+0x2ec>)
 80026b4:	6812      	ldr	r2, [r2, #0]
 80026b6:	781b      	ldrb	r3, [r3, #0]
 80026b8:	a804      	add	r0, sp, #16
 80026ba:	f004 fb4b 	bl	8006d54 <siprintf>
 80026be:	2102      	movs	r1, #2
 80026c0:	aa04      	add	r2, sp, #16
 80026c2:	4608      	mov	r0, r1
 80026c4:	f7fe fe21 	bl	800130a <LCD_WriteXY>
 80026c8:	230f      	movs	r3, #15
 80026ca:	4860      	ldr	r0, [pc, #384]	; (800284c <setAutoRefPos+0x2d8>)
 80026cc:	9300      	str	r3, [sp, #0]
 80026ce:	2100      	movs	r1, #0
 80026d0:	2301      	movs	r3, #1
 80026d2:	223b      	movs	r2, #59	; 0x3b
 80026d4:	f7ff fd38 	bl	8002148 <rotaryInput>
 80026d8:	2102      	movs	r1, #2
 80026da:	2003      	movs	r0, #3
 80026dc:	f7fe fd1a 	bl	8001114 <checkButton>
 80026e0:	b110      	cbz	r0, 80026e8 <setAutoRefPos+0x174>
 80026e2:	2300      	movs	r3, #0
 80026e4:	602b      	str	r3, [r5, #0]
 80026e6:	e762      	b.n	80025ae <setAutoRefPos+0x3a>
 80026e8:	2102      	movs	r1, #2
 80026ea:	f7fe fd13 	bl	8001114 <checkButton>
 80026ee:	2800      	cmp	r0, #0
 80026f0:	d196      	bne.n	8002620 <setAutoRefPos+0xac>
 80026f2:	2102      	movs	r1, #2
 80026f4:	4608      	mov	r0, r1
 80026f6:	f7fe fd0d 	bl	8001114 <checkButton>
 80026fa:	2800      	cmp	r0, #0
 80026fc:	d0c9      	beq.n	8002692 <setAutoRefPos+0x11e>
 80026fe:	2403      	movs	r4, #3
 8002700:	e755      	b.n	80025ae <setAutoRefPos+0x3a>
 8002702:	f7fe fd17 	bl	8001134 <refreshScreen>
 8002706:	4d52      	ldr	r5, [pc, #328]	; (8002850 <setAutoRefPos+0x2dc>)
 8002708:	b1c8      	cbz	r0, 800273e <setAutoRefPos+0x1ca>
 800270a:	4b57      	ldr	r3, [pc, #348]	; (8002868 <setAutoRefPos+0x2f4>)
 800270c:	4a4e      	ldr	r2, [pc, #312]	; (8002848 <setAutoRefPos+0x2d4>)
 800270e:	781b      	ldrb	r3, [r3, #0]
 8002710:	9302      	str	r3, [sp, #8]
 8002712:	682b      	ldr	r3, [r5, #0]
 8002714:	9301      	str	r3, [sp, #4]
 8002716:	4b52      	ldr	r3, [pc, #328]	; (8002860 <setAutoRefPos+0x2ec>)
 8002718:	4955      	ldr	r1, [pc, #340]	; (8002870 <setAutoRefPos+0x2fc>)
 800271a:	781b      	ldrb	r3, [r3, #0]
 800271c:	9300      	str	r3, [sp, #0]
 800271e:	4b4b      	ldr	r3, [pc, #300]	; (800284c <setAutoRefPos+0x2d8>)
 8002720:	6812      	ldr	r2, [r2, #0]
 8002722:	681b      	ldr	r3, [r3, #0]
 8002724:	a804      	add	r0, sp, #16
 8002726:	f004 fb15 	bl	8006d54 <siprintf>
 800272a:	2102      	movs	r1, #2
 800272c:	4608      	mov	r0, r1
 800272e:	aa04      	add	r2, sp, #16
 8002730:	f7fe fdeb 	bl	800130a <LCD_WriteXY>
 8002734:	4a49      	ldr	r2, [pc, #292]	; (800285c <setAutoRefPos+0x2e8>)
 8002736:	2103      	movs	r1, #3
 8002738:	2000      	movs	r0, #0
 800273a:	f7fe fde6 	bl	800130a <LCD_WriteXY>
 800273e:	230f      	movs	r3, #15
 8002740:	4843      	ldr	r0, [pc, #268]	; (8002850 <setAutoRefPos+0x2dc>)
 8002742:	9300      	str	r3, [sp, #0]
 8002744:	2100      	movs	r1, #0
 8002746:	2301      	movs	r3, #1
 8002748:	223b      	movs	r2, #59	; 0x3b
 800274a:	f7ff fcfd 	bl	8002148 <rotaryInput>
 800274e:	2102      	movs	r1, #2
 8002750:	2003      	movs	r0, #3
 8002752:	f7fe fcdf 	bl	8001114 <checkButton>
 8002756:	2800      	cmp	r0, #0
 8002758:	d1c3      	bne.n	80026e2 <setAutoRefPos+0x16e>
 800275a:	2102      	movs	r1, #2
 800275c:	f7fe fcda 	bl	8001114 <checkButton>
 8002760:	2800      	cmp	r0, #0
 8002762:	d196      	bne.n	8002692 <setAutoRefPos+0x11e>
 8002764:	2102      	movs	r1, #2
 8002766:	4608      	mov	r0, r1
 8002768:	f7fe fcd4 	bl	8001114 <checkButton>
 800276c:	2800      	cmp	r0, #0
 800276e:	d0c6      	beq.n	80026fe <setAutoRefPos+0x18a>
 8002770:	2404      	movs	r4, #4
 8002772:	e71c      	b.n	80025ae <setAutoRefPos+0x3a>
 8002774:	f7fe fcde 	bl	8001134 <refreshScreen>
 8002778:	b1e0      	cbz	r0, 80027b4 <setAutoRefPos+0x240>
 800277a:	4b35      	ldr	r3, [pc, #212]	; (8002850 <setAutoRefPos+0x2dc>)
 800277c:	4a32      	ldr	r2, [pc, #200]	; (8002848 <setAutoRefPos+0x2d4>)
 800277e:	681b      	ldr	r3, [r3, #0]
 8002780:	9300      	str	r3, [sp, #0]
 8002782:	4b32      	ldr	r3, [pc, #200]	; (800284c <setAutoRefPos+0x2d8>)
 8002784:	6812      	ldr	r2, [r2, #0]
 8002786:	681b      	ldr	r3, [r3, #0]
 8002788:	493a      	ldr	r1, [pc, #232]	; (8002874 <setAutoRefPos+0x300>)
 800278a:	a804      	add	r0, sp, #16
 800278c:	f004 fae2 	bl	8006d54 <siprintf>
 8002790:	2102      	movs	r1, #2
 8002792:	4608      	mov	r0, r1
 8002794:	aa04      	add	r2, sp, #16
 8002796:	f7fe fdb8 	bl	800130a <LCD_WriteXY>
 800279a:	4b33      	ldr	r3, [pc, #204]	; (8002868 <setAutoRefPos+0x2f4>)
 800279c:	4a30      	ldr	r2, [pc, #192]	; (8002860 <setAutoRefPos+0x2ec>)
 800279e:	4936      	ldr	r1, [pc, #216]	; (8002878 <setAutoRefPos+0x304>)
 80027a0:	7812      	ldrb	r2, [r2, #0]
 80027a2:	781b      	ldrb	r3, [r3, #0]
 80027a4:	a804      	add	r0, sp, #16
 80027a6:	f004 fad5 	bl	8006d54 <siprintf>
 80027aa:	aa04      	add	r2, sp, #16
 80027ac:	2103      	movs	r1, #3
 80027ae:	2000      	movs	r0, #0
 80027b0:	f7fe fdab 	bl	800130a <LCD_WriteXY>
 80027b4:	2102      	movs	r1, #2
 80027b6:	2000      	movs	r0, #0
 80027b8:	f7fe fcac 	bl	8001114 <checkButton>
 80027bc:	2800      	cmp	r0, #0
 80027be:	d19e      	bne.n	80026fe <setAutoRefPos+0x18a>
 80027c0:	2102      	movs	r1, #2
 80027c2:	2001      	movs	r0, #1
 80027c4:	f7fe fca6 	bl	8001114 <checkButton>
 80027c8:	2800      	cmp	r0, #0
 80027ca:	f040 80e0 	bne.w	800298e <setAutoRefPos+0x41a>
 80027ce:	2102      	movs	r1, #2
 80027d0:	4608      	mov	r0, r1
 80027d2:	f7fe fc9f 	bl	8001114 <checkButton>
 80027d6:	2800      	cmp	r0, #0
 80027d8:	d0ca      	beq.n	8002770 <setAutoRefPos+0x1fc>
 80027da:	2405      	movs	r4, #5
 80027dc:	e6e7      	b.n	80025ae <setAutoRefPos+0x3a>
 80027de:	f7fe fca9 	bl	8001134 <refreshScreen>
 80027e2:	b1e0      	cbz	r0, 800281e <setAutoRefPos+0x2aa>
 80027e4:	4b1a      	ldr	r3, [pc, #104]	; (8002850 <setAutoRefPos+0x2dc>)
 80027e6:	4a18      	ldr	r2, [pc, #96]	; (8002848 <setAutoRefPos+0x2d4>)
 80027e8:	681b      	ldr	r3, [r3, #0]
 80027ea:	9300      	str	r3, [sp, #0]
 80027ec:	4b17      	ldr	r3, [pc, #92]	; (800284c <setAutoRefPos+0x2d8>)
 80027ee:	6812      	ldr	r2, [r2, #0]
 80027f0:	681b      	ldr	r3, [r3, #0]
 80027f2:	4920      	ldr	r1, [pc, #128]	; (8002874 <setAutoRefPos+0x300>)
 80027f4:	a804      	add	r0, sp, #16
 80027f6:	f004 faad 	bl	8006d54 <siprintf>
 80027fa:	2102      	movs	r1, #2
 80027fc:	4608      	mov	r0, r1
 80027fe:	aa04      	add	r2, sp, #16
 8002800:	f7fe fd83 	bl	800130a <LCD_WriteXY>
 8002804:	4b18      	ldr	r3, [pc, #96]	; (8002868 <setAutoRefPos+0x2f4>)
 8002806:	4a16      	ldr	r2, [pc, #88]	; (8002860 <setAutoRefPos+0x2ec>)
 8002808:	491c      	ldr	r1, [pc, #112]	; (800287c <setAutoRefPos+0x308>)
 800280a:	7812      	ldrb	r2, [r2, #0]
 800280c:	781b      	ldrb	r3, [r3, #0]
 800280e:	a804      	add	r0, sp, #16
 8002810:	f004 faa0 	bl	8006d54 <siprintf>
 8002814:	aa04      	add	r2, sp, #16
 8002816:	2103      	movs	r1, #3
 8002818:	2000      	movs	r0, #0
 800281a:	f7fe fd76 	bl	800130a <LCD_WriteXY>
 800281e:	2102      	movs	r1, #2
 8002820:	2000      	movs	r0, #0
 8002822:	f7fe fc77 	bl	8001114 <checkButton>
 8002826:	2800      	cmp	r0, #0
 8002828:	d1a2      	bne.n	8002770 <setAutoRefPos+0x1fc>
 800282a:	2102      	movs	r1, #2
 800282c:	2001      	movs	r0, #1
 800282e:	f7fe fc71 	bl	8001114 <checkButton>
 8002832:	2800      	cmp	r0, #0
 8002834:	f040 80c6 	bne.w	80029c4 <setAutoRefPos+0x450>
 8002838:	2102      	movs	r1, #2
 800283a:	4608      	mov	r0, r1
 800283c:	f7fe fc6a 	bl	8001114 <checkButton>
 8002840:	2800      	cmp	r0, #0
 8002842:	f43f aeb4 	beq.w	80025ae <setAutoRefPos+0x3a>
 8002846:	e6eb      	b.n	8002620 <setAutoRefPos+0xac>
 8002848:	20000648 	.word	0x20000648
 800284c:	200006a0 	.word	0x200006a0
 8002850:	200006b4 	.word	0x200006b4
 8002854:	08009650 	.word	0x08009650
 8002858:	0800965f 	.word	0x0800965f
 800285c:	08009560 	.word	0x08009560
 8002860:	200006e5 	.word	0x200006e5
 8002864:	0800966c 	.word	0x0800966c
 8002868:	200006e6 	.word	0x200006e6
 800286c:	08009682 	.word	0x08009682
 8002870:	08009698 	.word	0x08009698
 8002874:	080096ae 	.word	0x080096ae
 8002878:	080096c2 	.word	0x080096c2
 800287c:	080096d9 	.word	0x080096d9
 8002880:	f7fe fd20 	bl	80012c4 <LCD_Clear>
 8002884:	2100      	movs	r1, #0
 8002886:	4608      	mov	r0, r1
 8002888:	4a50      	ldr	r2, [pc, #320]	; (80029cc <setAutoRefPos+0x458>)
 800288a:	f7fe fd3e 	bl	800130a <LCD_WriteXY>
 800288e:	4950      	ldr	r1, [pc, #320]	; (80029d0 <setAutoRefPos+0x45c>)
 8002890:	f105 0234 	add.w	r2, r5, #52	; 0x34
 8002894:	a804      	add	r0, sp, #16
 8002896:	f004 fa5d 	bl	8006d54 <siprintf>
 800289a:	aa04      	add	r2, sp, #16
 800289c:	2101      	movs	r1, #1
 800289e:	2000      	movs	r0, #0
 80028a0:	f7fe fd33 	bl	800130a <LCD_WriteXY>
 80028a4:	4b4b      	ldr	r3, [pc, #300]	; (80029d4 <setAutoRefPos+0x460>)
 80028a6:	4a4c      	ldr	r2, [pc, #304]	; (80029d8 <setAutoRefPos+0x464>)
 80028a8:	681b      	ldr	r3, [r3, #0]
 80028aa:	9300      	str	r3, [sp, #0]
 80028ac:	4b4b      	ldr	r3, [pc, #300]	; (80029dc <setAutoRefPos+0x468>)
 80028ae:	6812      	ldr	r2, [r2, #0]
 80028b0:	681b      	ldr	r3, [r3, #0]
 80028b2:	494b      	ldr	r1, [pc, #300]	; (80029e0 <setAutoRefPos+0x46c>)
 80028b4:	a804      	add	r0, sp, #16
 80028b6:	f004 fa4d 	bl	8006d54 <siprintf>
 80028ba:	2102      	movs	r1, #2
 80028bc:	4608      	mov	r0, r1
 80028be:	aa04      	add	r2, sp, #16
 80028c0:	f7fe fd23 	bl	800130a <LCD_WriteXY>
 80028c4:	4a47      	ldr	r2, [pc, #284]	; (80029e4 <setAutoRefPos+0x470>)
 80028c6:	2103      	movs	r1, #3
 80028c8:	2000      	movs	r0, #0
 80028ca:	f7fe fd1e 	bl	800130a <LCD_WriteXY>
 80028ce:	2407      	movs	r4, #7
 80028d0:	e66d      	b.n	80025ae <setAutoRefPos+0x3a>
 80028d2:	f7fe fc2f 	bl	8001134 <refreshScreen>
 80028d6:	b160      	cbz	r0, 80028f2 <setAutoRefPos+0x37e>
 80028d8:	4b43      	ldr	r3, [pc, #268]	; (80029e8 <setAutoRefPos+0x474>)
 80028da:	4a44      	ldr	r2, [pc, #272]	; (80029ec <setAutoRefPos+0x478>)
 80028dc:	4944      	ldr	r1, [pc, #272]	; (80029f0 <setAutoRefPos+0x47c>)
 80028de:	7812      	ldrb	r2, [r2, #0]
 80028e0:	781b      	ldrb	r3, [r3, #0]
 80028e2:	a804      	add	r0, sp, #16
 80028e4:	f004 fa36 	bl	8006d54 <siprintf>
 80028e8:	aa04      	add	r2, sp, #16
 80028ea:	2103      	movs	r1, #3
 80028ec:	2009      	movs	r0, #9
 80028ee:	f7fe fd0c 	bl	800130a <LCD_WriteXY>
 80028f2:	2102      	movs	r1, #2
 80028f4:	2001      	movs	r0, #1
 80028f6:	f7fe fc0d 	bl	8001114 <checkButton>
 80028fa:	2800      	cmp	r0, #0
 80028fc:	d164      	bne.n	80029c8 <setAutoRefPos+0x454>
 80028fe:	2102      	movs	r1, #2
 8002900:	4608      	mov	r0, r1
 8002902:	f7fe fc07 	bl	8001114 <checkButton>
 8002906:	2800      	cmp	r0, #0
 8002908:	d0e1      	beq.n	80028ce <setAutoRefPos+0x35a>
 800290a:	2409      	movs	r4, #9
 800290c:	e64f      	b.n	80025ae <setAutoRefPos+0x3a>
 800290e:	f7fe fc11 	bl	8001134 <refreshScreen>
 8002912:	b160      	cbz	r0, 800292e <setAutoRefPos+0x3ba>
 8002914:	4b34      	ldr	r3, [pc, #208]	; (80029e8 <setAutoRefPos+0x474>)
 8002916:	4a35      	ldr	r2, [pc, #212]	; (80029ec <setAutoRefPos+0x478>)
 8002918:	4936      	ldr	r1, [pc, #216]	; (80029f4 <setAutoRefPos+0x480>)
 800291a:	7812      	ldrb	r2, [r2, #0]
 800291c:	781b      	ldrb	r3, [r3, #0]
 800291e:	a804      	add	r0, sp, #16
 8002920:	f004 fa18 	bl	8006d54 <siprintf>
 8002924:	aa04      	add	r2, sp, #16
 8002926:	2103      	movs	r1, #3
 8002928:	2009      	movs	r0, #9
 800292a:	f7fe fcee 	bl	800130a <LCD_WriteXY>
 800292e:	2102      	movs	r1, #2
 8002930:	2000      	movs	r0, #0
 8002932:	f7fe fbef 	bl	8001114 <checkButton>
 8002936:	2800      	cmp	r0, #0
 8002938:	d1c9      	bne.n	80028ce <setAutoRefPos+0x35a>
 800293a:	2102      	movs	r1, #2
 800293c:	2001      	movs	r0, #1
 800293e:	f7fe fbe9 	bl	8001114 <checkButton>
 8002942:	2800      	cmp	r0, #0
 8002944:	bf18      	it	ne
 8002946:	240a      	movne	r4, #10
 8002948:	e631      	b.n	80025ae <setAutoRefPos+0x3a>
 800294a:	4b24      	ldr	r3, [pc, #144]	; (80029dc <setAutoRefPos+0x468>)
 800294c:	4a21      	ldr	r2, [pc, #132]	; (80029d4 <setAutoRefPos+0x460>)
 800294e:	681b      	ldr	r3, [r3, #0]
 8002950:	6812      	ldr	r2, [r2, #0]
 8002952:	ed95 7a0b 	vldr	s14, [r5, #44]	; 0x2c
 8002956:	213c      	movs	r1, #60	; 0x3c
 8002958:	fb01 2203 	mla	r2, r1, r3, r2
 800295c:	4b1e      	ldr	r3, [pc, #120]	; (80029d8 <setAutoRefPos+0x464>)
 800295e:	681b      	ldr	r3, [r3, #0]
 8002960:	f44f 6161 	mov.w	r1, #3600	; 0xe10
 8002964:	fb01 2303 	mla	r3, r1, r3, r2
 8002968:	ee07 3a90 	vmov	s15, r3
 800296c:	eef8 7ae7 	vcvt.f32.s32	s15, s15
 8002970:	eec7 7a87 	vdiv.f32	s15, s15, s14
 8002974:	ee17 0a90 	vmov	r0, s15
 8002978:	f7fd fde6 	bl	8000548 <__aeabi_f2d>
 800297c:	ec41 0b10 	vmov	d0, r0, r1
 8002980:	f006 fc1a 	bl	80091b8 <ceil>
 8002984:	ec51 0b10 	vmov	r0, r1, d0
 8002988:	f7fe f90e 	bl	8000ba8 <__aeabi_d2uiz>
 800298c:	60e8      	str	r0, [r5, #12]
 800298e:	f04f 34ff 	mov.w	r4, #4294967295	; 0xffffffff
 8002992:	e60c      	b.n	80025ae <setAutoRefPos+0x3a>
 8002994:	f7fe fbce 	bl	8001134 <refreshScreen>
 8002998:	b160      	cbz	r0, 80029b4 <setAutoRefPos+0x440>
 800299a:	4b13      	ldr	r3, [pc, #76]	; (80029e8 <setAutoRefPos+0x474>)
 800299c:	4a13      	ldr	r2, [pc, #76]	; (80029ec <setAutoRefPos+0x478>)
 800299e:	4916      	ldr	r1, [pc, #88]	; (80029f8 <setAutoRefPos+0x484>)
 80029a0:	7812      	ldrb	r2, [r2, #0]
 80029a2:	781b      	ldrb	r3, [r3, #0]
 80029a4:	a804      	add	r0, sp, #16
 80029a6:	f004 f9d5 	bl	8006d54 <siprintf>
 80029aa:	aa04      	add	r2, sp, #16
 80029ac:	2103      	movs	r1, #3
 80029ae:	2008      	movs	r0, #8
 80029b0:	f7fe fcab 	bl	800130a <LCD_WriteXY>
 80029b4:	2102      	movs	r1, #2
 80029b6:	2001      	movs	r0, #1
 80029b8:	f7fe fbac 	bl	8001114 <checkButton>
 80029bc:	2800      	cmp	r0, #0
 80029be:	f43f adf6 	beq.w	80025ae <setAutoRefPos+0x3a>
 80029c2:	e7e4      	b.n	800298e <setAutoRefPos+0x41a>
 80029c4:	2406      	movs	r4, #6
 80029c6:	e5f2      	b.n	80025ae <setAutoRefPos+0x3a>
 80029c8:	2408      	movs	r4, #8
 80029ca:	e5f0      	b.n	80025ae <setAutoRefPos+0x3a>
 80029cc:	08009650 	.word	0x08009650
 80029d0:	080096f0 	.word	0x080096f0
 80029d4:	200006b4 	.word	0x200006b4
 80029d8:	20000648 	.word	0x20000648
 80029dc:	200006a0 	.word	0x200006a0
 80029e0:	080096ae 	.word	0x080096ae
 80029e4:	080096fc 	.word	0x080096fc
 80029e8:	200006e6 	.word	0x200006e6
 80029ec:	200006e5 	.word	0x200006e5
 80029f0:	08009700 	.word	0x08009700
 80029f4:	0800970d 	.word	0x0800970d
 80029f8:	080093e1 	.word	0x080093e1

080029fc <setAzimuthAutoRefPos>:
 80029fc:	4601      	mov	r1, r0
 80029fe:	4801      	ldr	r0, [pc, #4]	; (8002a04 <setAzimuthAutoRefPos+0x8>)
 8002a00:	f7ff bdb8 	b.w	8002574 <setAutoRefPos>
 8002a04:	20000354 	.word	0x20000354

08002a08 <setElevationAutoRefPos>:
 8002a08:	4601      	mov	r1, r0
 8002a0a:	4801      	ldr	r0, [pc, #4]	; (8002a10 <setElevationAutoRefPos+0x8>)
 8002a0c:	f7ff bdb2 	b.w	8002574 <setAutoRefPos>
 8002a10:	20000398 	.word	0x20000398

08002a14 <setReferencePos>:
 8002a14:	b570      	push	{r4, r5, r6, lr}
 8002a16:	4605      	mov	r5, r0
 8002a18:	b08c      	sub	sp, #48	; 0x30
 8002a1a:	460c      	mov	r4, r1
 8002a1c:	2001      	movs	r0, #1
 8002a1e:	2104      	movs	r1, #4
 8002a20:	f7fe fb78 	bl	8001114 <checkButton>
 8002a24:	2800      	cmp	r0, #0
 8002a26:	d138      	bne.n	8002a9a <setReferencePos+0x86>
 8002a28:	2c0a      	cmp	r4, #10
 8002a2a:	dc39      	bgt.n	8002aa0 <setReferencePos+0x8c>
 8002a2c:	ed95 7a07 	vldr	s14, [r5, #28]
 8002a30:	eef1 7a04 	vmov.f32	s15, #20	; 0x40a00000  5.0
 8002a34:	eeb4 7ae7 	vcmpe.f32	s14, s15
 8002a38:	eef1 fa10 	vmrs	APSR_nzcv, fpscr
 8002a3c:	dc03      	bgt.n	8002a46 <setReferencePos+0x32>
 8002a3e:	4bad      	ldr	r3, [pc, #692]	; (8002cf4 <setReferencePos+0x2e0>)
 8002a40:	7b1b      	ldrb	r3, [r3, #12]
 8002a42:	2b01      	cmp	r3, #1
 8002a44:	d12c      	bne.n	8002aa0 <setReferencePos+0x8c>
 8002a46:	f7fe fc3d 	bl	80012c4 <LCD_Clear>
 8002a4a:	2100      	movs	r1, #0
 8002a4c:	4608      	mov	r0, r1
 8002a4e:	4aaa      	ldr	r2, [pc, #680]	; (8002cf8 <setReferencePos+0x2e4>)
 8002a50:	f7fe fc5b 	bl	800130a <LCD_WriteXY>
 8002a54:	4aa9      	ldr	r2, [pc, #676]	; (8002cfc <setReferencePos+0x2e8>)
 8002a56:	2101      	movs	r1, #1
 8002a58:	2000      	movs	r0, #0
 8002a5a:	f7fe fc56 	bl	800130a <LCD_WriteXY>
 8002a5e:	4aa8      	ldr	r2, [pc, #672]	; (8002d00 <setReferencePos+0x2ec>)
 8002a60:	2102      	movs	r1, #2
 8002a62:	2000      	movs	r0, #0
 8002a64:	f7fe fc51 	bl	800130a <LCD_WriteXY>
 8002a68:	f7fe fb64 	bl	8001134 <refreshScreen>
 8002a6c:	b160      	cbz	r0, 8002a88 <setReferencePos+0x74>
 8002a6e:	4ba5      	ldr	r3, [pc, #660]	; (8002d04 <setReferencePos+0x2f0>)
 8002a70:	4aa5      	ldr	r2, [pc, #660]	; (8002d08 <setReferencePos+0x2f4>)
 8002a72:	49a6      	ldr	r1, [pc, #664]	; (8002d0c <setReferencePos+0x2f8>)
 8002a74:	7812      	ldrb	r2, [r2, #0]
 8002a76:	781b      	ldrb	r3, [r3, #0]
 8002a78:	a804      	add	r0, sp, #16
 8002a7a:	f004 f96b 	bl	8006d54 <siprintf>
 8002a7e:	aa04      	add	r2, sp, #16
 8002a80:	2103      	movs	r1, #3
 8002a82:	2008      	movs	r0, #8
 8002a84:	f7fe fc41 	bl	800130a <LCD_WriteXY>
 8002a88:	2102      	movs	r1, #2
 8002a8a:	2001      	movs	r0, #1
 8002a8c:	f7fe fb42 	bl	8001114 <checkButton>
 8002a90:	2800      	cmp	r0, #0
 8002a92:	f040 8222 	bne.w	8002eda <setReferencePos+0x4c6>
 8002a96:	240b      	movs	r4, #11
 8002a98:	e076      	b.n	8002b88 <setReferencePos+0x174>
 8002a9a:	f04f 34ff 	mov.w	r4, #4294967295	; 0xffffffff
 8002a9e:	e7c5      	b.n	8002a2c <setReferencePos+0x18>
 8002aa0:	2c0b      	cmp	r4, #11
 8002aa2:	f200 821a 	bhi.w	8002eda <setReferencePos+0x4c6>
 8002aa6:	a301      	add	r3, pc, #4	; (adr r3, 8002aac <setReferencePos+0x98>)
 8002aa8:	f853 f024 	ldr.w	pc, [r3, r4, lsl #2]
 8002aac:	08002add 	.word	0x08002add
 8002ab0:	08002b35 	.word	0x08002b35
 8002ab4:	08002bab 	.word	0x08002bab
 8002ab8:	08002c17 	.word	0x08002c17
 8002abc:	08002c89 	.word	0x08002c89
 8002ac0:	08002d3d 	.word	0x08002d3d
 8002ac4:	08002d9b 	.word	0x08002d9b
 8002ac8:	08002df1 	.word	0x08002df1
 8002acc:	08002e37 	.word	0x08002e37
 8002ad0:	08002e43 	.word	0x08002e43
 8002ad4:	08002e8b 	.word	0x08002e8b
 8002ad8:	08002a69 	.word	0x08002a69
 8002adc:	f7fe fbf2 	bl	80012c4 <LCD_Clear>
 8002ae0:	2100      	movs	r1, #0
 8002ae2:	4608      	mov	r0, r1
 8002ae4:	4a8a      	ldr	r2, [pc, #552]	; (8002d10 <setReferencePos+0x2fc>)
 8002ae6:	f7fe fc10 	bl	800130a <LCD_WriteXY>
 8002aea:	498a      	ldr	r1, [pc, #552]	; (8002d14 <setReferencePos+0x300>)
 8002aec:	f105 0234 	add.w	r2, r5, #52	; 0x34
 8002af0:	a804      	add	r0, sp, #16
 8002af2:	f004 f92f 	bl	8006d54 <siprintf>
 8002af6:	aa04      	add	r2, sp, #16
 8002af8:	2101      	movs	r1, #1
 8002afa:	2000      	movs	r0, #0
 8002afc:	f7fe fc05 	bl	800130a <LCD_WriteXY>
 8002b00:	4a85      	ldr	r2, [pc, #532]	; (8002d18 <setReferencePos+0x304>)
 8002b02:	2103      	movs	r1, #3
 8002b04:	2000      	movs	r0, #0
 8002b06:	f7fe fc00 	bl	800130a <LCD_WriteXY>
 8002b0a:	8c2a      	ldrh	r2, [r5, #32]
 8002b0c:	8e2b      	ldrh	r3, [r5, #48]	; 0x30
 8002b0e:	b292      	uxth	r2, r2
 8002b10:	b29b      	uxth	r3, r3
 8002b12:	429a      	cmp	r2, r3
 8002b14:	bf8c      	ite	hi
 8002b16:	8c2b      	ldrhhi	r3, [r5, #32]
 8002b18:	8e2b      	ldrhls	r3, [r5, #48]	; 0x30
 8002b1a:	4a80      	ldr	r2, [pc, #512]	; (8002d1c <setReferencePos+0x308>)
 8002b1c:	b29b      	uxth	r3, r3
 8002b1e:	6013      	str	r3, [r2, #0]
 8002b20:	4b7f      	ldr	r3, [pc, #508]	; (8002d20 <setReferencePos+0x30c>)
 8002b22:	f895 2022 	ldrb.w	r2, [r5, #34]	; 0x22
 8002b26:	601a      	str	r2, [r3, #0]
 8002b28:	4b7e      	ldr	r3, [pc, #504]	; (8002d24 <setReferencePos+0x310>)
 8002b2a:	f895 2023 	ldrb.w	r2, [r5, #35]	; 0x23
 8002b2e:	601a      	str	r2, [r3, #0]
 8002b30:	2401      	movs	r4, #1
 8002b32:	e029      	b.n	8002b88 <setReferencePos+0x174>
 8002b34:	f7fe fafe 	bl	8001134 <refreshScreen>
 8002b38:	4e78      	ldr	r6, [pc, #480]	; (8002d1c <setReferencePos+0x308>)
 8002b3a:	b1a0      	cbz	r0, 8002b66 <setReferencePos+0x152>
 8002b3c:	4b79      	ldr	r3, [pc, #484]	; (8002d24 <setReferencePos+0x310>)
 8002b3e:	4a72      	ldr	r2, [pc, #456]	; (8002d08 <setReferencePos+0x2f4>)
 8002b40:	681b      	ldr	r3, [r3, #0]
 8002b42:	9302      	str	r3, [sp, #8]
 8002b44:	4b76      	ldr	r3, [pc, #472]	; (8002d20 <setReferencePos+0x30c>)
 8002b46:	4978      	ldr	r1, [pc, #480]	; (8002d28 <setReferencePos+0x314>)
 8002b48:	681b      	ldr	r3, [r3, #0]
 8002b4a:	9301      	str	r3, [sp, #4]
 8002b4c:	4b6d      	ldr	r3, [pc, #436]	; (8002d04 <setReferencePos+0x2f0>)
 8002b4e:	781b      	ldrb	r3, [r3, #0]
 8002b50:	9300      	str	r3, [sp, #0]
 8002b52:	7812      	ldrb	r2, [r2, #0]
 8002b54:	6833      	ldr	r3, [r6, #0]
 8002b56:	a804      	add	r0, sp, #16
 8002b58:	f004 f8fc 	bl	8006d54 <siprintf>
 8002b5c:	2102      	movs	r1, #2
 8002b5e:	aa04      	add	r2, sp, #16
 8002b60:	4608      	mov	r0, r1
 8002b62:	f7fe fbd2 	bl	800130a <LCD_WriteXY>
 8002b66:	8e29      	ldrh	r1, [r5, #48]	; 0x30
 8002b68:	8e6a      	ldrh	r2, [r5, #50]	; 0x32
 8002b6a:	486c      	ldr	r0, [pc, #432]	; (8002d1c <setReferencePos+0x308>)
 8002b6c:	230a      	movs	r3, #10
 8002b6e:	9300      	str	r3, [sp, #0]
 8002b70:	b289      	uxth	r1, r1
 8002b72:	2301      	movs	r3, #1
 8002b74:	b292      	uxth	r2, r2
 8002b76:	f7ff fae7 	bl	8002148 <rotaryInput>
 8002b7a:	2102      	movs	r1, #2
 8002b7c:	2003      	movs	r0, #3
 8002b7e:	f7fe fac9 	bl	8001114 <checkButton>
 8002b82:	b120      	cbz	r0, 8002b8e <setReferencePos+0x17a>
 8002b84:	2300      	movs	r3, #0
 8002b86:	6033      	str	r3, [r6, #0]
 8002b88:	4620      	mov	r0, r4
 8002b8a:	b00c      	add	sp, #48	; 0x30
 8002b8c:	bd70      	pop	{r4, r5, r6, pc}
 8002b8e:	2102      	movs	r1, #2
 8002b90:	f7fe fac0 	bl	8001114 <checkButton>
 8002b94:	2800      	cmp	r0, #0
 8002b96:	f040 80aa 	bne.w	8002cee <setReferencePos+0x2da>
 8002b9a:	2102      	movs	r1, #2
 8002b9c:	4608      	mov	r0, r1
 8002b9e:	f7fe fab9 	bl	8001114 <checkButton>
 8002ba2:	2800      	cmp	r0, #0
 8002ba4:	d0c4      	beq.n	8002b30 <setReferencePos+0x11c>
 8002ba6:	2402      	movs	r4, #2
 8002ba8:	e7ee      	b.n	8002b88 <setReferencePos+0x174>
 8002baa:	f7fe fac3 	bl	8001134 <refreshScreen>
 8002bae:	4d5c      	ldr	r5, [pc, #368]	; (8002d20 <setReferencePos+0x30c>)
 8002bb0:	b1a0      	cbz	r0, 8002bdc <setReferencePos+0x1c8>
 8002bb2:	4b5c      	ldr	r3, [pc, #368]	; (8002d24 <setReferencePos+0x310>)
 8002bb4:	4a59      	ldr	r2, [pc, #356]	; (8002d1c <setReferencePos+0x308>)
 8002bb6:	681b      	ldr	r3, [r3, #0]
 8002bb8:	9302      	str	r3, [sp, #8]
 8002bba:	4b52      	ldr	r3, [pc, #328]	; (8002d04 <setReferencePos+0x2f0>)
 8002bbc:	495b      	ldr	r1, [pc, #364]	; (8002d2c <setReferencePos+0x318>)
 8002bbe:	781b      	ldrb	r3, [r3, #0]
 8002bc0:	9301      	str	r3, [sp, #4]
 8002bc2:	682b      	ldr	r3, [r5, #0]
 8002bc4:	9300      	str	r3, [sp, #0]
 8002bc6:	4b50      	ldr	r3, [pc, #320]	; (8002d08 <setReferencePos+0x2f4>)
 8002bc8:	6812      	ldr	r2, [r2, #0]
 8002bca:	781b      	ldrb	r3, [r3, #0]
 8002bcc:	a804      	add	r0, sp, #16
 8002bce:	f004 f8c1 	bl	8006d54 <siprintf>
 8002bd2:	2102      	movs	r1, #2
 8002bd4:	aa04      	add	r2, sp, #16
 8002bd6:	4608      	mov	r0, r1
 8002bd8:	f7fe fb97 	bl	800130a <LCD_WriteXY>
 8002bdc:	230f      	movs	r3, #15
 8002bde:	4850      	ldr	r0, [pc, #320]	; (8002d20 <setReferencePos+0x30c>)
 8002be0:	9300      	str	r3, [sp, #0]
 8002be2:	2100      	movs	r1, #0
 8002be4:	2301      	movs	r3, #1
 8002be6:	223b      	movs	r2, #59	; 0x3b
 8002be8:	f7ff faae 	bl	8002148 <rotaryInput>
 8002bec:	2102      	movs	r1, #2
 8002bee:	2003      	movs	r0, #3
 8002bf0:	f7fe fa90 	bl	8001114 <checkButton>
 8002bf4:	b110      	cbz	r0, 8002bfc <setReferencePos+0x1e8>
 8002bf6:	2300      	movs	r3, #0
 8002bf8:	602b      	str	r3, [r5, #0]
 8002bfa:	e7c5      	b.n	8002b88 <setReferencePos+0x174>
 8002bfc:	2102      	movs	r1, #2
 8002bfe:	f7fe fa89 	bl	8001114 <checkButton>
 8002c02:	2800      	cmp	r0, #0
 8002c04:	d194      	bne.n	8002b30 <setReferencePos+0x11c>
 8002c06:	2102      	movs	r1, #2
 8002c08:	4608      	mov	r0, r1
 8002c0a:	f7fe fa83 	bl	8001114 <checkButton>
 8002c0e:	2800      	cmp	r0, #0
 8002c10:	d0c9      	beq.n	8002ba6 <setReferencePos+0x192>
 8002c12:	2403      	movs	r4, #3
 8002c14:	e7b8      	b.n	8002b88 <setReferencePos+0x174>
 8002c16:	f7fe fa8d 	bl	8001134 <refreshScreen>
 8002c1a:	4d42      	ldr	r5, [pc, #264]	; (8002d24 <setReferencePos+0x310>)
 8002c1c:	b1c8      	cbz	r0, 8002c52 <setReferencePos+0x23e>
 8002c1e:	4b39      	ldr	r3, [pc, #228]	; (8002d04 <setReferencePos+0x2f0>)
 8002c20:	4a3e      	ldr	r2, [pc, #248]	; (8002d1c <setReferencePos+0x308>)
 8002c22:	781b      	ldrb	r3, [r3, #0]
 8002c24:	9302      	str	r3, [sp, #8]
 8002c26:	682b      	ldr	r3, [r5, #0]
 8002c28:	9301      	str	r3, [sp, #4]
 8002c2a:	4b37      	ldr	r3, [pc, #220]	; (8002d08 <setReferencePos+0x2f4>)
 8002c2c:	4940      	ldr	r1, [pc, #256]	; (8002d30 <setReferencePos+0x31c>)
 8002c2e:	781b      	ldrb	r3, [r3, #0]
 8002c30:	9300      	str	r3, [sp, #0]
 8002c32:	4b3b      	ldr	r3, [pc, #236]	; (8002d20 <setReferencePos+0x30c>)
 8002c34:	6812      	ldr	r2, [r2, #0]
 8002c36:	681b      	ldr	r3, [r3, #0]
 8002c38:	a804      	add	r0, sp, #16
 8002c3a:	f004 f88b 	bl	8006d54 <siprintf>
 8002c3e:	2102      	movs	r1, #2
 8002c40:	4608      	mov	r0, r1
 8002c42:	aa04      	add	r2, sp, #16
 8002c44:	f7fe fb61 	bl	800130a <LCD_WriteXY>
 8002c48:	4a33      	ldr	r2, [pc, #204]	; (8002d18 <setReferencePos+0x304>)
 8002c4a:	2103      	movs	r1, #3
 8002c4c:	2000      	movs	r0, #0
 8002c4e:	f7fe fb5c 	bl	800130a <LCD_WriteXY>
 8002c52:	230f      	movs	r3, #15
 8002c54:	4833      	ldr	r0, [pc, #204]	; (8002d24 <setReferencePos+0x310>)
 8002c56:	9300      	str	r3, [sp, #0]
 8002c58:	2100      	movs	r1, #0
 8002c5a:	2301      	movs	r3, #1
 8002c5c:	223b      	movs	r2, #59	; 0x3b
 8002c5e:	f7ff fa73 	bl	8002148 <rotaryInput>
 8002c62:	2102      	movs	r1, #2
 8002c64:	2003      	movs	r0, #3
 8002c66:	f7fe fa55 	bl	8001114 <checkButton>
 8002c6a:	2800      	cmp	r0, #0
 8002c6c:	d1c3      	bne.n	8002bf6 <setReferencePos+0x1e2>
 8002c6e:	2102      	movs	r1, #2
 8002c70:	f7fe fa50 	bl	8001114 <checkButton>
 8002c74:	2800      	cmp	r0, #0
 8002c76:	d196      	bne.n	8002ba6 <setReferencePos+0x192>
 8002c78:	2102      	movs	r1, #2
 8002c7a:	4608      	mov	r0, r1
 8002c7c:	f7fe fa4a 	bl	8001114 <checkButton>
 8002c80:	2800      	cmp	r0, #0
 8002c82:	d0c6      	beq.n	8002c12 <setReferencePos+0x1fe>
 8002c84:	2404      	movs	r4, #4
 8002c86:	e77f      	b.n	8002b88 <setReferencePos+0x174>
 8002c88:	f7fe fa54 	bl	8001134 <refreshScreen>
 8002c8c:	b1e0      	cbz	r0, 8002cc8 <setReferencePos+0x2b4>
 8002c8e:	4b25      	ldr	r3, [pc, #148]	; (8002d24 <setReferencePos+0x310>)
 8002c90:	4a22      	ldr	r2, [pc, #136]	; (8002d1c <setReferencePos+0x308>)
 8002c92:	681b      	ldr	r3, [r3, #0]
 8002c94:	9300      	str	r3, [sp, #0]
 8002c96:	4b22      	ldr	r3, [pc, #136]	; (8002d20 <setReferencePos+0x30c>)
 8002c98:	6812      	ldr	r2, [r2, #0]
 8002c9a:	681b      	ldr	r3, [r3, #0]
 8002c9c:	4925      	ldr	r1, [pc, #148]	; (8002d34 <setReferencePos+0x320>)
 8002c9e:	a804      	add	r0, sp, #16
 8002ca0:	f004 f858 	bl	8006d54 <siprintf>
 8002ca4:	2102      	movs	r1, #2
 8002ca6:	4608      	mov	r0, r1
 8002ca8:	aa04      	add	r2, sp, #16
 8002caa:	f7fe fb2e 	bl	800130a <LCD_WriteXY>
 8002cae:	4b15      	ldr	r3, [pc, #84]	; (8002d04 <setReferencePos+0x2f0>)
 8002cb0:	4a15      	ldr	r2, [pc, #84]	; (8002d08 <setReferencePos+0x2f4>)
 8002cb2:	4921      	ldr	r1, [pc, #132]	; (8002d38 <setReferencePos+0x324>)
 8002cb4:	7812      	ldrb	r2, [r2, #0]
 8002cb6:	781b      	ldrb	r3, [r3, #0]
 8002cb8:	a804      	add	r0, sp, #16
 8002cba:	f004 f84b 	bl	8006d54 <siprintf>
 8002cbe:	aa04      	add	r2, sp, #16
 8002cc0:	2103      	movs	r1, #3
 8002cc2:	2000      	movs	r0, #0
 8002cc4:	f7fe fb21 	bl	800130a <LCD_WriteXY>
 8002cc8:	2102      	movs	r1, #2
 8002cca:	2000      	movs	r0, #0
 8002ccc:	f7fe fa22 	bl	8001114 <checkButton>
 8002cd0:	2800      	cmp	r0, #0
 8002cd2:	d19e      	bne.n	8002c12 <setReferencePos+0x1fe>
 8002cd4:	2102      	movs	r1, #2
 8002cd6:	2001      	movs	r0, #1
 8002cd8:	f7fe fa1c 	bl	8001114 <checkButton>
 8002cdc:	2800      	cmp	r0, #0
 8002cde:	f040 80fc 	bne.w	8002eda <setReferencePos+0x4c6>
 8002ce2:	2102      	movs	r1, #2
 8002ce4:	4608      	mov	r0, r1
 8002ce6:	f7fe fa15 	bl	8001114 <checkButton>
 8002cea:	2800      	cmp	r0, #0
 8002cec:	d0ca      	beq.n	8002c84 <setReferencePos+0x270>
 8002cee:	2405      	movs	r4, #5
 8002cf0:	e74a      	b.n	8002b88 <setReferencePos+0x174>
 8002cf2:	bf00      	nop
 8002cf4:	200006cc 	.word	0x200006cc
 8002cf8:	0800971a 	.word	0x0800971a
 8002cfc:	0800972d 	.word	0x0800972d
 8002d00:	08009740 	.word	0x08009740
 8002d04:	200006e6 	.word	0x200006e6
 8002d08:	200006e5 	.word	0x200006e5
 8002d0c:	080093e1 	.word	0x080093e1
 8002d10:	08009755 	.word	0x08009755
 8002d14:	08009766 	.word	0x08009766
 8002d18:	08009560 	.word	0x08009560
 8002d1c:	2000064c 	.word	0x2000064c
 8002d20:	200006a4 	.word	0x200006a4
 8002d24:	200006b8 	.word	0x200006b8
 8002d28:	0800966c 	.word	0x0800966c
 8002d2c:	08009682 	.word	0x08009682
 8002d30:	08009698 	.word	0x08009698
 8002d34:	080096ae 	.word	0x080096ae
 8002d38:	080096c2 	.word	0x080096c2
 8002d3c:	f7fe f9fa 	bl	8001134 <refreshScreen>
 8002d40:	b1e0      	cbz	r0, 8002d7c <setReferencePos+0x368>
 8002d42:	4b68      	ldr	r3, [pc, #416]	; (8002ee4 <setReferencePos+0x4d0>)
 8002d44:	4a68      	ldr	r2, [pc, #416]	; (8002ee8 <setReferencePos+0x4d4>)
 8002d46:	681b      	ldr	r3, [r3, #0]
 8002d48:	9300      	str	r3, [sp, #0]
 8002d4a:	4b68      	ldr	r3, [pc, #416]	; (8002eec <setReferencePos+0x4d8>)
 8002d4c:	6812      	ldr	r2, [r2, #0]
 8002d4e:	681b      	ldr	r3, [r3, #0]
 8002d50:	4967      	ldr	r1, [pc, #412]	; (8002ef0 <setReferencePos+0x4dc>)
 8002d52:	a804      	add	r0, sp, #16
 8002d54:	f003 fffe 	bl	8006d54 <siprintf>
 8002d58:	2102      	movs	r1, #2
 8002d5a:	4608      	mov	r0, r1
 8002d5c:	aa04      	add	r2, sp, #16
 8002d5e:	f7fe fad4 	bl	800130a <LCD_WriteXY>
 8002d62:	4b64      	ldr	r3, [pc, #400]	; (8002ef4 <setReferencePos+0x4e0>)
 8002d64:	4a64      	ldr	r2, [pc, #400]	; (8002ef8 <setReferencePos+0x4e4>)
 8002d66:	4965      	ldr	r1, [pc, #404]	; (8002efc <setReferencePos+0x4e8>)
 8002d68:	7812      	ldrb	r2, [r2, #0]
 8002d6a:	781b      	ldrb	r3, [r3, #0]
 8002d6c:	a804      	add	r0, sp, #16
 8002d6e:	f003 fff1 	bl	8006d54 <siprintf>
 8002d72:	aa04      	add	r2, sp, #16
 8002d74:	2103      	movs	r1, #3
 8002d76:	2000      	movs	r0, #0
 8002d78:	f7fe fac7 	bl	800130a <LCD_WriteXY>
 8002d7c:	2102      	movs	r1, #2
 8002d7e:	2000      	movs	r0, #0
 8002d80:	f7fe f9c8 	bl	8001114 <checkButton>
 8002d84:	2800      	cmp	r0, #0
 8002d86:	f47f af7d 	bne.w	8002c84 <setReferencePos+0x270>
 8002d8a:	2102      	movs	r1, #2
 8002d8c:	2001      	movs	r0, #1
 8002d8e:	f7fe f9c1 	bl	8001114 <checkButton>
 8002d92:	2800      	cmp	r0, #0
 8002d94:	d0ab      	beq.n	8002cee <setReferencePos+0x2da>
 8002d96:	2406      	movs	r4, #6
 8002d98:	e6f6      	b.n	8002b88 <setReferencePos+0x174>
 8002d9a:	f7fe fa93 	bl	80012c4 <LCD_Clear>
 8002d9e:	4958      	ldr	r1, [pc, #352]	; (8002f00 <setReferencePos+0x4ec>)
 8002da0:	f105 0234 	add.w	r2, r5, #52	; 0x34
 8002da4:	a804      	add	r0, sp, #16
 8002da6:	f003 ffd5 	bl	8006d54 <siprintf>
 8002daa:	2100      	movs	r1, #0
 8002dac:	4608      	mov	r0, r1
 8002dae:	aa04      	add	r2, sp, #16
 8002db0:	f7fe faab 	bl	800130a <LCD_WriteXY>
 8002db4:	4b4b      	ldr	r3, [pc, #300]	; (8002ee4 <setReferencePos+0x4d0>)
 8002db6:	4a4c      	ldr	r2, [pc, #304]	; (8002ee8 <setReferencePos+0x4d4>)
 8002db8:	681b      	ldr	r3, [r3, #0]
 8002dba:	9300      	str	r3, [sp, #0]
 8002dbc:	4b4b      	ldr	r3, [pc, #300]	; (8002eec <setReferencePos+0x4d8>)
 8002dbe:	6812      	ldr	r2, [r2, #0]
 8002dc0:	681b      	ldr	r3, [r3, #0]
 8002dc2:	494b      	ldr	r1, [pc, #300]	; (8002ef0 <setReferencePos+0x4dc>)
 8002dc4:	a804      	add	r0, sp, #16
 8002dc6:	f003 ffc5 	bl	8006d54 <siprintf>
 8002dca:	aa04      	add	r2, sp, #16
 8002dcc:	2101      	movs	r1, #1
 8002dce:	2002      	movs	r0, #2
 8002dd0:	f7fe fa9b 	bl	800130a <LCD_WriteXY>
 8002dd4:	4a4b      	ldr	r2, [pc, #300]	; (8002f04 <setReferencePos+0x4f0>)
 8002dd6:	2102      	movs	r1, #2
 8002dd8:	2000      	movs	r0, #0
 8002dda:	f7fe fa96 	bl	800130a <LCD_WriteXY>
 8002dde:	4b4a      	ldr	r3, [pc, #296]	; (8002f08 <setReferencePos+0x4f4>)
 8002de0:	f895 203e 	ldrb.w	r2, [r5, #62]	; 0x3e
 8002de4:	701a      	strb	r2, [r3, #0]
 8002de6:	2301      	movs	r3, #1
 8002de8:	f885 303e 	strb.w	r3, [r5, #62]	; 0x3e
 8002dec:	2407      	movs	r4, #7
 8002dee:	e6cb      	b.n	8002b88 <setReferencePos+0x174>
 8002df0:	f7fe f9a0 	bl	8001134 <refreshScreen>
 8002df4:	b160      	cbz	r0, 8002e10 <setReferencePos+0x3fc>
 8002df6:	4b3f      	ldr	r3, [pc, #252]	; (8002ef4 <setReferencePos+0x4e0>)
 8002df8:	4a3f      	ldr	r2, [pc, #252]	; (8002ef8 <setReferencePos+0x4e4>)
 8002dfa:	4944      	ldr	r1, [pc, #272]	; (8002f0c <setReferencePos+0x4f8>)
 8002dfc:	7812      	ldrb	r2, [r2, #0]
 8002dfe:	781b      	ldrb	r3, [r3, #0]
 8002e00:	a804      	add	r0, sp, #16
 8002e02:	f003 ffa7 	bl	8006d54 <siprintf>
 8002e06:	aa04      	add	r2, sp, #16
 8002e08:	2103      	movs	r1, #3
 8002e0a:	2000      	movs	r0, #0
 8002e0c:	f7fe fa7d 	bl	800130a <LCD_WriteXY>
 8002e10:	2102      	movs	r1, #2
 8002e12:	2001      	movs	r0, #1
 8002e14:	f7fe f97e 	bl	8001114 <checkButton>
 8002e18:	2800      	cmp	r0, #0
 8002e1a:	d161      	bne.n	8002ee0 <setReferencePos+0x4cc>
 8002e1c:	2102      	movs	r1, #2
 8002e1e:	f7fe f979 	bl	8001114 <checkButton>
 8002e22:	b108      	cbz	r0, 8002e28 <setReferencePos+0x414>
 8002e24:	2409      	movs	r4, #9
 8002e26:	e6af      	b.n	8002b88 <setReferencePos+0x174>
 8002e28:	2102      	movs	r1, #2
 8002e2a:	4608      	mov	r0, r1
 8002e2c:	f7fe f972 	bl	8001114 <checkButton>
 8002e30:	2800      	cmp	r0, #0
 8002e32:	d0db      	beq.n	8002dec <setReferencePos+0x3d8>
 8002e34:	e7f6      	b.n	8002e24 <setReferencePos+0x410>
 8002e36:	4b34      	ldr	r3, [pc, #208]	; (8002f08 <setReferencePos+0x4f4>)
 8002e38:	781b      	ldrb	r3, [r3, #0]
 8002e3a:	f885 303e 	strb.w	r3, [r5, #62]	; 0x3e
 8002e3e:	2400      	movs	r4, #0
 8002e40:	e6a2      	b.n	8002b88 <setReferencePos+0x174>
 8002e42:	f7fe f977 	bl	8001134 <refreshScreen>
 8002e46:	b160      	cbz	r0, 8002e62 <setReferencePos+0x44e>
 8002e48:	4b2a      	ldr	r3, [pc, #168]	; (8002ef4 <setReferencePos+0x4e0>)
 8002e4a:	4a2b      	ldr	r2, [pc, #172]	; (8002ef8 <setReferencePos+0x4e4>)
 8002e4c:	4930      	ldr	r1, [pc, #192]	; (8002f10 <setReferencePos+0x4fc>)
 8002e4e:	7812      	ldrb	r2, [r2, #0]
 8002e50:	781b      	ldrb	r3, [r3, #0]
 8002e52:	a804      	add	r0, sp, #16
 8002e54:	f003 ff7e 	bl	8006d54 <siprintf>
 8002e58:	aa04      	add	r2, sp, #16
 8002e5a:	2103      	movs	r1, #3
 8002e5c:	2000      	movs	r0, #0
 8002e5e:	f7fe fa54 	bl	800130a <LCD_WriteXY>
 8002e62:	2102      	movs	r1, #2
 8002e64:	2000      	movs	r0, #0
 8002e66:	f7fe f955 	bl	8001114 <checkButton>
 8002e6a:	2800      	cmp	r0, #0
 8002e6c:	d1be      	bne.n	8002dec <setReferencePos+0x3d8>
 8002e6e:	2102      	movs	r1, #2
 8002e70:	4608      	mov	r0, r1
 8002e72:	f7fe f94f 	bl	8001114 <checkButton>
 8002e76:	2800      	cmp	r0, #0
 8002e78:	d1b8      	bne.n	8002dec <setReferencePos+0x3d8>
 8002e7a:	2102      	movs	r1, #2
 8002e7c:	2001      	movs	r0, #1
 8002e7e:	f7fe f949 	bl	8001114 <checkButton>
 8002e82:	2800      	cmp	r0, #0
 8002e84:	d0ce      	beq.n	8002e24 <setReferencePos+0x410>
 8002e86:	240a      	movs	r4, #10
 8002e88:	e67e      	b.n	8002b88 <setReferencePos+0x174>
 8002e8a:	4b18      	ldr	r3, [pc, #96]	; (8002eec <setReferencePos+0x4d8>)
 8002e8c:	4a15      	ldr	r2, [pc, #84]	; (8002ee4 <setReferencePos+0x4d0>)
 8002e8e:	681b      	ldr	r3, [r3, #0]
 8002e90:	6812      	ldr	r2, [r2, #0]
 8002e92:	ed95 7a0b 	vldr	s14, [r5, #44]	; 0x2c
 8002e96:	213c      	movs	r1, #60	; 0x3c
 8002e98:	fb01 2203 	mla	r2, r1, r3, r2
 8002e9c:	4b12      	ldr	r3, [pc, #72]	; (8002ee8 <setReferencePos+0x4d4>)
 8002e9e:	681b      	ldr	r3, [r3, #0]
 8002ea0:	f44f 6161 	mov.w	r1, #3600	; 0xe10
 8002ea4:	fb01 2303 	mla	r3, r1, r3, r2
 8002ea8:	ee07 3a90 	vmov	s15, r3
 8002eac:	eef8 7ae7 	vcvt.f32.s32	s15, s15
 8002eb0:	eec7 7a87 	vdiv.f32	s15, s15, s14
 8002eb4:	ee17 0a90 	vmov	r0, s15
 8002eb8:	f7fd fb46 	bl	8000548 <__aeabi_f2d>
 8002ebc:	ec41 0b10 	vmov	d0, r0, r1
 8002ec0:	f006 f97a 	bl	80091b8 <ceil>
 8002ec4:	ec51 0b10 	vmov	r0, r1, d0
 8002ec8:	f7fd fe6e 	bl	8000ba8 <__aeabi_d2uiz>
 8002ecc:	2302      	movs	r3, #2
 8002ece:	6028      	str	r0, [r5, #0]
 8002ed0:	f885 303e 	strb.w	r3, [r5, #62]	; 0x3e
 8002ed4:	4628      	mov	r0, r5
 8002ed6:	f001 f987 	bl	80041e8 <updatePosition>
 8002eda:	f04f 34ff 	mov.w	r4, #4294967295	; 0xffffffff
 8002ede:	e653      	b.n	8002b88 <setReferencePos+0x174>
 8002ee0:	2408      	movs	r4, #8
 8002ee2:	e651      	b.n	8002b88 <setReferencePos+0x174>
 8002ee4:	200006b8 	.word	0x200006b8
 8002ee8:	2000064c 	.word	0x2000064c
 8002eec:	200006a4 	.word	0x200006a4
 8002ef0:	080096ae 	.word	0x080096ae
 8002ef4:	200006e6 	.word	0x200006e6
 8002ef8:	200006e5 	.word	0x200006e5
 8002efc:	080096d9 	.word	0x080096d9
 8002f00:	08009771 	.word	0x08009771
 8002f04:	0800977d 	.word	0x0800977d
 8002f08:	200006bc 	.word	0x200006bc
 8002f0c:	0800978b 	.word	0x0800978b
 8002f10:	080097a2 	.word	0x080097a2

08002f14 <setElevationRefPos>:
 8002f14:	4601      	mov	r1, r0
 8002f16:	4801      	ldr	r0, [pc, #4]	; (8002f1c <setElevationRefPos+0x8>)
 8002f18:	f7ff bd7c 	b.w	8002a14 <setReferencePos>
 8002f1c:	20000398 	.word	0x20000398

08002f20 <setAzimuthRefPos>:
 8002f20:	4601      	mov	r1, r0
 8002f22:	4801      	ldr	r0, [pc, #4]	; (8002f28 <setAzimuthRefPos+0x8>)
 8002f24:	f7ff bd76 	b.w	8002a14 <setReferencePos>
 8002f28:	20000354 	.word	0x20000354

08002f2c <slider>:
 8002f2c:	b570      	push	{r4, r5, r6, lr}
 8002f2e:	1a52      	subs	r2, r2, r1
 8002f30:	4604      	mov	r4, r0
 8002f32:	ea82 70e2 	eor.w	r0, r2, r2, asr #31
 8002f36:	b08a      	sub	sp, #40	; 0x28
 8002f38:	eba0 70e2 	sub.w	r0, r0, r2, asr #31
 8002f3c:	460d      	mov	r5, r1
 8002f3e:	f7fd faf1 	bl	8000524 <__aeabi_i2d>
 8002f42:	4602      	mov	r2, r0
 8002f44:	460b      	mov	r3, r1
 8002f46:	2000      	movs	r0, #0
 8002f48:	4926      	ldr	r1, [pc, #152]	; (8002fe4 <slider+0xb8>)
 8002f4a:	f7fd fc7f 	bl	800084c <__aeabi_ddiv>
 8002f4e:	f7fd fe4b 	bl	8000be8 <__aeabi_d2f>
 8002f52:	1b64      	subs	r4, r4, r5
 8002f54:	ee07 4a90 	vmov	s15, r4
 8002f58:	ee07 0a10 	vmov	s14, r0
 8002f5c:	eef8 7ae7 	vcvt.f32.s32	s15, s15
 8002f60:	22fa      	movs	r2, #250	; 0xfa
 8002f62:	ee67 7a27 	vmul.f32	s15, s14, s15
 8002f66:	a802      	add	r0, sp, #8
 8002f68:	eefc 7ae7 	vcvt.u32.f32	s15, s15
 8002f6c:	f88d 2008 	strb.w	r2, [sp, #8]
 8002f70:	edcd 7a01 	vstr	s15, [sp, #4]
 8002f74:	2400      	movs	r4, #0
 8002f76:	4602      	mov	r2, r0
 8002f78:	26d0      	movs	r6, #208	; 0xd0
 8002f7a:	f89d 3004 	ldrb.w	r3, [sp, #4]
 8002f7e:	2105      	movs	r1, #5
 8002f80:	fbb3 f1f1 	udiv	r1, r3, r1
 8002f84:	b2e5      	uxtb	r5, r4
 8002f86:	42a9      	cmp	r1, r5
 8002f88:	f100 0001 	add.w	r0, r0, #1
 8002f8c:	d821      	bhi.n	8002fd2 <slider+0xa6>
 8002f8e:	2405      	movs	r4, #5
 8002f90:	fbb3 f4f4 	udiv	r4, r3, r4
 8002f94:	eb04 0484 	add.w	r4, r4, r4, lsl #2
 8002f98:	3101      	adds	r1, #1
 8002f9a:	1b1b      	subs	r3, r3, r4
 8002f9c:	ac0a      	add	r4, sp, #40	; 0x28
 8002f9e:	f013 03ff 	ands.w	r3, r3, #255	; 0xff
 8002fa2:	b2c8      	uxtb	r0, r1
 8002fa4:	4421      	add	r1, r4
 8002fa6:	bf0c      	ite	eq
 8002fa8:	2320      	moveq	r3, #32
 8002faa:	f1c3 03d5 	rsbne	r3, r3, #213	; 0xd5
 8002fae:	f801 3c20 	strb.w	r3, [r1, #-32]
 8002fb2:	1c43      	adds	r3, r0, #1
 8002fb4:	4413      	add	r3, r2
 8002fb6:	2120      	movs	r1, #32
 8002fb8:	2811      	cmp	r0, #17
 8002fba:	d90d      	bls.n	8002fd8 <slider+0xac>
 8002fbc:	23fc      	movs	r3, #252	; 0xfc
 8002fbe:	2000      	movs	r0, #0
 8002fc0:	2102      	movs	r1, #2
 8002fc2:	f88d 301b 	strb.w	r3, [sp, #27]
 8002fc6:	f88d 001c 	strb.w	r0, [sp, #28]
 8002fca:	f7fe f99e 	bl	800130a <LCD_WriteXY>
 8002fce:	b00a      	add	sp, #40	; 0x28
 8002fd0:	bd70      	pop	{r4, r5, r6, pc}
 8002fd2:	7006      	strb	r6, [r0, #0]
 8002fd4:	3401      	adds	r4, #1
 8002fd6:	e7d5      	b.n	8002f84 <slider+0x58>
 8002fd8:	3001      	adds	r0, #1
 8002fda:	f803 1b01 	strb.w	r1, [r3], #1
 8002fde:	b2c0      	uxtb	r0, r0
 8002fe0:	e7ea      	b.n	8002fb8 <slider+0x8c>
 8002fe2:	bf00      	nop
 8002fe4:	40568000 	.word	0x40568000

08002fe8 <selftest>:
 8002fe8:	b5f0      	push	{r4, r5, r6, r7, lr}
 8002fea:	2104      	movs	r1, #4
 8002fec:	b08b      	sub	sp, #44	; 0x2c
 8002fee:	4604      	mov	r4, r0
 8002ff0:	2001      	movs	r0, #1
 8002ff2:	f7fe f88f 	bl	8001114 <checkButton>
 8002ff6:	2800      	cmp	r0, #0
 8002ff8:	f040 83df 	bne.w	80037ba <selftest+0x7d2>
 8002ffc:	2c18      	cmp	r4, #24
 8002ffe:	dc1e      	bgt.n	800303e <selftest+0x56>
 8003000:	2c00      	cmp	r4, #0
 8003002:	db1f      	blt.n	8003044 <selftest+0x5c>
 8003004:	1e63      	subs	r3, r4, #1
 8003006:	2b17      	cmp	r3, #23
 8003008:	d81f      	bhi.n	800304a <selftest+0x62>
 800300a:	e8df f013 	tbh	[pc, r3, lsl #1]
 800300e:	003d      	.short	0x003d
 8003010:	00910056 	.word	0x00910056
 8003014:	00c600a9 	.word	0x00c600a9
 8003018:	0155013a 	.word	0x0155013a
 800301c:	01d001ad 	.word	0x01d001ad
 8003020:	020401fc 	.word	0x020401fc
 8003024:	0243021f 	.word	0x0243021f
 8003028:	02930266 	.word	0x02930266
 800302c:	02bb029b 	.word	0x02bb029b
 8003030:	031502e5 	.word	0x031502e5
 8003034:	0365035d 	.word	0x0365035d
 8003038:	03ab03a3 	.word	0x03ab03a3
 800303c:	03c7      	.short	0x03c7
 800303e:	2c64      	cmp	r4, #100	; 0x64
 8003040:	f000 83bb 	beq.w	80037ba <selftest+0x7d2>
 8003044:	4620      	mov	r0, r4
 8003046:	b00b      	add	sp, #44	; 0x2c
 8003048:	bdf0      	pop	{r4, r5, r6, r7, pc}
 800304a:	4baf      	ldr	r3, [pc, #700]	; (8003308 <selftest+0x320>)
 800304c:	edd3 7a07 	vldr	s15, [r3, #28]
 8003050:	eef5 7a40 	vcmp.f32	s15, #0.0
 8003054:	eef1 fa10 	vmrs	APSR_nzcv, fpscr
 8003058:	d108      	bne.n	800306c <selftest+0x84>
 800305a:	4bac      	ldr	r3, [pc, #688]	; (800330c <selftest+0x324>)
 800305c:	edd3 7a07 	vldr	s15, [r3, #28]
 8003060:	eef5 7a40 	vcmp.f32	s15, #0.0
 8003064:	eef1 fa10 	vmrs	APSR_nzcv, fpscr
 8003068:	f000 83ba 	beq.w	80037e0 <selftest+0x7f8>
 800306c:	f7fe f92a 	bl	80012c4 <LCD_Clear>
 8003070:	2100      	movs	r1, #0
 8003072:	4608      	mov	r0, r1
 8003074:	4aa6      	ldr	r2, [pc, #664]	; (8003310 <selftest+0x328>)
 8003076:	f7fe f948 	bl	800130a <LCD_WriteXY>
 800307a:	4aa6      	ldr	r2, [pc, #664]	; (8003314 <selftest+0x32c>)
 800307c:	2101      	movs	r1, #1
 800307e:	2000      	movs	r0, #0
 8003080:	f7fe f943 	bl	800130a <LCD_WriteXY>
 8003084:	2401      	movs	r4, #1
 8003086:	e7dd      	b.n	8003044 <selftest+0x5c>
 8003088:	2102      	movs	r1, #2
 800308a:	2000      	movs	r0, #0
 800308c:	f7fe f842 	bl	8001114 <checkButton>
 8003090:	2800      	cmp	r0, #0
 8003092:	bf18      	it	ne
 8003094:	2402      	movne	r4, #2
 8003096:	f7fe f84d 	bl	8001134 <refreshScreen>
 800309a:	2800      	cmp	r0, #0
 800309c:	d0d2      	beq.n	8003044 <selftest+0x5c>
 800309e:	4b9e      	ldr	r3, [pc, #632]	; (8003318 <selftest+0x330>)
 80030a0:	4a9e      	ldr	r2, [pc, #632]	; (800331c <selftest+0x334>)
 80030a2:	499f      	ldr	r1, [pc, #636]	; (8003320 <selftest+0x338>)
 80030a4:	7812      	ldrb	r2, [r2, #0]
 80030a6:	781b      	ldrb	r3, [r3, #0]
 80030a8:	a802      	add	r0, sp, #8
 80030aa:	f003 fe53 	bl	8006d54 <siprintf>
 80030ae:	aa02      	add	r2, sp, #8
 80030b0:	2103      	movs	r1, #3
 80030b2:	2000      	movs	r0, #0
 80030b4:	f7fe f929 	bl	800130a <LCD_WriteXY>
 80030b8:	e7c4      	b.n	8003044 <selftest+0x5c>
 80030ba:	4b9a      	ldr	r3, [pc, #616]	; (8003324 <selftest+0x33c>)
 80030bc:	4d93      	ldr	r5, [pc, #588]	; (800330c <selftest+0x324>)
 80030be:	4e92      	ldr	r6, [pc, #584]	; (8003308 <selftest+0x320>)
 80030c0:	2203      	movs	r2, #3
 80030c2:	731a      	strb	r2, [r3, #12]
 80030c4:	4a98      	ldr	r2, [pc, #608]	; (8003328 <selftest+0x340>)
 80030c6:	2300      	movs	r3, #0
 80030c8:	7013      	strb	r3, [r2, #0]
 80030ca:	2208      	movs	r2, #8
 80030cc:	18e9      	adds	r1, r5, r3
 80030ce:	f881 2024 	strb.w	r2, [r1, #36]	; 0x24
 80030d2:	18f1      	adds	r1, r6, r3
 80030d4:	3301      	adds	r3, #1
 80030d6:	2b08      	cmp	r3, #8
 80030d8:	f881 2024 	strb.w	r2, [r1, #36]	; 0x24
 80030dc:	d1f6      	bne.n	80030cc <selftest+0xe4>
 80030de:	498a      	ldr	r1, [pc, #552]	; (8003308 <selftest+0x320>)
 80030e0:	4892      	ldr	r0, [pc, #584]	; (800332c <selftest+0x344>)
 80030e2:	2244      	movs	r2, #68	; 0x44
 80030e4:	f003 f9b6 	bl	8006454 <memcpy>
 80030e8:	2244      	movs	r2, #68	; 0x44
 80030ea:	4988      	ldr	r1, [pc, #544]	; (800330c <selftest+0x324>)
 80030ec:	4890      	ldr	r0, [pc, #576]	; (8003330 <selftest+0x348>)
 80030ee:	f003 f9b1 	bl	8006454 <memcpy>
 80030f2:	2400      	movs	r4, #0
 80030f4:	2001      	movs	r0, #1
 80030f6:	6034      	str	r4, [r6, #0]
 80030f8:	602c      	str	r4, [r5, #0]
 80030fa:	f001 f94b 	bl	8004394 <setupTestPorts>
 80030fe:	4620      	mov	r0, r4
 8003100:	2101      	movs	r1, #1
 8003102:	f000 ffe7 	bl	80040d4 <counterControl>
 8003106:	2101      	movs	r1, #1
 8003108:	4608      	mov	r0, r1
 800310a:	f000 ffe3 	bl	80040d4 <counterControl>
 800310e:	4b89      	ldr	r3, [pc, #548]	; (8003334 <selftest+0x34c>)
 8003110:	22ff      	movs	r2, #255	; 0xff
 8003112:	701a      	strb	r2, [r3, #0]
 8003114:	f7fe f8d6 	bl	80012c4 <LCD_Clear>
 8003118:	4621      	mov	r1, r4
 800311a:	4620      	mov	r0, r4
 800311c:	4a86      	ldr	r2, [pc, #536]	; (8003338 <selftest+0x350>)
 800311e:	f7fe f8f4 	bl	800130a <LCD_WriteXY>
 8003122:	4620      	mov	r0, r4
 8003124:	4a85      	ldr	r2, [pc, #532]	; (800333c <selftest+0x354>)
 8003126:	2101      	movs	r1, #1
 8003128:	f7fe f8ef 	bl	800130a <LCD_WriteXY>
 800312c:	2403      	movs	r4, #3
 800312e:	e789      	b.n	8003044 <selftest+0x5c>
 8003130:	2102      	movs	r1, #2
 8003132:	4608      	mov	r0, r1
 8003134:	f7fd ffee 	bl	8001114 <checkButton>
 8003138:	2800      	cmp	r0, #0
 800313a:	bf18      	it	ne
 800313c:	2404      	movne	r4, #4
 800313e:	f7fd fff9 	bl	8001134 <refreshScreen>
 8003142:	2800      	cmp	r0, #0
 8003144:	f43f af7e 	beq.w	8003044 <selftest+0x5c>
 8003148:	4b73      	ldr	r3, [pc, #460]	; (8003318 <selftest+0x330>)
 800314a:	4a74      	ldr	r2, [pc, #464]	; (800331c <selftest+0x334>)
 800314c:	781b      	ldrb	r3, [r3, #0]
 800314e:	7812      	ldrb	r2, [r2, #0]
 8003150:	497b      	ldr	r1, [pc, #492]	; (8003340 <selftest+0x358>)
 8003152:	a802      	add	r0, sp, #8
 8003154:	f003 fdfe 	bl	8006d54 <siprintf>
 8003158:	aa02      	add	r2, sp, #8
 800315a:	2103      	movs	r1, #3
 800315c:	200c      	movs	r0, #12
 800315e:	e7a9      	b.n	80030b4 <selftest+0xcc>
 8003160:	4a74      	ldr	r2, [pc, #464]	; (8003334 <selftest+0x34c>)
 8003162:	4c6a      	ldr	r4, [pc, #424]	; (800330c <selftest+0x324>)
 8003164:	4868      	ldr	r0, [pc, #416]	; (8003308 <selftest+0x320>)
 8003166:	2300      	movs	r3, #0
 8003168:	7013      	strb	r3, [r2, #0]
 800316a:	4a76      	ldr	r2, [pc, #472]	; (8003344 <selftest+0x35c>)
 800316c:	6013      	str	r3, [r2, #0]
 800316e:	220b      	movs	r2, #11
 8003170:	18e1      	adds	r1, r4, r3
 8003172:	f881 2024 	strb.w	r2, [r1, #36]	; 0x24
 8003176:	18c1      	adds	r1, r0, r3
 8003178:	3301      	adds	r3, #1
 800317a:	2b08      	cmp	r3, #8
 800317c:	f881 2024 	strb.w	r2, [r1, #36]	; 0x24
 8003180:	d1f6      	bne.n	8003170 <selftest+0x188>
 8003182:	f7fe f89f 	bl	80012c4 <LCD_Clear>
 8003186:	2100      	movs	r1, #0
 8003188:	4a6f      	ldr	r2, [pc, #444]	; (8003348 <selftest+0x360>)
 800318a:	4608      	mov	r0, r1
 800318c:	f7fe f8bd 	bl	800130a <LCD_WriteXY>
 8003190:	4b6e      	ldr	r3, [pc, #440]	; (800334c <selftest+0x364>)
 8003192:	2200      	movs	r2, #0
 8003194:	701a      	strb	r2, [r3, #0]
 8003196:	2406      	movs	r4, #6
 8003198:	e754      	b.n	8003044 <selftest+0x5c>
 800319a:	4e6a      	ldr	r6, [pc, #424]	; (8003344 <selftest+0x35c>)
 800319c:	4d6b      	ldr	r5, [pc, #428]	; (800334c <selftest+0x364>)
 800319e:	6833      	ldr	r3, [r6, #0]
 80031a0:	2b59      	cmp	r3, #89	; 0x59
 80031a2:	dd02      	ble.n	80031aa <selftest+0x1c2>
 80031a4:	782b      	ldrb	r3, [r5, #0]
 80031a6:	2b0f      	cmp	r3, #15
 80031a8:	d053      	beq.n	8003252 <selftest+0x26a>
 80031aa:	2314      	movs	r3, #20
 80031ac:	2264      	movs	r2, #100	; 0x64
 80031ae:	4865      	ldr	r0, [pc, #404]	; (8003344 <selftest+0x35c>)
 80031b0:	9300      	str	r3, [sp, #0]
 80031b2:	2100      	movs	r1, #0
 80031b4:	2301      	movs	r3, #1
 80031b6:	f7fe ffc7 	bl	8002148 <rotaryInput>
 80031ba:	2102      	movs	r1, #2
 80031bc:	2000      	movs	r0, #0
 80031be:	f7fd ffa9 	bl	8001114 <checkButton>
 80031c2:	782b      	ldrb	r3, [r5, #0]
 80031c4:	4058      	eors	r0, r3
 80031c6:	7028      	strb	r0, [r5, #0]
 80031c8:	2102      	movs	r1, #2
 80031ca:	2001      	movs	r0, #1
 80031cc:	f7fd ffa2 	bl	8001114 <checkButton>
 80031d0:	782b      	ldrb	r3, [r5, #0]
 80031d2:	2102      	movs	r1, #2
 80031d4:	ea83 0040 	eor.w	r0, r3, r0, lsl #1
 80031d8:	7028      	strb	r0, [r5, #0]
 80031da:	4608      	mov	r0, r1
 80031dc:	f7fd ff9a 	bl	8001114 <checkButton>
 80031e0:	782b      	ldrb	r3, [r5, #0]
 80031e2:	ea83 0080 	eor.w	r0, r3, r0, lsl #2
 80031e6:	7028      	strb	r0, [r5, #0]
 80031e8:	2102      	movs	r1, #2
 80031ea:	2003      	movs	r0, #3
 80031ec:	f7fd ff92 	bl	8001114 <checkButton>
 80031f0:	782b      	ldrb	r3, [r5, #0]
 80031f2:	ea83 00c0 	eor.w	r0, r3, r0, lsl #3
 80031f6:	7028      	strb	r0, [r5, #0]
 80031f8:	f7fd ff9c 	bl	8001134 <refreshScreen>
 80031fc:	2800      	cmp	r0, #0
 80031fe:	f43f af21 	beq.w	8003044 <selftest+0x5c>
 8003202:	f9b6 0000 	ldrsh.w	r0, [r6]
 8003206:	225a      	movs	r2, #90	; 0x5a
 8003208:	2100      	movs	r1, #0
 800320a:	f7ff fe8f 	bl	8002f2c <slider>
 800320e:	7829      	ldrb	r1, [r5, #0]
 8003210:	f011 0f01 	tst.w	r1, #1
 8003214:	bf14      	ite	ne
 8003216:	223c      	movne	r2, #60	; 0x3c
 8003218:	2220      	moveq	r2, #32
 800321a:	f011 0f02 	tst.w	r1, #2
 800321e:	bf14      	ite	ne
 8003220:	231c      	movne	r3, #28
 8003222:	2320      	moveq	r3, #32
 8003224:	f011 0f04 	tst.w	r1, #4
 8003228:	bf14      	ite	ne
 800322a:	203e      	movne	r0, #62	; 0x3e
 800322c:	2020      	moveq	r0, #32
 800322e:	f011 0f08 	tst.w	r1, #8
 8003232:	bf14      	ite	ne
 8003234:	21bb      	movne	r1, #187	; 0xbb
 8003236:	2120      	moveq	r1, #32
 8003238:	e9cd 0100 	strd	r0, r1, [sp]
 800323c:	4944      	ldr	r1, [pc, #272]	; (8003350 <selftest+0x368>)
 800323e:	a802      	add	r0, sp, #8
 8003240:	f003 fd88 	bl	8006d54 <siprintf>
 8003244:	aa02      	add	r2, sp, #8
 8003246:	2101      	movs	r1, #1
 8003248:	2000      	movs	r0, #0
 800324a:	f7fe f85e 	bl	800130a <LCD_WriteXY>
 800324e:	4a41      	ldr	r2, [pc, #260]	; (8003354 <selftest+0x36c>)
 8003250:	e783      	b.n	800315a <selftest+0x172>
 8003252:	f7fd ff6f 	bl	8001134 <refreshScreen>
 8003256:	b160      	cbz	r0, 8003272 <selftest+0x28a>
 8003258:	4b2f      	ldr	r3, [pc, #188]	; (8003318 <selftest+0x330>)
 800325a:	4a30      	ldr	r2, [pc, #192]	; (800331c <selftest+0x334>)
 800325c:	4938      	ldr	r1, [pc, #224]	; (8003340 <selftest+0x358>)
 800325e:	7812      	ldrb	r2, [r2, #0]
 8003260:	781b      	ldrb	r3, [r3, #0]
 8003262:	a802      	add	r0, sp, #8
 8003264:	f003 fd76 	bl	8006d54 <siprintf>
 8003268:	aa02      	add	r2, sp, #8
 800326a:	2103      	movs	r1, #3
 800326c:	200c      	movs	r0, #12
 800326e:	f7fe f84c 	bl	800130a <LCD_WriteXY>
 8003272:	2102      	movs	r1, #2
